{
  "abi": [
    {
      "type": "function",
      "name": "setUp",
      "inputs": [],
      "outputs": [],
      "stateMutability": "nonpayable"
    },
    {
      "type": "function",
      "name": "test_pass",
      "inputs": [],
      "outputs": [],
      "stateMutability": "pure"
    }
  ],
  "bytecode": {
    "object": "0x6080604052348015600e575f80fd5b50606c80601a5f395ff3fe6080604052348015600e575f80fd5b50600436106030575f3560e01c80630a9254e41460345780638ab68152146034575b5f80fd5b00fea26469706673582212205216d051bbfc7b3649acfa604bd0aacbf1c95dc6f01e705243fe38cf5de546a764736f6c63430008140033",
    "linkReferences": {}
  },
  "methodIdentifiers": {
    "setUp()": "0a9254e4",
    "test_pass()": "8ab68152"
  },
  "id": 267
}