{
  "abi": [
    {
      "type": "constructor",
      "inputs": [],
      "stateMutability": "nonpayable"
    },
    {
      "type": "function",
      "name": "eip712Domain",
      "inputs": [],
      "outputs": [
        {
          "name": "fields",
          "type": "bytes1",
          "internalType": "bytes1"
        },
        {
          "name": "name",
          "type": "string",
          "internalType": "string"
        },
        {
          "name": "version",
          "type": "string",
          "internalType": "string"
        },
        {
          "name": "chainId",
          "type": "uint256",
          "internalType": "uint256"
        },
        {
          "name": "verifyingContract",
          "type": "address",
          "internalType": "address"
        },
        {
          "name": "salt",
          "type": "bytes32",
          "internalType": "bytes32"
        },
        {
          "name": "extensions",
          "type": "uint256[]",
          "internalType": "uint256[]"
        }
      ],
      "stateMutability": "view"
    },
    {
      "type": "function",
      "name": "execute",
      "inputs": [
        {
          "name": "req",
          "type": "tuple",
          "internalType": "struct MinimalForwarder.ForwardRequest",
          "components": [
            {
              "name": "from",
              "type": "address",
              "internalType": "address"
            },
            {
              "name": "to",
              "type": "address",
              "internalType": "address"
            },
            {
              "name": "value",
              "type": "uint256",
              "internalType": "uint256"
            },
            {
              "name": "gas",
              "type": "uint256",
              "internalType": "uint256"
            },
            {
              "name": "nonce",
              "type": "uint256",
              "internalType": "uint256"
            },
            {
              "name": "data",
              "type": "bytes",
              "internalType": "bytes"
            }
          ]
        },
        {
          "name": "signature",
          "type": "bytes",
          "internalType": "bytes"
        }
      ],
      "outputs": [
        {
          "name": "",
          "type": "bool",
          "internalType": "bool"
        },
        {
          "name": "",
          "type": "bytes",
          "internalType": "bytes"
        }
      ],
      "stateMutability": "payable"
    },
    {
      "type": "function",
      "name": "getNonce",
      "inputs": [
        {
          "name": "from",
          "type": "address",
          "internalType": "address"
        }
      ],
      "outputs": [
        {
          "name": "",
          "type": "uint256",
          "internalType": "uint256"
        }
      ],
      "stateMutability": "view"
    },
    {
      "type": "function",
      "name": "verify",
      "inputs": [
        {
          "name": "req",
          "type": "tuple",
          "internalType": "struct MinimalForwarder.ForwardRequest",
          "components": [
            {
              "name": "from",
              "type": "address",
              "internalType": "address"
            },
            {
              "name": "to",
              "type": "address",
              "internalType": "address"
            },
            {
              "name": "value",
              "type": "uint256",
              "internalType": "uint256"
            },
            {
              "name": "gas",
              "type": "uint256",
              "internalType": "uint256"
            },
            {
              "name": "nonce",
              "type": "uint256",
              "internalType": "uint256"
            },
            {
              "name": "data",
              "type": "bytes",
              "internalType": "bytes"
            }
          ]
        },
        {
          "name": "signature",
          "type": "bytes",
          "internalType": "bytes"
        }
      ],
      "outputs": [
        {
          "name": "",
          "type": "bool",
          "internalType": "bool"
        }
      ],
      "stateMutability": "view"
    },
    {
      "type": "event",
      "name": "EIP712DomainChanged",
      "inputs": [],
      "anonymous": false
    },
    {
      "type": "error",
      "name": "InvalidShortString",
      "inputs": []
    },
    {
      "type": "error",
      "name": "StringTooLong",
      "inputs": [
        {
          "name": "str",
          "type": "string",
          "internalType": "string"
        }
      ]
    }
  ],
  "bytecode": {
    "object": "0x61016060405234801562000011575f80fd5b50604080518082018252601081526f26b4b734b6b0b62337b93bb0b93232b960811b60208083019190915282518084019093526005835264302e302e3160d81b908301529062000062825f6200010f565b61012052620000738160016200010f565b61014052815160208084019190912060e052815190820120610100524660a0526200010060e05161010051604080517f8b73c3c69bb8fe3d512ecc4cf759cc79239f7b179b0ffacaa9a75d522b39400f60208201529081019290925260608201524660808201523060a08201525f9060c00160405160208183030381529060405280519060200120905090565b60805250503060c0526200036b565b5f6020835110156200012e57620001268362000147565b905062000141565b816200013b848262000232565b5060ff90505b92915050565b5f80829050601f815111156200017d578260405163305a27a960e01b8152600401620001749190620002fa565b60405180910390fd5b80516200018a8262000347565b179392505050565b634e487b7160e01b5f52604160045260245ffd5b600181811c90821680620001bb57607f821691505b602082108103620001da57634e487b7160e01b5f52602260045260245ffd5b50919050565b601f8211156200022d575f81815260208120601f850160051c81016020861015620002085750805b601f850160051c820191505b81811015620002295782815560010162000214565b5050505b505050565b81516001600160401b038111156200024e576200024e62000192565b62000266816200025f8454620001a6565b84620001e0565b602080601f8311600181146200029c575f8415620002845750858301515b5f19600386901b1c1916600185901b17855562000229565b5f85815260208120601f198616915b82811015620002cc57888601518255948401946001909101908401620002ab565b5085821015620002ea57878501515f19600388901b60f8161c191681555b5050505050600190811b01905550565b5f6020808352835180828501525f5b81811015620003275785810183015185820160400152820162000309565b505f604082860101526040601f19601f8301168501019250505092915050565b80516020808301519190811015620001da575f1960209190910360031b1b16919050565b60805160a05160c05160e051610100516101205161014051610c83620003bd5f395f6102ca01525f6102a001525f6106a301525f61067b01525f6105d601525f61060001525f61062a0152610c835ff3fe60806040526004361061003e575f3560e01c80632d0335ab1461004257806347153f821461008957806384b0196e146100aa578063bf5d3bdb146100d1575b5f80fd5b34801561004d575f80fd5b5061007661005c36600461096a565b6001600160a01b03165f9081526002602052604090205490565b6040519081526020015b60405180910390f35b61009c610097366004610997565b610100565b604051610080929190610a7a565b3480156100b5575f80fd5b506100be610293565b6040516100809796959493929190610a9c565b3480156100dc575f80fd5b506100f06100eb366004610997565b610319565b6040519015158152602001610080565b5f606061010e858585610319565b61017a5760405162461bcd60e51b815260206004820152603260248201527f4d696e696d616c466f727761726465723a207369676e617475726520646f6573604482015271081b9bdd081b585d18da081c995c5d595cdd60721b60648201526084015b60405180910390fd5b61018960808601356001610b30565b60025f610199602089018961096a565b6001600160a01b03166001600160a01b031681526020019081526020015f20819055505f808660200160208101906101d1919061096a565b6001600160a01b0316606088013560408901356101f160a08b018b610b4f565b6101fe60208d018d61096a565b60405160200161021093929190610b92565b60408051601f198184030181529082905261022a91610bb8565b5f60405180830381858888f193505050503d805f8114610265576040519150601f19603f3d011682016040523d82523d5f602084013e61026a565b606091505b50909250905061027f603f6060890135610bd3565b5a1161028757fe5b90969095509350505050565b5f606080828080836102c57f000000000000000000000000000000000000000000000000000000000000000083610494565b6102f07f00000000000000000000000000000000000000000000000000000000000000006001610494565b604080515f80825260208201909252600f60f81b9b939a50919850469750309650945092509050565b5f8061042a84848080601f0160208091040260200160405190810160405280939291908181526020018383808284375f9201919091525061042492507fdd8f4b70b0f4393e889bd39128a30628a78b61816a9eb8199759e7a349657e489150610387905060208a018a61096a565b61039760408b0160208c0161096a565b60408b013560608c013560808d01356103b360a08f018f610b4f565b6040516103c1929190610bf2565b6040805191829003822060208301989098526001600160a01b0396871690820152949093166060850152608084019190915260a083015260c082015260e0810191909152610100016040516020818303038152906040528051906020012061053f565b9061056b565b9050608085013560025f610441602089018961096a565b6001600160a01b03166001600160a01b031681526020019081526020015f205414801561048b5750610476602086018661096a565b6001600160a01b0316816001600160a01b0316145b95945050505050565b606060ff83146104ae576104a78361058d565b9050610539565b8180546104ba90610c01565b80601f01602080910402602001604051908101604052809291908181526020018280546104e690610c01565b80156105315780601f1061050857610100808354040283529160200191610531565b820191905f5260205f20905b81548152906001019060200180831161051457829003601f168201915b505050505090505b92915050565b5f61053961054b6105ca565b8360405161190160f01b8152600281019290925260228201526042902090565b5f805f61057885856106f8565b915091506105858161073a565b509392505050565b60605f61059983610886565b6040805160208082528183019092529192505f91906020820181803683375050509182525060208101929092525090565b5f306001600160a01b037f00000000000000000000000000000000000000000000000000000000000000001614801561062257507f000000000000000000000000000000000000000000000000000000000000000046145b1561064c57507f000000000000000000000000000000000000000000000000000000000000000090565b6106f3604080517f8b73c3c69bb8fe3d512ecc4cf759cc79239f7b179b0ffacaa9a75d522b39400f60208201527f0000000000000000000000000000000000000000000000000000000000000000918101919091527f000000000000000000000000000000000000000000000000000000000000000060608201524660808201523060a08201525f9060c00160405160208183030381529060405280519060200120905090565b905090565b5f80825160410361072c576020830151604084015160608501515f1a610720878285856108ad565b94509450505050610733565b505f905060025b9250929050565b5f81600481111561074d5761074d610c39565b036107555750565b600181600481111561076957610769610c39565b036107b65760405162461bcd60e51b815260206004820152601860248201527f45434453413a20696e76616c6964207369676e617475726500000000000000006044820152606401610171565b60028160048111156107ca576107ca610c39565b036108175760405162461bcd60e51b815260206004820152601f60248201527f45434453413a20696e76616c6964207369676e6174757265206c656e677468006044820152606401610171565b600381600481111561082b5761082b610c39565b036108835760405162461bcd60e51b815260206004820152602260248201527f45434453413a20696e76616c6964207369676e6174757265202773272076616c604482015261756560f01b6064820152608401610171565b50565b5f60ff8216601f81111561053957604051632cd44ac360e21b815260040160405180910390fd5b5f807f7fffffffffffffffffffffffffffffff5d576e7357a4501ddfe92f46681b20a08311156108e257505f90506003610961565b604080515f8082526020820180845289905260ff881692820192909252606081018690526080810185905260019060a0016020604051602081039080840390855afa158015610933573d5f803e3d5ffd5b5050604051601f1901519150506001600160a01b03811661095b575f60019250925050610961565b91505f90505b94509492505050565b5f6020828403121561097a575f80fd5b81356001600160a01b0381168114610990575f80fd5b9392505050565b5f805f604084860312156109a9575f80fd5b833567ffffffffffffffff808211156109c0575f80fd5b9085019060c082880312156109d3575f80fd5b909350602085013590808211156109e8575f80fd5b818601915086601f8301126109fb575f80fd5b813581811115610a09575f80fd5b876020828501011115610a1a575f80fd5b6020830194508093505050509250925092565b5f5b83811015610a47578181015183820152602001610a2f565b50505f910152565b5f8151808452610a66816020860160208601610a2d565b601f01601f19169290920160200192915050565b8215158152604060208201525f610a946040830184610a4f565b949350505050565b60ff60f81b881681525f602060e081840152610abb60e084018a610a4f565b8381036040850152610acd818a610a4f565b606085018990526001600160a01b038816608086015260a0850187905284810360c086015285518082528387019250908301905f5b81811015610b1e57835183529284019291840191600101610b02565b50909c9b505050505050505050505050565b8082018082111561053957634e487b7160e01b5f52601160045260245ffd5b5f808335601e19843603018112610b64575f80fd5b83018035915067ffffffffffffffff821115610b7e575f80fd5b602001915036819003821315610733575f80fd5b8284823760609190911b6bffffffffffffffffffffffff19169101908152601401919050565b5f8251610bc9818460208701610a2d565b9190910192915050565b5f82610bed57634e487b7160e01b5f52601260045260245ffd5b500490565b818382375f9101908152919050565b600181811c90821680610c1557607f821691505b602082108103610c3357634e487b7160e01b5f52602260045260245ffd5b50919050565b634e487b7160e01b5f52602160045260245ffdfea264697066735822122001f7a1f30d412cb3b5edb72e4d45be0ecf23b57a9d102435410639b91be17fe564736f6c63430008140033",
    "linkReferences": {}
  },
  "methodIdentifiers": {
    "eip712Domain()": "84b0196e",
    "execute((address,address,uint256,uint256,uint256,bytes),bytes)": "47153f82",
    "getNonce(address)": "2d0335ab",
    "verify((address,address,uint256,uint256,uint256,bytes),bytes)": "bf5d3bdb"
  },
  "id": 76
}