{
  "abi": [
    {
      "type": "constructor",
      "inputs": [],
      "stateMutability": "nonpayable"
    },
    {
      "type": "function",
      "name": "MAX_SUPPLY",
      "inputs": [],
      "outputs": [
        {
          "name": "",
          "type": "uint256",
          "internalType": "uint256"
        }
      ],
      "stateMutability": "view"
    },
    {
      "type": "function",
      "name": "SHINY_PRICE",
      "inputs": [],
      "outputs": [
        {
          "name": "",
          "type": "uint256",
          "internalType": "uint256"
        }
      ],
      "stateMutability": "view"
    },
    {
      "type": "function",
      "name": "approve",
      "inputs": [
        {
          "name": "to",
          "type": "address",
          "internalType": "address"
        },
        {
          "name": "tokenId",
          "type": "uint256",
          "internalType": "uint256"
        }
      ],
      "outputs": [],
      "stateMutability": "nonpayable"
    },
    {
      "type": "function",
      "name": "balanceOf",
      "inputs": [
        {
          "name": "owner",
          "type": "address",
          "internalType": "address"
        }
      ],
      "outputs": [
        {
          "name": "",
          "type": "uint256",
          "internalType": "uint256"
        }
      ],
      "stateMutability": "view"
    },
    {
      "type": "function",
      "name": "currentSupply",
      "inputs": [],
      "outputs": [
        {
          "name": "",
          "type": "uint256",
          "internalType": "uint256"
        }
      ],
      "stateMutability": "view"
    },
    {
      "type": "function",
      "name": "getAgentMintNumber",
      "inputs": [
        {
          "name": "tokenId",
          "type": "uint256",
          "internalType": "uint256"
        }
      ],
      "outputs": [
        {
          "name": "",
          "type": "uint256",
          "internalType": "uint256"
        }
      ],
      "stateMutability": "view"
    },
    {
      "type": "function",
      "name": "getApproved",
      "inputs": [
        {
          "name": "tokenId",
          "type": "uint256",
          "internalType": "uint256"
        }
      ],
      "outputs": [
        {
          "name": "",
          "type": "address",
          "internalType": "address"
        }
      ],
      "stateMutability": "view"
    },
    {
      "type": "function",
      "name": "getCollectionDetails",
      "inputs": [],
      "outputs": [
        {
          "name": "maxSupply",
          "type": "uint256",
          "internalType": "uint256"
        },
        {
          "name": "supply",
          "type": "uint256",
          "internalType": "uint256"
        },
        {
          "name": "publicOpen",
          "type": "bool",
          "internalType": "bool"
        }
      ],
      "stateMutability": "view"
    },
    {
      "type": "function",
      "name": "hasMinted",
      "inputs": [
        {
          "name": "addr",
          "type": "address",
          "internalType": "address"
        }
      ],
      "outputs": [
        {
          "name": "",
          "type": "bool",
          "internalType": "bool"
        }
      ],
      "stateMutability": "view"
    },
    {
      "type": "function",
      "name": "isApprovedForAll",
      "inputs": [
        {
          "name": "owner",
          "type": "address",
          "internalType": "address"
        },
        {
          "name": "operator",
          "type": "address",
          "internalType": "address"
        }
      ],
      "outputs": [
        {
          "name": "",
          "type": "bool",
          "internalType": "bool"
        }
      ],
      "stateMutability": "view"
    },
    {
      "type": "function",
      "name": "isShiny",
      "inputs": [
        {
          "name": "tokenId",
          "type": "uint256",
          "internalType": "uint256"
        }
      ],
      "outputs": [
        {
          "name": "",
          "type": "bool",
          "internalType": "bool"
        }
      ],
      "stateMutability": "view"
    },
    {
      "type": "function",
      "name": "merkleRoot",
      "inputs": [],
      "outputs": [
        {
          "name": "",
          "type": "bytes32",
          "internalType": "bytes32"
        }
      ],
      "stateMutability": "view"
    },
    {
      "type": "function",
      "name": "mint",
      "inputs": [
        {
          "name": "name",
          "type": "string",
          "internalType": "string"
        },
        {
          "name": "endpoint",
          "type": "string",
          "internalType": "string"
        },
        {
          "name": "capabilitiesHash",
          "type": "bytes32",
          "internalType": "bytes32"
        }
      ],
      "outputs": [
        {
          "name": "",
          "type": "uint256",
          "internalType": "uint256"
        }
      ],
      "stateMutability": "nonpayable"
    },
    {
      "type": "function",
      "name": "mintFor",
      "inputs": [
        {
          "name": "to",
          "type": "address",
          "internalType": "address"
        },
        {
          "name": "name",
          "type": "string",
          "internalType": "string"
        },
        {
          "name": "endpoint",
          "type": "string",
          "internalType": "string"
        },
        {
          "name": "capabilitiesHash",
          "type": "bytes32",
          "internalType": "bytes32"
        },
        {
          "name": "shiny",
          "type": "bool",
          "internalType": "bool"
        }
      ],
      "outputs": [
        {
          "name": "",
          "type": "uint256",
          "internalType": "uint256"
        }
      ],
      "stateMutability": "nonpayable"
    },
    {
      "type": "function",
      "name": "mintShiny",
      "inputs": [
        {
          "name": "name",
          "type": "string",
          "internalType": "string"
        },
        {
          "name": "endpoint",
          "type": "string",
          "internalType": "string"
        },
        {
          "name": "capabilitiesHash",
          "type": "bytes32",
          "internalType": "bytes32"
        }
      ],
      "outputs": [
        {
          "name": "",
          "type": "uint256",
          "internalType": "uint256"
        }
      ],
      "stateMutability": "payable"
    },
    {
      "type": "function",
      "name": "mintWhitelist",
      "inputs": [
        {
          "name": "name",
          "type": "string",
          "internalType": "string"
        },
        {
          "name": "endpoint",
          "type": "string",
          "internalType": "string"
        },
        {
          "name": "capabilitiesHash",
          "type": "bytes32",
          "internalType": "bytes32"
        },
        {
          "name": "proof",
          "type": "bytes32[]",
          "internalType": "bytes32[]"
        }
      ],
      "outputs": [
        {
          "name": "",
          "type": "uint256",
          "internalType": "uint256"
        }
      ],
      "stateMutability": "nonpayable"
    },
    {
      "type": "function",
      "name": "name",
      "inputs": [],
      "outputs": [
        {
          "name": "",
          "type": "string",
          "internalType": "string"
        }
      ],
      "stateMutability": "view"
    },
    {
      "type": "function",
      "name": "owner",
      "inputs": [],
      "outputs": [
        {
          "name": "",
          "type": "address",
          "internalType": "address"
        }
      ],
      "stateMutability": "view"
    },
    {
      "type": "function",
      "name": "ownerOf",
      "inputs": [
        {
          "name": "tokenId",
          "type": "uint256",
          "internalType": "uint256"
        }
      ],
      "outputs": [
        {
          "name": "",
          "type": "address",
          "internalType": "address"
        }
      ],
      "stateMutability": "view"
    },
    {
      "type": "function",
      "name": "publicMintOpen",
      "inputs": [],
      "outputs": [
        {
          "name": "",
          "type": "bool",
          "internalType": "bool"
        }
      ],
      "stateMutability": "view"
    },
    {
      "type": "function",
      "name": "renounceOwnership",
      "inputs": [],
      "outputs": [],
      "stateMutability": "nonpayable"
    },
    {
      "type": "function",
      "name": "safeTransferFrom",
      "inputs": [
        {
          "name": "from",
          "type": "address",
          "internalType": "address"
        },
        {
          "name": "to",
          "type": "address",
          "internalType": "address"
        },
        {
          "name": "tokenId",
          "type": "uint256",
          "internalType": "uint256"
        }
      ],
      "outputs": [],
      "stateMutability": "nonpayable"
    },
    {
      "type": "function",
      "name": "safeTransferFrom",
      "inputs": [
        {
          "name": "from",
          "type": "address",
          "internalType": "address"
        },
        {
          "name": "to",
          "type": "address",
          "internalType": "address"
        },
        {
          "name": "tokenId",
          "type": "uint256",
          "internalType": "uint256"
        },
        {
          "name": "data",
          "type": "bytes",
          "internalType": "bytes"
        }
      ],
      "outputs": [],
      "stateMutability": "nonpayable"
    },
    {
      "type": "function",
      "name": "setApprovalForAll",
      "inputs": [
        {
          "name": "operator",
          "type": "address",
          "internalType": "address"
        },
        {
          "name": "approved",
          "type": "bool",
          "internalType": "bool"
        }
      ],
      "outputs": [],
      "stateMutability": "nonpayable"
    },
    {
      "type": "function",
      "name": "setMerkleRoot",
      "inputs": [
        {
          "name": "root",
          "type": "bytes32",
          "internalType": "bytes32"
        }
      ],
      "outputs": [],
      "stateMutability": "nonpayable"
    },
    {
      "type": "function",
      "name": "setPublicMintOpen",
      "inputs": [
        {
          "name": "open",
          "type": "bool",
          "internalType": "bool"
        }
      ],
      "outputs": [],
      "stateMutability": "nonpayable"
    },
    {
      "type": "function",
      "name": "setWhitelistMintOpen",
      "inputs": [
        {
          "name": "open",
          "type": "bool",
          "internalType": "bool"
        }
      ],
      "outputs": [],
      "stateMutability": "nonpayable"
    },
    {
      "type": "function",
      "name": "supportsInterface",
      "inputs": [
        {
          "name": "interfaceId",
          "type": "bytes4",
          "internalType": "bytes4"
        }
      ],
      "outputs": [
        {
          "name": "",
          "type": "bool",
          "internalType": "bool"
        }
      ],
      "stateMutability": "view"
    },
    {
      "type": "function",
      "name": "symbol",
      "inputs": [],
      "outputs": [
        {
          "name": "",
          "type": "string",
          "internalType": "string"
        }
      ],
      "stateMutability": "view"
    },
    {
      "type": "function",
      "name": "tokenURI",
      "inputs": [
        {
          "name": "tokenId",
          "type": "uint256",
          "internalType": "uint256"
        }
      ],
      "outputs": [
        {
          "name": "",
          "type": "string",
          "internalType": "string"
        }
      ],
      "stateMutability": "view"
    },
    {
      "type": "function",
      "name": "transferFrom",
      "inputs": [
        {
          "name": "from",
          "type": "address",
          "internalType": "address"
        },
        {
          "name": "to",
          "type": "address",
          "internalType": "address"
        },
        {
          "name": "tokenId",
          "type": "uint256",
          "internalType": "uint256"
        }
      ],
      "outputs": [],
      "stateMutability": "nonpayable"
    },
    {
      "type": "function",
      "name": "transferOwnership",
      "inputs": [
        {
          "name": "newOwner",
          "type": "address",
          "internalType": "address"
        }
      ],
      "outputs": [],
      "stateMutability": "nonpayable"
    },
    {
      "type": "function",
      "name": "whitelistMintOpen",
      "inputs": [],
      "outputs": [
        {
          "name": "",
          "type": "bool",
          "internalType": "bool"
        }
      ],
      "stateMutability": "view"
    },
    {
      "type": "function",
      "name": "withdraw",
      "inputs": [],
      "outputs": [],
      "stateMutability": "nonpayable"
    },
    {
      "type": "event",
      "name": "AgentMinted",
      "inputs": [
        {
          "name": "agentId",
          "type": "uint256",
          "indexed": true,
          "internalType": "uint256"
        },
        {
          "name": "mintNumber",
          "type": "uint256",
          "indexed": true,
          "internalType": "uint256"
        },
        {
          "name": "owner",
          "type": "address",
          "indexed": true,
          "internalType": "address"
        },
        {
          "name": "shiny",
          "type": "bool",
          "indexed": false,
          "internalType": "bool"
        }
      ],
      "anonymous": false
    },
    {
      "type": "event",
      "name": "Approval",
      "inputs": [
        {
          "name": "owner",
          "type": "address",
          "indexed": true,
          "internalType": "address"
        },
        {
          "name": "approved",
          "type": "address",
          "indexed": true,
          "internalType": "address"
        },
        {
          "name": "tokenId",
          "type": "uint256",
          "indexed": true,
          "internalType": "uint256"
        }
      ],
      "anonymous": false
    },
    {
      "type": "event",
      "name": "ApprovalForAll",
      "inputs": [
        {
          "name": "owner",
          "type": "address",
          "indexed": true,
          "internalType": "address"
        },
        {
          "name": "operator",
          "type": "address",
          "indexed": true,
          "internalType": "address"
        },
        {
          "name": "approved",
          "type": "bool",
          "indexed": false,
          "internalType": "bool"
        }
      ],
      "anonymous": false
    },
    {
      "type": "event",
      "name": "BatchMetadataUpdate",
      "inputs": [
        {
          "name": "_fromTokenId",
          "type": "uint256",
          "indexed": false,
          "internalType": "uint256"
        },
        {
          "name": "_toTokenId",
          "type": "uint256",
          "indexed": false,
          "internalType": "uint256"
        }
      ],
      "anonymous": false
    },
    {
      "type": "event",
      "name": "CollectionUpdated",
      "inputs": [
        {
          "name": "maxSupply",
          "type": "uint256",
          "indexed": false,
          "internalType": "uint256"
        },
        {
          "name": "currentSupply",
          "type": "uint256",
          "indexed": false,
          "internalType": "uint256"
        },
        {
          "name": "publicOpen",
          "type": "bool",
          "indexed": false,
          "internalType": "bool"
        },
        {
          "name": "whitelistOpen",
          "type": "bool",
          "indexed": false,
          "internalType": "bool"
        }
      ],
      "anonymous": false
    },
    {
      "type": "event",
      "name": "MetadataUpdate",
      "inputs": [
        {
          "name": "_tokenId",
          "type": "uint256",
          "indexed": false,
          "internalType": "uint256"
        }
      ],
      "anonymous": false
    },
    {
      "type": "event",
      "name": "OwnershipTransferred",
      "inputs": [
        {
          "name": "previousOwner",
          "type": "address",
          "indexed": true,
          "internalType": "address"
        },
        {
          "name": "newOwner",
          "type": "address",
          "indexed": true,
          "internalType": "address"
        }
      ],
      "anonymous": false
    },
    {
      "type": "event",
      "name": "Transfer",
      "inputs": [
        {
          "name": "from",
          "type": "address",
          "indexed": true,
          "internalType": "address"
        },
        {
          "name": "to",
          "type": "address",
          "indexed": true,
          "internalType": "address"
        },
        {
          "name": "tokenId",
          "type": "uint256",
          "indexed": true,
          "internalType": "uint256"
        }
      ],
      "anonymous": false
    }
  ],
  "bytecode": {
    "object": "0x608060405234801562000010575f80fd5b506040518060400160405280600c81526020016b26b4b630b23c9026b0b5b2b960a11b8152506040518060400160405280600c81526020016b26a4a620a4a22ca6a0a5a2a960a11b815250815f90816200006b9190620001a0565b5060016200007a8282620001a0565b5050506200009762000091620000ab60201b60201c565b620000af565b6009805461ffff1916600117905562000268565b3390565b600780546001600160a01b038381166001600160a01b0319831681179093556040519116919082907f8be0079c531659141344cd1fd0a4f28419497f9722a3daafe3b4186f6b6457e0905f90a35050565b634e487b7160e01b5f52604160045260245ffd5b600181811c908216806200012957607f821691505b6020821081036200014857634e487b7160e01b5f52602260045260245ffd5b50919050565b601f8211156200019b575f81815260208120601f850160051c81016020861015620001765750805b601f850160051c820191505b81811015620001975782815560010162000182565b5050505b505050565b81516001600160401b03811115620001bc57620001bc62000100565b620001d481620001cd845462000114565b846200014e565b602080601f8311600181146200020a575f8415620001f25750858301515b5f19600386901b1c1916600185901b17855562000197565b5f85815260208120601f198616915b828110156200023a5788860151825594840194600190910190840162000219565b50858210156200025857878501515f19600388901b60f8161c191681555b5050505050600190811b01905550565b6124a380620002765f395ff3fe6080604052600436106101f1575f3560e01c80636387f80411610108578063a22cb4651161009d578063c87b56dd1161006d578063c87b56dd1461059c578063e985e9c5146105bb578063f2fde38b14610602578063fade63c914610621578063fff975bb14610640575f80fd5b8063a22cb4651461050f578063b3ff78c11461052e578063b88d4fde14610564578063bcc9ca5b14610583575f80fd5b8063771282f6116100d8578063771282f6146104ab5780637cb64759146104bf5780638da5cb5b146104de57806395d89b41146104fb575f80fd5b80636387f8041461043a57806368a397c01461045957806370a0823114610478578063715018a614610497575f80fd5b80632eb4a7ab116101895780633e4771a3116101595780633e4771a3146103a057806342842e0e146103bf5780634ccb6c11146103de57806352436f20146103fd5780636352211e1461041b575f80fd5b80632eb4a7ab1461032b57806332cb6b0c1461034057806338e21cce146103555780633ccfd60b1461038c575f80fd5b8063095ea7b3116101c4578063095ea7b3146102aa57806322fa1d85146102cb578063234d2f0f146102f957806323b872dd1461030c575f80fd5b80630179246e146101f557806301ffc9a71461022357806306fdde0314610252578063081812fc14610273575b5f80fd5b348015610200575f80fd5b5061021067016345785d8a000081565b6040519081526020015b60405180910390f35b34801561022e575f80fd5b5061024261023d366004611cad565b61066b565b604051901515815260200161021a565b34801561025d575f80fd5b50610266610695565b60405161021a9190611d15565b34801561027e575f80fd5b5061029261028d366004611d27565b610724565b6040516001600160a01b03909116815260200161021a565b3480156102b5575f80fd5b506102c96102c4366004611d59565b610749565b005b3480156102d6575f80fd5b506102426102e5366004611d27565b5f908152600d602052604090205460ff1690565b610210610307366004611e26565b610862565b348015610317575f80fd5b506102c9610326366004611e8e565b61093d565b348015610336575f80fd5b50610210600a5481565b34801561034b575f80fd5b5061021061085a81565b348015610360575f80fd5b5061024261036f366004611ec7565b6001600160a01b03165f908152600b602052604090205460ff1690565b348015610397575f80fd5b506102c961096e565b3480156103ab575f80fd5b506102106103ba366004611eef565b6109ec565b3480156103ca575f80fd5b506102c96103d9366004611e8e565b610a82565b3480156103e9575f80fd5b506102106103f8366004611f78565b610a9c565b348015610408575f80fd5b5060095461024290610100900460ff1681565b348015610426575f80fd5b50610292610435366004611d27565b610c13565b348015610445575f80fd5b506102c9610454366004612034565b610c72565b348015610464575f80fd5b50610210610473366004611e26565b610cea565b348015610483575f80fd5b50610210610492366004611ec7565b610d6d565b3480156104a2575f80fd5b506102c9610df1565b3480156104b6575f80fd5b50600854610210565b3480156104ca575f80fd5b506102c96104d9366004611d27565b610e04565b3480156104e9575f80fd5b506007546001600160a01b0316610292565b348015610506575f80fd5b50610266610e11565b34801561051a575f80fd5b506102c961052936600461204d565b610e20565b348015610539575f80fd5b506008546009546040805161085a8152602081019390935260ff90911615159082015260600161021a565b34801561056f575f80fd5b506102c961057e36600461207e565b610e2b565b34801561058e575f80fd5b506009546102429060ff1681565b3480156105a7575f80fd5b506102666105b6366004611d27565b610e63565b3480156105c6575f80fd5b506102426105d53660046120f5565b6001600160a01b039182165f90815260056020908152604080832093909416825291909152205460ff1690565b34801561060d575f80fd5b506102c961061c366004611ec7565b610f65565b34801561062c575f80fd5b506102c961063b366004612034565b610fde565b34801561064b575f80fd5b5061021061065a366004611d27565b5f908152600c602052604090205490565b5f6001600160e01b03198216632483248360e11b148061068f575061068f8261105d565b92915050565b60605f80546106a39061211d565b80601f01602080910402602001604051908101604052809291908181526020018280546106cf9061211d565b801561071a5780601f106106f15761010080835404028352916020019161071a565b820191905f5260205f20905b8154815290600101906020018083116106fd57829003601f168201915b5050505050905090565b5f61072e826110ac565b505f908152600460205260409020546001600160a01b031690565b5f61075382610c13565b9050806001600160a01b0316836001600160a01b0316036107c55760405162461bcd60e51b815260206004820152602160248201527f4552433732313a20617070726f76616c20746f2063757272656e74206f776e656044820152603960f91b60648201526084015b60405180910390fd5b336001600160a01b03821614806107e157506107e181336105d5565b6108535760405162461bcd60e51b815260206004820152603d60248201527f4552433732313a20617070726f76652063616c6c6572206973206e6f7420746f60448201527f6b656e206f776e6572206f7220617070726f76656420666f7220616c6c00000060648201526084016107bc565b61085d838361110a565b505050565b6009545f9060ff166108865760405162461bcd60e51b81526004016107bc90612155565b335f908152600b602052604090205460ff16156108b55760405162461bcd60e51b81526004016107bc90612183565b61085a600854106108d85760405162461bcd60e51b81526004016107bc906121ab565b67016345785d8a00003410156109275760405162461bcd60e51b8152602060048201526014602482015273125b9cdd59999a58da595b9d081c185e5b595b9d60621b60448201526064016107bc565b610935338585856001611177565b949350505050565b6109473382611315565b6109635760405162461bcd60e51b81526004016107bc906121cd565b61085d838383611391565b6109766114f3565b47806109b15760405162461bcd60e51b815260206004820152600a6024820152694e6f2062616c616e636560b01b60448201526064016107bc565b6007546040516001600160a01b039091169082156108fc029083905f818181858888f193505050501580156109e8573d5f803e3d5ffd5b5050565b6009545f9060ff16610a105760405162461bcd60e51b81526004016107bc90612155565b6001600160a01b0386165f908152600b602052604090205460ff1615610a485760405162461bcd60e51b81526004016107bc90612183565b61085a60085410610a6b5760405162461bcd60e51b81526004016107bc906121ab565b610a788686868686611177565b9695505050505050565b61085d83838360405180602001604052805f815250610e2b565b6009545f90610100900460ff16610af55760405162461bcd60e51b815260206004820152601760248201527f57686974656c697374206d696e74206e6f74206f70656e00000000000000000060448201526064016107bc565b335f908152600b602052604090205460ff1615610b245760405162461bcd60e51b81526004016107bc90612183565b61085a60085410610b475760405162461bcd60e51b81526004016107bc906121ab565b6040516bffffffffffffffffffffffff193360601b1660208201525f90603401604051602081830303815290604052805190602001209050610bbf8484808060200260200160405190810160405280939291908181526020018383602002808284375f9201919091525050600a54915084905061154d565b610bfb5760405162461bcd60e51b815260206004820152600d60248201526c24b73b30b634b210383937b7b360991b60448201526064016107bc565b610c08338888885f611177565b979650505050505050565b5f818152600260205260408120546001600160a01b03168061068f5760405162461bcd60e51b8152602060048201526018602482015277115490cdcc8c4e881a5b9d985b1a59081d1bdad95b88125160421b60448201526064016107bc565b610c7a6114f3565b6009805460ff1916821515908117918290556008546040805161085a8152602081019290925260ff92831615159082015261010090920416151560608201527fb1a217a78dbba2aba8d99bf4b9acf11ff26b58980083aa3e7a66fc77e0676237906080015b60405180910390a150565b6009545f9060ff16610d0e5760405162461bcd60e51b81526004016107bc90612155565b335f908152600b602052604090205460ff1615610d3d5760405162461bcd60e51b81526004016107bc90612183565b61085a60085410610d605760405162461bcd60e51b81526004016107bc906121ab565b610935338585855f611177565b5f6001600160a01b038216610dd65760405162461bcd60e51b815260206004820152602960248201527f4552433732313a2061646472657373207a65726f206973206e6f7420612076616044820152683634b21037bbb732b960b91b60648201526084016107bc565b506001600160a01b03165f9081526003602052604090205490565b610df96114f3565b610e025f611562565b565b610e0c6114f3565b600a55565b6060600180546106a39061211d565b6109e83383836115b3565b610e353383611315565b610e515760405162461bcd60e51b81526004016107bc906121cd565b610e5d84848484611680565b50505050565b6060610e6e826110ac565b5f8281526006602052604081208054610e869061211d565b80601f0160208091040260200160405190810160405280929190818152602001828054610eb29061211d565b8015610efd5780601f10610ed457610100808354040283529160200191610efd565b820191905f5260205f20905b815481529060010190602001808311610ee057829003601f168201915b505050505090505f610f1960408051602081019091525f815290565b905080515f03610f2a575092915050565b815115610f5c578082604051602001610f4492919061221a565b60405160208183030381529060405292505050919050565b610935846116b3565b610f6d6114f3565b6001600160a01b038116610fd25760405162461bcd60e51b815260206004820152602660248201527f4f776e61626c653a206e6577206f776e657220697320746865207a65726f206160448201526564647265737360d01b60648201526084016107bc565b610fdb81611562565b50565b610fe66114f3565b6009805461ff001981166101008415158102918217938490556008546040805161085a8152602081019290925260ff9485169385169390931715159281019290925290920416151560608201527fb1a217a78dbba2aba8d99bf4b9acf11ff26b58980083aa3e7a66fc77e067623790608001610cdf565b5f6001600160e01b031982166380ac58cd60e01b148061108d57506001600160e01b03198216635b5e139f60e01b145b8061068f57506301ffc9a760e01b6001600160e01b031983161461068f565b5f818152600260205260409020546001600160a01b0316610fdb5760405162461bcd60e51b8152602060048201526018602482015277115490cdcc8c4e881a5b9d985b1a59081d1bdad95b88125160421b60448201526064016107bc565b5f81815260046020526040902080546001600160a01b0319166001600160a01b038416908117909155819061113e82610c13565b6001600160a01b03167f8c5be1e5ebec7d5bd14f71427d1e84f3dd0314c0f7b2291e5b200ac8c7c3b92560405160405180910390a45050565b600880545f918261118783612248565b90915550506008548061119a8882611723565b6001600160a01b0388165f908152600b602090815260408083208054600160ff1991821617909155858452600c8352818420859055600d9092528220805490911686151517905584611221576040518060400160405280601781526020017f697066733a2f2f516d4d696c6164794d65746164617461000000000000000000815250611258565b6040518060400160405280601c81526020017f697066733a2f2f516d5368696e794d696c6164794d65746164617461000000008152505b9050611264838261173c565b886001600160a01b031682847f25cad38dffd55f73acb863c7e93a7edc4759d455ec55e8d22490de319505446c886040516112a3911515815260200190565b60405180910390a46008546009546040805161085a8152602081019390935260ff80831615158483015261010090920490911615156060830152517fb1a217a78dbba2aba8d99bf4b9acf11ff26b58980083aa3e7a66fc77e06762379181900360800190a15090979650505050505050565b5f8061132083610c13565b9050806001600160a01b0316846001600160a01b0316148061136657506001600160a01b038082165f9081526005602090815260408083209388168352929052205460ff165b806109355750836001600160a01b031661137f84610724565b6001600160a01b031614949350505050565b826001600160a01b03166113a482610c13565b6001600160a01b0316146113ca5760405162461bcd60e51b81526004016107bc9061226c565b6001600160a01b03821661142c5760405162461bcd60e51b8152602060048201526024808201527f4552433732313a207472616e7366657220746f20746865207a65726f206164646044820152637265737360e01b60648201526084016107bc565b826001600160a01b031661143f82610c13565b6001600160a01b0316146114655760405162461bcd60e51b81526004016107bc9061226c565b5f81815260046020908152604080832080546001600160a01b03199081169091556001600160a01b038781168086526003855283862080545f1901905590871680865283862080546001019055868652600290945282852080549092168417909155905184937fddf252ad1be2c89b69c2b068fc378daa952ba7f163c4a11628f55a4df523b3ef91a4505050565b6007546001600160a01b03163314610e025760405162461bcd60e51b815260206004820181905260248201527f4f776e61626c653a2063616c6c6572206973206e6f7420746865206f776e657260448201526064016107bc565b5f826115598584611805565b14949350505050565b600780546001600160a01b038381166001600160a01b0319831681179093556040519116919082907f8be0079c531659141344cd1fd0a4f28419497f9722a3daafe3b4186f6b6457e0905f90a35050565b816001600160a01b0316836001600160a01b0316036116145760405162461bcd60e51b815260206004820152601960248201527f4552433732313a20617070726f766520746f2063616c6c65720000000000000060448201526064016107bc565b6001600160a01b038381165f81815260056020908152604080832094871680845294825291829020805460ff191686151590811790915591519182527f17307eab39ab6107e8899845ad3d59bd9653f200f220920489ca2b5937696c31910160405180910390a3505050565b61168b848484611391565b61169784848484611851565b610e5d5760405162461bcd60e51b81526004016107bc906122b1565b60606116be826110ac565b5f6116d360408051602081019091525f815290565b90505f8151116116f15760405180602001604052805f81525061171c565b806116fb8461194e565b60405160200161170c92919061221a565b6040516020818303038152906040525b9392505050565b6109e8828260405180602001604052805f8152506119de565b5f828152600260205260409020546001600160a01b03166117b65760405162461bcd60e51b815260206004820152602e60248201527f45524337323155524953746f726167653a2055524920736574206f66206e6f6e60448201526d32bc34b9ba32b73a103a37b5b2b760911b60648201526084016107bc565b5f8281526006602052604090206117cd8282612350565b506040518281527ff8e1a15aba9398e019f0b49df1a4fde98ee17ae345cb5f6b5e2c27f5033e8ce79060200160405180910390a15050565b5f81815b845181101561184957611835828683815181106118285761182861240c565b6020026020010151611a10565b91508061184181612248565b915050611809565b509392505050565b5f6001600160a01b0384163b1561194357604051630a85bd0160e11b81526001600160a01b0385169063150b7a0290611894903390899088908890600401612420565b6020604051808303815f875af19250505080156118ce575060408051601f3d908101601f191682019092526118cb91810190612452565b60015b611929573d8080156118fb576040519150601f19603f3d011682016040523d82523d5f602084013e611900565b606091505b5080515f036119215760405162461bcd60e51b81526004016107bc906122b1565b805181602001fd5b6001600160e01b031916630a85bd0160e11b149050610935565b506001949350505050565b60605f61195a83611a39565b60010190505f8167ffffffffffffffff81111561197957611979611d81565b6040519080825280601f01601f1916602001820160405280156119a3576020820181803683370190505b5090508181016020015b5f19016f181899199a1a9b1b9c1cb0b131b232b360811b600a86061a8153600a85049450846119ad57509392505050565b6119e88383611b10565b6119f45f848484611851565b61085d5760405162461bcd60e51b81526004016107bc906122b1565b5f818310611a2a575f82815260208490526040902061171c565b505f9182526020526040902090565b5f8072184f03e93ff9f4daa797ed6e38ed64bf6a1f0160401b8310611a775772184f03e93ff9f4daa797ed6e38ed64bf6a1f0160401b830492506040015b6d04ee2d6d415b85acef81000000008310611aa3576d04ee2d6d415b85acef8100000000830492506020015b662386f26fc100008310611ac157662386f26fc10000830492506010015b6305f5e1008310611ad9576305f5e100830492506008015b6127108310611aed57612710830492506004015b60648310611aff576064830492506002015b600a831061068f5760010192915050565b6001600160a01b038216611b665760405162461bcd60e51b815260206004820181905260248201527f4552433732313a206d696e7420746f20746865207a65726f206164647265737360448201526064016107bc565b5f818152600260205260409020546001600160a01b031615611bca5760405162461bcd60e51b815260206004820152601c60248201527f4552433732313a20746f6b656e20616c7265616479206d696e7465640000000060448201526064016107bc565b5f818152600260205260409020546001600160a01b031615611c2e5760405162461bcd60e51b815260206004820152601c60248201527f4552433732313a20746f6b656e20616c7265616479206d696e7465640000000060448201526064016107bc565b6001600160a01b0382165f81815260036020908152604080832080546001019055848352600290915280822080546001600160a01b0319168417905551839291907fddf252ad1be2c89b69c2b068fc378daa952ba7f163c4a11628f55a4df523b3ef908290a45050565b6001600160e01b031981168114610fdb575f80fd5b5f60208284031215611cbd575f80fd5b813561171c81611c98565b5f5b83811015611ce2578181015183820152602001611cca565b50505f910152565b5f8151808452611d01816020860160208601611cc8565b601f01601f19169290920160200192915050565b602081525f61171c6020830184611cea565b5f60208284031215611d37575f80fd5b5035919050565b80356001600160a01b0381168114611d54575f80fd5b919050565b5f8060408385031215611d6a575f80fd5b611d7383611d3e565b946020939093013593505050565b634e487b7160e01b5f52604160045260245ffd5b5f67ffffffffffffffff80841115611daf57611daf611d81565b604051601f8501601f19908116603f01168101908282118183101715611dd757611dd7611d81565b81604052809350858152868686011115611def575f80fd5b858560208301375f602087830101525050509392505050565b5f82601f830112611e17575f80fd5b61171c83833560208501611d95565b5f805f60608486031215611e38575f80fd5b833567ffffffffffffffff80821115611e4f575f80fd5b611e5b87838801611e08565b94506020860135915080821115611e70575f80fd5b50611e7d86828701611e08565b925050604084013590509250925092565b5f805f60608486031215611ea0575f80fd5b611ea984611d3e565b9250611eb760208501611d3e565b9150604084013590509250925092565b5f60208284031215611ed7575f80fd5b61171c82611d3e565b80358015158114611d54575f80fd5b5f805f805f60a08688031215611f03575f80fd5b611f0c86611d3e565b9450602086013567ffffffffffffffff80821115611f28575f80fd5b611f3489838a01611e08565b95506040880135915080821115611f49575f80fd5b50611f5688828901611e08565b93505060608601359150611f6c60808701611ee0565b90509295509295909350565b5f805f805f60808688031215611f8c575f80fd5b853567ffffffffffffffff80821115611fa3575f80fd5b611faf89838a01611e08565b96506020880135915080821115611fc4575f80fd5b611fd089838a01611e08565b9550604088013594506060880135915080821115611fec575f80fd5b818801915088601f830112611fff575f80fd5b81358181111561200d575f80fd5b8960208260051b8501011115612021575f80fd5b9699959850939650602001949392505050565b5f60208284031215612044575f80fd5b61171c82611ee0565b5f806040838503121561205e575f80fd5b61206783611d3e565b915061207560208401611ee0565b90509250929050565b5f805f8060808587031215612091575f80fd5b61209a85611d3e565b93506120a860208601611d3e565b925060408501359150606085013567ffffffffffffffff8111156120ca575f80fd5b8501601f810187136120da575f80fd5b6120e987823560208401611d95565b91505092959194509250565b5f8060408385031215612106575f80fd5b61210f83611d3e565b915061207560208401611d3e565b600181811c9082168061213157607f821691505b60208210810361214f57634e487b7160e01b5f52602260045260245ffd5b50919050565b602080825260149082015273283ab13634b19036b4b73a103737ba1037b832b760611b604082015260600190565b6020808252600e908201526d105b1c9958591e481b5a5b9d195960921b604082015260600190565b60208082526008908201526714dbdb19081bdd5d60c21b604082015260600190565b6020808252602d908201527f4552433732313a2063616c6c6572206973206e6f7420746f6b656e206f776e6560408201526c1c881bdc88185c1c1c9bdd9959609a1b606082015260800190565b5f835161222b818460208801611cc8565b83519083019061223f818360208801611cc8565b01949350505050565b5f6001820161226557634e487b7160e01b5f52601160045260245ffd5b5060010190565b60208082526025908201527f4552433732313a207472616e736665722066726f6d20696e636f72726563742060408201526437bbb732b960d91b606082015260800190565b60208082526032908201527f4552433732313a207472616e7366657220746f206e6f6e20455243373231526560408201527131b2b4bb32b91034b6b83632b6b2b73a32b960711b606082015260800190565b601f82111561085d575f81815260208120601f850160051c810160208610156123295750805b601f850160051c820191505b8181101561234857828155600101612335565b505050505050565b815167ffffffffffffffff81111561236a5761236a611d81565b61237e81612378845461211d565b84612303565b602080601f8311600181146123b1575f841561239a5750858301515b5f19600386901b1c1916600185901b178555612348565b5f85815260208120601f198616915b828110156123df578886015182559484019460019091019084016123c0565b50858210156123fc57878501515f19600388901b60f8161c191681555b5050505050600190811b01905550565b634e487b7160e01b5f52603260045260245ffd5b6001600160a01b03858116825284166020820152604081018390526080606082018190525f90610a7890830184611cea565b5f60208284031215612462575f80fd5b815161171c81611c9856fea2646970667358221220de5c4e250c252b690c4fc909f9257d5738915604b64911b920ec611b6dba607f64736f6c63430008140033",
    "linkReferences": {}
  },
  "methodIdentifiers": {
    "MAX_SUPPLY()": "32cb6b0c",
    "SHINY_PRICE()": "0179246e",
    "approve(address,uint256)": "095ea7b3",
    "balanceOf(address)": "70a08231",
    "currentSupply()": "771282f6",
    "getAgentMintNumber(uint256)": "fff975bb",
    "getApproved(uint256)": "081812fc",
    "getCollectionDetails()": "b3ff78c1",
    "hasMinted(address)": "38e21cce",
    "isApprovedForAll(address,address)": "e985e9c5",
    "isShiny(uint256)": "22fa1d85",
    "merkleRoot()": "2eb4a7ab",
    "mint(string,string,bytes32)": "68a397c0",
    "mintFor(address,string,string,bytes32,bool)": "3e4771a3",
    "mintShiny(string,string,bytes32)": "234d2f0f",
    "mintWhitelist(string,string,bytes32,bytes32[])": "4ccb6c11",
    "name()": "06fdde03",
    "owner()": "8da5cb5b",
    "ownerOf(uint256)": "6352211e",
    "publicMintOpen()": "bcc9ca5b",
    "renounceOwnership()": "715018a6",
    "safeTransferFrom(address,address,uint256)": "42842e0e",
    "safeTransferFrom(address,address,uint256,bytes)": "b88d4fde",
    "setApprovalForAll(address,bool)": "a22cb465",
    "setMerkleRoot(bytes32)": "7cb64759",
    "setPublicMintOpen(bool)": "6387f804",
    "setWhitelistMintOpen(bool)": "fade63c9",
    "supportsInterface(bytes4)": "01ffc9a7",
    "symbol()": "95d89b41",
    "tokenURI(uint256)": "c87b56dd",
    "transferFrom(address,address,uint256)": "23b872dd",
    "transferOwnership(address)": "f2fde38b",
    "whitelistMintOpen()": "52436f20",
    "withdraw()": "3ccfd60b"
  },
  "id": 1
}