{
  "abi": [
    {
      "type": "constructor",
      "inputs": [
        {
          "name": "bridge",
          "type": "address",
          "internalType": "address"
        }
      ],
      "stateMutability": "nonpayable"
    },
    {
      "type": "function",
      "name": "crossChainOwnerRestricted",
      "inputs": [],
      "outputs": [],
      "stateMutability": "nonpayable"
    },
    {
      "type": "function",
      "name": "crossChainRestricted",
      "inputs": [],
      "outputs": [],
      "stateMutability": "nonpayable"
    },
    {
      "type": "function",
      "name": "owner",
      "inputs": [],
      "outputs": [
        {
          "name": "",
          "type": "address",
          "internalType": "address"
        }
      ],
      "stateMutability": "view"
    },
    {
      "type": "error",
      "name": "InvalidCrossChainSender",
      "inputs": [
        {
          "name": "actual",
          "type": "address",
          "internalType": "address"
        },
        {
          "name": "expected",
          "type": "address",
          "internalType": "address"
        }
      ]
    },
    {
      "type": "error",
      "name": "NotCrossChainCall",
      "inputs": []
    }
  ],
  "bytecode": {
    "object": "0x60c060405233608052348015610013575f80fd5b5060405161043438038061043483398101604081905261003291610043565b6001600160a01b031660a052610070565b5f60208284031215610053575f80fd5b81516001600160a01b0381168114610069575f80fd5b9392505050565b60805160a0516103916100a35f395f818160a20152818161016d01526101b101525f81816052015260e501526103915ff3fe608060405234801561000f575f80fd5b506004361061003f575f3560e01c80634b074af5146100435780638da5cb5b1461004d578063f97f518914610090575b5f80fd5b61004b610098565b005b6100747f000000000000000000000000000000000000000000000000000000000000000081565b6040516001600160a01b03909116815260200160405180910390f35b61004b6100e3565b6001600160a01b037f00000000000000000000000000000000000000000000000000000000000000001633146100e15760405163253a6fc960e11b815260040160405180910390fd5b565b7f00000000000000000000000000000000000000000000000000000000000000005f61010d610162565b9050806001600160a01b0316826001600160a01b0316146101595760405163ef25d32b60e01b81526001600160a01b038083166004830152831660248201526044015b60405180910390fd5b5050565b905090565b5f6001600160a01b037f00000000000000000000000000000000000000000000000000000000000000001633146101ac5760405163253a6fc960e11b815260040160405180910390fd5b61015d7f00000000000000000000000000000000000000000000000000000000000000005f6001600160a01b03821633146101fa5760405163253a6fc960e11b815260040160405180910390fd5b5f826001600160a01b031663ab5d89436040518163ffffffff1660e01b8152600401602060405180830381865afa158015610237573d5f803e3d5ffd5b505050506040513d601f19601f8201168201806040525081019061025b919061032e565b6001600160a01b03166380648b026040518163ffffffff1660e01b8152600401602060405180830381865afa158015610296573d5f803e3d5ffd5b505050506040513d601f19601f820116820180604052508101906102ba919061032e565b90506001600160a01b0381166103285760405162461bcd60e51b815260206004820152602d60248201527f4c6962417262697472756d4c313a2073797374656d206d65737361676573207760448201526c34ba3437baba1039b2b73232b960991b6064820152608401610150565b92915050565b5f6020828403121561033e575f80fd5b81516001600160a01b0381168114610354575f80fd5b939250505056fea26469706673582212202aeca3fc1da841e976f2bc0fd5c86b4f9b3d2cca9001a13b7e4c33e92a1ec4bf64736f6c63430008140033",
    "linkReferences": {}
  },
  "methodIdentifiers": {
    "crossChainOwnerRestricted()": "f97f5189",
    "crossChainRestricted()": "4b074af5",
    "owner()": "8da5cb5b"
  },
  "id": 113
}