{
  "abi": [
    {
      "type": "constructor",
      "inputs": [
        {
          "name": "bridge",
          "type": "address",
          "internalType": "address"
        }
      ],
      "stateMutability": "nonpayable"
    },
    {
      "type": "function",
      "name": "crossChainOwnerRestricted",
      "inputs": [],
      "outputs": [],
      "stateMutability": "nonpayable"
    },
    {
      "type": "function",
      "name": "crossChainRestricted",
      "inputs": [],
      "outputs": [],
      "stateMutability": "nonpayable"
    },
    {
      "type": "function",
      "name": "owner",
      "inputs": [],
      "outputs": [
        {
          "name": "",
          "type": "address",
          "internalType": "address"
        }
      ],
      "stateMutability": "view"
    },
    {
      "type": "error",
      "name": "InvalidCrossChainSender",
      "inputs": [
        {
          "name": "actual",
          "type": "address",
          "internalType": "address"
        },
        {
          "name": "expected",
          "type": "address",
          "internalType": "address"
        }
      ]
    },
    {
      "type": "error",
      "name": "NotCrossChainCall",
      "inputs": []
    }
  ],
  "bytecode": {
    "object": "0x60c060405233608052348015610013575f80fd5b5060405161036538038061036583398101604081905261003291610043565b6001600160a01b031660a052610070565b5f60208284031215610053575f80fd5b81516001600160a01b0381168114610069575f80fd5b9392505050565b60805160a0516102c26100a35f395f818160a20152818161016c01526101b001525f81816052015260e501526102c25ff3fe608060405234801561000f575f80fd5b506004361061003f575f3560e01c80634b074af5146100435780638da5cb5b1461004d578063f97f518914610090575b5f80fd5b61004b610098565b005b6100747f000000000000000000000000000000000000000000000000000000000000000081565b6040516001600160a01b03909116815260200160405180910390f35b61004b6100e3565b6001600160a01b037f00000000000000000000000000000000000000000000000000000000000000001633146100e15760405163253a6fc960e11b815260040160405180910390fd5b565b7f00000000000000000000000000000000000000000000000000000000000000005f61010d610161565b9050806001600160a01b0316826001600160a01b0316146101585760405163ef25d32b60e01b81526001600160a01b0380831660048301528316602482015260440160405180910390fd5b5050565b905090565b5f6001600160a01b037f00000000000000000000000000000000000000000000000000000000000000001633146101ab5760405163253a6fc960e11b815260040160405180910390fd5b61015c7f00000000000000000000000000000000000000000000000000000000000000005f6001600160a01b03821633146101f95760405163253a6fc960e11b815260040160405180910390fd5b816001600160a01b0316636e296e456040518163ffffffff1660e01b8152600401602060405180830381865afa158015610235573d5f803e3d5ffd5b505050506040513d601f19601f82011682018060405250810190610259919061025f565b92915050565b5f6020828403121561026f575f80fd5b81516001600160a01b0381168114610285575f80fd5b939250505056fea26469706673582212206f6291a9c1f6e1b05cdad99cc6c218355cf49f6e3b7ec948c40b8b0d492e017764736f6c63430008140033",
    "linkReferences": {}
  },
  "methodIdentifiers": {
    "crossChainOwnerRestricted()": "f97f5189",
    "crossChainRestricted()": "4b074af5",
    "owner()": "8da5cb5b"
  },
  "id": 113
}