{
  "abi": [
    {
      "type": "constructor",
      "inputs": [
        {
          "name": "_token",
          "type": "address",
          "internalType": "contract IVotes"
        },
        {
          "name": "_timelock",
          "type": "address",
          "internalType": "contract TimelockController"
        }
      ],
      "stateMutability": "nonpayable"
    },
    {
      "type": "receive",
      "stateMutability": "payable"
    },
    {
      "type": "function",
      "name": "BALLOT_TYPEHASH",
      "inputs": [],
      "outputs": [
        {
          "name": "",
          "type": "bytes32",
          "internalType": "bytes32"
        }
      ],
      "stateMutability": "view"
    },
    {
      "type": "function",
      "name": "CLOCK_MODE",
      "inputs": [],
      "outputs": [
        {
          "name": "",
          "type": "string",
          "internalType": "string"
        }
      ],
      "stateMutability": "view"
    },
    {
      "type": "function",
      "name": "COUNTING_MODE",
      "inputs": [],
      "outputs": [
        {
          "name": "",
          "type": "string",
          "internalType": "string"
        }
      ],
      "stateMutability": "pure"
    },
    {
      "type": "function",
      "name": "EXTENDED_BALLOT_TYPEHASH",
      "inputs": [],
      "outputs": [
        {
          "name": "",
          "type": "bytes32",
          "internalType": "bytes32"
        }
      ],
      "stateMutability": "view"
    },
    {
      "type": "function",
      "name": "cancel",
      "inputs": [
        {
          "name": "proposalId",
          "type": "uint256",
          "internalType": "uint256"
        }
      ],
      "outputs": [],
      "stateMutability": "nonpayable"
    },
    {
      "type": "function",
      "name": "cancel",
      "inputs": [
        {
          "name": "targets",
          "type": "address[]",
          "internalType": "address[]"
        },
        {
          "name": "values",
          "type": "uint256[]",
          "internalType": "uint256[]"
        },
        {
          "name": "calldatas",
          "type": "bytes[]",
          "internalType": "bytes[]"
        },
        {
          "name": "descriptionHash",
          "type": "bytes32",
          "internalType": "bytes32"
        }
      ],
      "outputs": [
        {
          "name": "",
          "type": "uint256",
          "internalType": "uint256"
        }
      ],
      "stateMutability": "nonpayable"
    },
    {
      "type": "function",
      "name": "castVote",
      "inputs": [
        {
          "name": "proposalId",
          "type": "uint256",
          "internalType": "uint256"
        },
        {
          "name": "support",
          "type": "uint8",
          "internalType": "uint8"
        }
      ],
      "outputs": [
        {
          "name": "",
          "type": "uint256",
          "internalType": "uint256"
        }
      ],
      "stateMutability": "nonpayable"
    },
    {
      "type": "function",
      "name": "castVoteBySig",
      "inputs": [
        {
          "name": "proposalId",
          "type": "uint256",
          "internalType": "uint256"
        },
        {
          "name": "support",
          "type": "uint8",
          "internalType": "uint8"
        },
        {
          "name": "v",
          "type": "uint8",
          "internalType": "uint8"
        },
        {
          "name": "r",
          "type": "bytes32",
          "internalType": "bytes32"
        },
        {
          "name": "s",
          "type": "bytes32",
          "internalType": "bytes32"
        }
      ],
      "outputs": [
        {
          "name": "",
          "type": "uint256",
          "internalType": "uint256"
        }
      ],
      "stateMutability": "nonpayable"
    },
    {
      "type": "function",
      "name": "castVoteWithReason",
      "inputs": [
        {
          "name": "proposalId",
          "type": "uint256",
          "internalType": "uint256"
        },
        {
          "name": "support",
          "type": "uint8",
          "internalType": "uint8"
        },
        {
          "name": "reason",
          "type": "string",
          "internalType": "string"
        }
      ],
      "outputs": [
        {
          "name": "",
          "type": "uint256",
          "internalType": "uint256"
        }
      ],
      "stateMutability": "nonpayable"
    },
    {
      "type": "function",
      "name": "castVoteWithReasonAndParams",
      "inputs": [
        {
          "name": "proposalId",
          "type": "uint256",
          "internalType": "uint256"
        },
        {
          "name": "support",
          "type": "uint8",
          "internalType": "uint8"
        },
        {
          "name": "reason",
          "type": "string",
          "internalType": "string"
        },
        {
          "name": "params",
          "type": "bytes",
          "internalType": "bytes"
        }
      ],
      "outputs": [
        {
          "name": "",
          "type": "uint256",
          "internalType": "uint256"
        }
      ],
      "stateMutability": "nonpayable"
    },
    {
      "type": "function",
      "name": "castVoteWithReasonAndParamsBySig",
      "inputs": [
        {
          "name": "proposalId",
          "type": "uint256",
          "internalType": "uint256"
        },
        {
          "name": "support",
          "type": "uint8",
          "internalType": "uint8"
        },
        {
          "name": "reason",
          "type": "string",
          "internalType": "string"
        },
        {
          "name": "params",
          "type": "bytes",
          "internalType": "bytes"
        },
        {
          "name": "v",
          "type": "uint8",
          "internalType": "uint8"
        },
        {
          "name": "r",
          "type": "bytes32",
          "internalType": "bytes32"
        },
        {
          "name": "s",
          "type": "bytes32",
          "internalType": "bytes32"
        }
      ],
      "outputs": [
        {
          "name": "",
          "type": "uint256",
          "internalType": "uint256"
        }
      ],
      "stateMutability": "nonpayable"
    },
    {
      "type": "function",
      "name": "clock",
      "inputs": [],
      "outputs": [
        {
          "name": "",
          "type": "uint48",
          "internalType": "uint48"
        }
      ],
      "stateMutability": "view"
    },
    {
      "type": "function",
      "name": "eip712Domain",
      "inputs": [],
      "outputs": [
        {
          "name": "fields",
          "type": "bytes1",
          "internalType": "bytes1"
        },
        {
          "name": "name",
          "type": "string",
          "internalType": "string"
        },
        {
          "name": "version",
          "type": "string",
          "internalType": "string"
        },
        {
          "name": "chainId",
          "type": "uint256",
          "internalType": "uint256"
        },
        {
          "name": "verifyingContract",
          "type": "address",
          "internalType": "address"
        },
        {
          "name": "salt",
          "type": "bytes32",
          "internalType": "bytes32"
        },
        {
          "name": "extensions",
          "type": "uint256[]",
          "internalType": "uint256[]"
        }
      ],
      "stateMutability": "view"
    },
    {
      "type": "function",
      "name": "execute",
      "inputs": [
        {
          "name": "targets",
          "type": "address[]",
          "internalType": "address[]"
        },
        {
          "name": "values",
          "type": "uint256[]",
          "internalType": "uint256[]"
        },
        {
          "name": "calldatas",
          "type": "bytes[]",
          "internalType": "bytes[]"
        },
        {
          "name": "descriptionHash",
          "type": "bytes32",
          "internalType": "bytes32"
        }
      ],
      "outputs": [
        {
          "name": "",
          "type": "uint256",
          "internalType": "uint256"
        }
      ],
      "stateMutability": "payable"
    },
    {
      "type": "function",
      "name": "execute",
      "inputs": [
        {
          "name": "proposalId",
          "type": "uint256",
          "internalType": "uint256"
        }
      ],
      "outputs": [],
      "stateMutability": "payable"
    },
    {
      "type": "function",
      "name": "getActions",
      "inputs": [
        {
          "name": "proposalId",
          "type": "uint256",
          "internalType": "uint256"
        }
      ],
      "outputs": [
        {
          "name": "targets",
          "type": "address[]",
          "internalType": "address[]"
        },
        {
          "name": "values",
          "type": "uint256[]",
          "internalType": "uint256[]"
        },
        {
          "name": "signatures",
          "type": "string[]",
          "internalType": "string[]"
        },
        {
          "name": "calldatas",
          "type": "bytes[]",
          "internalType": "bytes[]"
        }
      ],
      "stateMutability": "view"
    },
    {
      "type": "function",
      "name": "getReceipt",
      "inputs": [
        {
          "name": "proposalId",
          "type": "uint256",
          "internalType": "uint256"
        },
        {
          "name": "voter",
          "type": "address",
          "internalType": "address"
        }
      ],
      "outputs": [
        {
          "name": "",
          "type": "tuple",
          "internalType": "struct IGovernorCompatibilityBravo.Receipt",
          "components": [
            {
              "name": "hasVoted",
              "type": "bool",
              "internalType": "bool"
            },
            {
              "name": "support",
              "type": "uint8",
              "internalType": "uint8"
            },
            {
              "name": "votes",
              "type": "uint96",
              "internalType": "uint96"
            }
          ]
        }
      ],
      "stateMutability": "view"
    },
    {
      "type": "function",
      "name": "getVotes",
      "inputs": [
        {
          "name": "account",
          "type": "address",
          "internalType": "address"
        },
        {
          "name": "timepoint",
          "type": "uint256",
          "internalType": "uint256"
        }
      ],
      "outputs": [
        {
          "name": "",
          "type": "uint256",
          "internalType": "uint256"
        }
      ],
      "stateMutability": "view"
    },
    {
      "type": "function",
      "name": "getVotesWithParams",
      "inputs": [
        {
          "name": "account",
          "type": "address",
          "internalType": "address"
        },
        {
          "name": "timepoint",
          "type": "uint256",
          "internalType": "uint256"
        },
        {
          "name": "params",
          "type": "bytes",
          "internalType": "bytes"
        }
      ],
      "outputs": [
        {
          "name": "",
          "type": "uint256",
          "internalType": "uint256"
        }
      ],
      "stateMutability": "view"
    },
    {
      "type": "function",
      "name": "hasVoted",
      "inputs": [
        {
          "name": "proposalId",
          "type": "uint256",
          "internalType": "uint256"
        },
        {
          "name": "account",
          "type": "address",
          "internalType": "address"
        }
      ],
      "outputs": [
        {
          "name": "",
          "type": "bool",
          "internalType": "bool"
        }
      ],
      "stateMutability": "view"
    },
    {
      "type": "function",
      "name": "hashProposal",
      "inputs": [
        {
          "name": "targets",
          "type": "address[]",
          "internalType": "address[]"
        },
        {
          "name": "values",
          "type": "uint256[]",
          "internalType": "uint256[]"
        },
        {
          "name": "calldatas",
          "type": "bytes[]",
          "internalType": "bytes[]"
        },
        {
          "name": "descriptionHash",
          "type": "bytes32",
          "internalType": "bytes32"
        }
      ],
      "outputs": [
        {
          "name": "",
          "type": "uint256",
          "internalType": "uint256"
        }
      ],
      "stateMutability": "pure"
    },
    {
      "type": "function",
      "name": "name",
      "inputs": [],
      "outputs": [
        {
          "name": "",
          "type": "string",
          "internalType": "string"
        }
      ],
      "stateMutability": "view"
    },
    {
      "type": "function",
      "name": "onERC1155BatchReceived",
      "inputs": [
        {
          "name": "",
          "type": "address",
          "internalType": "address"
        },
        {
          "name": "",
          "type": "address",
          "internalType": "address"
        },
        {
          "name": "",
          "type": "uint256[]",
          "internalType": "uint256[]"
        },
        {
          "name": "",
          "type": "uint256[]",
          "internalType": "uint256[]"
        },
        {
          "name": "",
          "type": "bytes",
          "internalType": "bytes"
        }
      ],
      "outputs": [
        {
          "name": "",
          "type": "bytes4",
          "internalType": "bytes4"
        }
      ],
      "stateMutability": "nonpayable"
    },
    {
      "type": "function",
      "name": "onERC1155Received",
      "inputs": [
        {
          "name": "",
          "type": "address",
          "internalType": "address"
        },
        {
          "name": "",
          "type": "address",
          "internalType": "address"
        },
        {
          "name": "",
          "type": "uint256",
          "internalType": "uint256"
        },
        {
          "name": "",
          "type": "uint256",
          "internalType": "uint256"
        },
        {
          "name": "",
          "type": "bytes",
          "internalType": "bytes"
        }
      ],
      "outputs": [
        {
          "name": "",
          "type": "bytes4",
          "internalType": "bytes4"
        }
      ],
      "stateMutability": "nonpayable"
    },
    {
      "type": "function",
      "name": "onERC721Received",
      "inputs": [
        {
          "name": "",
          "type": "address",
          "internalType": "address"
        },
        {
          "name": "",
          "type": "address",
          "internalType": "address"
        },
        {
          "name": "",
          "type": "uint256",
          "internalType": "uint256"
        },
        {
          "name": "",
          "type": "bytes",
          "internalType": "bytes"
        }
      ],
      "outputs": [
        {
          "name": "",
          "type": "bytes4",
          "internalType": "bytes4"
        }
      ],
      "stateMutability": "nonpayable"
    },
    {
      "type": "function",
      "name": "proposalDeadline",
      "inputs": [
        {
          "name": "proposalId",
          "type": "uint256",
          "internalType": "uint256"
        }
      ],
      "outputs": [
        {
          "name": "",
          "type": "uint256",
          "internalType": "uint256"
        }
      ],
      "stateMutability": "view"
    },
    {
      "type": "function",
      "name": "proposalEta",
      "inputs": [
        {
          "name": "proposalId",
          "type": "uint256",
          "internalType": "uint256"
        }
      ],
      "outputs": [
        {
          "name": "",
          "type": "uint256",
          "internalType": "uint256"
        }
      ],
      "stateMutability": "view"
    },
    {
      "type": "function",
      "name": "proposalProposer",
      "inputs": [
        {
          "name": "proposalId",
          "type": "uint256",
          "internalType": "uint256"
        }
      ],
      "outputs": [
        {
          "name": "",
          "type": "address",
          "internalType": "address"
        }
      ],
      "stateMutability": "view"
    },
    {
      "type": "function",
      "name": "proposalSnapshot",
      "inputs": [
        {
          "name": "proposalId",
          "type": "uint256",
          "internalType": "uint256"
        }
      ],
      "outputs": [
        {
          "name": "",
          "type": "uint256",
          "internalType": "uint256"
        }
      ],
      "stateMutability": "view"
    },
    {
      "type": "function",
      "name": "proposalThreshold",
      "inputs": [],
      "outputs": [
        {
          "name": "",
          "type": "uint256",
          "internalType": "uint256"
        }
      ],
      "stateMutability": "pure"
    },
    {
      "type": "function",
      "name": "proposals",
      "inputs": [
        {
          "name": "proposalId",
          "type": "uint256",
          "internalType": "uint256"
        }
      ],
      "outputs": [
        {
          "name": "id",
          "type": "uint256",
          "internalType": "uint256"
        },
        {
          "name": "proposer",
          "type": "address",
          "internalType": "address"
        },
        {
          "name": "eta",
          "type": "uint256",
          "internalType": "uint256"
        },
        {
          "name": "startBlock",
          "type": "uint256",
          "internalType": "uint256"
        },
        {
          "name": "endBlock",
          "type": "uint256",
          "internalType": "uint256"
        },
        {
          "name": "forVotes",
          "type": "uint256",
          "internalType": "uint256"
        },
        {
          "name": "againstVotes",
          "type": "uint256",
          "internalType": "uint256"
        },
        {
          "name": "abstainVotes",
          "type": "uint256",
          "internalType": "uint256"
        },
        {
          "name": "canceled",
          "type": "bool",
          "internalType": "bool"
        },
        {
          "name": "executed",
          "type": "bool",
          "internalType": "bool"
        }
      ],
      "stateMutability": "view"
    },
    {
      "type": "function",
      "name": "propose",
      "inputs": [
        {
          "name": "targets",
          "type": "address[]",
          "internalType": "address[]"
        },
        {
          "name": "values",
          "type": "uint256[]",
          "internalType": "uint256[]"
        },
        {
          "name": "calldatas",
          "type": "bytes[]",
          "internalType": "bytes[]"
        },
        {
          "name": "description",
          "type": "string",
          "internalType": "string"
        }
      ],
      "outputs": [
        {
          "name": "",
          "type": "uint256",
          "internalType": "uint256"
        }
      ],
      "stateMutability": "nonpayable"
    },
    {
      "type": "function",
      "name": "propose",
      "inputs": [
        {
          "name": "targets",
          "type": "address[]",
          "internalType": "address[]"
        },
        {
          "name": "values",
          "type": "uint256[]",
          "internalType": "uint256[]"
        },
        {
          "name": "signatures",
          "type": "string[]",
          "internalType": "string[]"
        },
        {
          "name": "calldatas",
          "type": "bytes[]",
          "internalType": "bytes[]"
        },
        {
          "name": "description",
          "type": "string",
          "internalType": "string"
        }
      ],
      "outputs": [
        {
          "name": "",
          "type": "uint256",
          "internalType": "uint256"
        }
      ],
      "stateMutability": "nonpayable"
    },
    {
      "type": "function",
      "name": "queue",
      "inputs": [
        {
          "name": "targets",
          "type": "address[]",
          "internalType": "address[]"
        },
        {
          "name": "values",
          "type": "uint256[]",
          "internalType": "uint256[]"
        },
        {
          "name": "calldatas",
          "type": "bytes[]",
          "internalType": "bytes[]"
        },
        {
          "name": "descriptionHash",
          "type": "bytes32",
          "internalType": "bytes32"
        }
      ],
      "outputs": [
        {
          "name": "",
          "type": "uint256",
          "internalType": "uint256"
        }
      ],
      "stateMutability": "nonpayable"
    },
    {
      "type": "function",
      "name": "queue",
      "inputs": [
        {
          "name": "proposalId",
          "type": "uint256",
          "internalType": "uint256"
        }
      ],
      "outputs": [],
      "stateMutability": "nonpayable"
    },
    {
      "type": "function",
      "name": "quorum",
      "inputs": [
        {
          "name": "blockNumber",
          "type": "uint256",
          "internalType": "uint256"
        }
      ],
      "outputs": [
        {
          "name": "",
          "type": "uint256",
          "internalType": "uint256"
        }
      ],
      "stateMutability": "view"
    },
    {
      "type": "function",
      "name": "quorumDenominator",
      "inputs": [],
      "outputs": [
        {
          "name": "",
          "type": "uint256",
          "internalType": "uint256"
        }
      ],
      "stateMutability": "view"
    },
    {
      "type": "function",
      "name": "quorumNumerator",
      "inputs": [
        {
          "name": "timepoint",
          "type": "uint256",
          "internalType": "uint256"
        }
      ],
      "outputs": [
        {
          "name": "",
          "type": "uint256",
          "internalType": "uint256"
        }
      ],
      "stateMutability": "view"
    },
    {
      "type": "function",
      "name": "quorumNumerator",
      "inputs": [],
      "outputs": [
        {
          "name": "",
          "type": "uint256",
          "internalType": "uint256"
        }
      ],
      "stateMutability": "view"
    },
    {
      "type": "function",
      "name": "quorumVotes",
      "inputs": [],
      "outputs": [
        {
          "name": "",
          "type": "uint256",
          "internalType": "uint256"
        }
      ],
      "stateMutability": "view"
    },
    {
      "type": "function",
      "name": "relay",
      "inputs": [
        {
          "name": "target",
          "type": "address",
          "internalType": "address"
        },
        {
          "name": "value",
          "type": "uint256",
          "internalType": "uint256"
        },
        {
          "name": "data",
          "type": "bytes",
          "internalType": "bytes"
        }
      ],
      "outputs": [],
      "stateMutability": "payable"
    },
    {
      "type": "function",
      "name": "state",
      "inputs": [
        {
          "name": "proposalId",
          "type": "uint256",
          "internalType": "uint256"
        }
      ],
      "outputs": [
        {
          "name": "",
          "type": "uint8",
          "internalType": "enum IGovernor.ProposalState"
        }
      ],
      "stateMutability": "view"
    },
    {
      "type": "function",
      "name": "supportsInterface",
      "inputs": [
        {
          "name": "interfaceId",
          "type": "bytes4",
          "internalType": "bytes4"
        }
      ],
      "outputs": [
        {
          "name": "",
          "type": "bool",
          "internalType": "bool"
        }
      ],
      "stateMutability": "view"
    },
    {
      "type": "function",
      "name": "timelock",
      "inputs": [],
      "outputs": [
        {
          "name": "",
          "type": "address",
          "internalType": "address"
        }
      ],
      "stateMutability": "view"
    },
    {
      "type": "function",
      "name": "token",
      "inputs": [],
      "outputs": [
        {
          "name": "",
          "type": "address",
          "internalType": "contract IERC5805"
        }
      ],
      "stateMutability": "view"
    },
    {
      "type": "function",
      "name": "updateQuorumNumerator",
      "inputs": [
        {
          "name": "newQuorumNumerator",
          "type": "uint256",
          "internalType": "uint256"
        }
      ],
      "outputs": [],
      "stateMutability": "nonpayable"
    },
    {
      "type": "function",
      "name": "updateTimelock",
      "inputs": [
        {
          "name": "newTimelock",
          "type": "address",
          "internalType": "contract TimelockController"
        }
      ],
      "outputs": [],
      "stateMutability": "nonpayable"
    },
    {
      "type": "function",
      "name": "version",
      "inputs": [],
      "outputs": [
        {
          "name": "",
          "type": "string",
          "internalType": "string"
        }
      ],
      "stateMutability": "view"
    },
    {
      "type": "function",
      "name": "votingDelay",
      "inputs": [],
      "outputs": [
        {
          "name": "",
          "type": "uint256",
          "internalType": "uint256"
        }
      ],
      "stateMutability": "pure"
    },
    {
      "type": "function",
      "name": "votingPeriod",
      "inputs": [],
      "outputs": [
        {
          "name": "",
          "type": "uint256",
          "internalType": "uint256"
        }
      ],
      "stateMutability": "pure"
    },
    {
      "type": "event",
      "name": "EIP712DomainChanged",
      "inputs": [],
      "anonymous": false
    },
    {
      "type": "event",
      "name": "ProposalCanceled",
      "inputs": [
        {
          "name": "proposalId",
          "type": "uint256",
          "indexed": false,
          "internalType": "uint256"
        }
      ],
      "anonymous": false
    },
    {
      "type": "event",
      "name": "ProposalCreated",
      "inputs": [
        {
          "name": "proposalId",
          "type": "uint256",
          "indexed": false,
          "internalType": "uint256"
        },
        {
          "name": "proposer",
          "type": "address",
          "indexed": false,
          "internalType": "address"
        },
        {
          "name": "targets",
          "type": "address[]",
          "indexed": false,
          "internalType": "address[]"
        },
        {
          "name": "values",
          "type": "uint256[]",
          "indexed": false,
          "internalType": "uint256[]"
        },
        {
          "name": "signatures",
          "type": "string[]",
          "indexed": false,
          "internalType": "string[]"
        },
        {
          "name": "calldatas",
          "type": "bytes[]",
          "indexed": false,
          "internalType": "bytes[]"
        },
        {
          "name": "voteStart",
          "type": "uint256",
          "indexed": false,
          "internalType": "uint256"
        },
        {
          "name": "voteEnd",
          "type": "uint256",
          "indexed": false,
          "internalType": "uint256"
        },
        {
          "name": "description",
          "type": "string",
          "indexed": false,
          "internalType": "string"
        }
      ],
      "anonymous": false
    },
    {
      "type": "event",
      "name": "ProposalExecuted",
      "inputs": [
        {
          "name": "proposalId",
          "type": "uint256",
          "indexed": false,
          "internalType": "uint256"
        }
      ],
      "anonymous": false
    },
    {
      "type": "event",
      "name": "ProposalQueued",
      "inputs": [
        {
          "name": "proposalId",
          "type": "uint256",
          "indexed": false,
          "internalType": "uint256"
        },
        {
          "name": "eta",
          "type": "uint256",
          "indexed": false,
          "internalType": "uint256"
        }
      ],
      "anonymous": false
    },
    {
      "type": "event",
      "name": "QuorumNumeratorUpdated",
      "inputs": [
        {
          "name": "oldQuorumNumerator",
          "type": "uint256",
          "indexed": false,
          "internalType": "uint256"
        },
        {
          "name": "newQuorumNumerator",
          "type": "uint256",
          "indexed": false,
          "internalType": "uint256"
        }
      ],
      "anonymous": false
    },
    {
      "type": "event",
      "name": "TimelockChange",
      "inputs": [
        {
          "name": "oldTimelock",
          "type": "address",
          "indexed": false,
          "internalType": "address"
        },
        {
          "name": "newTimelock",
          "type": "address",
          "indexed": false,
          "internalType": "address"
        }
      ],
      "anonymous": false
    },
    {
      "type": "event",
      "name": "VoteCast",
      "inputs": [
        {
          "name": "voter",
          "type": "address",
          "indexed": true,
          "internalType": "address"
        },
        {
          "name": "proposalId",
          "type": "uint256",
          "indexed": false,
          "internalType": "uint256"
        },
        {
          "name": "support",
          "type": "uint8",
          "indexed": false,
          "internalType": "uint8"
        },
        {
          "name": "weight",
          "type": "uint256",
          "indexed": false,
          "internalType": "uint256"
        },
        {
          "name": "reason",
          "type": "string",
          "indexed": false,
          "internalType": "string"
        }
      ],
      "anonymous": false
    },
    {
      "type": "event",
      "name": "VoteCastWithParams",
      "inputs": [
        {
          "name": "voter",
          "type": "address",
          "indexed": true,
          "internalType": "address"
        },
        {
          "name": "proposalId",
          "type": "uint256",
          "indexed": false,
          "internalType": "uint256"
        },
        {
          "name": "support",
          "type": "uint8",
          "indexed": false,
          "internalType": "uint8"
        },
        {
          "name": "weight",
          "type": "uint256",
          "indexed": false,
          "internalType": "uint256"
        },
        {
          "name": "reason",
          "type": "string",
          "indexed": false,
          "internalType": "string"
        },
        {
          "name": "params",
          "type": "bytes",
          "indexed": false,
          "internalType": "bytes"
        }
      ],
      "anonymous": false
    },
    {
      "type": "error",
      "name": "Empty",
      "inputs": []
    },
    {
      "type": "error",
      "name": "InvalidShortString",
      "inputs": []
    },
    {
      "type": "error",
      "name": "StringTooLong",
      "inputs": [
        {
          "name": "str",
          "type": "string",
          "internalType": "string"
        }
      ]
    }
  ],
  "bytecode": {
    "object": "0x61018060405234801562000011575f80fd5b5060405162005cd538038062005cd58339810160408190526200003491620007e6565b600482826040518060400160405280600a81526020016926bca3b7bb32b93737b960b11b815250806200006c6200015d60201b60201c565b62000078825f62000178565b610120526200008981600162000178565b61014052815160208084019190912060e052815190820120610100524660a0526200011660e05161010051604080517f8b73c3c69bb8fe3d512ecc4cf759cc79239f7b179b0ffacaa9a75d522b39400f60208201529081019290925260608201524660808201523060a08201525f9060c00160405160208183030381529060405280519060200120905090565b60805250503060c05260026200012d8282620008c3565b506200013b905081620001b0565b506001600160a01b031661016052620001548162000219565b50505062000a43565b6040805180820190915260018152603160f81b602082015290565b5f60208351101562000197576200018f8362000399565b9050620001aa565b81620001a48482620008c3565b5060ff90505b92915050565b600654604080516001600160a01b03928316815291831660208301527f08f74ea46ef7894f65eabfb5e6e695de773a000b47c529ab559178069b226401910160405180910390a1600680546001600160a01b0319166001600160a01b0392909216919091179055565b6064811115620002a25760405162461bcd60e51b815260206004820152604360248201527f476f7665726e6f72566f74657351756f72756d4672616374696f6e3a2071756f60448201527f72756d4e756d657261746f72206f7665722071756f72756d44656e6f6d696e616064820152623a37b960e91b608482015260a4015b60405180910390fd5b5f620002ad620003db565b90508015801590620002bf5750600a54155b156200032557604080518082019091525f8152600a9060208101620002e48462000409565b6001600160e01b0390811690915282546001810184555f938452602093849020835194909301519091166401000000000263ffffffff909316929092179101555b6200035a620003456200033762000477565b65ffffffffffff16620004ed565b620003508462000409565b600a919062000553565b505060408051828152602081018490527f0553476bf02ef2726e8ce5ced78d63e26e602e4a2257b1f559418e24b4633997910160405180910390a15050565b5f80829050601f81511115620003c6578260405163305a27a960e01b81526004016200029991906200098b565b8051620003d382620009d8565b179392505050565b600a545f90156200040057620003f2600a6200056f565b6001600160e01b0316905090565b6009545b905090565b5f6001600160e01b03821115620004735760405162461bcd60e51b815260206004820152602760248201527f53616665436173743a2076616c756520646f65736e27742066697420696e20326044820152663234206269747360c81b606482015260840162000299565b5090565b5f610160516001600160a01b03166391ddadf46040518163ffffffff1660e01b8152600401602060405180830381865afa925050508015620004d8575060408051601f3d908101601f19168201909252620004d591810190620009fc565b60015b620004e8576200040443620005ba565b919050565b5f63ffffffff821115620004735760405162461bcd60e51b815260206004820152602660248201527f53616665436173743a2076616c756520646f65736e27742066697420696e203360448201526532206269747360d01b606482015260840162000299565b5f806200056285858562000622565b915091505b935093915050565b80545f908015620005b15762000599836200058c60018462000a23565b5f91825260209091200190565b5464010000000090046001600160e01b0316620005b3565b5f5b9392505050565b5f65ffffffffffff821115620004735760405162461bcd60e51b815260206004820152602660248201527f53616665436173743a2076616c756520646f65736e27742066697420696e203460448201526538206269747360d01b606482015260840162000299565b82545f908190801562000774575f62000642876200058c60018562000a23565b60408051808201909152905463ffffffff8082168084526401000000009092046001600160e01b031660208401529192509087161015620006c65760405162461bcd60e51b815260206004820152601b60248201527f436865636b706f696e743a2064656372656173696e67206b6579730000000000604482015260640162000299565b805163ffffffff808816911603620007145784620006eb886200058c60018662000a23565b80546001600160e01b03929092166401000000000263ffffffff90921691909117905562000763565b6040805180820190915263ffffffff80881682526001600160e01b0380881660208085019182528b54600181018d555f8d81529190912094519151909216640100000000029216919091179101555b602001519250839150620005679050565b50506040805180820190915263ffffffff80851682526001600160e01b0380851660208085019182528854600181018a555f8a81529182209551925190931664010000000002919093161792019190915590508162000567565b6001600160a01b0381168114620007e3575f80fd5b50565b5f8060408385031215620007f8575f80fd5b82516200080581620007ce565b60208401519092506200081881620007ce565b809150509250929050565b634e487b7160e01b5f52604160045260245ffd5b600181811c908216806200084c57607f821691505b6020821081036200086b57634e487b7160e01b5f52602260045260245ffd5b50919050565b601f821115620008be575f81815260208120601f850160051c81016020861015620008995750805b601f850160051c820191505b81811015620008ba57828155600101620008a5565b5050505b505050565b81516001600160401b03811115620008df57620008df62000823565b620008f781620008f0845462000837565b8462000871565b602080601f8311600181146200092d575f8415620009155750858301515b5f19600386901b1c1916600185901b178555620008ba565b5f85815260208120601f198616915b828110156200095d578886015182559484019460019091019084016200093c565b50858210156200097b57878501515f19600388901b60f8161c191681555b5050505050600190811b01905550565b5f6020808352835180828501525f5b81811015620009b8578581018301518582016040015282016200099a565b505f604082860101526040601f19601f8301168501019250505092915050565b805160208083015191908110156200086b575f1960209190910360031b1b16919050565b5f6020828403121562000a0d575f80fd5b815165ffffffffffff81168114620005b3575f80fd5b81810381811115620001aa57634e487b7160e01b5f52601160045260245ffd5b60805160a05160c05160e0516101005161012051610140516101605161521a62000abb5f395f8181610b1c0152818161149901528181611758015281816127570152612a7f01525f61170601525f6116dc01525f612c7801525f612c5001525f612bab01525f612bd501525f612bff015261521a5ff3fe6080604052600436106102c2575f3560e01c80637b3c71d31161016f578063c28bc2fa116100d8578063deaaa7cc11610092578063f23a6e611161006d578063f23a6e6114610ac1578063f8ce560a14610aec578063fc0c546a14610b0b578063fe0d94c114610b3e575f80fd5b8063deaaa7cc146109a9578063e23a9a52146109dc578063eb9019d414610aa2575f80fd5b8063c28bc2fa146108d7578063c59057e4146108ea578063d33219b414610909578063da95691a14610926578063dd4e2ba514610945578063ddf0b0091461098a575f80fd5b8063a7713a7011610129578063a7713a7014610808578063a890c9101461081c578063ab58fb8e1461083b578063b58131b01461085a578063bc197c8114610875578063c01f9e37146108a0575f80fd5b80637b3c71d3146107465780637d5e81e21461076557806384b0196e1461078457806391ddadf4146107ab57806397c3d334146107d65780639a802a6d146107e9575f80fd5b80632fe3e2611161022b57806343859632116101e557806354fd4d50116101c057806354fd4d50146106c057806356781388146106e95780635f398a141461070857806360c4247f14610727575f80fd5b80634385963214610646578063452115d61461068d5780634bf5d7e9146106ac575f80fd5b80632fe3e26114610567578063328dd9821461059a5780633932abb1146105c95780633bccf4fd146105dc5780633e4f49e6146105fb57806340e58ee514610627575f80fd5b8063143489d01161027c578063143489d014610457578063150b7a02146104aa578063160cbed7146104ed57806324bc1a641461050c5780632656227d146105205780632d63f69314610533575f80fd5b8063013cf08b1461033157806301ffc9a7146103ab57806302a251a3146103da57806303420181146103f857806306f3f9e61461041757806306fdde0314610436575f80fd5b3661032d57306102d0610b51565b6001600160a01b03161461032b5760405162461bcd60e51b815260206004820152601f60248201527f476f7665726e6f723a206d7573742073656e6420746f206578656375746f720060448201526064015b60405180910390fd5b005b5f80fd5b34801561033c575f80fd5b5061035061034b3660046140b7565b610b69565b604080519a8b526001600160a01b0390991660208b0152978901969096526060880194909452608087019290925260a086015260c085015260e084015215156101008301521515610120820152610140015b60405180910390f35b3480156103b6575f80fd5b506103ca6103c53660046140ce565b610c31565b60405190151581526020016103a2565b3480156103e5575f80fd5b5061b2fa5b6040519081526020016103a2565b348015610403575f80fd5b506103ea610412366004614205565b610c41565b348015610422575f80fd5b5061032b6104313660046140b7565b610d37565b348015610441575f80fd5b5061044a610dc0565b6040516103a291906142f1565b348015610462575f80fd5b506104926104713660046140b7565b5f90815260036020526040902054600160401b90046001600160a01b031690565b6040516001600160a01b0390911681526020016103a2565b3480156104b5575f80fd5b506104d46104c4366004614317565b630a85bd0160e11b949350505050565b6040516001600160e01b031990911681526020016103a2565b3480156104f8575f80fd5b506103ea6105073660046144df565b610e50565b348015610517575f80fd5b506103ea611044565b6103ea61052e3660046144df565b611069565b34801561053e575f80fd5b506103ea61054d3660046140b7565b5f908152600360205260409020546001600160401b031690565b348015610572575f80fd5b506103ea7fb3b3f3b703cd84ce352197dcff232b1b5d3cfb2025ce47cf04742d0651f1af8881565b3480156105a5575f80fd5b506105b96105b43660046140b7565b611158565b6040516103a2949392919061462e565b3480156105d4575f80fd5b5060016103ea565b3480156105e7575f80fd5b506103ea6105f636600461467a565b6113d8565b348015610606575f80fd5b5061061a6106153660046140b7565b61144c565b6040516103a291906146d8565b348015610632575f80fd5b5061032b6106413660046140b7565b611456565b348015610651575f80fd5b506103ca6106603660046146fe565b5f8281526008602081815260408084206001600160a01b0386168552909201905290205460ff1692915050565b348015610698575f80fd5b506103ea6106a73660046144df565b61147f565b3480156106b7575f80fd5b5061044a611495565b3480156106cb575f80fd5b506040805180820190915260018152603160f81b602082015261044a565b3480156106f4575f80fd5b506103ea61070336600461472c565b611555565b348015610713575f80fd5b506103ea610722366004614756565b61157c565b348015610732575f80fd5b506103ea6107413660046140b7565b6115c4565b348015610751575f80fd5b506103ea6107603660046147d3565b611672565b348015610770575f80fd5b506103ea61077f366004614828565b6116c2565b34801561078f575f80fd5b506107986116cf565b6040516103a297969594939291906148c1565b3480156107b6575f80fd5b506107bf611755565b60405165ffffffffffff90911681526020016103a2565b3480156107e1575f80fd5b5060646103ea565b3480156107f4575f80fd5b506103ea610803366004614922565b6117dd565b348015610813575f80fd5b506103ea6117f3565b348015610827575f80fd5b5061032b610836366004614976565b61181c565b348015610846575f80fd5b506103ea6108553660046140b7565b6118a2565b348015610865575f80fd5b50683635c9adc5dea000006103ea565b348015610880575f80fd5b506104d461088f366004614991565b63bc197c8160e01b95945050505050565b3480156108ab575f80fd5b506103ea6108ba3660046140b7565b5f908152600360205260409020600101546001600160401b031690565b61032b6108e5366004614a1d565b611938565b3480156108f5575f80fd5b506103ea6109043660046144df565b611a42565b348015610914575f80fd5b506006546001600160a01b0316610492565b348015610931575f80fd5b506103ea610940366004614ad7565b611a7b565b348015610950575f80fd5b5060408051808201909152601a81527f737570706f72743d627261766f2671756f72756d3d627261766f000000000000602082015261044a565b348015610995575f80fd5b5061032b6109a43660046140b7565b611b01565b3480156109b4575f80fd5b506103ea7f150214d74d59b7d1e90c73fc22ef3d991dd0a76b046543d4d80ab92d2a50328f81565b3480156109e7575f80fd5b50610a726109f63660046146fe565b604080516060810182525f8082526020820181905291810191909152505f9182526008602081815260408085206001600160a01b03949094168552929091018152918190208151606081018352905460ff8082161515835261010082041693820193909352620100009092046001600160601b03169082015290565b6040805182511515815260208084015160ff1690820152918101516001600160601b0316908201526060016103a2565b348015610aad575f80fd5b506103ea610abc366004614b70565b611b22565b348015610acc575f80fd5b506104d4610adb366004614b9a565b63f23a6e6160e01b95945050505050565b348015610af7575f80fd5b506103ea610b063660046140b7565b611b41565b348015610b16575f80fd5b506104927f000000000000000000000000000000000000000000000000000000000000000081565b61032b610b4c3660046140b7565b611b4b565b5f610b646006546001600160a01b031690565b905090565b805f8080808080808080610b7c8a6118a2565b5f8c8152600360205260409020549098506001600160401b03165f8c8152600360205260409020600101549097506001600160401b03165f8c815260086020526040812080546005820154600683015460078401546001600160a01b039093169e50949a509850929650919450610bf28d61144c565b90506002816007811115610c0857610c086146c4565b1493506007816007811115610c1f57610c1f6146c4565b14925050509193959799509193959799565b5f610c3b82611b6c565b92915050565b5f80610ce4610cdc7fb3b3f3b703cd84ce352197dcff232b1b5d3cfb2025ce47cf04742d0651f1af888c8c8c8c604051610c7c929190614bfd565b60405180910390208b80519060200120604051602001610cc1959493929190948552602085019390935260ff9190911660408401526060830152608082015260a00190565b60405160208183030381529060405280519060200120611b90565b868686611bbc565b9050610d298a828b8b8b8080601f0160208091040260200160405190810160405280939291908181526020018383808284375f920191909152508d9250611bd8915050565b9a9950505050505050505050565b610d3f610b51565b6001600160a01b0316336001600160a01b031614610d6f5760405162461bcd60e51b815260040161032290614c0c565b30610d78610b51565b6001600160a01b031614610db4575f8036604051610d97929190614bfd565b604051809103902090505b80610dad6004611d2a565b03610da257505b610dbd81611da7565b50565b606060028054610dcf90614c43565b80601f0160208091040260200160405190810160405280929190818152602001828054610dfb90614c43565b8015610e465780601f10610e1d57610100808354040283529160200191610e46565b820191905f5260205f20905b815481529060010190602001808311610e2957829003601f168201915b5050505050905090565b5f80610e5e86868686611a42565b90506004610e6b8261144c565b6007811115610e7c57610e7c6146c4565b14610e995760405162461bcd60e51b815260040161032290614c7b565b6006546040805163793d064960e11b815290515f926001600160a01b03169163f27a0c929160048083019260209291908290030181865afa158015610ee0573d5f803e3d5ffd5b505050506040513d601f19601f82011682018060405250810190610f049190614cbc565b60065460405163b1c5f42760e01b81529192506001600160a01b03169063b1c5f42790610f3d908a908a908a905f908b90600401614cd3565b602060405180830381865afa158015610f58573d5f803e3d5ffd5b505050506040513d601f19601f82011682018060405250810190610f7c9190614cbc565b5f838152600760205260408082209290925560065491516308f2a0bb60e41b81526001600160a01b0390921691638f2a0bb091610fc6918b918b918b91908b908990600401614d20565b5f604051808303815f87803b158015610fdd575f80fd5b505af1158015610fef573d5f803e3d5ffd5b505050507f9a2e42fd6722813d69113e7d0079d3d940171428df7373df9c7f7617cfda28928282426110219190614d8b565b604080519283526020830191909152015b60405180910390a15095945050505050565b5f610b646001611052611755565b61105c9190614d9e565b65ffffffffffff16611b41565b5f8061107786868686611a42565b90505f6110838261144c565b90506004816007811115611099576110996146c4565b14806110b6575060058160078111156110b4576110b46146c4565b145b6110d25760405162461bcd60e51b815260040161032290614c7b565b5f8281526003602052604090819020600201805460ff19166001179055517f712ae1383f79ac853f8d882153778e0260ef8f03b504e2866e0593e04d2b291f9061111f9084815260200190565b60405180910390a16111348288888888611f12565b6111418288888888611fb1565b61114e8288888888611fbe565b5095945050505050565b6060806060805f60085f8781526020019081526020015f20905080600101816002018260030183600401838054806020026020016040519081016040528092919081815260200182805480156111d557602002820191905f5260205f20905b81546001600160a01b031681526001909101906020018083116111b7575b505050505093508280548060200260200160405190810160405280929190818152602001828054801561122557602002820191905f5260205f20905b815481526020019060010190808311611211575b5050505050925081805480602002602001604051908101604052809291908181526020015f905b828210156112f4578382905f5260205f2001805461126990614c43565b80601f016020809104026020016040519081016040528092919081815260200182805461129590614c43565b80156112e05780601f106112b7576101008083540402835291602001916112e0565b820191905f5260205f20905b8154815290600101906020018083116112c357829003601f168201915b50505050508152602001906001019061124c565b50505050915080805480602002602001604051908101604052809291908181526020015f905b828210156113c2578382905f5260205f2001805461133790614c43565b80601f016020809104026020016040519081016040528092919081815260200182805461136390614c43565b80156113ae5780601f10611385576101008083540402835291602001916113ae565b820191905f5260205f20905b81548152906001019060200180831161139157829003601f168201915b50505050508152602001906001019061131a565b5050505090509450945094509450509193509193565b604080517f150214d74d59b7d1e90c73fc22ef3d991dd0a76b046543d4d80ab92d2a50328f602082015290810186905260ff851660608201525f90819061142590610cdc90608001610cc1565b905061144187828860405180602001604052805f815250611ff6565b979650505050505050565b5f610c3b82612017565b5f805f806114638561215b565b93509350935093506114778484848461147f565b505050505050565b5f61148c858585856123da565b95945050505050565b60607f00000000000000000000000000000000000000000000000000000000000000006001600160a01b0316634bf5d7e96040518163ffffffff1660e01b81526004015f60405180830381865afa92505050801561151457506040513d5f823e601f3d908101601f191682016040526115119190810190614dc4565b60015b611550575060408051808201909152601d81527f6d6f64653d626c6f636b6e756d6265722666726f6d3d64656661756c74000000602082015290565b919050565b5f8033905061157484828560405180602001604052805f815250611ff6565b949350505050565b5f8033905061144187828888888080601f0160208091040260200160405190810160405280939291908181526020018383808284375f920191909152508a9250611bd8915050565b600a545f908082036115da575050600954919050565b5f600a6115e8600184614e2c565b815481106115f8576115f8614e3f565b5f9182526020918290206040805180820190915291015463ffffffff8116808352600160201b9091046001600160e01b0316928201929092529150841061164d57602001516001600160e01b03169392505050565b611661611659856124a4565b600a9061250c565b6001600160e01b0316949350505050565b5f803390506116b886828787878080601f0160208091040260200160405190810160405280939291908181526020018383808284375f92019190915250611ff692505050565b9695505050505050565b5f61148c858585856125b9565b5f606080828080836117017f000000000000000000000000000000000000000000000000000000000000000083612620565b61172c7f00000000000000000000000000000000000000000000000000000000000000006001612620565b604080515f80825260208201909252600f60f81b9b939a50919850469750309650945092509050565b5f7f00000000000000000000000000000000000000000000000000000000000000006001600160a01b03166391ddadf46040518163ffffffff1660e01b8152600401602060405180830381865afa9250505080156117d0575060408051601f3d908101601f191682019092526117cd91810190614e53565b60015b61155057610b64436126c9565b5f6117e984848461272f565b90505b9392505050565b600a545f901561181557611807600a6127c2565b6001600160e01b0316905090565b5060095490565b611824610b51565b6001600160a01b0316336001600160a01b0316146118545760405162461bcd60e51b815260040161032290614c0c565b3061185d610b51565b6001600160a01b031614611899575f803660405161187c929190614bfd565b604051809103902090505b806118926004611d2a565b0361188757505b610dbd816127f1565b6006545f8281526007602052604080822054905163d45c443560e01b81526004810191909152909182916001600160a01b039091169063d45c443590602401602060405180830381865afa1580156118fc573d5f803e3d5ffd5b505050506040513d601f19601f820116820180604052508101906119209190614cbc565b90508060011461193057806117ec565b5f9392505050565b611940610b51565b6001600160a01b0316336001600160a01b0316146119705760405162461bcd60e51b815260040161032290614c0c565b30611979610b51565b6001600160a01b0316146119b5575f8036604051611998929190614bfd565b604051809103902090505b806119ae6004611d2a565b036119a357505b5f80856001600160a01b03168585856040516119d2929190614bfd565b5f6040518083038185875af1925050503d805f8114611a0c576040519150601f19603f3d011682016040523d82523d5f602084013e611a11565b606091505b5091509150611a3982826040518060600160405280602881526020016151bd6028913961285a565b50505050505050565b5f84848484604051602001611a5a9493929190614e78565b60408051601f19818403018152919052805160209091012095945050505050565b5f8251845114611ade5760405162461bcd60e51b815260206004820152602860248201527f476f7665726e6f72427261766f3a20696e76616c6964207369676e61747572656044820152670e640d8cadccee8d60c31b6064820152608401610322565b611aec338787878787612873565b6116b88686611afb878761292e565b856116c2565b5f805f80611b0e8561215b565b935093509350935061147784848484610e50565b5f6117ec8383611b3c60408051602081019091525f815290565b61272f565b5f610c3b82612a5d565b5f805f80611b588561215b565b935093509350935061147784848484611069565b5f6001600160e01b03198216636e665ced60e01b1480610c3b5750610c3b82612b04565b5f610c3b611b9c612b9f565b8360405161190160f01b8152600281019290925260228201526042902090565b5f805f611bcb87878787612cc8565b9150915061114e81612d85565b5f8581526003602052604081206001611bf08861144c565b6007811115611c0157611c016146c4565b14611c5a5760405162461bcd60e51b815260206004820152602360248201527f476f7665726e6f723a20766f7465206e6f742063757272656e746c792061637460448201526269766560e81b6064820152608401610322565b80545f90611c739088906001600160401b03168661272f565b9050611c828888888488612ece565b83515f03611cd657866001600160a01b03167fb8e138887d0aa13bab447e82de9d5c1777041ecd21ca36ba824ff1e6c07ddda489888489604051611cc99493929190614ec2565b60405180910390a2611441565b866001600160a01b03167fe2babfbac5889a709b63bb7f598b324e08bc5a4fb9ec647fb3cbc9ec07eb87128988848989604051611d17959493929190614ee9565b60405180910390a2979650505050505050565b5f611d448254600f81810b600160801b909204900b131590565b15611d6257604051631ed9509560e11b815260040160405180910390fd5b508054600f0b5f818152600180840160205260408220805492905583546fffffffffffffffffffffffffffffffff191692016001600160801b03169190911790915590565b6064811115611e2a5760405162461bcd60e51b815260206004820152604360248201527f476f7665726e6f72566f74657351756f72756d4672616374696f6e3a2071756f60448201527f72756d4e756d657261746f72206f7665722071756f72756d44656e6f6d696e616064820152623a37b960e91b608482015260a401610322565b5f611e336117f3565b90508015801590611e445750600a54155b15611ea657604080518082019091525f8152600a9060208101611e6684613065565b6001600160e01b0390811690915282546001810184555f93845260209384902083519490930151909116600160201b0263ffffffff909316929092179101555b611ed3611ec1611eb4611755565b65ffffffffffff166124a4565b611eca84613065565b600a91906130cd565b505060408051828152602081018490527f0553476bf02ef2726e8ce5ced78d63e26e602e4a2257b1f559418e24b4633997910160405180910390a15050565b30611f1b610b51565b6001600160a01b031614611faa575f5b845181101561147757306001600160a01b0316858281518110611f5057611f50614e3f565b60200260200101516001600160a01b031603611f9a57611f9a838281518110611f7b57611f7b614e3f565b60200260200101518051906020012060046130e790919063ffffffff16565b611fa381614f2e565b9050611f2b565b5050505050565b611faa8585858585613122565b30611fc7610b51565b6001600160a01b031614611faa57600454600f81810b600160801b909204900b1315611faa575f600455611faa565b5f61148c8585858561201260408051602081019091525f815290565b611bd8565b5f8061202283613191565b90506004816007811115612038576120386146c4565b146120435792915050565b5f838152600760205260409020548061205d575092915050565b600654604051632ab0f52960e01b8152600481018390526001600160a01b0390911690632ab0f52990602401602060405180830381865afa1580156120a4573d5f803e3d5ffd5b505050506040513d601f19601f820116820180604052508101906120c89190614f46565b156120d7575060079392505050565b600654604051632c258a9f60e11b8152600481018390526001600160a01b039091169063584b153e90602401602060405180830381865afa15801561211e573d5f803e3d5ffd5b505050506040513d601f19601f820116820180604052508101906121429190614f46565b15612151575060059392505050565b5060029392505050565b60608060605f8060085f8781526020019081526020015f209050806001018160020161231f83600301805480602002602001604051908101604052809291908181526020015f905b8282101561224b578382905f5260205f200180546121c090614c43565b80601f01602080910402602001604051908101604052809291908181526020018280546121ec90614c43565b80156122375780601f1061220e57610100808354040283529160200191612237565b820191905f5260205f20905b81548152906001019060200180831161221a57829003601f168201915b5050505050815260200190600101906121a3565b5050506004860180546040805160208084028201810190925282815293505f9084015b82821015612316578382905f5260205f2001805461228b90614c43565b80601f01602080910402602001604051908101604052809291908181526020018280546122b790614c43565b80156123025780601f106122d957610100808354040283529160200191612302565b820191905f5260205f20905b8154815290600101906020018083116122e557829003601f168201915b50505050508152602001906001019061226e565b5050505061292e565b600984015483546040805160208084028201810190925282815291869183018282801561237357602002820191905f5260205f20905b81546001600160a01b03168152600190910190602001808311612355575b50505050509350828054806020026020016040519081016040528092919081815260200182805480156123c357602002820191905f5260205f20905b8154815260200190600101908083116123af575b505050505092509450945094509450509193509193565b5f806123e886868686611a42565b5f818152600860205260409020549091506001600160a01b03163381148061243c5750683635c9adc5dea0000061243a826001612423611755565b61242d9190614d9e565b65ffffffffffff16611b22565b105b6124985760405162461bcd60e51b815260206004820152602760248201527f476f7665726e6f72427261766f3a2070726f706f7365722061626f76652074686044820152661c995cda1bdb1960ca1b6064820152608401610322565b611441878787876132ce565b5f63ffffffff8211156125085760405162461bcd60e51b815260206004820152602660248201527f53616665436173743a2076616c756520646f65736e27742066697420696e203360448201526532206269747360d01b6064820152608401610322565b5090565b81545f9081816005811115612566575f612525846132db565b61252f9085614e2c565b5f8881526020902090915081015463ffffffff908116908716101561255657809150612564565b612561816001614d8b565b92505b505b5f612573878785856133bf565b905080156125ad576125978761258a600184614e2c565b5f91825260209091200190565b54600160201b90046001600160e01b0316611441565b5f979650505050505050565b5f61261433868686516001600160401b038111156125d9576125d9614149565b60405190808252806020026020018201604052801561260c57816020015b60608152602001906001900390816125f75790505b508787612873565b61148c85858585613412565b606060ff831461263a57612633836137d7565b9050610c3b565b81805461264690614c43565b80601f016020809104026020016040519081016040528092919081815260200182805461267290614c43565b80156126bd5780601f10612694576101008083540402835291602001916126bd565b820191905f5260205f20905b8154815290600101906020018083116126a057829003601f168201915b50505050509050610c3b565b5f65ffffffffffff8211156125085760405162461bcd60e51b815260206004820152602660248201527f53616665436173743a2076616c756520646f65736e27742066697420696e203460448201526538206269747360d01b6064820152608401610322565b604051630748d63560e31b81526001600160a01b038481166004830152602482018490525f917f000000000000000000000000000000000000000000000000000000000000000090911690633a46b1a890604401602060405180830381865afa15801561279e573d5f803e3d5ffd5b505050506040513d601f19601f820116820180604052508101906117e99190614cbc565b80545f908015611930576127db8361258a600184614e2c565b54600160201b90046001600160e01b03166117ec565b600654604080516001600160a01b03928316815291831660208301527f08f74ea46ef7894f65eabfb5e6e695de773a000b47c529ab559178069b226401910160405180910390a1600680546001600160a01b0319166001600160a01b0392909216919091179055565b606083156128695750816117ec565b6117ec8383613814565b805160208201205f612890878761288a888861292e565b85611a42565b5f8181526008602052604090206009810154919250906129235780546001600160a01b0319166001600160a01b038a1617815587516128d890600183019060208b0190613efc565b5086516128ee90600283019060208a0190613f5b565b5085516129049060038301906020890190613f94565b50845161291a9060048301906020880190613fe4565b50600981018390555b505050505050505050565b60605f82516001600160401b0381111561294a5761294a614149565b60405190808252806020026020018201604052801561297d57816020015b60608152602001906001900390816129685790505b5090505f5b8151811015612a555784818151811061299d5761299d614e3f565b6020026020010151515f14612a0c578481815181106129be576129be614e3f565b6020026020010151805190602001208482815181106129df576129df614e3f565b60200260200101516040516020016129f8929190614f65565b604051602081830303815290604052612a27565b838181518110612a1e57612a1e614e3f565b60200260200101515b828281518110612a3957612a39614e3f565b602002602001018190525080612a4e90614f2e565b9050612982565b509392505050565b5f6064612a69836115c4565b604051632394e7a360e21b8152600481018590527f00000000000000000000000000000000000000000000000000000000000000006001600160a01b031690638e539e8c90602401602060405180830381865afa158015612acc573d5f803e3d5ffd5b505050506040513d601f19601f82011682018060405250810190612af09190614cbc565b612afa9190614f95565b610c3b9190614fc0565b5f63288ace0360e11b6318df743f60e31b63bf26d89760e01b6379dd796f60e01b6001600160e01b03198616821480612b4957506001600160e01b0319868116908216145b80612b6057506001600160e01b0319868116908516145b80612b7b57506001600160e01b03198616630271189760e51b145b806116b857506301ffc9a760e01b6001600160e01b03198716149695505050505050565b5f306001600160a01b037f000000000000000000000000000000000000000000000000000000000000000016148015612bf757507f000000000000000000000000000000000000000000000000000000000000000046145b15612c2157507f000000000000000000000000000000000000000000000000000000000000000090565b610b64604080517f8b73c3c69bb8fe3d512ecc4cf759cc79239f7b179b0ffacaa9a75d522b39400f60208201527f0000000000000000000000000000000000000000000000000000000000000000918101919091527f000000000000000000000000000000000000000000000000000000000000000060608201524660808201523060a08201525f9060c00160405160208183030381529060405280519060200120905090565b5f807f7fffffffffffffffffffffffffffffff5d576e7357a4501ddfe92f46681b20a0831115612cfd57505f90506003612d7c565b604080515f8082526020820180845289905260ff881692820192909252606081018690526080810185905260019060a0016020604051602081039080840390855afa158015612d4e573d5f803e3d5ffd5b5050604051601f1901519150506001600160a01b038116612d76575f60019250925050612d7c565b91505f90505b94509492505050565b5f816004811115612d9857612d986146c4565b03612da05750565b6001816004811115612db457612db46146c4565b03612e015760405162461bcd60e51b815260206004820152601860248201527f45434453413a20696e76616c6964207369676e617475726500000000000000006044820152606401610322565b6002816004811115612e1557612e156146c4565b03612e625760405162461bcd60e51b815260206004820152601f60248201527f45434453413a20696e76616c6964207369676e6174757265206c656e677468006044820152606401610322565b6003816004811115612e7657612e766146c4565b03610dbd5760405162461bcd60e51b815260206004820152602260248201527f45434453413a20696e76616c6964207369676e6174757265202773272076616c604482015261756560f01b6064820152608401610322565b5f8581526008602081815260408084206001600160a01b0389168552928301909152909120805460ff1615612f5b5760405162461bcd60e51b815260206004820152602d60248201527f476f7665726e6f72436f6d7061746962696c697479427261766f3a20766f746560448201526c08185b1c9958591e4818d85cdd609a1b6064820152608401610322565b805460ff86166101000261ffff19909116176001178155612f7b8461383e565b81546001600160601b039190911662010000026dffffffffffffffffffffffff00001990911617815560ff8516612fca5783826006015f828254612fbf9190614d8b565b90915550611a399050565b5f1960ff861601612fe85783826005015f828254612fbf9190614d8b565b60011960ff8616016130075783826007015f828254612fbf9190614d8b565b60405162461bcd60e51b815260206004820152602d60248201527f476f7665726e6f72436f6d7061746962696c697479427261766f3a20696e766160448201526c6c696420766f7465207479706560981b6064820152608401610322565b5f6001600160e01b038211156125085760405162461bcd60e51b815260206004820152602760248201527f53616665436173743a2076616c756520646f65736e27742066697420696e20326044820152663234206269747360c81b6064820152608401610322565b5f806130da8585856138a5565b915091505b935093915050565b8154600160801b90819004600f0b5f818152600180860160205260409091209390935583546001600160801b03908116939091011602179055565b60065460405163e38335e560e01b81526001600160a01b039091169063e38335e590349061315c908890889088905f908990600401614cd3565b5f604051808303818588803b158015613173575f80fd5b505af1158015613185573d5f803e3d5ffd5b50505050505050505050565b5f818152600360205260408120600281015460ff16156131b45750600792915050565b6002810154610100900460ff16156131cf5750600292915050565b5f838152600360205260408120546001600160401b0316908190036132365760405162461bcd60e51b815260206004820152601d60248201527f476f7665726e6f723a20756e6b6e6f776e2070726f706f73616c2069640000006044820152606401610322565b5f61323f611755565b65ffffffffffff16905080821061325a57505f949350505050565b5f858152600360205260409020600101546001600160401b03168181106132875750600195945050505050565b61329086613a40565b80156132b157505f8681526008602052604090206006810154600590910154115b156132c25750600495945050505050565b50600395945050505050565b5f61148c85858585613a7c565b5f815f036132ea57505f919050565b5f60016132f684613b25565b901c6001901b9050600181848161330f5761330f614fac565b048201901c9050600181848161332757613327614fac565b048201901c9050600181848161333f5761333f614fac565b048201901c9050600181848161335757613357614fac565b048201901c9050600181848161336f5761336f614fac565b048201901c9050600181848161338757613387614fac565b048201901c9050600181848161339f5761339f614fac565b048201901c90506117ec818285816133b9576133b9614fac565b04613bb8565b5f5b81831015612a55575f6133d48484613bcd565b5f8781526020902090915063ffffffff86169082015463ffffffff1611156133fe5780925061340c565b613409816001614d8b565b93505b506133c1565b5f3361341e8184613be7565b61346a5760405162461bcd60e51b815260206004820152601d60248201527f476f7665726e6f723a2070726f706f73657220726573747269637465640000006044820152606401610322565b5f613473611755565b65ffffffffffff169050683635c9adc5dea0000061349683610abc600185614e2c565b10156134fe5760405162461bcd60e51b815260206004820152603160248201527f476f7665726e6f723a2070726f706f73657220766f7465732062656c6f7720706044820152701c9bdc1bdcd85b081d1a1c995cda1bdb19607a1b6064820152608401610322565b5f6135128888888880519060200120611a42565b905086518851146135355760405162461bcd60e51b815260040161032290614fdf565b85518851146135565760405162461bcd60e51b815260040161032290614fdf565b5f8851116135a65760405162461bcd60e51b815260206004820152601860248201527f476f7665726e6f723a20656d7074792070726f706f73616c00000000000000006044820152606401610322565b5f818152600360205260409020546001600160401b0316156136145760405162461bcd60e51b815260206004820152602160248201527f476f7665726e6f723a2070726f706f73616c20616c72656164792065786973746044820152607360f81b6064820152608401610322565b5f613620600184614d8b565b90505f61362f61b2fa83614d8b565b90506040518060e0016040528061364584613cd5565b6001600160401b031681526001600160a01b03871660208201525f604082015260600161367183613cd5565b6001600160401b0390811682525f60208084018290526040808501839052606094850183905288835260038252918290208551815492870151878501519186166001600160e01b031990941693909317600160401b6001600160a01b039094168402176001600160e01b0316600160e01b60e09290921c91909102178155938501516080860151908416921c0217600183015560a08301516002909201805460c09094015161ffff1990941692151561ff00191692909217610100931515939093029290921790558a517f7d84a6263ae0d98d3329bd7b46bb4e8d6f98cd35a7adb45c274c8b7fd5ebd5e091859188918e918e9181111561377457613774614149565b6040519080825280602002602001820160405280156137a757816020015b60608152602001906001900390816137925790505b508d88888f6040516137c199989796959493929190615020565b60405180910390a1509098975050505050505050565b60605f6137e383613d3c565b6040805160208082528183019092529192505f91906020820181803683375050509182525060208101929092525090565b8151156138245781518083602001fd5b8060405162461bcd60e51b815260040161032291906142f1565b5f6001600160601b038211156125085760405162461bcd60e51b815260206004820152602660248201527f53616665436173743a2076616c756520646f65736e27742066697420696e203960448201526536206269747360d01b6064820152608401610322565b82545f90819080156139e8575f6138c18761258a600185614e2c565b60408051808201909152905463ffffffff808216808452600160201b9092046001600160e01b0316602084015291925090871610156139425760405162461bcd60e51b815260206004820152601b60248201527f436865636b706f696e743a2064656372656173696e67206b65797300000000006044820152606401610322565b805163ffffffff80881691160361398a57846139638861258a600186614e2c565b80546001600160e01b0392909216600160201b0263ffffffff9092169190911790556139d8565b6040805180820190915263ffffffff80881682526001600160e01b0380881660208085019182528b54600181018d555f8d81529190912094519151909216600160201b029216919091179101555b6020015192508391506130df9050565b50506040805180820190915263ffffffff80851682526001600160e01b0380851660208085019182528854600181018a555f8a815291822095519251909316600160201b0291909316179201919091559050816130df565b5f8181526008602052604081206005810154613a73610b06855f908152600360205260409020546001600160401b031690565b11159392505050565b5f80613a8a86868686613d63565b5f818152600760205260409020549091501561148c576006545f828152600760205260409081902054905163c4d252f560e01b81526001600160a01b039092169163c4d252f591613ae19160040190815260200190565b5f604051808303815f87803b158015613af8575f80fd5b505af1158015613b0a573d5f803e3d5ffd5b5050505f828152600760205260408120555095945050505050565b5f80608083901c15613b3957608092831c92015b604083901c15613b4b57604092831c92015b602083901c15613b5d57602092831c92015b601083901c15613b6f57601092831c92015b600883901c15613b8157600892831c92015b600483901c15613b9357600492831c92015b600283901c15613ba557600292831c92015b600183901c15610c3b5760010192915050565b5f818310613bc657816117ec565b5090919050565b5f613bdb6002848418614fc0565b6117ec90848416614d8b565b80515f906034811015613bfe576001915050610c3b565b82810160131901516001600160a01b031981166b046e0e4dee0dee6cae47a60f60a31b14613c3157600192505050610c3b565b5f80613c3e602885614e2c565b90505b83811015613cb4575f80613c74888481518110613c6057613c60614e3f565b01602001516001600160f81b031916613e6c565b9150915081613c8c5760019650505050505050610c3b565b8060ff166004856001600160a01b0316901b179350505080613cad90614f2e565b9050613c41565b50856001600160a01b0316816001600160a01b031614935050505092915050565b5f6001600160401b038211156125085760405162461bcd60e51b815260206004820152602660248201527f53616665436173743a2076616c756520646f65736e27742066697420696e203660448201526534206269747360d01b6064820152608401610322565b5f60ff8216601f811115610c3b57604051632cd44ac360e21b815260040160405180910390fd5b5f80613d7186868686611a42565b90505f613d7d8261144c565b90506002816007811115613d9357613d936146c4565b14158015613db357506006816007811115613db057613db06146c4565b14155b8015613dd157506007816007811115613dce57613dce6146c4565b14155b613e1d5760405162461bcd60e51b815260206004820152601d60248201527f476f7665726e6f723a2070726f706f73616c206e6f74206163746976650000006044820152606401610322565b5f8281526003602052604090819020600201805461ff001916610100179055517f789cf55be980739dad1d0699b93b58e806b51c9d96619bfa8fe0a28abaa7b30c906110329084815260200190565b5f8060f883901c602f81118015613e865750603a8160ff16105b15613e9b57600194602f199091019350915050565b8060ff166040108015613eb1575060478160ff16105b15613ec6576001946036199091019350915050565b8060ff166060108015613edc575060678160ff16105b15613ef1576001946056199091019350915050565b505f93849350915050565b828054828255905f5260205f20908101928215613f4f579160200282015b82811115613f4f57825182546001600160a01b0319166001600160a01b03909116178255602090920191600190910190613f1a565b50612508929150614034565b828054828255905f5260205f20908101928215613f4f579160200282015b82811115613f4f578251825591602001919060010190613f79565b828054828255905f5260205f20908101928215613fd8579160200282015b82811115613fd85782518290613fc89082615101565b5091602001919060010190613fb2565b50612508929150614048565b828054828255905f5260205f20908101928215614028579160200282015b8281111561402857825182906140189082615101565b5091602001919060010190614002565b50612508929150614064565b5b80821115612508575f8155600101614035565b80821115612508575f61405b8282614080565b50600101614048565b80821115612508575f6140778282614080565b50600101614064565b50805461408c90614c43565b5f825580601f1061409b575050565b601f0160209004905f5260205f2090810190610dbd9190614034565b5f602082840312156140c7575f80fd5b5035919050565b5f602082840312156140de575f80fd5b81356001600160e01b0319811681146117ec575f80fd5b803560ff81168114611550575f80fd5b5f8083601f840112614115575f80fd5b5081356001600160401b0381111561412b575f80fd5b602083019150836020828501011115614142575f80fd5b9250929050565b634e487b7160e01b5f52604160045260245ffd5b604051601f8201601f191681016001600160401b038111828210171561418557614185614149565b604052919050565b5f6001600160401b038211156141a5576141a5614149565b50601f01601f191660200190565b5f82601f8301126141c2575f80fd5b81356141d56141d08261418d565b61415d565b8181528460208386010111156141e9575f80fd5b816020850160208301375f918101602001919091529392505050565b5f805f805f805f8060e0898b03121561421c575f80fd5b8835975061422c60208a016140f5565b965060408901356001600160401b0380821115614247575f80fd5b6142538c838d01614105565b909850965060608b013591508082111561426b575f80fd5b506142788b828c016141b3565b94505061428760808a016140f5565b925060a0890135915060c089013590509295985092959890939650565b5f5b838110156142be5781810151838201526020016142a6565b50505f910152565b5f81518084526142dd8160208601602086016142a4565b601f01601f19169290920160200192915050565b602081525f6117ec60208301846142c6565b6001600160a01b0381168114610dbd575f80fd5b5f805f806080858703121561432a575f80fd5b843561433581614303565b9350602085013561434581614303565b92506040850135915060608501356001600160401b03811115614366575f80fd5b614372878288016141b3565b91505092959194509250565b5f6001600160401b0382111561439657614396614149565b5060051b60200190565b5f82601f8301126143af575f80fd5b813560206143bf6141d08361437e565b82815260059290921b840181019181810190868411156143dd575f80fd5b8286015b848110156144015780356143f481614303565b83529183019183016143e1565b509695505050505050565b5f82601f83011261441b575f80fd5b8135602061442b6141d08361437e565b82815260059290921b84018101918181019086841115614449575f80fd5b8286015b84811015614401578035835291830191830161444d565b5f82601f830112614473575f80fd5b813560206144836141d08361437e565b82815260059290921b840181019181810190868411156144a1575f80fd5b8286015b848110156144015780356001600160401b038111156144c3575f8081fd5b6144d18986838b01016141b3565b8452509183019183016144a5565b5f805f80608085870312156144f2575f80fd5b84356001600160401b0380821115614508575f80fd5b614514888389016143a0565b95506020870135915080821115614529575f80fd5b6145358883890161440c565b9450604087013591508082111561454a575f80fd5b5061455787828801614464565b949793965093946060013593505050565b5f8151808452602080850194508084015f5b8381101561459f5781516001600160a01b03168752958201959082019060010161457a565b509495945050505050565b5f8151808452602080850194508084015f5b8381101561459f578151875295820195908201906001016145bc565b5f82825180855260208086019550808260051b8401018186015f5b8481101561462157601f1986840301895261460f8383516142c6565b988401989250908301906001016145f3565b5090979650505050505050565b608081525f6146406080830187614568565b828103602084015261465281876145aa565b9050828103604084015261466681866145d8565b9050828103606084015261144181856145d8565b5f805f805f60a0868803121561468e575f80fd5b8535945061469e602087016140f5565b93506146ac604087016140f5565b94979396509394606081013594506080013592915050565b634e487b7160e01b5f52602160045260245ffd5b60208101600883106146f857634e487b7160e01b5f52602160045260245ffd5b91905290565b5f806040838503121561470f575f80fd5b82359150602083013561472181614303565b809150509250929050565b5f806040838503121561473d575f80fd5b8235915061474d602084016140f5565b90509250929050565b5f805f805f6080868803121561476a575f80fd5b8535945061477a602087016140f5565b935060408601356001600160401b0380821115614795575f80fd5b6147a189838a01614105565b909550935060608801359150808211156147b9575f80fd5b506147c6888289016141b3565b9150509295509295909350565b5f805f80606085870312156147e6575f80fd5b843593506147f6602086016140f5565b925060408501356001600160401b03811115614810575f80fd5b61481c87828801614105565b95989497509550505050565b5f805f806080858703121561483b575f80fd5b84356001600160401b0380821115614851575f80fd5b61485d888389016143a0565b95506020870135915080821115614872575f80fd5b61487e8883890161440c565b94506040870135915080821115614893575f80fd5b61489f88838901614464565b935060608701359150808211156148b4575f80fd5b50614372878288016141b3565b60ff60f81b8816815260e060208201525f6148df60e08301896142c6565b82810360408401526148f181896142c6565b606084018890526001600160a01b038716608085015260a0840186905283810360c08501529050610d2981856145aa565b5f805f60608486031215614934575f80fd5b833561493f81614303565b92506020840135915060408401356001600160401b03811115614960575f80fd5b61496c868287016141b3565b9150509250925092565b5f60208284031215614986575f80fd5b81356117ec81614303565b5f805f805f60a086880312156149a5575f80fd5b85356149b081614303565b945060208601356149c081614303565b935060408601356001600160401b03808211156149db575f80fd5b6149e789838a0161440c565b945060608801359150808211156149fc575f80fd5b614a0889838a0161440c565b935060808801359150808211156147b9575f80fd5b5f805f8060608587031215614a30575f80fd5b8435614a3b81614303565b93506020850135925060408501356001600160401b03811115614810575f80fd5b5f82601f830112614a6b575f80fd5b81356020614a7b6141d08361437e565b82815260059290921b84018101918181019086841115614a99575f80fd5b8286015b848110156144015780356001600160401b03811115614abb575f8081fd5b614ac98986838b01016141b3565b845250918301918301614a9d565b5f805f805f60a08688031215614aeb575f80fd5b85356001600160401b0380821115614b01575f80fd5b614b0d89838a016143a0565b96506020880135915080821115614b22575f80fd5b614b2e89838a0161440c565b95506040880135915080821115614b43575f80fd5b614b4f89838a01614a5c565b94506060880135915080821115614b64575f80fd5b614a0889838a01614464565b5f8060408385031215614b81575f80fd5b8235614b8c81614303565b946020939093013593505050565b5f805f805f60a08688031215614bae575f80fd5b8535614bb981614303565b94506020860135614bc981614303565b9350604086013592506060860135915060808601356001600160401b03811115614bf1575f80fd5b6147c6888289016141b3565b818382375f9101908152919050565b60208082526018908201527f476f7665726e6f723a206f6e6c79476f7665726e616e63650000000000000000604082015260600190565b600181811c90821680614c5757607f821691505b602082108103614c7557634e487b7160e01b5f52602260045260245ffd5b50919050565b60208082526021908201527f476f7665726e6f723a2070726f706f73616c206e6f74207375636365737366756040820152601b60fa1b606082015260800190565b5f60208284031215614ccc575f80fd5b5051919050565b60a081525f614ce560a0830188614568565b8281036020840152614cf781886145aa565b90508281036040840152614d0b81876145d8565b60608401959095525050608001529392505050565b60c081525f614d3260c0830189614568565b8281036020840152614d4481896145aa565b90508281036040840152614d5881886145d8565b60608401969096525050608081019290925260a0909101529392505050565b634e487b7160e01b5f52601160045260245ffd5b80820180821115610c3b57610c3b614d77565b65ffffffffffff828116828216039080821115614dbd57614dbd614d77565b5092915050565b5f60208284031215614dd4575f80fd5b81516001600160401b03811115614de9575f80fd5b8201601f81018413614df9575f80fd5b8051614e076141d08261418d565b818152856020838501011115614e1b575f80fd5b61148c8260208301602086016142a4565b81810381811115610c3b57610c3b614d77565b634e487b7160e01b5f52603260045260245ffd5b5f60208284031215614e63575f80fd5b815165ffffffffffff811681146117ec575f80fd5b608081525f614e8a6080830187614568565b8281036020840152614e9c81876145aa565b90508281036040840152614eb081866145d8565b91505082606083015295945050505050565b84815260ff84166020820152826040820152608060608201525f6116b860808301846142c6565b85815260ff8516602082015283604082015260a060608201525f614f1060a08301856142c6565b8281036080840152614f2281856142c6565b98975050505050505050565b5f60018201614f3f57614f3f614d77565b5060010190565b5f60208284031215614f56575f80fd5b815180151581146117ec575f80fd5b6001600160e01b03198316815281515f90614f878160048501602087016142a4565b919091016004019392505050565b8082028115828204841417610c3b57610c3b614d77565b634e487b7160e01b5f52601260045260245ffd5b5f82614fda57634e487b7160e01b5f52601260045260245ffd5b500490565b60208082526021908201527f476f7665726e6f723a20696e76616c69642070726f706f73616c206c656e67746040820152600d60fb1b606082015260800190565b8981526001600160a01b0389166020820152610120604082018190525f9061504a8382018b614568565b9050828103606084015261505e818a6145aa565b9050828103608084015261507281896145d8565b905082810360a084015261508681886145d8565b90508560c08401528460e08401528281036101008401526150a781856142c6565b9c9b505050505050505050505050565b601f8211156150fc575f81815260208120601f850160051c810160208610156150dd5750805b601f850160051c820191505b81811015611477578281556001016150e9565b505050565b81516001600160401b0381111561511a5761511a614149565b61512e816151288454614c43565b846150b7565b602080601f831160018114615161575f841561514a5750858301515b5f19600386901b1c1916600185901b178555611477565b5f85815260208120601f198616915b8281101561518f57888601518255948401946001909101908401615170565b50858210156151ac57878501515f19600388901b60f8161c191681555b5050505050600190811b0190555056fe476f7665726e6f723a2072656c617920726576657274656420776974686f7574206d657373616765a2646970667358221220f14ba27be31ecf56b46c279a5e83bca20d8cb0cfb51a39ecc3884b1fcc99bc0b64736f6c63430008140033",
    "linkReferences": {}
  },
  "methodIdentifiers": {
    "BALLOT_TYPEHASH()": "deaaa7cc",
    "CLOCK_MODE()": "4bf5d7e9",
    "COUNTING_MODE()": "dd4e2ba5",
    "EXTENDED_BALLOT_TYPEHASH()": "2fe3e261",
    "cancel(address[],uint256[],bytes[],bytes32)": "452115d6",
    "cancel(uint256)": "40e58ee5",
    "castVote(uint256,uint8)": "56781388",
    "castVoteBySig(uint256,uint8,uint8,bytes32,bytes32)": "3bccf4fd",
    "castVoteWithReason(uint256,uint8,string)": "7b3c71d3",
    "castVoteWithReasonAndParams(uint256,uint8,string,bytes)": "5f398a14",
    "castVoteWithReasonAndParamsBySig(uint256,uint8,string,bytes,uint8,bytes32,bytes32)": "03420181",
    "clock()": "91ddadf4",
    "eip712Domain()": "84b0196e",
    "execute(address[],uint256[],bytes[],bytes32)": "2656227d",
    "execute(uint256)": "fe0d94c1",
    "getActions(uint256)": "328dd982",
    "getReceipt(uint256,address)": "e23a9a52",
    "getVotes(address,uint256)": "eb9019d4",
    "getVotesWithParams(address,uint256,bytes)": "9a802a6d",
    "hasVoted(uint256,address)": "43859632",
    "hashProposal(address[],uint256[],bytes[],bytes32)": "c59057e4",
    "name()": "06fdde03",
    "onERC1155BatchReceived(address,address,uint256[],uint256[],bytes)": "bc197c81",
    "onERC1155Received(address,address,uint256,uint256,bytes)": "f23a6e61",
    "onERC721Received(address,address,uint256,bytes)": "150b7a02",
    "proposalDeadline(uint256)": "c01f9e37",
    "proposalEta(uint256)": "ab58fb8e",
    "proposalProposer(uint256)": "143489d0",
    "proposalSnapshot(uint256)": "2d63f693",
    "proposalThreshold()": "b58131b0",
    "proposals(uint256)": "013cf08b",
    "propose(address[],uint256[],bytes[],string)": "7d5e81e2",
    "propose(address[],uint256[],string[],bytes[],string)": "da95691a",
    "queue(address[],uint256[],bytes[],bytes32)": "160cbed7",
    "queue(uint256)": "ddf0b009",
    "quorum(uint256)": "f8ce560a",
    "quorumDenominator()": "97c3d334",
    "quorumNumerator()": "a7713a70",
    "quorumNumerator(uint256)": "60c4247f",
    "quorumVotes()": "24bc1a64",
    "relay(address,uint256,bytes)": "c28bc2fa",
    "state(uint256)": "3e4f49e6",
    "supportsInterface(bytes4)": "01ffc9a7",
    "timelock()": "d33219b4",
    "token()": "fc0c546a",
    "updateQuorumNumerator(uint256)": "06f3f9e6",
    "updateTimelock(address)": "a890c910",
    "version()": "54fd4d50",
    "votingDelay()": "3932abb1",
    "votingPeriod()": "02a251a3"
  },
  "id": 152
}