{
  "abi": [
    {
      "type": "function",
      "name": "mockFunction",
      "inputs": [],
      "outputs": [
        {
          "name": "",
          "type": "string",
          "internalType": "string"
        }
      ],
      "stateMutability": "payable"
    },
    {
      "type": "function",
      "name": "mockFunctionEmptyReturn",
      "inputs": [],
      "outputs": [],
      "stateMutability": "payable"
    },
    {
      "type": "function",
      "name": "mockFunctionNonPayable",
      "inputs": [],
      "outputs": [
        {
          "name": "",
          "type": "string",
          "internalType": "string"
        }
      ],
      "stateMutability": "nonpayable"
    },
    {
      "type": "function",
      "name": "mockFunctionOutOfGas",
      "inputs": [],
      "outputs": [],
      "stateMutability": "payable"
    },
    {
      "type": "function",
      "name": "mockFunctionRevertsNoReason",
      "inputs": [],
      "outputs": [],
      "stateMutability": "payable"
    },
    {
      "type": "function",
      "name": "mockFunctionRevertsReason",
      "inputs": [],
      "outputs": [],
      "stateMutability": "payable"
    },
    {
      "type": "function",
      "name": "mockFunctionThrows",
      "inputs": [],
      "outputs": [],
      "stateMutability": "payable"
    },
    {
      "type": "function",
      "name": "mockFunctionWithArgs",
      "inputs": [
        {
          "name": "a",
          "type": "uint256",
          "internalType": "uint256"
        },
        {
          "name": "b",
          "type": "uint256",
          "internalType": "uint256"
        }
      ],
      "outputs": [
        {
          "name": "",
          "type": "string",
          "internalType": "string"
        }
      ],
      "stateMutability": "payable"
    },
    {
      "type": "function",
      "name": "mockFunctionWritesStorage",
      "inputs": [
        {
          "name": "slot",
          "type": "bytes32",
          "internalType": "bytes32"
        },
        {
          "name": "value",
          "type": "bytes32",
          "internalType": "bytes32"
        }
      ],
      "outputs": [
        {
          "name": "",
          "type": "string",
          "internalType": "string"
        }
      ],
      "stateMutability": "nonpayable"
    },
    {
      "type": "function",
      "name": "mockStaticFunction",
      "inputs": [],
      "outputs": [
        {
          "name": "",
          "type": "string",
          "internalType": "string"
        }
      ],
      "stateMutability": "pure"
    },
    {
      "type": "event",
      "name": "MockFunctionCalled",
      "inputs": [],
      "anonymous": false
    },
    {
      "type": "event",
      "name": "MockFunctionCalledWithArgs",
      "inputs": [
        {
          "name": "a",
          "type": "uint256",
          "indexed": false,
          "internalType": "uint256"
        },
        {
          "name": "b",
          "type": "uint256",
          "indexed": false,
          "internalType": "uint256"
        }
      ],
      "anonymous": false
    }
  ],
  "bytecode": {
    "object": "0x608060405234801561000f575f80fd5b506103b38061001d5f395ff3fe60806040526004361061008f575f3560e01c8063425397a211610057578063425397a2146100de578063a793ab471461011a578063c292d81c14610122578063c8fc76961461012a578063fdb2732514610158575f80fd5b80630c034968146100935780630f63e42c1461009d5780632c81d638146100c75780633bcfaa14146100ce5780633e6fec04146100d6575b5f80fd5b61009b61016b565b005b3480156100a8575f80fd5b506100b16101b7565b6040516100be91906102da565b60405180910390f35b61009b5f80fd5b61009b610203565b6100b16101b7565b3480156100e9575f80fd5b506100b16100f8366004610325565b90556040805180820190915260068152650c1e0c4c8ccd60d21b602082015290565b61009b61020d565b61009b610250565b348015610135575f80fd5b506040805180820190915260068152650c1e0c4c8ccd60d21b60208201526100b1565b6100b1610166366004610325565b61027a565b60405162461bcd60e51b815260206004820152601b60248201527f43616c6c52656365697665724d6f636b3a20726576657274696e670000000000604482015260640160405180910390fd5b6040516060907f52c66ed6ec9ca819cba26fe2b2650059270d8981b295af300187a964f54a8c23905f90a1506040805180820190915260068152650c1e0c4c8ccd60d21b602082015290565b61020b610345565b565b5f5b5f80546001810182559080527f290decd9548b62a8d60345a988386fc84ba6bc95484008f6362f93160ef3e5630181905561024981610359565b905061020f565b6040517f52c66ed6ec9ca819cba26fe2b2650059270d8981b295af300187a964f54a8c23905f90a1565b60408051838152602081018390526060917f2b42b3c9af4187c86225f201736204c7597312c830cb5c2537dff6ef24b946ae910160405180910390a1506040805180820190915260068152650c1e0c4c8ccd60d21b602082015292915050565b5f6020808352835180828501525f5b81811015610305578581018301518582016040015282016102e9565b505f604082860101526040601f19601f8301168501019250505092915050565b5f8060408385031215610336575f80fd5b50508035926020909101359150565b634e487b7160e01b5f52600160045260245ffd5b5f6001820161037657634e487b7160e01b5f52601160045260245ffd5b506001019056fea2646970667358221220f230a08e2bb668df7b1839c609fbee3444612adeed3ceed2bf95b49dca6c93ac64736f6c63430008140033",
    "linkReferences": {}
  },
  "methodIdentifiers": {
    "mockFunction()": "3e6fec04",
    "mockFunctionEmptyReturn()": "c292d81c",
    "mockFunctionNonPayable()": "0f63e42c",
    "mockFunctionOutOfGas()": "a793ab47",
    "mockFunctionRevertsNoReason()": "2c81d638",
    "mockFunctionRevertsReason()": "0c034968",
    "mockFunctionThrows()": "3bcfaa14",
    "mockFunctionWithArgs(uint256,uint256)": "fdb27325",
    "mockFunctionWritesStorage(bytes32,bytes32)": "425397a2",
    "mockStaticFunction()": "c8fc7696"
  },
  "id": 80
}