{
  "abi": [
    {
      "type": "receive",
      "stateMutability": "payable"
    },
    {
      "type": "function",
      "name": "setAcceptEther",
      "inputs": [
        {
          "name": "acceptEther",
          "type": "bool",
          "internalType": "bool"
        }
      ],
      "outputs": [],
      "stateMutability": "nonpayable"
    }
  ],
  "bytecode": {
    "object": "0x608060405234801561000f575f80fd5b5060b68061001c5f395ff3fe608060405260043610601e575f3560e01c80634fea120c146034575f80fd5b366030575f5460ff16602e575f80fd5b005b5f80fd5b348015603e575f80fd5b50602e604a366004605c565b5f805460ff1916911515919091179055565b5f60208284031215606b575f80fd5b813580151581146079575f80fd5b939250505056fea26469706673582212203510e3baba451d35bc4818ab3c3d51a9a6b2621aeb15588fd4c0a3e2a41bf51864736f6c63430008140033",
    "linkReferences": {}
  },
  "methodIdentifiers": {
    "setAcceptEther(bool)": "4fea120c"
  },
  "id": 95
}