{
  "abi": [
    {
      "type": "function",
      "name": "deposit",
      "inputs": [
        {
          "name": "payee",
          "type": "address",
          "internalType": "address"
        }
      ],
      "outputs": [],
      "stateMutability": "payable"
    },
    {
      "type": "function",
      "name": "depositsOf",
      "inputs": [
        {
          "name": "payee",
          "type": "address",
          "internalType": "address"
        }
      ],
      "outputs": [
        {
          "name": "",
          "type": "uint256",
          "internalType": "uint256"
        }
      ],
      "stateMutability": "view"
    },
    {
      "type": "function",
      "name": "owner",
      "inputs": [],
      "outputs": [
        {
          "name": "",
          "type": "address",
          "internalType": "address"
        }
      ],
      "stateMutability": "view"
    },
    {
      "type": "function",
      "name": "renounceOwnership",
      "inputs": [],
      "outputs": [],
      "stateMutability": "nonpayable"
    },
    {
      "type": "function",
      "name": "setAllowed",
      "inputs": [
        {
          "name": "payee",
          "type": "address",
          "internalType": "address"
        },
        {
          "name": "allowed",
          "type": "bool",
          "internalType": "bool"
        }
      ],
      "outputs": [],
      "stateMutability": "nonpayable"
    },
    {
      "type": "function",
      "name": "transferOwnership",
      "inputs": [
        {
          "name": "newOwner",
          "type": "address",
          "internalType": "address"
        }
      ],
      "outputs": [],
      "stateMutability": "nonpayable"
    },
    {
      "type": "function",
      "name": "withdraw",
      "inputs": [
        {
          "name": "payee",
          "type": "address",
          "internalType": "address payable"
        }
      ],
      "outputs": [],
      "stateMutability": "nonpayable"
    },
    {
      "type": "function",
      "name": "withdrawalAllowed",
      "inputs": [
        {
          "name": "payee",
          "type": "address",
          "internalType": "address"
        }
      ],
      "outputs": [
        {
          "name": "",
          "type": "bool",
          "internalType": "bool"
        }
      ],
      "stateMutability": "view"
    },
    {
      "type": "event",
      "name": "Deposited",
      "inputs": [
        {
          "name": "payee",
          "type": "address",
          "indexed": true,
          "internalType": "address"
        },
        {
          "name": "weiAmount",
          "type": "uint256",
          "indexed": false,
          "internalType": "uint256"
        }
      ],
      "anonymous": false
    },
    {
      "type": "event",
      "name": "OwnershipTransferred",
      "inputs": [
        {
          "name": "previousOwner",
          "type": "address",
          "indexed": true,
          "internalType": "address"
        },
        {
          "name": "newOwner",
          "type": "address",
          "indexed": true,
          "internalType": "address"
        }
      ],
      "anonymous": false
    },
    {
      "type": "event",
      "name": "Withdrawn",
      "inputs": [
        {
          "name": "payee",
          "type": "address",
          "indexed": true,
          "internalType": "address"
        },
        {
          "name": "weiAmount",
          "type": "uint256",
          "indexed": false,
          "internalType": "uint256"
        }
      ],
      "anonymous": false
    }
  ],
  "bytecode": {
    "object": "0x608060405234801561000f575f80fd5b506100193361001e565b61006d565b5f80546001600160a01b038381166001600160a01b0319831681178455604051919092169283917f8be0079c531659141344cd1fd0a4f28419497f9722a3daafe3b4186f6b6457e09190a35050565b61066a8061007a5f395ff3fe608060405260043610610079575f3560e01c80638da5cb5b1161004c5780638da5cb5b14610142578063e3a9db1a14610168578063f2fde38b146101aa578063f340fa01146101c9575f80fd5b80634697f05d1461007d57806351cff8d9146100c3578063685ca194146100e2578063715018a61461012e575b5f80fd5b348015610088575f80fd5b506100c16100973660046105b2565b6001600160a01b03919091165f908152600260205260409020805460ff1916911515919091179055565b005b3480156100ce575f80fd5b506100c16100dd3660046105ed565b6101dc565b3480156100ed575f80fd5b506101196100fc3660046105ed565b6001600160a01b03165f9081526002602052604090205460ff1690565b60405190151581526020015b60405180910390f35b348015610139575f80fd5b506100c1610270565b34801561014d575f80fd5b505f546040516001600160a01b039091168152602001610125565b348015610173575f80fd5b5061019c6101823660046105ed565b6001600160a01b03165f9081526001602052604090205490565b604051908152602001610125565b3480156101b5575f80fd5b506100c16101c43660046105ed565b610283565b6100c16101d73660046105ed565b6102f9565b6001600160a01b0381165f9081526002602052604090205460ff166102645760405162461bcd60e51b815260206004820152603360248201527f436f6e646974696f6e616c457363726f773a207061796565206973206e6f7420604482015272616c6c6f77656420746f20776974686472617760681b60648201526084015b60405180910390fd5b61026d81610372565b50565b6102786103dc565b6102815f610435565b565b61028b6103dc565b6001600160a01b0381166102f05760405162461bcd60e51b815260206004820152602660248201527f4f776e61626c653a206e6577206f776e657220697320746865207a65726f206160448201526564647265737360d01b606482015260840161025b565b61026d81610435565b6103016103dc565b6001600160a01b0381165f9081526001602052604081208054349283929161032a90849061060f565b90915550506040518181526001600160a01b038316907f2da466a7b24304f47e87fa2e1e5a81b9831ce54fec19055ce277ca2f39ba42c4906020015b60405180910390a25050565b61037a6103dc565b6001600160a01b0381165f8181526001602052604081208054919055906103a19082610484565b816001600160a01b03167f7084f5476618d8e60b11ef0d7d3f06914655adb8793e28ff7f018d4c76d505d58260405161036691815260200190565b5f546001600160a01b031633146102815760405162461bcd60e51b815260206004820181905260248201527f4f776e61626c653a2063616c6c6572206973206e6f7420746865206f776e6572604482015260640161025b565b5f80546001600160a01b038381166001600160a01b0319831681178455604051919092169283917f8be0079c531659141344cd1fd0a4f28419497f9722a3daafe3b4186f6b6457e09190a35050565b804710156104d45760405162461bcd60e51b815260206004820152601d60248201527f416464726573733a20696e73756666696369656e742062616c616e6365000000604482015260640161025b565b5f826001600160a01b0316826040515f6040518083038185875af1925050503d805f811461051d576040519150601f19603f3d011682016040523d82523d5f602084013e610522565b606091505b50509050806105995760405162461bcd60e51b815260206004820152603a60248201527f416464726573733a20756e61626c6520746f2073656e642076616c75652c207260448201527f6563697069656e74206d61792068617665207265766572746564000000000000606482015260840161025b565b505050565b6001600160a01b038116811461026d575f80fd5b5f80604083850312156105c3575f80fd5b82356105ce8161059e565b9150602083013580151581146105e2575f80fd5b809150509250929050565b5f602082840312156105fd575f80fd5b81356106088161059e565b9392505050565b8082018082111561062e57634e487b7160e01b5f52601160045260245ffd5b9291505056fea2646970667358221220a3a64ef0d8fd0444dc6f10e3aac2838a4b689985291b7be87b8318b09df0deab64736f6c63430008140033",
    "linkReferences": {}
  },
  "methodIdentifiers": {
    "deposit(address)": "f340fa01",
    "depositsOf(address)": "e3a9db1a",
    "owner()": "8da5cb5b",
    "renounceOwnership()": "715018a6",
    "setAllowed(address,bool)": "4697f05d",
    "transferOwnership(address)": "f2fde38b",
    "withdraw(address)": "51cff8d9",
    "withdrawalAllowed(address)": "685ca194"
  },
  "id": 81
}