{
  "abi": [
    {
      "type": "function",
      "name": "burn",
      "inputs": [
        {
          "name": "token",
          "type": "address",
          "internalType": "contract IERC777"
        },
        {
          "name": "amount",
          "type": "uint256",
          "internalType": "uint256"
        },
        {
          "name": "data",
          "type": "bytes",
          "internalType": "bytes"
        }
      ],
      "outputs": [],
      "stateMutability": "nonpayable"
    },
    {
      "type": "function",
      "name": "canImplementInterfaceForAddress",
      "inputs": [
        {
          "name": "interfaceHash",
          "type": "bytes32",
          "internalType": "bytes32"
        },
        {
          "name": "account",
          "type": "address",
          "internalType": "address"
        }
      ],
      "outputs": [
        {
          "name": "",
          "type": "bytes32",
          "internalType": "bytes32"
        }
      ],
      "stateMutability": "view"
    },
    {
      "type": "function",
      "name": "recipientFor",
      "inputs": [
        {
          "name": "account",
          "type": "address",
          "internalType": "address"
        }
      ],
      "outputs": [],
      "stateMutability": "nonpayable"
    },
    {
      "type": "function",
      "name": "registerRecipient",
      "inputs": [
        {
          "name": "recipient",
          "type": "address",
          "internalType": "address"
        }
      ],
      "outputs": [],
      "stateMutability": "nonpayable"
    },
    {
      "type": "function",
      "name": "registerSender",
      "inputs": [
        {
          "name": "sender",
          "type": "address",
          "internalType": "address"
        }
      ],
      "outputs": [],
      "stateMutability": "nonpayable"
    },
    {
      "type": "function",
      "name": "send",
      "inputs": [
        {
          "name": "token",
          "type": "address",
          "internalType": "contract IERC777"
        },
        {
          "name": "to",
          "type": "address",
          "internalType": "address"
        },
        {
          "name": "amount",
          "type": "uint256",
          "internalType": "uint256"
        },
        {
          "name": "data",
          "type": "bytes",
          "internalType": "bytes"
        }
      ],
      "outputs": [],
      "stateMutability": "nonpayable"
    },
    {
      "type": "function",
      "name": "senderFor",
      "inputs": [
        {
          "name": "account",
          "type": "address",
          "internalType": "address"
        }
      ],
      "outputs": [],
      "stateMutability": "nonpayable"
    },
    {
      "type": "function",
      "name": "setShouldRevertReceive",
      "inputs": [
        {
          "name": "shouldRevert",
          "type": "bool",
          "internalType": "bool"
        }
      ],
      "outputs": [],
      "stateMutability": "nonpayable"
    },
    {
      "type": "function",
      "name": "setShouldRevertSend",
      "inputs": [
        {
          "name": "shouldRevert",
          "type": "bool",
          "internalType": "bool"
        }
      ],
      "outputs": [],
      "stateMutability": "nonpayable"
    },
    {
      "type": "function",
      "name": "tokensReceived",
      "inputs": [
        {
          "name": "operator",
          "type": "address",
          "internalType": "address"
        },
        {
          "name": "from",
          "type": "address",
          "internalType": "address"
        },
        {
          "name": "to",
          "type": "address",
          "internalType": "address"
        },
        {
          "name": "amount",
          "type": "uint256",
          "internalType": "uint256"
        },
        {
          "name": "userData",
          "type": "bytes",
          "internalType": "bytes"
        },
        {
          "name": "operatorData",
          "type": "bytes",
          "internalType": "bytes"
        }
      ],
      "outputs": [],
      "stateMutability": "nonpayable"
    },
    {
      "type": "function",
      "name": "tokensToSend",
      "inputs": [
        {
          "name": "operator",
          "type": "address",
          "internalType": "address"
        },
        {
          "name": "from",
          "type": "address",
          "internalType": "address"
        },
        {
          "name": "to",
          "type": "address",
          "internalType": "address"
        },
        {
          "name": "amount",
          "type": "uint256",
          "internalType": "uint256"
        },
        {
          "name": "userData",
          "type": "bytes",
          "internalType": "bytes"
        },
        {
          "name": "operatorData",
          "type": "bytes",
          "internalType": "bytes"
        }
      ],
      "outputs": [],
      "stateMutability": "nonpayable"
    },
    {
      "type": "event",
      "name": "BeforeTokenTransfer",
      "inputs": [],
      "anonymous": false
    },
    {
      "type": "event",
      "name": "TokensReceivedCalled",
      "inputs": [
        {
          "name": "operator",
          "type": "address",
          "indexed": false,
          "internalType": "address"
        },
        {
          "name": "from",
          "type": "address",
          "indexed": false,
          "internalType": "address"
        },
        {
          "name": "to",
          "type": "address",
          "indexed": false,
          "internalType": "address"
        },
        {
          "name": "amount",
          "type": "uint256",
          "indexed": false,
          "internalType": "uint256"
        },
        {
          "name": "data",
          "type": "bytes",
          "indexed": false,
          "internalType": "bytes"
        },
        {
          "name": "operatorData",
          "type": "bytes",
          "indexed": false,
          "internalType": "bytes"
        },
        {
          "name": "token",
          "type": "address",
          "indexed": false,
          "internalType": "address"
        },
        {
          "name": "fromBalance",
          "type": "uint256",
          "indexed": false,
          "internalType": "uint256"
        },
        {
          "name": "toBalance",
          "type": "uint256",
          "indexed": false,
          "internalType": "uint256"
        }
      ],
      "anonymous": false
    },
    {
      "type": "event",
      "name": "TokensToSendCalled",
      "inputs": [
        {
          "name": "operator",
          "type": "address",
          "indexed": false,
          "internalType": "address"
        },
        {
          "name": "from",
          "type": "address",
          "indexed": false,
          "internalType": "address"
        },
        {
          "name": "to",
          "type": "address",
          "indexed": false,
          "internalType": "address"
        },
        {
          "name": "amount",
          "type": "uint256",
          "indexed": false,
          "internalType": "uint256"
        },
        {
          "name": "data",
          "type": "bytes",
          "indexed": false,
          "internalType": "bytes"
        },
        {
          "name": "operatorData",
          "type": "bytes",
          "indexed": false,
          "internalType": "bytes"
        },
        {
          "name": "token",
          "type": "address",
          "indexed": false,
          "internalType": "address"
        },
        {
          "name": "fromBalance",
          "type": "uint256",
          "indexed": false,
          "internalType": "uint256"
        },
        {
          "name": "toBalance",
          "type": "uint256",
          "indexed": false,
          "internalType": "uint256"
        }
      ],
      "anonymous": false
    }
  ],
  "bytecode": {
    "object": "0x60806040526001805462010000600160b01b031916751820a4b7618bde71dce8cdc73aab6c95905fad240000179055348015610039575f80fd5b50610b3a806100475f395ff3fe608060405234801561000f575f80fd5b50600436106100a5575f3560e01c806375ab97821161006e57806375ab97821461012a578063a8badaa51461013d578063c97e18fc14610150578063d2de647414610178578063e0eb21801461018b578063e1ecbd301461019e575f80fd5b806223de29146100a9578063249cb3fa146100be5780633836ef89146100e357806344d17187146100f65780634e4ae5a514610109575b5f80fd5b6100bc6100b7366004610751565b6101b1565b005b6100d16100cc3660046107fb565b6102fb565b60405190815260200160405180910390f35b6100bc6100f13660046108c6565b610351565b6100bc61010436600461092e565b6103b4565b6100bc610117366004610983565b6001805460ff1916911515919091179055565b6100bc610138366004610751565b610414565b6100bc61014b3660046109a2565b610544565b6100bc61015e366004610983565b600180549115156101000261ff0019909216919091179055565b6100bc6101863660046109a2565b6105d5565b6100bc6101993660046109a2565b61061e565b6100bc6101ac3660046109a2565b610663565b600154610100900460ff16156101c5575f80fd5b5f336040516370a0823160e01b81526001600160a01b038a811660048301529192505f918316906370a0823190602401602060405180830381865afa158015610210573d5f803e3d5ffd5b505050506040513d601f19601f8201168201806040525081019061023491906109bd565b6040516370a0823160e01b81526001600160a01b038a811660048301529192505f918416906370a0823190602401602060405180830381865afa15801561027d573d5f803e3d5ffd5b505050506040513d601f19601f820116820180604052508101906102a191906109bd565b90507f47e915878c47f3ec4d7ff646a2becb229f64fd2abe4d2b5e2bb4275b0cf50d4e8b8b8b8b8b8b8b8b8b8b8b6040516102e69b9a999897969594939291906109fc565b60405180910390a15050505050505050505050565b5f828152602081815260408083206001600160a01b038516845290915281205460ff16610328575f61034a565b7fa2ef4600d742022d532d4747cb3547474667d6f13804902513b2ec01c848f4b45b9392505050565b604051634decdde360e11b81526001600160a01b03851690639bd9bbc69061038190869086908690600401610ab5565b5f604051808303815f87803b158015610398575f80fd5b505af11580156103aa573d5f803e3d5ffd5b5050505050505050565b60405163fe9d930360e01b81526001600160a01b0384169063fe9d9303906103e29085908590600401610ae4565b5f604051808303815f87803b1580156103f9575f80fd5b505af115801561040b573d5f803e3d5ffd5b50505050505050565b60015460ff1615610423575f80fd5b5f336040516370a0823160e01b81526001600160a01b038a811660048301529192505f918316906370a0823190602401602060405180830381865afa15801561046e573d5f803e3d5ffd5b505050506040513d601f19601f8201168201806040525081019061049291906109bd565b6040516370a0823160e01b81526001600160a01b038a811660048301529192505f918416906370a0823190602401602060405180830381865afa1580156104db573d5f803e3d5ffd5b505050506040513d601f19601f820116820180604052508101906104ff91906109bd565b90507faa3e88aca472e90221daf7d3d601abafb62b120319089d7a2c2f63588da855298b8b8b8b8b8b8b8b8b8b8b6040516102e69b9a999897969594939291906109fc565b6001546040516329965a1d60e01b81523060048201527fb281fc8c12954d22544db45de3159a39272895b169a852b314f9cc762e44c53b60248201526001600160a01b03838116604483015262010000909204909116906329965a1d906064015b5f604051808303815f87803b1580156105bc575f80fd5b505af11580156105ce573d5f803e3d5ffd5b5050505050565b6105ff7f29ddb589b1fb5fc7cf394961c1adf5f8c6454761adf795e67fe149f658abe895826106c8565b306001600160a01b03821681900361061a5761061a81610663565b5050565b6106487fb281fc8c12954d22544db45de3159a39272895b169a852b314f9cc762e44c53b826106c8565b306001600160a01b03821681900361061a5761061a81610544565b6001546040516329965a1d60e01b81523060048201527f29ddb589b1fb5fc7cf394961c1adf5f8c6454761adf795e67fe149f658abe89560248201526001600160a01b03838116604483015262010000909204909116906329965a1d906064016105a5565b5f918252602082815260408084206001600160a01b0390931684529190529020805460ff19166001179055565b6001600160a01b0381168114610709575f80fd5b50565b5f8083601f84011261071c575f80fd5b50813567ffffffffffffffff811115610733575f80fd5b60208301915083602082850101111561074a575f80fd5b9250929050565b5f805f805f805f8060c0898b031215610768575f80fd5b8835610773816106f5565b97506020890135610783816106f5565b96506040890135610793816106f5565b955060608901359450608089013567ffffffffffffffff808211156107b6575f80fd5b6107c28c838d0161070c565b909650945060a08b01359150808211156107da575f80fd5b506107e78b828c0161070c565b999c989b5096995094979396929594505050565b5f806040838503121561080c575f80fd5b82359150602083013561081e816106f5565b809150509250929050565b634e487b7160e01b5f52604160045260245ffd5b5f82601f83011261084c575f80fd5b813567ffffffffffffffff8082111561086757610867610829565b604051601f8301601f19908116603f0116810190828211818310171561088f5761088f610829565b816040528381528660208588010111156108a7575f80fd5b836020870160208301375f602085830101528094505050505092915050565b5f805f80608085870312156108d9575f80fd5b84356108e4816106f5565b935060208501356108f4816106f5565b925060408501359150606085013567ffffffffffffffff811115610916575f80fd5b6109228782880161083d565b91505092959194509250565b5f805f60608486031215610940575f80fd5b833561094b816106f5565b925060208401359150604084013567ffffffffffffffff81111561096d575f80fd5b6109798682870161083d565b9150509250925092565b5f60208284031215610993575f80fd5b8135801515811461034a575f80fd5b5f602082840312156109b2575f80fd5b813561034a816106f5565b5f602082840312156109cd575f80fd5b5051919050565b81835281816020850137505f828201602090810191909152601f909101601f19169091010190565b6001600160a01b038c811682528b811660208301528a81166040830152606082018a9052610120608083018190525f91610a398483018b8d6109d4565b915083820360a0850152610a4e82898b6109d4565b961660c0840152505060e08101929092526101009091015298975050505050505050565b5f81518084525f5b81811015610a9657602081850181015186830182015201610a7a565b505f602082860101526020601f19601f83011685010191505092915050565b60018060a01b0384168152826020820152606060408201525f610adb6060830184610a72565b95945050505050565b828152604060208201525f610afc6040830184610a72565b94935050505056fea2646970667358221220598e0814f232e40503091d58d9d30dca0fd49b74fa32afc45b20d707d9f263e064736f6c63430008140033",
    "linkReferences": {}
  },
  "methodIdentifiers": {
    "burn(address,uint256,bytes)": "44d17187",
    "canImplementInterfaceForAddress(bytes32,address)": "249cb3fa",
    "recipientFor(address)": "e0eb2180",
    "registerRecipient(address)": "a8badaa5",
    "registerSender(address)": "e1ecbd30",
    "send(address,address,uint256,bytes)": "3836ef89",
    "senderFor(address)": "d2de6474",
    "setShouldRevertReceive(bool)": "c97e18fc",
    "setShouldRevertSend(bool)": "4e4ae5a5",
    "tokensReceived(address,address,address,uint256,bytes,bytes)": "0023de29",
    "tokensToSend(address,address,address,uint256,bytes,bytes)": "75ab9782"
  },
  "id": 148
}