{
  "abi": [
    {
      "type": "constructor",
      "inputs": [],
      "stateMutability": "nonpayable"
    },
    {
      "type": "function",
      "name": "addressToTokenId",
      "inputs": [
        {
          "name": "addr",
          "type": "address",
          "internalType": "address"
        }
      ],
      "outputs": [
        {
          "name": "",
          "type": "uint256",
          "internalType": "uint256"
        }
      ],
      "stateMutability": "view"
    },
    {
      "type": "function",
      "name": "approve",
      "inputs": [
        {
          "name": "to",
          "type": "address",
          "internalType": "address"
        },
        {
          "name": "tokenId",
          "type": "uint256",
          "internalType": "uint256"
        }
      ],
      "outputs": [],
      "stateMutability": "nonpayable"
    },
    {
      "type": "function",
      "name": "balanceOf",
      "inputs": [
        {
          "name": "owner",
          "type": "address",
          "internalType": "address"
        }
      ],
      "outputs": [
        {
          "name": "",
          "type": "uint256",
          "internalType": "uint256"
        }
      ],
      "stateMutability": "view"
    },
    {
      "type": "function",
      "name": "deactivateAgent",
      "inputs": [],
      "outputs": [],
      "stateMutability": "nonpayable"
    },
    {
      "type": "function",
      "name": "getAgentInfo",
      "inputs": [
        {
          "name": "tokenId",
          "type": "uint256",
          "internalType": "uint256"
        }
      ],
      "outputs": [
        {
          "name": "",
          "type": "string",
          "internalType": "string"
        },
        {
          "name": "",
          "type": "string",
          "internalType": "string"
        },
        {
          "name": "",
          "type": "bytes32",
          "internalType": "bytes32"
        },
        {
          "name": "",
          "type": "bool",
          "internalType": "bool"
        }
      ],
      "stateMutability": "view"
    },
    {
      "type": "function",
      "name": "getApproved",
      "inputs": [
        {
          "name": "tokenId",
          "type": "uint256",
          "internalType": "uint256"
        }
      ],
      "outputs": [
        {
          "name": "",
          "type": "address",
          "internalType": "address"
        }
      ],
      "stateMutability": "view"
    },
    {
      "type": "function",
      "name": "getTokenId",
      "inputs": [
        {
          "name": "addr",
          "type": "address",
          "internalType": "address"
        }
      ],
      "outputs": [
        {
          "name": "",
          "type": "uint256",
          "internalType": "uint256"
        }
      ],
      "stateMutability": "view"
    },
    {
      "type": "function",
      "name": "isApprovedForAll",
      "inputs": [
        {
          "name": "owner",
          "type": "address",
          "internalType": "address"
        },
        {
          "name": "operator",
          "type": "address",
          "internalType": "address"
        }
      ],
      "outputs": [
        {
          "name": "",
          "type": "bool",
          "internalType": "bool"
        }
      ],
      "stateMutability": "view"
    },
    {
      "type": "function",
      "name": "isEndpointTaken",
      "inputs": [
        {
          "name": "endpoint",
          "type": "string",
          "internalType": "string"
        }
      ],
      "outputs": [
        {
          "name": "",
          "type": "bool",
          "internalType": "bool"
        }
      ],
      "stateMutability": "view"
    },
    {
      "type": "function",
      "name": "isRegistered",
      "inputs": [
        {
          "name": "addr",
          "type": "address",
          "internalType": "address"
        }
      ],
      "outputs": [
        {
          "name": "",
          "type": "bool",
          "internalType": "bool"
        }
      ],
      "stateMutability": "view"
    },
    {
      "type": "function",
      "name": "name",
      "inputs": [],
      "outputs": [
        {
          "name": "",
          "type": "string",
          "internalType": "string"
        }
      ],
      "stateMutability": "view"
    },
    {
      "type": "function",
      "name": "owner",
      "inputs": [],
      "outputs": [
        {
          "name": "",
          "type": "address",
          "internalType": "address"
        }
      ],
      "stateMutability": "view"
    },
    {
      "type": "function",
      "name": "ownerOf",
      "inputs": [
        {
          "name": "tokenId",
          "type": "uint256",
          "internalType": "uint256"
        }
      ],
      "outputs": [
        {
          "name": "",
          "type": "address",
          "internalType": "address"
        }
      ],
      "stateMutability": "view"
    },
    {
      "type": "function",
      "name": "reactivateAgent",
      "inputs": [],
      "outputs": [],
      "stateMutability": "nonpayable"
    },
    {
      "type": "function",
      "name": "registerAgent",
      "inputs": [
        {
          "name": "name",
          "type": "string",
          "internalType": "string"
        },
        {
          "name": "endpoint",
          "type": "string",
          "internalType": "string"
        },
        {
          "name": "capabilitiesHash",
          "type": "bytes32",
          "internalType": "bytes32"
        },
        {
          "name": "uri",
          "type": "string",
          "internalType": "string"
        }
      ],
      "outputs": [
        {
          "name": "",
          "type": "uint256",
          "internalType": "uint256"
        }
      ],
      "stateMutability": "nonpayable"
    },
    {
      "type": "function",
      "name": "registerAgentFor",
      "inputs": [
        {
          "name": "owner",
          "type": "address",
          "internalType": "address"
        },
        {
          "name": "name",
          "type": "string",
          "internalType": "string"
        },
        {
          "name": "endpoint",
          "type": "string",
          "internalType": "string"
        },
        {
          "name": "capabilitiesHash",
          "type": "bytes32",
          "internalType": "bytes32"
        },
        {
          "name": "uri",
          "type": "string",
          "internalType": "string"
        }
      ],
      "outputs": [
        {
          "name": "",
          "type": "uint256",
          "internalType": "uint256"
        }
      ],
      "stateMutability": "nonpayable"
    },
    {
      "type": "function",
      "name": "renounceOwnership",
      "inputs": [],
      "outputs": [],
      "stateMutability": "nonpayable"
    },
    {
      "type": "function",
      "name": "safeTransferFrom",
      "inputs": [
        {
          "name": "from",
          "type": "address",
          "internalType": "address"
        },
        {
          "name": "to",
          "type": "address",
          "internalType": "address"
        },
        {
          "name": "tokenId",
          "type": "uint256",
          "internalType": "uint256"
        }
      ],
      "outputs": [],
      "stateMutability": "nonpayable"
    },
    {
      "type": "function",
      "name": "safeTransferFrom",
      "inputs": [
        {
          "name": "from",
          "type": "address",
          "internalType": "address"
        },
        {
          "name": "to",
          "type": "address",
          "internalType": "address"
        },
        {
          "name": "tokenId",
          "type": "uint256",
          "internalType": "uint256"
        },
        {
          "name": "data",
          "type": "bytes",
          "internalType": "bytes"
        }
      ],
      "outputs": [],
      "stateMutability": "nonpayable"
    },
    {
      "type": "function",
      "name": "setApprovalForAll",
      "inputs": [
        {
          "name": "operator",
          "type": "address",
          "internalType": "address"
        },
        {
          "name": "approved",
          "type": "bool",
          "internalType": "bool"
        }
      ],
      "outputs": [],
      "stateMutability": "nonpayable"
    },
    {
      "type": "function",
      "name": "supportsInterface",
      "inputs": [
        {
          "name": "interfaceId",
          "type": "bytes4",
          "internalType": "bytes4"
        }
      ],
      "outputs": [
        {
          "name": "",
          "type": "bool",
          "internalType": "bool"
        }
      ],
      "stateMutability": "view"
    },
    {
      "type": "function",
      "name": "symbol",
      "inputs": [],
      "outputs": [
        {
          "name": "",
          "type": "string",
          "internalType": "string"
        }
      ],
      "stateMutability": "view"
    },
    {
      "type": "function",
      "name": "tokenURI",
      "inputs": [
        {
          "name": "tokenId",
          "type": "uint256",
          "internalType": "uint256"
        }
      ],
      "outputs": [
        {
          "name": "",
          "type": "string",
          "internalType": "string"
        }
      ],
      "stateMutability": "view"
    },
    {
      "type": "function",
      "name": "totalAgents",
      "inputs": [],
      "outputs": [
        {
          "name": "",
          "type": "uint256",
          "internalType": "uint256"
        }
      ],
      "stateMutability": "view"
    },
    {
      "type": "function",
      "name": "transferFrom",
      "inputs": [
        {
          "name": "from",
          "type": "address",
          "internalType": "address"
        },
        {
          "name": "to",
          "type": "address",
          "internalType": "address"
        },
        {
          "name": "tokenId",
          "type": "uint256",
          "internalType": "uint256"
        }
      ],
      "outputs": [],
      "stateMutability": "nonpayable"
    },
    {
      "type": "function",
      "name": "transferOwnership",
      "inputs": [
        {
          "name": "newOwner",
          "type": "address",
          "internalType": "address"
        }
      ],
      "outputs": [],
      "stateMutability": "nonpayable"
    },
    {
      "type": "function",
      "name": "updateAgent",
      "inputs": [
        {
          "name": "endpoint",
          "type": "string",
          "internalType": "string"
        },
        {
          "name": "capabilitiesHash",
          "type": "bytes32",
          "internalType": "bytes32"
        }
      ],
      "outputs": [],
      "stateMutability": "nonpayable"
    },
    {
      "type": "function",
      "name": "updateAgentProfile",
      "inputs": [
        {
          "name": "name",
          "type": "string",
          "internalType": "string"
        },
        {
          "name": "endpoint",
          "type": "string",
          "internalType": "string"
        },
        {
          "name": "capabilitiesHash",
          "type": "bytes32",
          "internalType": "bytes32"
        },
        {
          "name": "uri",
          "type": "string",
          "internalType": "string"
        }
      ],
      "outputs": [],
      "stateMutability": "nonpayable"
    },
    {
      "type": "function",
      "name": "updateTokenURI",
      "inputs": [
        {
          "name": "tokenId",
          "type": "uint256",
          "internalType": "uint256"
        },
        {
          "name": "uri",
          "type": "string",
          "internalType": "string"
        }
      ],
      "outputs": [],
      "stateMutability": "nonpayable"
    },
    {
      "type": "event",
      "name": "AgentRegistered",
      "inputs": [
        {
          "name": "tokenId",
          "type": "uint256",
          "indexed": true,
          "internalType": "uint256"
        },
        {
          "name": "owner",
          "type": "address",
          "indexed": true,
          "internalType": "address"
        },
        {
          "name": "name",
          "type": "string",
          "indexed": false,
          "internalType": "string"
        },
        {
          "name": "endpoint",
          "type": "string",
          "indexed": false,
          "internalType": "string"
        }
      ],
      "anonymous": false
    },
    {
      "type": "event",
      "name": "AgentUpdated",
      "inputs": [
        {
          "name": "tokenId",
          "type": "uint256",
          "indexed": true,
          "internalType": "uint256"
        },
        {
          "name": "endpoint",
          "type": "string",
          "indexed": false,
          "internalType": "string"
        },
        {
          "name": "capabilitiesHash",
          "type": "bytes32",
          "indexed": false,
          "internalType": "bytes32"
        }
      ],
      "anonymous": false
    },
    {
      "type": "event",
      "name": "Approval",
      "inputs": [
        {
          "name": "owner",
          "type": "address",
          "indexed": true,
          "internalType": "address"
        },
        {
          "name": "approved",
          "type": "address",
          "indexed": true,
          "internalType": "address"
        },
        {
          "name": "tokenId",
          "type": "uint256",
          "indexed": true,
          "internalType": "uint256"
        }
      ],
      "anonymous": false
    },
    {
      "type": "event",
      "name": "ApprovalForAll",
      "inputs": [
        {
          "name": "owner",
          "type": "address",
          "indexed": true,
          "internalType": "address"
        },
        {
          "name": "operator",
          "type": "address",
          "indexed": true,
          "internalType": "address"
        },
        {
          "name": "approved",
          "type": "bool",
          "indexed": false,
          "internalType": "bool"
        }
      ],
      "anonymous": false
    },
    {
      "type": "event",
      "name": "BatchMetadataUpdate",
      "inputs": [
        {
          "name": "_fromTokenId",
          "type": "uint256",
          "indexed": false,
          "internalType": "uint256"
        },
        {
          "name": "_toTokenId",
          "type": "uint256",
          "indexed": false,
          "internalType": "uint256"
        }
      ],
      "anonymous": false
    },
    {
      "type": "event",
      "name": "MetadataUpdate",
      "inputs": [
        {
          "name": "_tokenId",
          "type": "uint256",
          "indexed": false,
          "internalType": "uint256"
        }
      ],
      "anonymous": false
    },
    {
      "type": "event",
      "name": "OwnershipTransferred",
      "inputs": [
        {
          "name": "previousOwner",
          "type": "address",
          "indexed": true,
          "internalType": "address"
        },
        {
          "name": "newOwner",
          "type": "address",
          "indexed": true,
          "internalType": "address"
        }
      ],
      "anonymous": false
    },
    {
      "type": "event",
      "name": "Transfer",
      "inputs": [
        {
          "name": "from",
          "type": "address",
          "indexed": true,
          "internalType": "address"
        },
        {
          "name": "to",
          "type": "address",
          "indexed": true,
          "internalType": "address"
        },
        {
          "name": "tokenId",
          "type": "uint256",
          "indexed": true,
          "internalType": "uint256"
        }
      ],
      "anonymous": false
    }
  ],
  "bytecode": {
    "object": "0x608060405234801562000010575f80fd5b506040518060400160405280601581526020017f4d696c616479204167656e742052656769737472790000000000000000000000815250604051806040016040528060078152602001664d494c4149445960c81b815250815f9081620000779190620001a3565b506001620000868282620001a3565b505050620000a36200009d620000ae60201b60201c565b620000b2565b60016008556200026b565b3390565b600780546001600160a01b038381166001600160a01b0319831681179093556040519116919082907f8be0079c531659141344cd1fd0a4f28419497f9722a3daafe3b4186f6b6457e0905f90a35050565b634e487b7160e01b5f52604160045260245ffd5b600181811c908216806200012c57607f821691505b6020821081036200014b57634e487b7160e01b5f52602260045260245ffd5b50919050565b601f8211156200019e575f81815260208120601f850160051c81016020861015620001795750805b601f850160051c820191505b818110156200019a5782815560010162000185565b5050505b505050565b81516001600160401b03811115620001bf57620001bf62000103565b620001d781620001d0845462000117565b8462000151565b602080601f8311600181146200020d575f8415620001f55750858301515b5f19600386901b1c1916600185901b1785556200019a565b5f85815260208120601f198616915b828110156200023d578886015182559484019460019091019084016200021c565b50858210156200025b57878501515f19600388901b60f8161c191681555b5050505050600190811b01905550565b61244580620002795f395ff3fe608060405234801561000f575f80fd5b50600436106101c6575f3560e01c80638da5cb5b116100fe578063b88d4fde1161009e578063c87b56dd1161006e578063c87b56dd146103e7578063e985e9c5146103fa578063f1537686146102b6578063f2fde38b1461040d575f80fd5b8063b88d4fde1461039a578063c1599e4d146103ad578063c3c5a547146103b5578063c5053712146103df575f80fd5b80639a4fbf5b116100d95780639a4fbf5b14610359578063a22cb46514610361578063ad21efb614610374578063b07ee87614610387575f80fd5b80638da5cb5b1461032d5780638f8f58631461033e57806395d89b4114610351575f80fd5b806342842e0e11610169578063656f067211610144578063656f0672146102ec57806370a08231146102ff578063715018a61461031257806378bca9661461031a575f80fd5b806342842e0e146102905780636352211e146102a35780636511bf2e146102b6575f80fd5b8063095ea7b3116101a4578063095ea7b31461023257806318e97fd11461024757806319a6a6e91461025a57806323b872dd1461027d575f80fd5b806301ffc9a7146101ca57806306fdde03146101f2578063081812fc14610207575b5f80fd5b6101dd6101d8366004611b15565b610420565b60405190151581526020015b60405180910390f35b6101fa61044a565b6040516101e99190611b7d565b61021a610215366004611b8f565b6104d9565b6040516001600160a01b0390911681526020016101e9565b610245610240366004611bc1565b6104fe565b005b610245610255366004611c8e565b610617565b61026d610268366004611b8f565b610655565b6040516101e99493929190611cd2565b61024561028b366004611d0f565b6107aa565b61024561029e366004611d0f565b6107db565b61021a6102b1366004611b8f565b6107f5565b6102de6102c4366004611d48565b6001600160a01b03165f908152600a602052604090205490565b6040519081526020016101e9565b6102456102fa366004611d61565b610854565b6102de61030d366004611d48565b6109eb565b610245610a6f565b6101dd610328366004611da3565b610a82565b6007546001600160a01b031661021a565b6102de61034c366004611dd5565b610aac565b6101fa610ac4565b610245610ad3565b61024561036f366004611e71565b610b1c565b610245610382366004611eaa565b610b27565b6102de610395366004611eaa565b610cd4565b6102456103a8366004611f36565b610ced565b610245610d25565b6101dd6103c3366004611d48565b6001600160a01b03165f908152600a6020526040902054151590565b6102de610d71565b6101fa6103f5366004611b8f565b610d86565b6101dd610408366004611fa1565b610e88565b61024561041b366004611d48565b610eb5565b5f6001600160e01b03198216632483248360e11b1480610444575061044482610f2e565b92915050565b60605f805461045890611fd2565b80601f016020809104026020016040519081016040528092919081815260200182805461048490611fd2565b80156104cf5780601f106104a6576101008083540402835291602001916104cf565b820191905f5260205f20905b8154815290600101906020018083116104b257829003601f168201915b5050505050905090565b5f6104e382610f7d565b505f908152600460205260409020546001600160a01b031690565b5f610508826107f5565b9050806001600160a01b0316836001600160a01b03160361057a5760405162461bcd60e51b815260206004820152602160248201527f4552433732313a20617070726f76616c20746f2063757272656e74206f776e656044820152603960f91b60648201526084015b60405180910390fd5b336001600160a01b038216148061059657506105968133610e88565b6106085760405162461bcd60e51b815260206004820152603d60248201527f4552433732313a20617070726f76652063616c6c6572206973206e6f7420746f60448201527f6b656e206f776e6572206f7220617070726f76656420666f7220616c6c0000006064820152608401610571565b6106128383610fdb565b505050565b33610621836107f5565b6001600160a01b0316146106475760405162461bcd60e51b81526004016105719061200a565b6106518282611048565b5050565b5f8181526009602052604081206002810154600382015482546060948594909384939192839260018401929160ff90911690849061069290611fd2565b80601f01602080910402602001604051908101604052809291908181526020018280546106be90611fd2565b80156107095780601f106106e057610100808354040283529160200191610709565b820191905f5260205f20905b8154815290600101906020018083116106ec57829003601f168201915b5050505050935082805461071c90611fd2565b80601f016020809104026020016040519081016040528092919081815260200182805461074890611fd2565b80156107935780601f1061076a57610100808354040283529160200191610793565b820191905f5260205f20905b81548152906001019060200180831161077657829003601f168201915b505050505092509450945094509450509193509193565b6107b43382611111565b6107d05760405162461bcd60e51b81526004016105719061202d565b61061283838361116e565b61061283838360405180602001604052805f815250610ced565b5f818152600260205260408120546001600160a01b0316806104445760405162461bcd60e51b8152602060048201526018602482015277115490cdcc8c4e881a5b9d985b1a59081d1bdad95b88125160421b6044820152606401610571565b335f908152600a6020526040812054908190036108835760405162461bcd60e51b81526004016105719061207a565b3361088d826107f5565b6001600160a01b0316146108b35760405162461bcd60e51b81526004016105719061200a565b5f60095f8381526020019081526020015f2090508380519060200120816001016040516108e09190612111565b6040518091039020146109a2575f600b826001016040516109019190612111565b908152604051908190036020018120805492151560ff1990931692909217909155600b9061093090869061211c565b9081526040519081900360200190205460ff16156109605760405162461bcd60e51b815260040161057190612137565b6001600b85604051610972919061211c565b908152604051908190036020019020805491151560ff19909216919091179055600181016109a085826121b4565b505b828160020181905550817f7a9de553b3c29b982e75187c50b72f3d7dbe65b9f5c16a18cb4d8b992db0d5c985856040516109dd929190612270565b60405180910390a250505050565b5f6001600160a01b038216610a545760405162461bcd60e51b815260206004820152602960248201527f4552433732313a2061646472657373207a65726f206973206e6f7420612076616044820152683634b21037bbb732b960b91b6064820152608401610571565b506001600160a01b03165f9081526003602052604090205490565b610a776112d0565b610a805f61132a565b565b5f600b82604051610a93919061211c565b9081526040519081900360200190205460ff1692915050565b5f610aba868686868661137b565b9695505050505050565b60606001805461045890611fd2565b335f908152600a602052604081205490819003610b025760405162461bcd60e51b81526004016105719061207a565b5f908152600960205260409020600301805460ff19169055565b61065133838361155c565b335f908152600a602052604081205490819003610b565760405162461bcd60e51b81526004016105719061207a565b33610b60826107f5565b6001600160a01b031614610b865760405162461bcd60e51b81526004016105719061200a565b5f60095f8381526020019081526020015f209050848051906020012081600101604051610bb39190612111565b604051809103902014610c66575f600b82600101604051610bd49190612111565b908152604051908190036020018120805492151560ff1990931692909217909155600b90610c0390879061211c565b9081526040519081900360200190205460ff1615610c335760405162461bcd60e51b815260040161057190612137565b6001600b86604051610c45919061211c565b908152604051908190036020019020805491151560ff199092169190911790555b80610c7187826121b4565b5060018101610c8086826121b4565b5060028101849055610c928284611048565b817f7a9de553b3c29b982e75187c50b72f3d7dbe65b9f5c16a18cb4d8b992db0d5c98686604051610cc4929190612270565b60405180910390a2505050505050565b5f610ce2338686868661137b565b90505b949350505050565b610cf73383611111565b610d135760405162461bcd60e51b81526004016105719061202d565b610d1f84848484611629565b50505050565b335f908152600a602052604081205490819003610d545760405162461bcd60e51b81526004016105719061207a565b5f908152600960205260409020600301805460ff19166001179055565b5f6001600854610d8191906122a5565b905090565b6060610d9182610f7d565b5f8281526006602052604081208054610da990611fd2565b80601f0160208091040260200160405190810160405280929190818152602001828054610dd590611fd2565b8015610e205780601f10610df757610100808354040283529160200191610e20565b820191905f5260205f20905b815481529060010190602001808311610e0357829003601f168201915b505050505090505f610e3c60408051602081019091525f815290565b905080515f03610e4d575092915050565b815115610e7f578082604051602001610e679291906122b8565b60405160208183030381529060405292505050919050565b610ce58461165c565b6001600160a01b039182165f90815260056020908152604080832093909416825291909152205460ff1690565b610ebd6112d0565b6001600160a01b038116610f225760405162461bcd60e51b815260206004820152602660248201527f4f776e61626c653a206e6577206f776e657220697320746865207a65726f206160448201526564647265737360d01b6064820152608401610571565b610f2b8161132a565b50565b5f6001600160e01b031982166380ac58cd60e01b1480610f5e57506001600160e01b03198216635b5e139f60e01b145b8061044457506301ffc9a760e01b6001600160e01b0319831614610444565b5f818152600260205260409020546001600160a01b0316610f2b5760405162461bcd60e51b8152602060048201526018602482015277115490cdcc8c4e881a5b9d985b1a59081d1bdad95b88125160421b6044820152606401610571565b5f81815260046020526040902080546001600160a01b0319166001600160a01b038416908117909155819061100f826107f5565b6001600160a01b03167f8c5be1e5ebec7d5bd14f71427d1e84f3dd0314c0f7b2291e5b200ac8c7c3b92560405160405180910390a45050565b5f828152600260205260409020546001600160a01b03166110c25760405162461bcd60e51b815260206004820152602e60248201527f45524337323155524953746f726167653a2055524920736574206f66206e6f6e60448201526d32bc34b9ba32b73a103a37b5b2b760911b6064820152608401610571565b5f8281526006602052604090206110d982826121b4565b506040518281527ff8e1a15aba9398e019f0b49df1a4fde98ee17ae345cb5f6b5e2c27f5033e8ce79060200160405180910390a15050565b5f8061111c836107f5565b9050806001600160a01b0316846001600160a01b0316148061114357506111438185610e88565b80610ce55750836001600160a01b031661115c846104d9565b6001600160a01b031614949350505050565b826001600160a01b0316611181826107f5565b6001600160a01b0316146111a75760405162461bcd60e51b8152600401610571906122e6565b6001600160a01b0382166112095760405162461bcd60e51b8152602060048201526024808201527f4552433732313a207472616e7366657220746f20746865207a65726f206164646044820152637265737360e01b6064820152608401610571565b826001600160a01b031661121c826107f5565b6001600160a01b0316146112425760405162461bcd60e51b8152600401610571906122e6565b5f81815260046020908152604080832080546001600160a01b03199081169091556001600160a01b038781168086526003855283862080545f1901905590871680865283862080546001019055868652600290945282852080549092168417909155905184937fddf252ad1be2c89b69c2b068fc378daa952ba7f163c4a11628f55a4df523b3ef91a4505050565b6007546001600160a01b03163314610a805760405162461bcd60e51b815260206004820181905260248201527f4f776e61626c653a2063616c6c6572206973206e6f7420746865206f776e65726044820152606401610571565b600780546001600160a01b038381166001600160a01b0319831681179093556040519116919082907f8be0079c531659141344cd1fd0a4f28419497f9722a3daafe3b4186f6b6457e0905f90a35050565b6001600160a01b0385165f908152600a6020526040812054156113e05760405162461bcd60e51b815260206004820152601a60248201527f4164647265737320616c726561647920726567697374657265640000000000006044820152606401610571565b600b846040516113f0919061211c565b9081526040519081900360200190205460ff16156114205760405162461bcd60e51b815260040161057190612137565b600880545f91826114308361232b565b91905055905061144087826116cc565b61144a8184611048565b604080516080810182528781526020808201889052818301879052600160608301525f8481526009909152919091208151819061148790826121b4565b506020820151600182019061149c90826121b4565b5060408281015160028301556060909201516003909101805460ff19169115159190911790556001600160a01b0388165f908152600a60205281902082905551600190600b906114ed90889061211c565b908152604051908190036020018120805492151560ff19909316929092179091556001600160a01b0388169082907f1fa075d34b5040b9bc683d1cc54ae270f345511dd00e1b9f68e82fd47b16f5249061154a908a908a90612343565b60405180910390a39695505050505050565b816001600160a01b0316836001600160a01b0316036115bd5760405162461bcd60e51b815260206004820152601960248201527f4552433732313a20617070726f766520746f2063616c6c6572000000000000006044820152606401610571565b6001600160a01b038381165f81815260056020908152604080832094871680845294825291829020805460ff191686151590811790915591519182527f17307eab39ab6107e8899845ad3d59bd9653f200f220920489ca2b5937696c31910160405180910390a3505050565b61163484848461116e565b611640848484846116e5565b610d1f5760405162461bcd60e51b815260040161057190612370565b606061166782610f7d565b5f61167c60408051602081019091525f815290565b90505f81511161169a5760405180602001604052805f8152506116c5565b806116a4846117df565b6040516020016116b59291906122b8565b6040516020818303038152906040525b9392505050565b610651828260405180602001604052805f81525061186f565b5f6001600160a01b0384163b156117d757604051630a85bd0160e11b81526001600160a01b0385169063150b7a02906117289033908990889088906004016123c2565b6020604051808303815f875af1925050508015611762575060408051601f3d908101601f1916820190925261175f918101906123f4565b60015b6117bd573d80801561178f576040519150601f19603f3d011682016040523d82523d5f602084013e611794565b606091505b5080515f036117b55760405162461bcd60e51b815260040161057190612370565b805181602001fd5b6001600160e01b031916630a85bd0160e11b149050610ce5565b506001610ce5565b60605f6117eb836118a1565b60010190505f8167ffffffffffffffff81111561180a5761180a611be9565b6040519080825280601f01601f191660200182016040528015611834576020820181803683370190505b5090508181016020015b5f19016f181899199a1a9b1b9c1cb0b131b232b360811b600a86061a8153600a850494508461183e57509392505050565b6118798383611978565b6118855f8484846116e5565b6106125760405162461bcd60e51b815260040161057190612370565b5f8072184f03e93ff9f4daa797ed6e38ed64bf6a1f0160401b83106118df5772184f03e93ff9f4daa797ed6e38ed64bf6a1f0160401b830492506040015b6d04ee2d6d415b85acef8100000000831061190b576d04ee2d6d415b85acef8100000000830492506020015b662386f26fc10000831061192957662386f26fc10000830492506010015b6305f5e1008310611941576305f5e100830492506008015b612710831061195557612710830492506004015b60648310611967576064830492506002015b600a83106104445760010192915050565b6001600160a01b0382166119ce5760405162461bcd60e51b815260206004820181905260248201527f4552433732313a206d696e7420746f20746865207a65726f20616464726573736044820152606401610571565b5f818152600260205260409020546001600160a01b031615611a325760405162461bcd60e51b815260206004820152601c60248201527f4552433732313a20746f6b656e20616c7265616479206d696e746564000000006044820152606401610571565b5f818152600260205260409020546001600160a01b031615611a965760405162461bcd60e51b815260206004820152601c60248201527f4552433732313a20746f6b656e20616c7265616479206d696e746564000000006044820152606401610571565b6001600160a01b0382165f81815260036020908152604080832080546001019055848352600290915280822080546001600160a01b0319168417905551839291907fddf252ad1be2c89b69c2b068fc378daa952ba7f163c4a11628f55a4df523b3ef908290a45050565b6001600160e01b031981168114610f2b575f80fd5b5f60208284031215611b25575f80fd5b81356116c581611b00565b5f5b83811015611b4a578181015183820152602001611b32565b50505f910152565b5f8151808452611b69816020860160208601611b30565b601f01601f19169290920160200192915050565b602081525f6116c56020830184611b52565b5f60208284031215611b9f575f80fd5b5035919050565b80356001600160a01b0381168114611bbc575f80fd5b919050565b5f8060408385031215611bd2575f80fd5b611bdb83611ba6565b946020939093013593505050565b634e487b7160e01b5f52604160045260245ffd5b5f67ffffffffffffffff80841115611c1757611c17611be9565b604051601f8501601f19908116603f01168101908282118183101715611c3f57611c3f611be9565b81604052809350858152868686011115611c57575f80fd5b858560208301375f602087830101525050509392505050565b5f82601f830112611c7f575f80fd5b6116c583833560208501611bfd565b5f8060408385031215611c9f575f80fd5b82359150602083013567ffffffffffffffff811115611cbc575f80fd5b611cc885828601611c70565b9150509250929050565b608081525f611ce46080830187611b52565b8281036020840152611cf68187611b52565b6040840195909552505090151560609091015292915050565b5f805f60608486031215611d21575f80fd5b611d2a84611ba6565b9250611d3860208501611ba6565b9150604084013590509250925092565b5f60208284031215611d58575f80fd5b6116c582611ba6565b5f8060408385031215611d72575f80fd5b823567ffffffffffffffff811115611d88575f80fd5b611d9485828601611c70565b95602094909401359450505050565b5f60208284031215611db3575f80fd5b813567ffffffffffffffff811115611dc9575f80fd5b610ce584828501611c70565b5f805f805f60a08688031215611de9575f80fd5b611df286611ba6565b9450602086013567ffffffffffffffff80821115611e0e575f80fd5b611e1a89838a01611c70565b95506040880135915080821115611e2f575f80fd5b611e3b89838a01611c70565b9450606088013593506080880135915080821115611e57575f80fd5b50611e6488828901611c70565b9150509295509295909350565b5f8060408385031215611e82575f80fd5b611e8b83611ba6565b915060208301358015158114611e9f575f80fd5b809150509250929050565b5f805f8060808587031215611ebd575f80fd5b843567ffffffffffffffff80821115611ed4575f80fd5b611ee088838901611c70565b95506020870135915080821115611ef5575f80fd5b611f0188838901611c70565b9450604087013593506060870135915080821115611f1d575f80fd5b50611f2a87828801611c70565b91505092959194509250565b5f805f8060808587031215611f49575f80fd5b611f5285611ba6565b9350611f6060208601611ba6565b925060408501359150606085013567ffffffffffffffff811115611f82575f80fd5b8501601f81018713611f92575f80fd5b611f2a87823560208401611bfd565b5f8060408385031215611fb2575f80fd5b611fbb83611ba6565b9150611fc960208401611ba6565b90509250929050565b600181811c90821680611fe657607f821691505b60208210810361200457634e487b7160e01b5f52602260045260245ffd5b50919050565b6020808252600990820152682737ba1037bbb732b960b91b604082015260600190565b6020808252602d908201527f4552433732313a2063616c6c6572206973206e6f7420746f6b656e206f776e6560408201526c1c881bdc88185c1c1c9bdd9959609a1b606082015260800190565b6020808252600e908201526d139bdd081c9959da5cdd195c995960921b604082015260600190565b5f81546120ae81611fd2565b600182811680156120c657600181146120db57612107565b60ff1984168752821515830287019450612107565b855f526020805f205f5b858110156120fe5781548a8201529084019082016120e5565b50505082870194505b5050505092915050565b5f6116c582846120a2565b5f825161212d818460208701611b30565b9190910192915050565b60208082526016908201527522b7323837b4b73a1030b63932b0b23c903a30b5b2b760511b604082015260600190565b601f821115610612575f81815260208120601f850160051c8101602086101561218d5750805b601f850160051c820191505b818110156121ac57828155600101612199565b505050505050565b815167ffffffffffffffff8111156121ce576121ce611be9565b6121e2816121dc8454611fd2565b84612167565b602080601f831160018114612215575f84156121fe5750858301515b5f19600386901b1c1916600185901b1785556121ac565b5f85815260208120601f198616915b8281101561224357888601518255948401946001909101908401612224565b508582101561226057878501515f19600388901b60f8161c191681555b5050505050600190811b01905550565b604081525f6122826040830185611b52565b90508260208301529392505050565b634e487b7160e01b5f52601160045260245ffd5b8181038181111561044457610444612291565b5f83516122c9818460208801611b30565b8351908301906122dd818360208801611b30565b01949350505050565b60208082526025908201527f4552433732313a207472616e736665722066726f6d20696e636f72726563742060408201526437bbb732b960d91b606082015260800190565b5f6001820161233c5761233c612291565b5060010190565b604081525f6123556040830185611b52565b82810360208401526123678185611b52565b95945050505050565b60208082526032908201527f4552433732313a207472616e7366657220746f206e6f6e20455243373231526560408201527131b2b4bb32b91034b6b83632b6b2b73a32b960711b606082015260800190565b6001600160a01b03858116825284166020820152604081018390526080606082018190525f90610aba90830184611b52565b5f60208284031215612404575f80fd5b81516116c581611b0056fea2646970667358221220fe431938c77b3994c8ae47389ba8f667d2d866d55a1ed7af68befffc5dafd4c764736f6c63430008140033",
    "linkReferences": {}
  },
  "methodIdentifiers": {
    "addressToTokenId(address)": "6511bf2e",
    "approve(address,uint256)": "095ea7b3",
    "balanceOf(address)": "70a08231",
    "deactivateAgent()": "9a4fbf5b",
    "getAgentInfo(uint256)": "19a6a6e9",
    "getApproved(uint256)": "081812fc",
    "getTokenId(address)": "f1537686",
    "isApprovedForAll(address,address)": "e985e9c5",
    "isEndpointTaken(string)": "78bca966",
    "isRegistered(address)": "c3c5a547",
    "name()": "06fdde03",
    "owner()": "8da5cb5b",
    "ownerOf(uint256)": "6352211e",
    "reactivateAgent()": "c1599e4d",
    "registerAgent(string,string,bytes32,string)": "b07ee876",
    "registerAgentFor(address,string,string,bytes32,string)": "8f8f5863",
    "renounceOwnership()": "715018a6",
    "safeTransferFrom(address,address,uint256)": "42842e0e",
    "safeTransferFrom(address,address,uint256,bytes)": "b88d4fde",
    "setApprovalForAll(address,bool)": "a22cb465",
    "supportsInterface(bytes4)": "01ffc9a7",
    "symbol()": "95d89b41",
    "tokenURI(uint256)": "c87b56dd",
    "totalAgents()": "c5053712",
    "transferFrom(address,address,uint256)": "23b872dd",
    "transferOwnership(address)": "f2fde38b",
    "updateAgent(string,bytes32)": "656f0672",
    "updateAgentProfile(string,string,bytes32,string)": "ad21efb6",
    "updateTokenURI(uint256,string)": "18e97fd1"
  },
  "id": 0
}