{
  "abi": [
    {
      "type": "constructor",
      "inputs": [
        {
          "name": "wrappedToken",
          "type": "address",
          "internalType": "contract IERC20"
        }
      ],
      "stateMutability": "nonpayable"
    },
    {
      "type": "function",
      "name": "CLOCK_MODE",
      "inputs": [],
      "outputs": [
        {
          "name": "",
          "type": "string",
          "internalType": "string"
        }
      ],
      "stateMutability": "view"
    },
    {
      "type": "function",
      "name": "DOMAIN_SEPARATOR",
      "inputs": [],
      "outputs": [
        {
          "name": "",
          "type": "bytes32",
          "internalType": "bytes32"
        }
      ],
      "stateMutability": "view"
    },
    {
      "type": "function",
      "name": "allowance",
      "inputs": [
        {
          "name": "owner",
          "type": "address",
          "internalType": "address"
        },
        {
          "name": "spender",
          "type": "address",
          "internalType": "address"
        }
      ],
      "outputs": [
        {
          "name": "",
          "type": "uint256",
          "internalType": "uint256"
        }
      ],
      "stateMutability": "view"
    },
    {
      "type": "function",
      "name": "approve",
      "inputs": [
        {
          "name": "spender",
          "type": "address",
          "internalType": "address"
        },
        {
          "name": "amount",
          "type": "uint256",
          "internalType": "uint256"
        }
      ],
      "outputs": [
        {
          "name": "",
          "type": "bool",
          "internalType": "bool"
        }
      ],
      "stateMutability": "nonpayable"
    },
    {
      "type": "function",
      "name": "balanceOf",
      "inputs": [
        {
          "name": "account",
          "type": "address",
          "internalType": "address"
        }
      ],
      "outputs": [
        {
          "name": "",
          "type": "uint256",
          "internalType": "uint256"
        }
      ],
      "stateMutability": "view"
    },
    {
      "type": "function",
      "name": "checkpoints",
      "inputs": [
        {
          "name": "account",
          "type": "address",
          "internalType": "address"
        },
        {
          "name": "pos",
          "type": "uint32",
          "internalType": "uint32"
        }
      ],
      "outputs": [
        {
          "name": "",
          "type": "tuple",
          "internalType": "struct ERC20Votes.Checkpoint",
          "components": [
            {
              "name": "fromBlock",
              "type": "uint32",
              "internalType": "uint32"
            },
            {
              "name": "votes",
              "type": "uint224",
              "internalType": "uint224"
            }
          ]
        }
      ],
      "stateMutability": "view"
    },
    {
      "type": "function",
      "name": "clock",
      "inputs": [],
      "outputs": [
        {
          "name": "",
          "type": "uint48",
          "internalType": "uint48"
        }
      ],
      "stateMutability": "view"
    },
    {
      "type": "function",
      "name": "decimals",
      "inputs": [],
      "outputs": [
        {
          "name": "",
          "type": "uint8",
          "internalType": "uint8"
        }
      ],
      "stateMutability": "pure"
    },
    {
      "type": "function",
      "name": "decreaseAllowance",
      "inputs": [
        {
          "name": "spender",
          "type": "address",
          "internalType": "address"
        },
        {
          "name": "subtractedValue",
          "type": "uint256",
          "internalType": "uint256"
        }
      ],
      "outputs": [
        {
          "name": "",
          "type": "bool",
          "internalType": "bool"
        }
      ],
      "stateMutability": "nonpayable"
    },
    {
      "type": "function",
      "name": "delegate",
      "inputs": [
        {
          "name": "delegatee",
          "type": "address",
          "internalType": "address"
        }
      ],
      "outputs": [],
      "stateMutability": "nonpayable"
    },
    {
      "type": "function",
      "name": "delegateBySig",
      "inputs": [
        {
          "name": "delegatee",
          "type": "address",
          "internalType": "address"
        },
        {
          "name": "nonce",
          "type": "uint256",
          "internalType": "uint256"
        },
        {
          "name": "expiry",
          "type": "uint256",
          "internalType": "uint256"
        },
        {
          "name": "v",
          "type": "uint8",
          "internalType": "uint8"
        },
        {
          "name": "r",
          "type": "bytes32",
          "internalType": "bytes32"
        },
        {
          "name": "s",
          "type": "bytes32",
          "internalType": "bytes32"
        }
      ],
      "outputs": [],
      "stateMutability": "nonpayable"
    },
    {
      "type": "function",
      "name": "delegates",
      "inputs": [
        {
          "name": "account",
          "type": "address",
          "internalType": "address"
        }
      ],
      "outputs": [
        {
          "name": "",
          "type": "address",
          "internalType": "address"
        }
      ],
      "stateMutability": "view"
    },
    {
      "type": "function",
      "name": "depositFor",
      "inputs": [
        {
          "name": "account",
          "type": "address",
          "internalType": "address"
        },
        {
          "name": "amount",
          "type": "uint256",
          "internalType": "uint256"
        }
      ],
      "outputs": [
        {
          "name": "",
          "type": "bool",
          "internalType": "bool"
        }
      ],
      "stateMutability": "nonpayable"
    },
    {
      "type": "function",
      "name": "eip712Domain",
      "inputs": [],
      "outputs": [
        {
          "name": "fields",
          "type": "bytes1",
          "internalType": "bytes1"
        },
        {
          "name": "name",
          "type": "string",
          "internalType": "string"
        },
        {
          "name": "version",
          "type": "string",
          "internalType": "string"
        },
        {
          "name": "chainId",
          "type": "uint256",
          "internalType": "uint256"
        },
        {
          "name": "verifyingContract",
          "type": "address",
          "internalType": "address"
        },
        {
          "name": "salt",
          "type": "bytes32",
          "internalType": "bytes32"
        },
        {
          "name": "extensions",
          "type": "uint256[]",
          "internalType": "uint256[]"
        }
      ],
      "stateMutability": "view"
    },
    {
      "type": "function",
      "name": "getPastTotalSupply",
      "inputs": [
        {
          "name": "timepoint",
          "type": "uint256",
          "internalType": "uint256"
        }
      ],
      "outputs": [
        {
          "name": "",
          "type": "uint256",
          "internalType": "uint256"
        }
      ],
      "stateMutability": "view"
    },
    {
      "type": "function",
      "name": "getPastVotes",
      "inputs": [
        {
          "name": "account",
          "type": "address",
          "internalType": "address"
        },
        {
          "name": "timepoint",
          "type": "uint256",
          "internalType": "uint256"
        }
      ],
      "outputs": [
        {
          "name": "",
          "type": "uint256",
          "internalType": "uint256"
        }
      ],
      "stateMutability": "view"
    },
    {
      "type": "function",
      "name": "getVotes",
      "inputs": [
        {
          "name": "account",
          "type": "address",
          "internalType": "address"
        }
      ],
      "outputs": [
        {
          "name": "",
          "type": "uint256",
          "internalType": "uint256"
        }
      ],
      "stateMutability": "view"
    },
    {
      "type": "function",
      "name": "increaseAllowance",
      "inputs": [
        {
          "name": "spender",
          "type": "address",
          "internalType": "address"
        },
        {
          "name": "addedValue",
          "type": "uint256",
          "internalType": "uint256"
        }
      ],
      "outputs": [
        {
          "name": "",
          "type": "bool",
          "internalType": "bool"
        }
      ],
      "stateMutability": "nonpayable"
    },
    {
      "type": "function",
      "name": "name",
      "inputs": [],
      "outputs": [
        {
          "name": "",
          "type": "string",
          "internalType": "string"
        }
      ],
      "stateMutability": "view"
    },
    {
      "type": "function",
      "name": "nonces",
      "inputs": [
        {
          "name": "owner",
          "type": "address",
          "internalType": "address"
        }
      ],
      "outputs": [
        {
          "name": "",
          "type": "uint256",
          "internalType": "uint256"
        }
      ],
      "stateMutability": "view"
    },
    {
      "type": "function",
      "name": "numCheckpoints",
      "inputs": [
        {
          "name": "account",
          "type": "address",
          "internalType": "address"
        }
      ],
      "outputs": [
        {
          "name": "",
          "type": "uint32",
          "internalType": "uint32"
        }
      ],
      "stateMutability": "view"
    },
    {
      "type": "function",
      "name": "permit",
      "inputs": [
        {
          "name": "owner",
          "type": "address",
          "internalType": "address"
        },
        {
          "name": "spender",
          "type": "address",
          "internalType": "address"
        },
        {
          "name": "value",
          "type": "uint256",
          "internalType": "uint256"
        },
        {
          "name": "deadline",
          "type": "uint256",
          "internalType": "uint256"
        },
        {
          "name": "v",
          "type": "uint8",
          "internalType": "uint8"
        },
        {
          "name": "r",
          "type": "bytes32",
          "internalType": "bytes32"
        },
        {
          "name": "s",
          "type": "bytes32",
          "internalType": "bytes32"
        }
      ],
      "outputs": [],
      "stateMutability": "nonpayable"
    },
    {
      "type": "function",
      "name": "symbol",
      "inputs": [],
      "outputs": [
        {
          "name": "",
          "type": "string",
          "internalType": "string"
        }
      ],
      "stateMutability": "view"
    },
    {
      "type": "function",
      "name": "totalSupply",
      "inputs": [],
      "outputs": [
        {
          "name": "",
          "type": "uint256",
          "internalType": "uint256"
        }
      ],
      "stateMutability": "view"
    },
    {
      "type": "function",
      "name": "transfer",
      "inputs": [
        {
          "name": "to",
          "type": "address",
          "internalType": "address"
        },
        {
          "name": "amount",
          "type": "uint256",
          "internalType": "uint256"
        }
      ],
      "outputs": [
        {
          "name": "",
          "type": "bool",
          "internalType": "bool"
        }
      ],
      "stateMutability": "nonpayable"
    },
    {
      "type": "function",
      "name": "transferFrom",
      "inputs": [
        {
          "name": "from",
          "type": "address",
          "internalType": "address"
        },
        {
          "name": "to",
          "type": "address",
          "internalType": "address"
        },
        {
          "name": "amount",
          "type": "uint256",
          "internalType": "uint256"
        }
      ],
      "outputs": [
        {
          "name": "",
          "type": "bool",
          "internalType": "bool"
        }
      ],
      "stateMutability": "nonpayable"
    },
    {
      "type": "function",
      "name": "underlying",
      "inputs": [],
      "outputs": [
        {
          "name": "",
          "type": "address",
          "internalType": "contract IERC20"
        }
      ],
      "stateMutability": "view"
    },
    {
      "type": "function",
      "name": "withdrawTo",
      "inputs": [
        {
          "name": "account",
          "type": "address",
          "internalType": "address"
        },
        {
          "name": "amount",
          "type": "uint256",
          "internalType": "uint256"
        }
      ],
      "outputs": [
        {
          "name": "",
          "type": "bool",
          "internalType": "bool"
        }
      ],
      "stateMutability": "nonpayable"
    },
    {
      "type": "event",
      "name": "Approval",
      "inputs": [
        {
          "name": "owner",
          "type": "address",
          "indexed": true,
          "internalType": "address"
        },
        {
          "name": "spender",
          "type": "address",
          "indexed": true,
          "internalType": "address"
        },
        {
          "name": "value",
          "type": "uint256",
          "indexed": false,
          "internalType": "uint256"
        }
      ],
      "anonymous": false
    },
    {
      "type": "event",
      "name": "DelegateChanged",
      "inputs": [
        {
          "name": "delegator",
          "type": "address",
          "indexed": true,
          "internalType": "address"
        },
        {
          "name": "fromDelegate",
          "type": "address",
          "indexed": true,
          "internalType": "address"
        },
        {
          "name": "toDelegate",
          "type": "address",
          "indexed": true,
          "internalType": "address"
        }
      ],
      "anonymous": false
    },
    {
      "type": "event",
      "name": "DelegateVotesChanged",
      "inputs": [
        {
          "name": "delegate",
          "type": "address",
          "indexed": true,
          "internalType": "address"
        },
        {
          "name": "previousBalance",
          "type": "uint256",
          "indexed": false,
          "internalType": "uint256"
        },
        {
          "name": "newBalance",
          "type": "uint256",
          "indexed": false,
          "internalType": "uint256"
        }
      ],
      "anonymous": false
    },
    {
      "type": "event",
      "name": "EIP712DomainChanged",
      "inputs": [],
      "anonymous": false
    },
    {
      "type": "event",
      "name": "Transfer",
      "inputs": [
        {
          "name": "from",
          "type": "address",
          "indexed": true,
          "internalType": "address"
        },
        {
          "name": "to",
          "type": "address",
          "indexed": true,
          "internalType": "address"
        },
        {
          "name": "value",
          "type": "uint256",
          "indexed": false,
          "internalType": "uint256"
        }
      ],
      "anonymous": false
    },
    {
      "type": "error",
      "name": "InvalidShortString",
      "inputs": []
    },
    {
      "type": "error",
      "name": "StringTooLong",
      "inputs": [
        {
          "name": "str",
          "type": "string",
          "internalType": "string"
        }
      ]
    }
  ],
  "bytecode": {
    "object": "0x61018060405234801562000011575f80fd5b5060405162002ac938038062002ac9833981016040819052620000349162000282565b806040518060400160405280600e81526020016d135e551bdad95b95dc985c1c195960921b81525080604051806040016040528060018152602001603160f81b8152506040518060400160405280600e81526020016d135e551bdad95b95dc985c1c195960921b815250604051806040016040528060038152602001624d544b60e81b8152508160039081620000cb919062000351565b506004620000da828262000351565b50620000ec9150839050600562000208565b61012052620000fd81600662000208565b61014052815160208084019190912060e052815190820120610100524660a0526200018a60e05161010051604080517f8b73c3c69bb8fe3d512ecc4cf759cc79239f7b179b0ffacaa9a75d522b39400f60208201529081019290925260608201524660808201523060a08201525f9060c00160405160208183030381529060405280519060200120905090565b60805250503060c08190526001600160a01b038316039050620001f45760405162461bcd60e51b815260206004820152601e60248201527f4552433230577261707065723a2063616e6e6f742073656c662077726170000060448201526064015b60405180910390fd5b6001600160a01b031661016052506200048a565b5f60208351101562000227576200021f8362000240565b90506200023a565b8162000234848262000351565b5060ff90505b92915050565b5f80829050601f815111156200026d578260405163305a27a960e01b8152600401620001eb919062000419565b80516200027a8262000466565b179392505050565b5f6020828403121562000293575f80fd5b81516001600160a01b0381168114620002aa575f80fd5b9392505050565b634e487b7160e01b5f52604160045260245ffd5b600181811c90821680620002da57607f821691505b602082108103620002f957634e487b7160e01b5f52602260045260245ffd5b50919050565b601f8211156200034c575f81815260208120601f850160051c81016020861015620003275750805b601f850160051c820191505b81811015620003485782815560010162000333565b5050505b505050565b81516001600160401b038111156200036d576200036d620002b1565b62000385816200037e8454620002c5565b84620002ff565b602080601f831160018114620003bb575f8415620003a35750858301515b5f19600386901b1c1916600185901b17855562000348565b5f85815260208120601f198616915b82811015620003eb57888601518255948401946001909101908401620003ca565b50858210156200040957878501515f19600388901b60f8161c191681555b5050505050600190811b01905550565b5f6020808352835180828501525f5b81811015620004465785810183015185820160400152820162000428565b505f604082860101526040601f19601f8301168501019250505092915050565b80516020808301519190811015620002f9575f1960209190910360031b1b16919050565b60805160a05160c05160e051610100516101205161014051610160516125d5620004f45f395f81816102ea0152818161052e01526105e701525f6107e501525f6107ba01525f6111cc01525f6111a401525f6110ff01525f61112901525f61115301526125d55ff3fe608060405234801561000f575f80fd5b50600436106101bb575f3560e01c80636fcfff45116100f35780639ab24eb011610093578063c3cda5201161006e578063c3cda520146103ff578063d505accf14610412578063dd62ed3e14610425578063f1127ed814610438575f80fd5b80639ab24eb0146103c6578063a457c2d7146103d9578063a9059cbb146103ec575f80fd5b806384b0196e116100ce57806384b0196e146103715780638e539e8c1461038c57806391ddadf41461039f57806395d89b41146103be575f80fd5b80636fcfff451461030e57806370a08231146103365780637ecebe001461035e575f80fd5b80633644e5151161015e5780634bf5d7e9116101395780634bf5d7e914610288578063587cde1e146102905780635c19a95c146102d35780636f307dc3146102e8575f80fd5b80633644e5151461025a57806339509351146102625780633a46b1a814610275575f80fd5b8063205c287811610199578063205c28781461021257806323b872dd146102255780632f4f21e214610238578063313ce5671461024b575f80fd5b806306fdde03146101bf578063095ea7b3146101dd57806318160ddd14610200575b5f80fd5b6101c7610475565b6040516101d49190612215565b60405180910390f35b6101f06101eb366004612242565b610505565b60405190151581526020016101d4565b6002545b6040519081526020016101d4565b6101f0610220366004612242565b61051e565b6101f061023336600461226a565b61055d565b6101f0610246366004612242565b610580565b604051601281526020016101d4565b610204610618565b6101f0610270366004612242565b610626565b610204610283366004612242565b610647565b6101c76106ca565b6102bb61029e3660046122a3565b6001600160a01b039081165f908152600960205260409020541690565b6040516001600160a01b0390911681526020016101d4565b6102e66102e13660046122a3565b610762565b005b7f00000000000000000000000000000000000000000000000000000000000000006102bb565b61032161031c3660046122a3565b61076f565b60405163ffffffff90911681526020016101d4565b6102046103443660046122a3565b6001600160a01b03165f9081526020819052604090205490565b61020461036c3660046122a3565b610790565b6103796107ad565b6040516101d497969594939291906122bc565b61020461039a366004612350565b610834565b6103a761089a565b60405165ffffffffffff90911681526020016101d4565b6101c76108a4565b6102046103d43660046122a3565b6108b3565b6101f06103e7366004612242565b610930565b6101f06103fa366004612242565b6109aa565b6102e661040d366004612377565b6109b7565b6102e66104203660046123cb565b610aec565b610204610433366004612430565b610c4d565b61044b610446366004612461565b610c77565b60408051825163ffffffff1681526020928301516001600160e01b031692810192909252016101d4565b6060600380546104849061249e565b80601f01602080910402602001604051908101604052809291908181526020018280546104b09061249e565b80156104fb5780601f106104d2576101008083540402835291602001916104fb565b820191905f5260205f20905b8154815290600101906020018083116104de57829003601f168201915b5050505050905090565b5f33610512818585610cf8565b60019150505b92915050565b5f6105293383610e1b565b6105547f00000000000000000000000000000000000000000000000000000000000000008484610e29565b50600192915050565b5f3361056a858285610e91565b610575858585610f09565b506001949350505050565b5f333081036105e25760405162461bcd60e51b815260206004820152602360248201527f4552433230577261707065723a20777261707065722063616e2774206465706f6044820152621cda5d60ea1b60648201526084015b60405180910390fd5b61060e7f00000000000000000000000000000000000000000000000000000000000000008230866110b1565b61051284846110e9565b5f6106216110f3565b905090565b5f336105128185856106388383610c4d565b61064291906124e4565b610cf8565b5f61065061089a565b65ffffffffffff1682106106a25760405162461bcd60e51b815260206004820152601960248201527804552433230566f7465733a20667574757265206c6f6f6b757603c1b60448201526064016105d9565b6001600160a01b0383165f908152600a602052604090206106c3908361121c565b9392505050565b6060436106d561089a565b65ffffffffffff161461072a5760405162461bcd60e51b815260206004820152601d60248201527f4552433230566f7465733a2062726f6b656e20636c6f636b206d6f646500000060448201526064016105d9565b5060408051808201909152601d81527f6d6f64653d626c6f636b6e756d6265722666726f6d3d64656661756c74000000602082015290565b61076c33826112fd565b50565b6001600160a01b0381165f908152600a602052604081205461051890611375565b6001600160a01b0381165f90815260076020526040812054610518565b5f606080828080836107e07f000000000000000000000000000000000000000000000000000000000000000060056113dd565b61080b7f000000000000000000000000000000000000000000000000000000000000000060066113dd565b604080515f80825260208201909252600f60f81b9b939a50919850469750309650945092509050565b5f61083d61089a565b65ffffffffffff16821061088f5760405162461bcd60e51b815260206004820152601960248201527804552433230566f7465733a20667574757265206c6f6f6b757603c1b60448201526064016105d9565b610518600b8361121c565b5f61062143611486565b6060600480546104849061249e565b6001600160a01b0381165f908152600a6020526040812054801561091e576001600160a01b0383165f908152600a6020526040902080545f1983019081106108fd576108fd6124f7565b5f9182526020909120015464010000000090046001600160e01b0316610920565b5f5b6001600160e01b03169392505050565b5f338161093d8286610c4d565b90508381101561099d5760405162461bcd60e51b815260206004820152602560248201527f45524332303a2064656372656173656420616c6c6f77616e63652062656c6f77604482015264207a65726f60d81b60648201526084016105d9565b6105758286868403610cf8565b5f33610512818585610f09565b83421115610a075760405162461bcd60e51b815260206004820152601d60248201527f4552433230566f7465733a207369676e6174757265206578706972656400000060448201526064016105d9565b604080517fe48329057bfd03d55e49b547132e39cffd9c1820ad7b9d4c5307691425d15adf60208201526001600160a01b0388169181019190915260608101869052608081018590525f90610a8090610a789060a001604051602081830303815290604052805190602001206114ec565b858585611518565b9050610a8b81611540565b8614610ad95760405162461bcd60e51b815260206004820152601960248201527f4552433230566f7465733a20696e76616c6964206e6f6e63650000000000000060448201526064016105d9565b610ae381886112fd565b50505050505050565b83421115610b3c5760405162461bcd60e51b815260206004820152601d60248201527f45524332305065726d69743a206578706972656420646561646c696e6500000060448201526064016105d9565b5f7f6e71edae12b1b97f4d1f60370fef10105fa2faae0126114a169c64845d6126c9888888610b6a8c611540565b6040805160208101969096526001600160a01b0394851690860152929091166060840152608083015260a082015260c0810186905260e0016040516020818303038152906040528051906020012090505f610bc4826114ec565b90505f610bd382878787611518565b9050896001600160a01b0316816001600160a01b031614610c365760405162461bcd60e51b815260206004820152601e60248201527f45524332305065726d69743a20696e76616c6964207369676e6174757265000060448201526064016105d9565b610c418a8a8a610cf8565b50505050505050505050565b6001600160a01b039182165f90815260016020908152604080832093909416825291909152205490565b604080518082019091525f80825260208201526001600160a01b0383165f908152600a60205260409020805463ffffffff8416908110610cb957610cb96124f7565b5f9182526020918290206040805180820190915291015463ffffffff8116825264010000000090046001600160e01b0316918101919091529392505050565b6001600160a01b038316610d5a5760405162461bcd60e51b8152602060048201526024808201527f45524332303a20617070726f76652066726f6d20746865207a65726f206164646044820152637265737360e01b60648201526084016105d9565b6001600160a01b038216610dbb5760405162461bcd60e51b815260206004820152602260248201527f45524332303a20617070726f766520746f20746865207a65726f206164647265604482015261737360f01b60648201526084016105d9565b6001600160a01b038381165f8181526001602090815260408083209487168084529482529182902085905590518481527f8c5be1e5ebec7d5bd14f71427d1e84f3dd0314c0f7b2291e5b200ac8c7c3b925910160405180910390a3505050565b610e258282611567565b5050565b6040516001600160a01b038316602482015260448101829052610e8c90849063a9059cbb60e01b906064015b60408051601f198184030181529190526020810180516001600160e01b03166001600160e01b03199093169290921790915261157f565b505050565b5f610e9c8484610c4d565b90505f198114610f035781811015610ef65760405162461bcd60e51b815260206004820152601d60248201527f45524332303a20696e73756666696369656e7420616c6c6f77616e636500000060448201526064016105d9565b610f038484848403610cf8565b50505050565b6001600160a01b038316610f6d5760405162461bcd60e51b815260206004820152602560248201527f45524332303a207472616e736665722066726f6d20746865207a65726f206164604482015264647265737360d81b60648201526084016105d9565b6001600160a01b038216610fcf5760405162461bcd60e51b815260206004820152602360248201527f45524332303a207472616e7366657220746f20746865207a65726f206164647260448201526265737360e81b60648201526084016105d9565b6001600160a01b0383165f90815260208190526040902054818110156110465760405162461bcd60e51b815260206004820152602660248201527f45524332303a207472616e7366657220616d6f756e7420657863656564732062604482015265616c616e636560d01b60648201526084016105d9565b6001600160a01b038481165f81815260208181526040808320878703905593871680835291849020805487019055925185815290927fddf252ad1be2c89b69c2b068fc378daa952ba7f163c4a11628f55a4df523b3ef910160405180910390a3610f03848484611652565b6040516001600160a01b0380851660248301528316604482015260648101829052610f039085906323b872dd60e01b90608401610e55565b610e25828261165d565b5f306001600160a01b037f00000000000000000000000000000000000000000000000000000000000000001614801561114b57507f000000000000000000000000000000000000000000000000000000000000000046145b1561117557507f000000000000000000000000000000000000000000000000000000000000000090565b610621604080517f8b73c3c69bb8fe3d512ecc4cf759cc79239f7b179b0ffacaa9a75d522b39400f60208201527f0000000000000000000000000000000000000000000000000000000000000000918101919091527f000000000000000000000000000000000000000000000000000000000000000060608201524660808201523060a08201525f9060c00160405160208183030381529060405280519060200120905090565b81545f9081816005811115611273575f611235846116e7565b61123f908561250b565b5f88815260209020909150869082015463ffffffff16111561126357809150611271565b61126e8160016124e4565b92505b505b808210156112be575f61128683836117cb565b5f88815260209020909150869082015463ffffffff1611156112aa578091506112b8565b6112b58160016124e4565b92505b50611273565b80156112e8575f8681526020902081015f19015464010000000090046001600160e01b03166112ea565b5f5b6001600160e01b03169695505050505050565b6001600160a01b038281165f818152600960208181526040808420805485845282862054949093528787166001600160a01b03198416811790915590519190951694919391928592917f3134e8a2e6d97e929a7e54011ea5485d7d196dd5f0ba4d4ef95803e8e3fc257f9190a4610f038284836117e5565b5f63ffffffff8211156113d95760405162461bcd60e51b815260206004820152602660248201527f53616665436173743a2076616c756520646f65736e27742066697420696e203360448201526532206269747360d01b60648201526084016105d9565b5090565b606060ff83146113f7576113f08361191f565b9050610518565b8180546114039061249e565b80601f016020809104026020016040519081016040528092919081815260200182805461142f9061249e565b801561147a5780601f106114515761010080835404028352916020019161147a565b820191905f5260205f20905b81548152906001019060200180831161145d57829003601f168201915b50505050509050610518565b5f65ffffffffffff8211156113d95760405162461bcd60e51b815260206004820152602660248201527f53616665436173743a2076616c756520646f65736e27742066697420696e203460448201526538206269747360d01b60648201526084016105d9565b5f6105186114f86110f3565b8360405161190160f01b8152600281019290925260228201526042902090565b5f805f6115278787878761195c565b9150915061153481611a19565b5090505b949350505050565b6001600160a01b0381165f9081526007602052604090208054600181018255905b50919050565b6115718282611b62565b610f03600b611c9883611ca3565b5f6115d3826040518060400160405280602081526020017f5361666545524332303a206c6f772d6c6576656c2063616c6c206661696c6564815250856001600160a01b0316611e0f9092919063ffffffff16565b905080515f14806115f35750808060200190518101906115f3919061251e565b610e8c5760405162461bcd60e51b815260206004820152602a60248201527f5361666545524332303a204552433230206f7065726174696f6e20646964206e6044820152691bdd081cdd58d8d9595960b21b60648201526084016105d9565b610e8c838383611e1d565b6116678282611e4e565b6002546001600160e01b0310156116d95760405162461bcd60e51b815260206004820152603060248201527f4552433230566f7465733a20746f74616c20737570706c79207269736b73206f60448201526f766572666c6f77696e6720766f74657360801b60648201526084016105d9565b610f03600b611f1283611ca3565b5f815f036116f657505f919050565b5f600161170284611f1d565b901c6001901b9050600181848161171b5761171b61253d565b048201901c905060018184816117335761173361253d565b048201901c9050600181848161174b5761174b61253d565b048201901c905060018184816117635761176361253d565b048201901c9050600181848161177b5761177b61253d565b048201901c905060018184816117935761179361253d565b048201901c905060018184816117ab576117ab61253d565b048201901c90506106c3818285816117c5576117c561253d565b04611fb0565b5f6117d96002848418612551565b6106c3908484166124e4565b816001600160a01b0316836001600160a01b03161415801561180657505f81115b15610e8c576001600160a01b03831615611893576001600160a01b0383165f908152600a60205260408120819061184090611c9885611ca3565b91509150846001600160a01b03167fdec2bacdd2f05b59de34da9b523dff8be42e5e38e818c82fdb0bae774387a7248383604051611888929190918252602082015260400190565b60405180910390a250505b6001600160a01b03821615610e8c576001600160a01b0382165f908152600a6020526040812081906118c890611f1285611ca3565b91509150836001600160a01b03167fdec2bacdd2f05b59de34da9b523dff8be42e5e38e818c82fdb0bae774387a7248383604051611910929190918252602082015260400190565b60405180910390a25050505050565b60605f61192b83611fc5565b6040805160208082528183019092529192505f91906020820181803683375050509182525060208101929092525090565b5f807f7fffffffffffffffffffffffffffffff5d576e7357a4501ddfe92f46681b20a083111561199157505f90506003611a10565b604080515f8082526020820180845289905260ff881692820192909252606081018690526080810185905260019060a0016020604051602081039080840390855afa1580156119e2573d5f803e3d5ffd5b5050604051601f1901519150506001600160a01b038116611a0a575f60019250925050611a10565b91505f90505b94509492505050565b5f816004811115611a2c57611a2c612570565b03611a345750565b6001816004811115611a4857611a48612570565b03611a955760405162461bcd60e51b815260206004820152601860248201527f45434453413a20696e76616c6964207369676e6174757265000000000000000060448201526064016105d9565b6002816004811115611aa957611aa9612570565b03611af65760405162461bcd60e51b815260206004820152601f60248201527f45434453413a20696e76616c6964207369676e6174757265206c656e6774680060448201526064016105d9565b6003816004811115611b0a57611b0a612570565b0361076c5760405162461bcd60e51b815260206004820152602260248201527f45434453413a20696e76616c6964207369676e6174757265202773272076616c604482015261756560f01b60648201526084016105d9565b6001600160a01b038216611bc25760405162461bcd60e51b815260206004820152602160248201527f45524332303a206275726e2066726f6d20746865207a65726f206164647265736044820152607360f81b60648201526084016105d9565b6001600160a01b0382165f9081526020819052604090205481811015611c355760405162461bcd60e51b815260206004820152602260248201527f45524332303a206275726e20616d6f756e7420657863656564732062616c616e604482015261636560f01b60648201526084016105d9565b6001600160a01b0383165f818152602081815260408083208686039055600280548790039055518581529192917fddf252ad1be2c89b69c2b068fc378daa952ba7f163c4a11628f55a4df523b3ef910160405180910390a3610e8c835f84611652565b5f6106c3828461250b565b82545f908190818115611ced575f8781526020902082015f190160408051808201909152905463ffffffff8116825264010000000090046001600160e01b03166020820152611d01565b604080518082019091525f80825260208201525b905080602001516001600160e01b03169350611d2184868863ffffffff16565b92505f82118015611d495750611d3561089a565b65ffffffffffff16815f015163ffffffff16145b15611d8c57611d5783611fec565b5f8881526020902083015f190180546001600160e01b03929092166401000000000263ffffffff909216919091179055611e05565b866040518060400160405280611db0611da361089a565b65ffffffffffff16611375565b63ffffffff168152602001611dc486611fec565b6001600160e01b0390811690915282546001810184555f938452602093849020835194909301519091166401000000000263ffffffff909316929092179101555b5050935093915050565b606061153884845f85612054565b6001600160a01b038381165f90815260096020526040808220548584168352912054610e8c929182169116836117e5565b6001600160a01b038216611ea45760405162461bcd60e51b815260206004820152601f60248201527f45524332303a206d696e7420746f20746865207a65726f20616464726573730060448201526064016105d9565b8060025f828254611eb591906124e4565b90915550506001600160a01b0382165f81815260208181526040808320805486019055518481527fddf252ad1be2c89b69c2b068fc378daa952ba7f163c4a11628f55a4df523b3ef910160405180910390a3610e255f8383611652565b5f6106c382846124e4565b5f80608083901c15611f3157608092831c92015b604083901c15611f4357604092831c92015b602083901c15611f5557602092831c92015b601083901c15611f6757601092831c92015b600883901c15611f7957600892831c92015b600483901c15611f8b57600492831c92015b600283901c15611f9d57600292831c92015b600183901c156105185760010192915050565b5f818310611fbe57816106c3565b5090919050565b5f60ff8216601f81111561051857604051632cd44ac360e21b815260040160405180910390fd5b5f6001600160e01b038211156113d95760405162461bcd60e51b815260206004820152602760248201527f53616665436173743a2076616c756520646f65736e27742066697420696e20326044820152663234206269747360c81b60648201526084016105d9565b6060824710156120b55760405162461bcd60e51b815260206004820152602660248201527f416464726573733a20696e73756666696369656e742062616c616e636520666f6044820152651c8818d85b1b60d21b60648201526084016105d9565b5f80866001600160a01b031685876040516120d09190612584565b5f6040518083038185875af1925050503d805f811461210a576040519150601f19603f3d011682016040523d82523d5f602084013e61210f565b606091505b50915091506121208783838761212b565b979650505050505050565b606083156121995782515f03612192576001600160a01b0385163b6121925760405162461bcd60e51b815260206004820152601d60248201527f416464726573733a2063616c6c20746f206e6f6e2d636f6e747261637400000060448201526064016105d9565b5081611538565b61153883838151156121ae5781518083602001fd5b8060405162461bcd60e51b81526004016105d99190612215565b5f5b838110156121e25781810151838201526020016121ca565b50505f910152565b5f81518084526122018160208601602086016121c8565b601f01601f19169290920160200192915050565b602081525f6106c360208301846121ea565b80356001600160a01b038116811461223d575f80fd5b919050565b5f8060408385031215612253575f80fd5b61225c83612227565b946020939093013593505050565b5f805f6060848603121561227c575f80fd5b61228584612227565b925061229360208501612227565b9150604084013590509250925092565b5f602082840312156122b3575f80fd5b6106c382612227565b60ff60f81b881681525f602060e0818401526122db60e084018a6121ea565b83810360408501526122ed818a6121ea565b606085018990526001600160a01b038816608086015260a0850187905284810360c086015285518082528387019250908301905f5b8181101561233e57835183529284019291840191600101612322565b50909c9b505050505050505050505050565b5f60208284031215612360575f80fd5b5035919050565b803560ff8116811461223d575f80fd5b5f805f805f8060c0878903121561238c575f80fd5b61239587612227565b955060208701359450604087013593506123b160608801612367565b92506080870135915060a087013590509295509295509295565b5f805f805f805f60e0888a0312156123e1575f80fd5b6123ea88612227565b96506123f860208901612227565b9550604088013594506060880135935061241460808901612367565b925060a0880135915060c0880135905092959891949750929550565b5f8060408385031215612441575f80fd5b61244a83612227565b915061245860208401612227565b90509250929050565b5f8060408385031215612472575f80fd5b61247b83612227565b9150602083013563ffffffff81168114612493575f80fd5b809150509250929050565b600181811c908216806124b257607f821691505b60208210810361156157634e487b7160e01b5f52602260045260245ffd5b634e487b7160e01b5f52601160045260245ffd5b80820180821115610518576105186124d0565b634e487b7160e01b5f52603260045260245ffd5b81810381811115610518576105186124d0565b5f6020828403121561252e575f80fd5b815180151581146106c3575f80fd5b634e487b7160e01b5f52601260045260245ffd5b5f8261256b57634e487b7160e01b5f52601260045260245ffd5b500490565b634e487b7160e01b5f52602160045260245ffd5b5f82516125958184602087016121c8565b919091019291505056fea264697066735822122025b1d57c41f3e82e9d903d497ccbc1136ec21cd700fe6ec495f6496a2287a45164736f6c63430008140033",
    "linkReferences": {}
  },
  "methodIdentifiers": {
    "CLOCK_MODE()": "4bf5d7e9",
    "DOMAIN_SEPARATOR()": "3644e515",
    "allowance(address,address)": "dd62ed3e",
    "approve(address,uint256)": "095ea7b3",
    "balanceOf(address)": "70a08231",
    "checkpoints(address,uint32)": "f1127ed8",
    "clock()": "91ddadf4",
    "decimals()": "313ce567",
    "decreaseAllowance(address,uint256)": "a457c2d7",
    "delegate(address)": "5c19a95c",
    "delegateBySig(address,uint256,uint256,uint8,bytes32,bytes32)": "c3cda520",
    "delegates(address)": "587cde1e",
    "depositFor(address,uint256)": "2f4f21e2",
    "eip712Domain()": "84b0196e",
    "getPastTotalSupply(uint256)": "8e539e8c",
    "getPastVotes(address,uint256)": "3a46b1a8",
    "getVotes(address)": "9ab24eb0",
    "increaseAllowance(address,uint256)": "39509351",
    "name()": "06fdde03",
    "nonces(address)": "7ecebe00",
    "numCheckpoints(address)": "6fcfff45",
    "permit(address,address,uint256,uint256,uint8,bytes32,bytes32)": "d505accf",
    "symbol()": "95d89b41",
    "totalSupply()": "18160ddd",
    "transfer(address,uint256)": "a9059cbb",
    "transferFrom(address,address,uint256)": "23b872dd",
    "underlying()": "6f307dc3",
    "withdrawTo(address,uint256)": "205c2878"
  },
  "id": 118
}