{
  "abi": [
    {
      "type": "constructor",
      "inputs": [
        {
          "name": "underlying",
          "type": "address",
          "internalType": "address"
        }
      ],
      "stateMutability": "nonpayable"
    },
    {
      "type": "function",
      "name": "allowance",
      "inputs": [
        {
          "name": "owner",
          "type": "address",
          "internalType": "address"
        },
        {
          "name": "spender",
          "type": "address",
          "internalType": "address"
        }
      ],
      "outputs": [
        {
          "name": "",
          "type": "uint256",
          "internalType": "uint256"
        }
      ],
      "stateMutability": "view"
    },
    {
      "type": "function",
      "name": "approve",
      "inputs": [
        {
          "name": "spender",
          "type": "address",
          "internalType": "address"
        },
        {
          "name": "amount",
          "type": "uint256",
          "internalType": "uint256"
        }
      ],
      "outputs": [
        {
          "name": "",
          "type": "bool",
          "internalType": "bool"
        }
      ],
      "stateMutability": "nonpayable"
    },
    {
      "type": "function",
      "name": "asset",
      "inputs": [],
      "outputs": [
        {
          "name": "",
          "type": "address",
          "internalType": "address"
        }
      ],
      "stateMutability": "view"
    },
    {
      "type": "function",
      "name": "balanceOf",
      "inputs": [
        {
          "name": "account",
          "type": "address",
          "internalType": "address"
        }
      ],
      "outputs": [
        {
          "name": "",
          "type": "uint256",
          "internalType": "uint256"
        }
      ],
      "stateMutability": "view"
    },
    {
      "type": "function",
      "name": "burn",
      "inputs": [
        {
          "name": "account",
          "type": "address",
          "internalType": "address"
        },
        {
          "name": "amount",
          "type": "uint256",
          "internalType": "uint256"
        }
      ],
      "outputs": [],
      "stateMutability": "nonpayable"
    },
    {
      "type": "function",
      "name": "convertToAssets",
      "inputs": [
        {
          "name": "shares",
          "type": "uint256",
          "internalType": "uint256"
        }
      ],
      "outputs": [
        {
          "name": "",
          "type": "uint256",
          "internalType": "uint256"
        }
      ],
      "stateMutability": "view"
    },
    {
      "type": "function",
      "name": "convertToShares",
      "inputs": [
        {
          "name": "assets",
          "type": "uint256",
          "internalType": "uint256"
        }
      ],
      "outputs": [
        {
          "name": "",
          "type": "uint256",
          "internalType": "uint256"
        }
      ],
      "stateMutability": "view"
    },
    {
      "type": "function",
      "name": "decimals",
      "inputs": [],
      "outputs": [
        {
          "name": "",
          "type": "uint8",
          "internalType": "uint8"
        }
      ],
      "stateMutability": "view"
    },
    {
      "type": "function",
      "name": "decreaseAllowance",
      "inputs": [
        {
          "name": "spender",
          "type": "address",
          "internalType": "address"
        },
        {
          "name": "subtractedValue",
          "type": "uint256",
          "internalType": "uint256"
        }
      ],
      "outputs": [
        {
          "name": "",
          "type": "bool",
          "internalType": "bool"
        }
      ],
      "stateMutability": "nonpayable"
    },
    {
      "type": "function",
      "name": "deposit",
      "inputs": [
        {
          "name": "assets",
          "type": "uint256",
          "internalType": "uint256"
        },
        {
          "name": "receiver",
          "type": "address",
          "internalType": "address"
        }
      ],
      "outputs": [
        {
          "name": "",
          "type": "uint256",
          "internalType": "uint256"
        }
      ],
      "stateMutability": "nonpayable"
    },
    {
      "type": "function",
      "name": "increaseAllowance",
      "inputs": [
        {
          "name": "spender",
          "type": "address",
          "internalType": "address"
        },
        {
          "name": "addedValue",
          "type": "uint256",
          "internalType": "uint256"
        }
      ],
      "outputs": [
        {
          "name": "",
          "type": "bool",
          "internalType": "bool"
        }
      ],
      "stateMutability": "nonpayable"
    },
    {
      "type": "function",
      "name": "maxDeposit",
      "inputs": [
        {
          "name": "",
          "type": "address",
          "internalType": "address"
        }
      ],
      "outputs": [
        {
          "name": "",
          "type": "uint256",
          "internalType": "uint256"
        }
      ],
      "stateMutability": "view"
    },
    {
      "type": "function",
      "name": "maxMint",
      "inputs": [
        {
          "name": "",
          "type": "address",
          "internalType": "address"
        }
      ],
      "outputs": [
        {
          "name": "",
          "type": "uint256",
          "internalType": "uint256"
        }
      ],
      "stateMutability": "view"
    },
    {
      "type": "function",
      "name": "maxRedeem",
      "inputs": [
        {
          "name": "owner",
          "type": "address",
          "internalType": "address"
        }
      ],
      "outputs": [
        {
          "name": "",
          "type": "uint256",
          "internalType": "uint256"
        }
      ],
      "stateMutability": "view"
    },
    {
      "type": "function",
      "name": "maxWithdraw",
      "inputs": [
        {
          "name": "owner",
          "type": "address",
          "internalType": "address"
        }
      ],
      "outputs": [
        {
          "name": "",
          "type": "uint256",
          "internalType": "uint256"
        }
      ],
      "stateMutability": "view"
    },
    {
      "type": "function",
      "name": "mint",
      "inputs": [
        {
          "name": "account",
          "type": "address",
          "internalType": "address"
        },
        {
          "name": "amount",
          "type": "uint256",
          "internalType": "uint256"
        }
      ],
      "outputs": [],
      "stateMutability": "nonpayable"
    },
    {
      "type": "function",
      "name": "mint",
      "inputs": [
        {
          "name": "shares",
          "type": "uint256",
          "internalType": "uint256"
        },
        {
          "name": "receiver",
          "type": "address",
          "internalType": "address"
        }
      ],
      "outputs": [
        {
          "name": "",
          "type": "uint256",
          "internalType": "uint256"
        }
      ],
      "stateMutability": "nonpayable"
    },
    {
      "type": "function",
      "name": "name",
      "inputs": [],
      "outputs": [
        {
          "name": "",
          "type": "string",
          "internalType": "string"
        }
      ],
      "stateMutability": "view"
    },
    {
      "type": "function",
      "name": "previewDeposit",
      "inputs": [
        {
          "name": "assets",
          "type": "uint256",
          "internalType": "uint256"
        }
      ],
      "outputs": [
        {
          "name": "",
          "type": "uint256",
          "internalType": "uint256"
        }
      ],
      "stateMutability": "view"
    },
    {
      "type": "function",
      "name": "previewMint",
      "inputs": [
        {
          "name": "shares",
          "type": "uint256",
          "internalType": "uint256"
        }
      ],
      "outputs": [
        {
          "name": "",
          "type": "uint256",
          "internalType": "uint256"
        }
      ],
      "stateMutability": "view"
    },
    {
      "type": "function",
      "name": "previewRedeem",
      "inputs": [
        {
          "name": "shares",
          "type": "uint256",
          "internalType": "uint256"
        }
      ],
      "outputs": [
        {
          "name": "",
          "type": "uint256",
          "internalType": "uint256"
        }
      ],
      "stateMutability": "view"
    },
    {
      "type": "function",
      "name": "previewWithdraw",
      "inputs": [
        {
          "name": "assets",
          "type": "uint256",
          "internalType": "uint256"
        }
      ],
      "outputs": [
        {
          "name": "",
          "type": "uint256",
          "internalType": "uint256"
        }
      ],
      "stateMutability": "view"
    },
    {
      "type": "function",
      "name": "redeem",
      "inputs": [
        {
          "name": "shares",
          "type": "uint256",
          "internalType": "uint256"
        },
        {
          "name": "receiver",
          "type": "address",
          "internalType": "address"
        },
        {
          "name": "owner",
          "type": "address",
          "internalType": "address"
        }
      ],
      "outputs": [
        {
          "name": "",
          "type": "uint256",
          "internalType": "uint256"
        }
      ],
      "stateMutability": "nonpayable"
    },
    {
      "type": "function",
      "name": "symbol",
      "inputs": [],
      "outputs": [
        {
          "name": "",
          "type": "string",
          "internalType": "string"
        }
      ],
      "stateMutability": "view"
    },
    {
      "type": "function",
      "name": "totalAssets",
      "inputs": [],
      "outputs": [
        {
          "name": "",
          "type": "uint256",
          "internalType": "uint256"
        }
      ],
      "stateMutability": "view"
    },
    {
      "type": "function",
      "name": "totalSupply",
      "inputs": [],
      "outputs": [
        {
          "name": "",
          "type": "uint256",
          "internalType": "uint256"
        }
      ],
      "stateMutability": "view"
    },
    {
      "type": "function",
      "name": "transfer",
      "inputs": [
        {
          "name": "to",
          "type": "address",
          "internalType": "address"
        },
        {
          "name": "amount",
          "type": "uint256",
          "internalType": "uint256"
        }
      ],
      "outputs": [
        {
          "name": "",
          "type": "bool",
          "internalType": "bool"
        }
      ],
      "stateMutability": "nonpayable"
    },
    {
      "type": "function",
      "name": "transferFrom",
      "inputs": [
        {
          "name": "from",
          "type": "address",
          "internalType": "address"
        },
        {
          "name": "to",
          "type": "address",
          "internalType": "address"
        },
        {
          "name": "amount",
          "type": "uint256",
          "internalType": "uint256"
        }
      ],
      "outputs": [
        {
          "name": "",
          "type": "bool",
          "internalType": "bool"
        }
      ],
      "stateMutability": "nonpayable"
    },
    {
      "type": "function",
      "name": "withdraw",
      "inputs": [
        {
          "name": "assets",
          "type": "uint256",
          "internalType": "uint256"
        },
        {
          "name": "receiver",
          "type": "address",
          "internalType": "address"
        },
        {
          "name": "owner",
          "type": "address",
          "internalType": "address"
        }
      ],
      "outputs": [
        {
          "name": "",
          "type": "uint256",
          "internalType": "uint256"
        }
      ],
      "stateMutability": "nonpayable"
    },
    {
      "type": "event",
      "name": "Approval",
      "inputs": [
        {
          "name": "owner",
          "type": "address",
          "indexed": true,
          "internalType": "address"
        },
        {
          "name": "spender",
          "type": "address",
          "indexed": true,
          "internalType": "address"
        },
        {
          "name": "value",
          "type": "uint256",
          "indexed": false,
          "internalType": "uint256"
        }
      ],
      "anonymous": false
    },
    {
      "type": "event",
      "name": "Deposit",
      "inputs": [
        {
          "name": "sender",
          "type": "address",
          "indexed": true,
          "internalType": "address"
        },
        {
          "name": "owner",
          "type": "address",
          "indexed": true,
          "internalType": "address"
        },
        {
          "name": "assets",
          "type": "uint256",
          "indexed": false,
          "internalType": "uint256"
        },
        {
          "name": "shares",
          "type": "uint256",
          "indexed": false,
          "internalType": "uint256"
        }
      ],
      "anonymous": false
    },
    {
      "type": "event",
      "name": "Transfer",
      "inputs": [
        {
          "name": "from",
          "type": "address",
          "indexed": true,
          "internalType": "address"
        },
        {
          "name": "to",
          "type": "address",
          "indexed": true,
          "internalType": "address"
        },
        {
          "name": "value",
          "type": "uint256",
          "indexed": false,
          "internalType": "uint256"
        }
      ],
      "anonymous": false
    },
    {
      "type": "event",
      "name": "Withdraw",
      "inputs": [
        {
          "name": "sender",
          "type": "address",
          "indexed": true,
          "internalType": "address"
        },
        {
          "name": "receiver",
          "type": "address",
          "indexed": true,
          "internalType": "address"
        },
        {
          "name": "owner",
          "type": "address",
          "indexed": true,
          "internalType": "address"
        },
        {
          "name": "assets",
          "type": "uint256",
          "indexed": false,
          "internalType": "uint256"
        },
        {
          "name": "shares",
          "type": "uint256",
          "indexed": false,
          "internalType": "uint256"
        }
      ],
      "anonymous": false
    }
  ],
  "bytecode": {
    "object": "0x60c060405234801562000010575f80fd5b5060405162001a4138038062001a418339810160408190526200003391620001bb565b806040518060400160405280600b81526020016a455243343632364d6f636b60a81b8152506040518060400160405280600681526020016545343632364d60d01b81525081600390816200008891906200028a565b5060046200009782826200028a565b5050505f80620000ad83620000dc60201b60201c565b9150915081620000bf576012620000c1565b805b60ff1660a05250506001600160a01b03166080525062000398565b60408051600481526024810182526020810180516001600160e01b031663313ce56760e01b17905290515f918291829182916001600160a01b03871691620001249162000352565b5f60405180830381855afa9150503d805f81146200015e576040519150601f19603f3d011682016040523d82523d5f602084013e62000163565b606091505b50915091508180156200017857506020815110155b15620001af575f8180602001905181019062000195919062000380565b905060ff8111620001ad576001969095509350505050565b505b505f9485945092505050565b5f60208284031215620001cc575f80fd5b81516001600160a01b0381168114620001e3575f80fd5b9392505050565b634e487b7160e01b5f52604160045260245ffd5b600181811c908216806200021357607f821691505b6020821081036200023257634e487b7160e01b5f52602260045260245ffd5b50919050565b601f82111562000285575f81815260208120601f850160051c81016020861015620002605750805b601f850160051c820191505b8181101562000281578281556001016200026c565b5050505b505050565b81516001600160401b03811115620002a657620002a6620001ea565b620002be81620002b78454620001fe565b8462000238565b602080601f831160018114620002f4575f8415620002dc5750858301515b5f19600386901b1c1916600185901b17855562000281565b5f85815260208120601f198616915b82811015620003245788860151825594840194600190910190840162000303565b50858210156200034257878501515f19600388901b60f8161c191681555b5050505050600190811b01905550565b5f82515f5b8181101562000373576020818601810151858301520162000357565b505f920191825250919050565b5f6020828403121562000391575f80fd5b5051919050565b60805160a051611672620003cf5f395f61057c01525f81816102850152818161041601528181610c8d0152610e7a01526116725ff3fe608060405234801561000f575f80fd5b50600436106101c6575f3560e01c806370a08231116100fe578063b460af941161009e578063ce96cb771161006e578063ce96cb77146103c6578063d905777e146103d9578063dd62ed3e146103ec578063ef8b30f7146103b3575f80fd5b8063b460af941461038d578063ba087652146103a0578063c63d75b6146102c2578063c6e6f592146103b3575f80fd5b80639dc29fac116100d95780639dc29fac14610341578063a457c2d714610354578063a9059cbb14610367578063b3d7f6b91461037a575f80fd5b806370a08231146102fe57806394bf804d1461032657806395d89b4114610339575f80fd5b8063313ce56711610169578063402d267d11610144578063402d267d146102c257806340c10f19146102d65780634cdad506146101fa5780636e553f65146102eb575f80fd5b8063313ce5671461025e57806338d52e0f1461027857806339509351146102af575f80fd5b8063095ea7b3116101a4578063095ea7b31461020d5780630a28a4771461023057806318160ddd1461024357806323b872dd1461024b575f80fd5b806301e1d114146101ca57806306fdde03146101e557806307a2d13a146101fa575b5f80fd5b6101d26103ff565b6040519081526020015b60405180910390f35b6101ed61048c565b6040516101dc91906112f4565b6101d2610208366004611326565b61051c565b61022061021b366004611358565b61052d565b60405190151581526020016101dc565b6101d261023e366004611326565b610544565b6002546101d2565b610220610259366004611380565b610550565b610266610575565b60405160ff90911681526020016101dc565b6040516001600160a01b037f00000000000000000000000000000000000000000000000000000000000000001681526020016101dc565b6102206102bd366004611358565b6105a0565b6101d26102d03660046113b9565b505f1990565b6102e96102e4366004611358565b6105c1565b005b6101d26102f93660046113d2565b6105cf565b6101d261030c3660046113b9565b6001600160a01b03165f9081526020819052604090205490565b6101d26103343660046113d2565b6105f6565b6101ed61060f565b6102e961034f366004611358565b61061e565b610220610362366004611358565b610628565b610220610375366004611358565b6106ad565b6101d2610388366004611326565b6106ba565b6101d261039b3660046113fc565b6106c6565b6101d26103ae3660046113fc565b610740565b6101d26103c1366004611326565b6107b2565b6101d26103d43660046113b9565b6107bd565b6101d26103e73660046113b9565b6107df565b6101d26103fa366004611435565b6107fc565b6040516370a0823160e01b81523060048201525f907f00000000000000000000000000000000000000000000000000000000000000006001600160a01b0316906370a0823190602401602060405180830381865afa158015610463573d5f803e3d5ffd5b505050506040513d601f19601f82011682018060405250810190610487919061145d565b905090565b60606003805461049b90611474565b80601f01602080910402602001604051908101604052809291908181526020018280546104c790611474565b80156105125780601f106104e957610100808354040283529160200191610512565b820191905f5260205f20905b8154815290600101906020018083116104f557829003601f168201915b5050505050905090565b5f610527825f610826565b92915050565b5f3361053a81858561085e565b5060019392505050565b5f610527826001610982565b5f3361055d8582856109b1565b610568858585610a29565b60019150505b9392505050565b5f610487817f00000000000000000000000000000000000000000000000000000000000000006114c0565b5f3361053a8185856105b283836107fc565b6105bc91906114d9565b61085e565b6105cb8282610bcb565b5050565b5f6105de565b60405180910390fd5b5f6105e8846107b2565b905061056e33848684610c88565b5f80610601846106ba565b905061056e33848387610c88565b60606004805461049b90611474565b6105cb8282610d1a565b5f338161063582866107fc565b9050838110156106955760405162461bcd60e51b815260206004820152602560248201527f45524332303a2064656372656173656420616c6c6f77616e63652062656c6f77604482015264207a65726f60d81b60648201526084016105d5565b6106a2828686840361085e565b506001949350505050565b5f3361053a818585610a29565b5f610527826001610826565b5f6106d0826107bd565b84111561071f5760405162461bcd60e51b815260206004820152601f60248201527f455243343632363a207769746864726177206d6f7265207468616e206d61780060448201526064016105d5565b5f61072985610544565b90506107383385858885610e47565b949350505050565b5f61074a826107df565b8411156107995760405162461bcd60e51b815260206004820152601d60248201527f455243343632363a2072656465656d206d6f7265207468616e206d617800000060448201526064016105d5565b5f6107a38561051c565b90506107383385858489610e47565b5f610527825f610982565b6001600160a01b0381165f90815260208190526040812054610527905f610826565b6001600160a01b0381165f90815260208190526040812054610527565b6001600160a01b039182165f90815260016020908152604080832093909416825291909152205490565b5f61056e6108326103ff565b61083d9060016114d9565b6108485f600a6115cc565b60025461085591906114d9565b85919085610f07565b6001600160a01b0383166108c05760405162461bcd60e51b8152602060048201526024808201527f45524332303a20617070726f76652066726f6d20746865207a65726f206164646044820152637265737360e01b60648201526084016105d5565b6001600160a01b0382166109215760405162461bcd60e51b815260206004820152602260248201527f45524332303a20617070726f766520746f20746865207a65726f206164647265604482015261737360f01b60648201526084016105d5565b6001600160a01b038381165f8181526001602090815260408083209487168084529482529182902085905590518481527f8c5be1e5ebec7d5bd14f71427d1e84f3dd0314c0f7b2291e5b200ac8c7c3b92591015b60405180910390a3505050565b5f61056e61099182600a6115cc565b60025461099e91906114d9565b6109a66103ff565b6108559060016114d9565b5f6109bc84846107fc565b90505f198114610a235781811015610a165760405162461bcd60e51b815260206004820152601d60248201527f45524332303a20696e73756666696369656e7420616c6c6f77616e636500000060448201526064016105d5565b610a23848484840361085e565b50505050565b6001600160a01b038316610a8d5760405162461bcd60e51b815260206004820152602560248201527f45524332303a207472616e736665722066726f6d20746865207a65726f206164604482015264647265737360d81b60648201526084016105d5565b6001600160a01b038216610aef5760405162461bcd60e51b815260206004820152602360248201527f45524332303a207472616e7366657220746f20746865207a65726f206164647260448201526265737360e81b60648201526084016105d5565b6001600160a01b0383165f9081526020819052604090205481811015610b665760405162461bcd60e51b815260206004820152602660248201527f45524332303a207472616e7366657220616d6f756e7420657863656564732062604482015265616c616e636560d01b60648201526084016105d5565b6001600160a01b038481165f81815260208181526040808320878703905593871680835291849020805487019055925185815290927fddf252ad1be2c89b69c2b068fc378daa952ba7f163c4a11628f55a4df523b3ef910160405180910390a3610a23565b6001600160a01b038216610c215760405162461bcd60e51b815260206004820152601f60248201527f45524332303a206d696e7420746f20746865207a65726f20616464726573730060448201526064016105d5565b8060025f828254610c3291906114d9565b90915550506001600160a01b0382165f81815260208181526040808320805486019055518481527fddf252ad1be2c89b69c2b068fc378daa952ba7f163c4a11628f55a4df523b3ef910160405180910390a35050565b610cb47f0000000000000000000000000000000000000000000000000000000000000000853085610f62565b610cbe8382610bcb565b826001600160a01b0316846001600160a01b03167fdcbc1c05240f31ff3ad067ef1ee35ce4997762752e3a095284754544f4c709d78484604051610d0c929190918252602082015260400190565b60405180910390a350505050565b6001600160a01b038216610d7a5760405162461bcd60e51b815260206004820152602160248201527f45524332303a206275726e2066726f6d20746865207a65726f206164647265736044820152607360f81b60648201526084016105d5565b6001600160a01b0382165f9081526020819052604090205481811015610ded5760405162461bcd60e51b815260206004820152602260248201527f45524332303a206275726e20616d6f756e7420657863656564732062616c616e604482015261636560f01b60648201526084016105d5565b6001600160a01b0383165f818152602081815260408083208686039055600280548790039055518581529192917fddf252ad1be2c89b69c2b068fc378daa952ba7f163c4a11628f55a4df523b3ef9101610975565b505050565b826001600160a01b0316856001600160a01b031614610e6b57610e6b8386836109b1565b610e758382610d1a565b610ea07f00000000000000000000000000000000000000000000000000000000000000008584610fcd565b826001600160a01b0316846001600160a01b0316866001600160a01b03167ffbde797d201c681b91056529119e0b02407c7bb96a4a2c75c01fc9667232c8db8585604051610ef8929190918252602082015260400190565b60405180910390a45050505050565b5f80610f14868686610ffd565b90506001836002811115610f2a57610f2a6115da565b148015610f4657505f8480610f4157610f416115ee565b868809115b15610f5957610f566001826114d9565b90505b95945050505050565b6040516001600160a01b0380851660248301528316604482015260648101829052610a239085906323b872dd60e01b906084015b60408051601f198184030181529190526020810180516001600160e01b03166001600160e01b0319909316929092179091526110e2565b6040516001600160a01b038316602482015260448101829052610e4290849063a9059cbb60e01b90606401610f96565b5f80805f19858709858702925082811083820303915050805f036110345783828161102a5761102a6115ee565b049250505061056e565b80841161107b5760405162461bcd60e51b81526020600482015260156024820152744d6174683a206d756c446976206f766572666c6f7760581b60448201526064016105d5565b5f8486880960026001871981018816978890046003810283188082028403028082028403028082028403028082028403028082028403029081029092039091025f889003889004909101858311909403939093029303949094049190911702949350505050565b5f611136826040518060400160405280602081526020017f5361666545524332303a206c6f772d6c6576656c2063616c6c206661696c6564815250856001600160a01b03166111b59092919063ffffffff16565b905080515f14806111565750808060200190518101906111569190611602565b610e425760405162461bcd60e51b815260206004820152602a60248201527f5361666545524332303a204552433230206f7065726174696f6e20646964206e6044820152691bdd081cdd58d8d9595960b21b60648201526084016105d5565b606061073884845f85855f80866001600160a01b031685876040516111da9190611621565b5f6040518083038185875af1925050503d805f8114611214576040519150601f19603f3d011682016040523d82523d5f602084013e611219565b606091505b509150915061122a87838387611235565b979650505050505050565b606083156112a35782515f0361129c576001600160a01b0385163b61129c5760405162461bcd60e51b815260206004820152601d60248201527f416464726573733a2063616c6c20746f206e6f6e2d636f6e747261637400000060448201526064016105d5565b5081610738565b61073883838151156112b85781518083602001fd5b8060405162461bcd60e51b81526004016105d591906112f4565b5f5b838110156112ec5781810151838201526020016112d4565b50505f910152565b602081525f82518060208401526113128160408501602087016112d2565b601f01601f19169190910160400192915050565b5f60208284031215611336575f80fd5b5035919050565b80356001600160a01b0381168114611353575f80fd5b919050565b5f8060408385031215611369575f80fd5b6113728361133d565b946020939093013593505050565b5f805f60608486031215611392575f80fd5b61139b8461133d565b92506113a96020850161133d565b9150604084013590509250925092565b5f602082840312156113c9575f80fd5b61056e8261133d565b5f80604083850312156113e3575f80fd5b823591506113f36020840161133d565b90509250929050565b5f805f6060848603121561140e575f80fd5b8335925061141e6020850161133d565b915061142c6040850161133d565b90509250925092565b5f8060408385031215611446575f80fd5b61144f8361133d565b91506113f36020840161133d565b5f6020828403121561146d575f80fd5b5051919050565b600181811c9082168061148857607f821691505b6020821081036114a657634e487b7160e01b5f52602260045260245ffd5b50919050565b634e487b7160e01b5f52601160045260245ffd5b60ff8181168382160190811115610527576105276114ac565b80820180821115610527576105276114ac565b600181815b8085111561152657815f190482111561150c5761150c6114ac565b8085161561151957918102915b93841c93908002906114f1565b509250929050565b5f8261153c57506001610527565b8161154857505f610527565b816001811461155e576002811461156857611584565b6001915050610527565b60ff841115611579576115796114ac565b50506001821b610527565b5060208310610133831016604e8410600b84101617156115a7575081810a610527565b6115b183836114ec565b805f19048211156115c4576115c46114ac565b029392505050565b5f61056e60ff84168361152e565b634e487b7160e01b5f52602160045260245ffd5b634e487b7160e01b5f52601260045260245ffd5b5f60208284031215611612575f80fd5b8151801515811461056e575f80fd5b5f82516116328184602087016112d2565b919091019291505056fea2646970667358221220bfeeb6aac754bec2039c76fb269ad9ee8fdb6fb56212bf73de566b9a477d40af64736f6c63430008140033",
    "linkReferences": {}
  },
  "methodIdentifiers": {
    "allowance(address,address)": "dd62ed3e",
    "approve(address,uint256)": "095ea7b3",
    "asset()": "38d52e0f",
    "balanceOf(address)": "70a08231",
    "burn(address,uint256)": "9dc29fac",
    "convertToAssets(uint256)": "07a2d13a",
    "convertToShares(uint256)": "c6e6f592",
    "decimals()": "313ce567",
    "decreaseAllowance(address,uint256)": "a457c2d7",
    "deposit(uint256,address)": "6e553f65",
    "increaseAllowance(address,uint256)": "39509351",
    "maxDeposit(address)": "402d267d",
    "maxMint(address)": "c63d75b6",
    "maxRedeem(address)": "d905777e",
    "maxWithdraw(address)": "ce96cb77",
    "mint(address,uint256)": "40c10f19",
    "mint(uint256,address)": "94bf804d",
    "name()": "06fdde03",
    "previewDeposit(uint256)": "ef8b30f7",
    "previewMint(uint256)": "b3d7f6b9",
    "previewRedeem(uint256)": "4cdad506",
    "previewWithdraw(uint256)": "0a28a477",
    "redeem(uint256,address,address)": "ba087652",
    "symbol()": "95d89b41",
    "totalAssets()": "01e1d114",
    "totalSupply()": "18160ddd",
    "transfer(address,uint256)": "a9059cbb",
    "transferFrom(address,address,uint256)": "23b872dd",
    "withdraw(uint256,address,address)": "b460af94"
  },
  "id": 94
}