{
  "abi": [
    {
      "type": "function",
      "name": "isValidSignature",
      "inputs": [
        {
          "name": "",
          "type": "bytes32",
          "internalType": "bytes32"
        },
        {
          "name": "",
          "type": "bytes",
          "internalType": "bytes"
        }
      ],
      "outputs": [
        {
          "name": "",
          "type": "bytes4",
          "internalType": "bytes4"
        }
      ],
      "stateMutability": "pure"
    }
  ],
  "bytecode": {
    "object": "0x608060405234801561000f575f80fd5b506101668061001d5f395ff3fe608060405234801561000f575f80fd5b5060043610610029575f3560e01c80631626ba7e1461002d575b5f80fd5b61004061003b36600461007b565b61005d565b6040516001600160e01b0319909116815260200160405180910390f35b5f80195f5260205ff35b634e487b7160e01b5f52604160045260245ffd5b5f806040838503121561008c575f80fd5b82359150602083013567ffffffffffffffff808211156100aa575f80fd5b818501915085601f8301126100bd575f80fd5b8135818111156100cf576100cf610067565b604051601f8201601f19908116603f011681019083821181831017156100f7576100f7610067565b8160405282815288602084870101111561010f575f80fd5b826020860160208301375f602084830101528095505050505050925092905056fea2646970667358221220eb0306d13a21f7a8a199bdc1b0fc44d01413e29fe08ce052912af010c547bf3c64736f6c63430008140033",
    "linkReferences": {}
  },
  "methodIdentifiers": {
    "isValidSignature(bytes32,bytes)": "1626ba7e"
  },
  "id": 85
}