{
  "abi": [
    {
      "type": "constructor",
      "inputs": [
        {
          "name": "name",
          "type": "string",
          "internalType": "string"
        },
        {
          "name": "symbol",
          "type": "string",
          "internalType": "string"
        },
        {
          "name": "baseTokenURI",
          "type": "string",
          "internalType": "string"
        }
      ],
      "stateMutability": "nonpayable"
    },
    {
      "type": "function",
      "name": "DEFAULT_ADMIN_ROLE",
      "inputs": [],
      "outputs": [
        {
          "name": "",
          "type": "bytes32",
          "internalType": "bytes32"
        }
      ],
      "stateMutability": "view"
    },
    {
      "type": "function",
      "name": "MINTER_ROLE",
      "inputs": [],
      "outputs": [
        {
          "name": "",
          "type": "bytes32",
          "internalType": "bytes32"
        }
      ],
      "stateMutability": "view"
    },
    {
      "type": "function",
      "name": "PAUSER_ROLE",
      "inputs": [],
      "outputs": [
        {
          "name": "",
          "type": "bytes32",
          "internalType": "bytes32"
        }
      ],
      "stateMutability": "view"
    },
    {
      "type": "function",
      "name": "approve",
      "inputs": [
        {
          "name": "to",
          "type": "address",
          "internalType": "address"
        },
        {
          "name": "tokenId",
          "type": "uint256",
          "internalType": "uint256"
        }
      ],
      "outputs": [],
      "stateMutability": "nonpayable"
    },
    {
      "type": "function",
      "name": "balanceOf",
      "inputs": [
        {
          "name": "owner",
          "type": "address",
          "internalType": "address"
        }
      ],
      "outputs": [
        {
          "name": "",
          "type": "uint256",
          "internalType": "uint256"
        }
      ],
      "stateMutability": "view"
    },
    {
      "type": "function",
      "name": "burn",
      "inputs": [
        {
          "name": "tokenId",
          "type": "uint256",
          "internalType": "uint256"
        }
      ],
      "outputs": [],
      "stateMutability": "nonpayable"
    },
    {
      "type": "function",
      "name": "getApproved",
      "inputs": [
        {
          "name": "tokenId",
          "type": "uint256",
          "internalType": "uint256"
        }
      ],
      "outputs": [
        {
          "name": "",
          "type": "address",
          "internalType": "address"
        }
      ],
      "stateMutability": "view"
    },
    {
      "type": "function",
      "name": "getRoleAdmin",
      "inputs": [
        {
          "name": "role",
          "type": "bytes32",
          "internalType": "bytes32"
        }
      ],
      "outputs": [
        {
          "name": "",
          "type": "bytes32",
          "internalType": "bytes32"
        }
      ],
      "stateMutability": "view"
    },
    {
      "type": "function",
      "name": "getRoleMember",
      "inputs": [
        {
          "name": "role",
          "type": "bytes32",
          "internalType": "bytes32"
        },
        {
          "name": "index",
          "type": "uint256",
          "internalType": "uint256"
        }
      ],
      "outputs": [
        {
          "name": "",
          "type": "address",
          "internalType": "address"
        }
      ],
      "stateMutability": "view"
    },
    {
      "type": "function",
      "name": "getRoleMemberCount",
      "inputs": [
        {
          "name": "role",
          "type": "bytes32",
          "internalType": "bytes32"
        }
      ],
      "outputs": [
        {
          "name": "",
          "type": "uint256",
          "internalType": "uint256"
        }
      ],
      "stateMutability": "view"
    },
    {
      "type": "function",
      "name": "grantRole",
      "inputs": [
        {
          "name": "role",
          "type": "bytes32",
          "internalType": "bytes32"
        },
        {
          "name": "account",
          "type": "address",
          "internalType": "address"
        }
      ],
      "outputs": [],
      "stateMutability": "nonpayable"
    },
    {
      "type": "function",
      "name": "hasRole",
      "inputs": [
        {
          "name": "role",
          "type": "bytes32",
          "internalType": "bytes32"
        },
        {
          "name": "account",
          "type": "address",
          "internalType": "address"
        }
      ],
      "outputs": [
        {
          "name": "",
          "type": "bool",
          "internalType": "bool"
        }
      ],
      "stateMutability": "view"
    },
    {
      "type": "function",
      "name": "isApprovedForAll",
      "inputs": [
        {
          "name": "owner",
          "type": "address",
          "internalType": "address"
        },
        {
          "name": "operator",
          "type": "address",
          "internalType": "address"
        }
      ],
      "outputs": [
        {
          "name": "",
          "type": "bool",
          "internalType": "bool"
        }
      ],
      "stateMutability": "view"
    },
    {
      "type": "function",
      "name": "mint",
      "inputs": [
        {
          "name": "to",
          "type": "address",
          "internalType": "address"
        }
      ],
      "outputs": [],
      "stateMutability": "nonpayable"
    },
    {
      "type": "function",
      "name": "name",
      "inputs": [],
      "outputs": [
        {
          "name": "",
          "type": "string",
          "internalType": "string"
        }
      ],
      "stateMutability": "view"
    },
    {
      "type": "function",
      "name": "ownerOf",
      "inputs": [
        {
          "name": "tokenId",
          "type": "uint256",
          "internalType": "uint256"
        }
      ],
      "outputs": [
        {
          "name": "",
          "type": "address",
          "internalType": "address"
        }
      ],
      "stateMutability": "view"
    },
    {
      "type": "function",
      "name": "pause",
      "inputs": [],
      "outputs": [],
      "stateMutability": "nonpayable"
    },
    {
      "type": "function",
      "name": "paused",
      "inputs": [],
      "outputs": [
        {
          "name": "",
          "type": "bool",
          "internalType": "bool"
        }
      ],
      "stateMutability": "view"
    },
    {
      "type": "function",
      "name": "renounceRole",
      "inputs": [
        {
          "name": "role",
          "type": "bytes32",
          "internalType": "bytes32"
        },
        {
          "name": "account",
          "type": "address",
          "internalType": "address"
        }
      ],
      "outputs": [],
      "stateMutability": "nonpayable"
    },
    {
      "type": "function",
      "name": "revokeRole",
      "inputs": [
        {
          "name": "role",
          "type": "bytes32",
          "internalType": "bytes32"
        },
        {
          "name": "account",
          "type": "address",
          "internalType": "address"
        }
      ],
      "outputs": [],
      "stateMutability": "nonpayable"
    },
    {
      "type": "function",
      "name": "safeTransferFrom",
      "inputs": [
        {
          "name": "from",
          "type": "address",
          "internalType": "address"
        },
        {
          "name": "to",
          "type": "address",
          "internalType": "address"
        },
        {
          "name": "tokenId",
          "type": "uint256",
          "internalType": "uint256"
        }
      ],
      "outputs": [],
      "stateMutability": "nonpayable"
    },
    {
      "type": "function",
      "name": "safeTransferFrom",
      "inputs": [
        {
          "name": "from",
          "type": "address",
          "internalType": "address"
        },
        {
          "name": "to",
          "type": "address",
          "internalType": "address"
        },
        {
          "name": "tokenId",
          "type": "uint256",
          "internalType": "uint256"
        },
        {
          "name": "data",
          "type": "bytes",
          "internalType": "bytes"
        }
      ],
      "outputs": [],
      "stateMutability": "nonpayable"
    },
    {
      "type": "function",
      "name": "setApprovalForAll",
      "inputs": [
        {
          "name": "operator",
          "type": "address",
          "internalType": "address"
        },
        {
          "name": "approved",
          "type": "bool",
          "internalType": "bool"
        }
      ],
      "outputs": [],
      "stateMutability": "nonpayable"
    },
    {
      "type": "function",
      "name": "supportsInterface",
      "inputs": [
        {
          "name": "interfaceId",
          "type": "bytes4",
          "internalType": "bytes4"
        }
      ],
      "outputs": [
        {
          "name": "",
          "type": "bool",
          "internalType": "bool"
        }
      ],
      "stateMutability": "view"
    },
    {
      "type": "function",
      "name": "symbol",
      "inputs": [],
      "outputs": [
        {
          "name": "",
          "type": "string",
          "internalType": "string"
        }
      ],
      "stateMutability": "view"
    },
    {
      "type": "function",
      "name": "tokenByIndex",
      "inputs": [
        {
          "name": "index",
          "type": "uint256",
          "internalType": "uint256"
        }
      ],
      "outputs": [
        {
          "name": "",
          "type": "uint256",
          "internalType": "uint256"
        }
      ],
      "stateMutability": "view"
    },
    {
      "type": "function",
      "name": "tokenOfOwnerByIndex",
      "inputs": [
        {
          "name": "owner",
          "type": "address",
          "internalType": "address"
        },
        {
          "name": "index",
          "type": "uint256",
          "internalType": "uint256"
        }
      ],
      "outputs": [
        {
          "name": "",
          "type": "uint256",
          "internalType": "uint256"
        }
      ],
      "stateMutability": "view"
    },
    {
      "type": "function",
      "name": "tokenURI",
      "inputs": [
        {
          "name": "tokenId",
          "type": "uint256",
          "internalType": "uint256"
        }
      ],
      "outputs": [
        {
          "name": "",
          "type": "string",
          "internalType": "string"
        }
      ],
      "stateMutability": "view"
    },
    {
      "type": "function",
      "name": "totalSupply",
      "inputs": [],
      "outputs": [
        {
          "name": "",
          "type": "uint256",
          "internalType": "uint256"
        }
      ],
      "stateMutability": "view"
    },
    {
      "type": "function",
      "name": "transferFrom",
      "inputs": [
        {
          "name": "from",
          "type": "address",
          "internalType": "address"
        },
        {
          "name": "to",
          "type": "address",
          "internalType": "address"
        },
        {
          "name": "tokenId",
          "type": "uint256",
          "internalType": "uint256"
        }
      ],
      "outputs": [],
      "stateMutability": "nonpayable"
    },
    {
      "type": "function",
      "name": "unpause",
      "inputs": [],
      "outputs": [],
      "stateMutability": "nonpayable"
    },
    {
      "type": "event",
      "name": "Approval",
      "inputs": [
        {
          "name": "owner",
          "type": "address",
          "indexed": true,
          "internalType": "address"
        },
        {
          "name": "approved",
          "type": "address",
          "indexed": true,
          "internalType": "address"
        },
        {
          "name": "tokenId",
          "type": "uint256",
          "indexed": true,
          "internalType": "uint256"
        }
      ],
      "anonymous": false
    },
    {
      "type": "event",
      "name": "ApprovalForAll",
      "inputs": [
        {
          "name": "owner",
          "type": "address",
          "indexed": true,
          "internalType": "address"
        },
        {
          "name": "operator",
          "type": "address",
          "indexed": true,
          "internalType": "address"
        },
        {
          "name": "approved",
          "type": "bool",
          "indexed": false,
          "internalType": "bool"
        }
      ],
      "anonymous": false
    },
    {
      "type": "event",
      "name": "Paused",
      "inputs": [
        {
          "name": "account",
          "type": "address",
          "indexed": false,
          "internalType": "address"
        }
      ],
      "anonymous": false
    },
    {
      "type": "event",
      "name": "RoleAdminChanged",
      "inputs": [
        {
          "name": "role",
          "type": "bytes32",
          "indexed": true,
          "internalType": "bytes32"
        },
        {
          "name": "previousAdminRole",
          "type": "bytes32",
          "indexed": true,
          "internalType": "bytes32"
        },
        {
          "name": "newAdminRole",
          "type": "bytes32",
          "indexed": true,
          "internalType": "bytes32"
        }
      ],
      "anonymous": false
    },
    {
      "type": "event",
      "name": "RoleGranted",
      "inputs": [
        {
          "name": "role",
          "type": "bytes32",
          "indexed": true,
          "internalType": "bytes32"
        },
        {
          "name": "account",
          "type": "address",
          "indexed": true,
          "internalType": "address"
        },
        {
          "name": "sender",
          "type": "address",
          "indexed": true,
          "internalType": "address"
        }
      ],
      "anonymous": false
    },
    {
      "type": "event",
      "name": "RoleRevoked",
      "inputs": [
        {
          "name": "role",
          "type": "bytes32",
          "indexed": true,
          "internalType": "bytes32"
        },
        {
          "name": "account",
          "type": "address",
          "indexed": true,
          "internalType": "address"
        },
        {
          "name": "sender",
          "type": "address",
          "indexed": true,
          "internalType": "address"
        }
      ],
      "anonymous": false
    },
    {
      "type": "event",
      "name": "Transfer",
      "inputs": [
        {
          "name": "from",
          "type": "address",
          "indexed": true,
          "internalType": "address"
        },
        {
          "name": "to",
          "type": "address",
          "indexed": true,
          "internalType": "address"
        },
        {
          "name": "tokenId",
          "type": "uint256",
          "indexed": true,
          "internalType": "uint256"
        }
      ],
      "anonymous": false
    },
    {
      "type": "event",
      "name": "Unpaused",
      "inputs": [
        {
          "name": "account",
          "type": "address",
          "indexed": false,
          "internalType": "address"
        }
      ],
      "anonymous": false
    }
  ],
  "bytecode": {
    "object": "0x608060405234801562000010575f80fd5b506040516200296b3803806200296b8339810160408190526200003391620002df565b82826002620000438382620003f5565b506003620000528282620003f5565b5050600c805460ff1916905550600e6200006d8282620003f5565b506200007a5f33620000db565b620000a67f9f2df0fed2c77648de5860a4cc508cd0818c85b8b8a1ab4ceeef8d981c8956a633620000db565b620000d27f65d7a28e3265b37a6474929f336521b332c1681b933f6cb9f3376673440d862a33620000db565b505050620004bd565b620000e78282620000eb565b5050565b620000f7828262000115565b5f828152600160205260409020620001109082620001b3565b505050565b5f828152602081815260408083206001600160a01b038516845290915290205460ff16620000e7575f828152602081815260408083206001600160a01b03851684529091529020805460ff191660011790556200016f3390565b6001600160a01b0316816001600160a01b0316837f2f8788117e7eff1d82e926ec794901d17c78024a50270940304540a733656f0d60405160405180910390a45050565b5f620001c9836001600160a01b038416620001d2565b90505b92915050565b5f8181526001830160205260408120546200021957508154600181810184555f848152602080822090930184905584548482528286019093526040902091909155620001cc565b505f620001cc565b634e487b7160e01b5f52604160045260245ffd5b5f82601f83011262000245575f80fd5b81516001600160401b038082111562000262576200026262000221565b604051601f8301601f19908116603f011681019082821181831017156200028d576200028d62000221565b81604052838152602092508683858801011115620002a9575f80fd5b5f91505b83821015620002cc5785820183015181830184015290820190620002ad565b5f93810190920192909252949350505050565b5f805f60608486031215620002f2575f80fd5b83516001600160401b038082111562000309575f80fd5b620003178783880162000235565b945060208601519150808211156200032d575f80fd5b6200033b8783880162000235565b9350604086015191508082111562000351575f80fd5b50620003608682870162000235565b9150509250925092565b600181811c908216806200037f57607f821691505b6020821081036200039e57634e487b7160e01b5f52602260045260245ffd5b50919050565b601f82111562000110575f81815260208120601f850160051c81016020861015620003cc5750805b601f850160051c820191505b81811015620003ed57828155600101620003d8565b505050505050565b81516001600160401b0381111562000411576200041162000221565b62000429816200042284546200036a565b84620003a4565b602080601f8311600181146200045f575f8415620004475750858301515b5f19600386901b1c1916600185901b178555620003ed565b5f85815260208120601f198616915b828110156200048f578886015182559484019460019091019084016200046e565b5085821015620004ad57878501515f19600388901b60f8161c191681555b5050505050600190811b01905550565b6124a080620004cb5f395ff3fe608060405234801561000f575f80fd5b50600436106101dc575f3560e01c80636352211e11610109578063a22cb4651161009e578063d53913931161006e578063d5391393146103eb578063d547741f14610412578063e63ab1e914610425578063e985e9c51461044c575f80fd5b8063a22cb4651461039f578063b88d4fde146103b2578063c87b56dd146103c5578063ca15c873146103d8575f80fd5b80639010d07c116100d95780639010d07c1461036a57806391d148541461037d57806395d89b4114610390578063a217fddf14610398575f80fd5b80636352211e146103295780636a6278421461033c57806370a082311461034f5780638456cb5914610362575f80fd5b80632f2ff15d1161017f57806342842e0e1161014f57806342842e0e146102e557806342966c68146102f85780634f6ccce71461030b5780635c975abb1461031e575f80fd5b80632f2ff15d146102a45780632f745c59146102b757806336568abe146102ca5780633f4ba83a146102dd575f80fd5b8063095ea7b3116101ba578063095ea7b31461024857806318160ddd1461025d57806323b872dd1461026f578063248a9ca314610282575f80fd5b806301ffc9a7146101e057806306fdde0314610208578063081812fc1461021d575b5f80fd5b6101f36101ee366004611f0d565b610487565b60405190151581526020015b60405180910390f35b610210610497565b6040516101ff9190611f75565b61023061022b366004611f87565b610527565b6040516001600160a01b0390911681526020016101ff565b61025b610256366004611fb9565b61054c565b005b600a545b6040519081526020016101ff565b61025b61027d366004611fe1565b610665565b610261610290366004611f87565b5f9081526020819052604090206001015490565b61025b6102b236600461201a565b610697565b6102616102c5366004611fb9565b6106bb565b61025b6102d836600461201a565b61074f565b61025b6107cd565b61025b6102f3366004611fe1565b610875565b61025b610306366004611f87565b61088f565b610261610319366004611f87565b6108c0565b600c5460ff166101f3565b610230610337366004611f87565b610950565b61025b61034a366004612044565b6109af565b61026161035d366004612044565b610a6b565b61025b610aef565b61023061037836600461205d565b610b93565b6101f361038b36600461201a565b610bb1565b610210610bd9565b6102615f81565b61025b6103ad36600461207d565b610be8565b61025b6103c03660046120ca565b610bf3565b6102106103d3366004611f87565b610c2b565b6102616103e6366004611f87565b610c8e565b6102617f9f2df0fed2c77648de5860a4cc508cd0818c85b8b8a1ab4ceeef8d981c8956a681565b61025b61042036600461201a565b610ca4565b6102617f65d7a28e3265b37a6474929f336521b332c1681b933f6cb9f3376673440d862a81565b6101f361045a36600461219f565b6001600160a01b039182165f90815260076020908152604080832093909416825291909152205460ff1690565b5f61049182610cc8565b92915050565b6060600280546104a6906121c7565b80601f01602080910402602001604051908101604052809291908181526020018280546104d2906121c7565b801561051d5780601f106104f45761010080835404028352916020019161051d565b820191905f5260205f20905b81548152906001019060200180831161050057829003601f168201915b5050505050905090565b5f61053182610cec565b505f908152600660205260409020546001600160a01b031690565b5f61055682610950565b9050806001600160a01b0316836001600160a01b0316036105c85760405162461bcd60e51b815260206004820152602160248201527f4552433732313a20617070726f76616c20746f2063757272656e74206f776e656044820152603960f91b60648201526084015b60405180910390fd5b336001600160a01b03821614806105e457506105e4813361045a565b6106565760405162461bcd60e51b815260206004820152603d60248201527f4552433732313a20617070726f76652063616c6c6572206973206e6f7420746f60448201527f6b656e206f776e6572206f7220617070726f76656420666f7220616c6c00000060648201526084016105bf565b6106608383610d4a565b505050565b610670335b82610db7565b61068c5760405162461bcd60e51b81526004016105bf906121ff565b610660838383610e34565b5f828152602081905260409020600101546106b181610fa3565b6106608383610fad565b5f6106c583610a6b565b82106107275760405162461bcd60e51b815260206004820152602b60248201527f455243373231456e756d657261626c653a206f776e657220696e646578206f7560448201526a74206f6620626f756e647360a81b60648201526084016105bf565b506001600160a01b03919091165f908152600860209081526040808320938352929052205490565b6001600160a01b03811633146107bf5760405162461bcd60e51b815260206004820152602f60248201527f416363657373436f6e74726f6c3a2063616e206f6e6c792072656e6f756e636560448201526e103937b632b9903337b91039b2b63360891b60648201526084016105bf565b6107c98282610fce565b5050565b6107f77f65d7a28e3265b37a6474929f336521b332c1681b933f6cb9f3376673440d862a33610bb1565b61086b576040805162461bcd60e51b81526020600482015260248101919091527f4552433732315072657365744d696e7465725061757365724175746f49643a2060448201527f6d75737420686176652070617573657220726f6c6520746f20756e706175736560648201526084016105bf565b610873610fef565b565b61066083838360405180602001604052805f815250610bf3565b6108983361066a565b6108b45760405162461bcd60e51b81526004016105bf906121ff565b6108bd81611041565b50565b5f6108ca600a5490565b821061092d5760405162461bcd60e51b815260206004820152602c60248201527f455243373231456e756d657261626c653a20676c6f62616c20696e646578206f60448201526b7574206f6620626f756e647360a01b60648201526084016105bf565b600a82815481106109405761094061224c565b905f5260205f2001549050919050565b5f818152600460205260408120546001600160a01b0316806104915760405162461bcd60e51b8152602060048201526018602482015277115490cdcc8c4e881a5b9d985b1a59081d1bdad95b88125160421b60448201526064016105bf565b6109d97f9f2df0fed2c77648de5860a4cc508cd0818c85b8b8a1ab4ceeef8d981c8956a633610bb1565b610a4b5760405162461bcd60e51b815260206004820152603d60248201527f4552433732315072657365744d696e7465725061757365724175746f49643a2060448201527f6d7573742068617665206d696e74657220726f6c6520746f206d696e7400000060648201526084016105bf565b610a5d81610a58600d5490565b6110e0565b6108bd600d80546001019055565b5f6001600160a01b038216610ad45760405162461bcd60e51b815260206004820152602960248201527f4552433732313a2061646472657373207a65726f206973206e6f7420612076616044820152683634b21037bbb732b960b91b60648201526084016105bf565b506001600160a01b03165f9081526005602052604090205490565b610b197f65d7a28e3265b37a6474929f336521b332c1681b933f6cb9f3376673440d862a33610bb1565b610b8b5760405162461bcd60e51b815260206004820152603e60248201527f4552433732315072657365744d696e7465725061757365724175746f49643a2060448201527f6d75737420686176652070617573657220726f6c6520746f207061757365000060648201526084016105bf565b610873611275565b5f828152600160205260408120610baa90836112b2565b9392505050565b5f918252602082815260408084206001600160a01b0393909316845291905290205460ff1690565b6060600380546104a6906121c7565b6107c93383836112bd565b610bfd3383610db7565b610c195760405162461bcd60e51b81526004016105bf906121ff565b610c258484848461138a565b50505050565b6060610c3682610cec565b5f610c3f6113bd565b90505f815111610c5d5760405180602001604052805f815250610baa565b80610c67846113cc565b604051602001610c78929190612260565b6040516020818303038152906040529392505050565b5f8181526001602052604081206104919061145c565b5f82815260208190526040902060010154610cbe81610fa3565b6106608383610fce565b5f6001600160e01b0319821663780e9d6360e01b1480610491575061049182611465565b5f818152600460205260409020546001600160a01b03166108bd5760405162461bcd60e51b8152602060048201526018602482015277115490cdcc8c4e881a5b9d985b1a59081d1bdad95b88125160421b60448201526064016105bf565b5f81815260066020526040902080546001600160a01b0319166001600160a01b0384169081179091558190610d7e82610950565b6001600160a01b03167f8c5be1e5ebec7d5bd14f71427d1e84f3dd0314c0f7b2291e5b200ac8c7c3b92560405160405180910390a45050565b5f80610dc283610950565b9050806001600160a01b0316846001600160a01b03161480610e0857506001600160a01b038082165f9081526007602090815260408083209388168352929052205460ff165b80610e2c5750836001600160a01b0316610e2184610527565b6001600160a01b0316145b949350505050565b826001600160a01b0316610e4782610950565b6001600160a01b031614610e6d5760405162461bcd60e51b81526004016105bf9061228e565b6001600160a01b038216610ecf5760405162461bcd60e51b8152602060048201526024808201527f4552433732313a207472616e7366657220746f20746865207a65726f206164646044820152637265737360e01b60648201526084016105bf565b610edc83838360016114a4565b826001600160a01b0316610eef82610950565b6001600160a01b031614610f155760405162461bcd60e51b81526004016105bf9061228e565b5f81815260066020908152604080832080546001600160a01b03199081169091556001600160a01b038781168086526005855283862080545f1901905590871680865283862080546001019055868652600490945282852080549092168417909155905184937fddf252ad1be2c89b69c2b068fc378daa952ba7f163c4a11628f55a4df523b3ef91a4505050565b6108bd81336114b0565b610fb78282611509565b5f828152600160205260409020610660908261158c565b610fd882826115a0565b5f8281526001602052604090206106609082611604565b610ff7611618565b600c805460ff191690557f5db9ee0a495bf2e6ff9c91a7834c1ba4fdd244a5e8aa4e537bd38aeae4b073aa335b6040516001600160a01b03909116815260200160405180910390a1565b5f61104b82610950565b905061105a815f8460016114a4565b61106382610950565b5f83815260066020908152604080832080546001600160a01b03199081169091556001600160a01b0385168085526005845282852080545f190190558785526004909352818420805490911690555192935084927fddf252ad1be2c89b69c2b068fc378daa952ba7f163c4a11628f55a4df523b3ef908390a45050565b6001600160a01b0382166111365760405162461bcd60e51b815260206004820181905260248201527f4552433732313a206d696e7420746f20746865207a65726f206164647265737360448201526064016105bf565b5f818152600460205260409020546001600160a01b03161561119a5760405162461bcd60e51b815260206004820152601c60248201527f4552433732313a20746f6b656e20616c7265616479206d696e7465640000000060448201526064016105bf565b6111a75f838360016114a4565b5f818152600460205260409020546001600160a01b03161561120b5760405162461bcd60e51b815260206004820152601c60248201527f4552433732313a20746f6b656e20616c7265616479206d696e7465640000000060448201526064016105bf565b6001600160a01b0382165f81815260056020908152604080832080546001019055848352600490915280822080546001600160a01b0319168417905551839291907fddf252ad1be2c89b69c2b068fc378daa952ba7f163c4a11628f55a4df523b3ef908290a45050565b61127d611661565b600c805460ff191660011790557f62e78cea01bee320cd4e420270b5ea74000d11b0c9f74754ebdbfc544b05a2586110243390565b5f610baa83836116a7565b816001600160a01b0316836001600160a01b03160361131e5760405162461bcd60e51b815260206004820152601960248201527f4552433732313a20617070726f766520746f2063616c6c65720000000000000060448201526064016105bf565b6001600160a01b038381165f81815260076020908152604080832094871680845294825291829020805460ff191686151590811790915591519182527f17307eab39ab6107e8899845ad3d59bd9653f200f220920489ca2b5937696c31910160405180910390a3505050565b611395848484610e34565b6113a1848484846116cd565b610c255760405162461bcd60e51b81526004016105bf906122d3565b6060600e80546104a6906121c7565b60605f6113d8836117ca565b60010190505f8167ffffffffffffffff8111156113f7576113f76120b6565b6040519080825280601f01601f191660200182016040528015611421576020820181803683370190505b5090508181016020015b5f19016f181899199a1a9b1b9c1cb0b131b232b360811b600a86061a8153600a850494508461142b57509392505050565b5f610491825490565b5f6001600160e01b031982166380ac58cd60e01b148061149557506001600160e01b03198216635b5e139f60e01b145b806104915750610491826118a1565b610c25848484846118c5565b6114ba8282610bb1565b6107c9576114c781611938565b6114d283602061194a565b6040516020016114e3929190612325565b60408051601f198184030181529082905262461bcd60e51b82526105bf91600401611f75565b6115138282610bb1565b6107c9575f828152602081815260408083206001600160a01b03851684529091529020805460ff191660011790556115483390565b6001600160a01b0316816001600160a01b0316837f2f8788117e7eff1d82e926ec794901d17c78024a50270940304540a733656f0d60405160405180910390a45050565b5f610baa836001600160a01b038416611ae0565b6115aa8282610bb1565b156107c9575f828152602081815260408083206001600160a01b0385168085529252808320805460ff1916905551339285917ff6391f5c32d9c69d2a47ea670b442974b53935d1edc7fd64eb21e047a839171b9190a45050565b5f610baa836001600160a01b038416611b2c565b600c5460ff166108735760405162461bcd60e51b815260206004820152601460248201527314185d5cd8589b194e881b9bdd081c185d5cd95960621b60448201526064016105bf565b600c5460ff16156108735760405162461bcd60e51b815260206004820152601060248201526f14185d5cd8589b194e881c185d5cd95960821b60448201526064016105bf565b5f825f0182815481106116bc576116bc61224c565b905f5260205f200154905092915050565b5f6001600160a01b0384163b156117bf57604051630a85bd0160e11b81526001600160a01b0385169063150b7a0290611710903390899088908890600401612399565b6020604051808303815f875af192505050801561174a575060408051601f3d908101601f19168201909252611747918101906123d5565b60015b6117a5573d808015611777576040519150601f19603f3d011682016040523d82523d5f602084013e61177c565b606091505b5080515f0361179d5760405162461bcd60e51b81526004016105bf906122d3565b805181602001fd5b6001600160e01b031916630a85bd0160e11b149050610e2c565b506001949350505050565b5f8072184f03e93ff9f4daa797ed6e38ed64bf6a1f0160401b83106118085772184f03e93ff9f4daa797ed6e38ed64bf6a1f0160401b830492506040015b6d04ee2d6d415b85acef81000000008310611834576d04ee2d6d415b85acef8100000000830492506020015b662386f26fc10000831061185257662386f26fc10000830492506010015b6305f5e100831061186a576305f5e100830492506008015b612710831061187e57612710830492506004015b60648310611890576064830492506002015b600a83106104915760010192915050565b5f6001600160e01b03198216635a05180f60e01b1480610491575061049182611c0f565b6118d184848484611c43565b600c5460ff1615610c255760405162461bcd60e51b815260206004820152602b60248201527f4552433732315061757361626c653a20746f6b656e207472616e73666572207760448201526a1a1a5b19481c185d5cd95960aa1b60648201526084016105bf565b60606104916001600160a01b03831660145b60605f611958836002612404565b61196390600261241b565b67ffffffffffffffff81111561197b5761197b6120b6565b6040519080825280601f01601f1916602001820160405280156119a5576020820181803683370190505b509050600360fc1b815f815181106119bf576119bf61224c565b60200101906001600160f81b03191690815f1a905350600f60fb1b816001815181106119ed576119ed61224c565b60200101906001600160f81b03191690815f1a9053505f611a0f846002612404565b611a1a90600161241b565b90505b6001811115611a91576f181899199a1a9b1b9c1cb0b131b232b360811b85600f1660108110611a4e57611a4e61224c565b1a60f81b828281518110611a6457611a6461224c565b60200101906001600160f81b03191690815f1a90535060049490941c93611a8a8161242e565b9050611a1d565b508315610baa5760405162461bcd60e51b815260206004820181905260248201527f537472696e67733a20686578206c656e67746820696e73756666696369656e7460448201526064016105bf565b5f818152600183016020526040812054611b2557508154600181810184555f848152602080822090930184905584548482528286019093526040902091909155610491565b505f610491565b5f8181526001830160205260408120548015611c06575f611b4e600183612443565b85549091505f90611b6190600190612443565b9050818114611bc0575f865f018281548110611b7f57611b7f61224c565b905f5260205f200154905080875f018481548110611b9f57611b9f61224c565b5f918252602080832090910192909255918252600188019052604090208390555b8554869080611bd157611bd1612456565b600190038181905f5260205f20015f90559055856001015f8681526020019081526020015f205f905560019350505050610491565b5f915050610491565b5f6001600160e01b03198216637965db0b60e01b148061049157506301ffc9a760e01b6001600160e01b0319831614610491565b6001811115611cb25760405162461bcd60e51b815260206004820152603560248201527f455243373231456e756d657261626c653a20636f6e7365637574697665207472604482015274185b9cd9995c9cc81b9bdd081cdd5c1c1bdc9d1959605a1b60648201526084016105bf565b816001600160a01b038516611d0d57611d0881600a80545f838152600b60205260408120829055600182018355919091527fc65a7bb8d6351c1cf70c95a316cc6a92839c986682d98bc35f958f4883f9d2a80155565b611d30565b836001600160a01b0316856001600160a01b031614611d3057611d308582611d76565b6001600160a01b038416611d4c57611d4781611e0f565b611d6f565b846001600160a01b0316846001600160a01b031614611d6f57611d6f8482611eb6565b5050505050565b5f6001611d8284610a6b565b611d8c9190612443565b5f83815260096020526040902054909150808214611ddd576001600160a01b0384165f9081526008602090815260408083208584528252808320548484528184208190558352600990915290208190555b505f9182526009602090815260408084208490556001600160a01b039094168352600881528383209183525290812055565b600a545f90611e2090600190612443565b5f838152600b6020526040812054600a8054939450909284908110611e4757611e4761224c565b905f5260205f200154905080600a8381548110611e6657611e6661224c565b5f918252602080832090910192909255828152600b9091526040808220849055858252812055600a805480611e9d57611e9d612456565b600190038181905f5260205f20015f9055905550505050565b5f611ec083610a6b565b6001600160a01b039093165f908152600860209081526040808320868452825280832085905593825260099052919091209190915550565b6001600160e01b0319811681146108bd575f80fd5b5f60208284031215611f1d575f80fd5b8135610baa81611ef8565b5f5b83811015611f42578181015183820152602001611f2a565b50505f910152565b5f8151808452611f61816020860160208601611f28565b601f01601f19169290920160200192915050565b602081525f610baa6020830184611f4a565b5f60208284031215611f97575f80fd5b5035919050565b80356001600160a01b0381168114611fb4575f80fd5b919050565b5f8060408385031215611fca575f80fd5b611fd383611f9e565b946020939093013593505050565b5f805f60608486031215611ff3575f80fd5b611ffc84611f9e565b925061200a60208501611f9e565b9150604084013590509250925092565b5f806040838503121561202b575f80fd5b8235915061203b60208401611f9e565b90509250929050565b5f60208284031215612054575f80fd5b610baa82611f9e565b5f806040838503121561206e575f80fd5b50508035926020909101359150565b5f806040838503121561208e575f80fd5b61209783611f9e565b9150602083013580151581146120ab575f80fd5b809150509250929050565b634e487b7160e01b5f52604160045260245ffd5b5f805f80608085870312156120dd575f80fd5b6120e685611f9e565b93506120f460208601611f9e565b925060408501359150606085013567ffffffffffffffff80821115612117575f80fd5b818701915087601f83011261212a575f80fd5b81358181111561213c5761213c6120b6565b604051601f8201601f19908116603f01168101908382118183101715612164576121646120b6565b816040528281528a602084870101111561217c575f80fd5b826020860160208301375f60208483010152809550505050505092959194509250565b5f80604083850312156121b0575f80fd5b6121b983611f9e565b915061203b60208401611f9e565b600181811c908216806121db57607f821691505b6020821081036121f957634e487b7160e01b5f52602260045260245ffd5b50919050565b6020808252602d908201527f4552433732313a2063616c6c6572206973206e6f7420746f6b656e206f776e6560408201526c1c881bdc88185c1c1c9bdd9959609a1b606082015260800190565b634e487b7160e01b5f52603260045260245ffd5b5f8351612271818460208801611f28565b835190830190612285818360208801611f28565b01949350505050565b60208082526025908201527f4552433732313a207472616e736665722066726f6d20696e636f72726563742060408201526437bbb732b960d91b606082015260800190565b60208082526032908201527f4552433732313a207472616e7366657220746f206e6f6e20455243373231526560408201527131b2b4bb32b91034b6b83632b6b2b73a32b960711b606082015260800190565b7f416363657373436f6e74726f6c3a206163636f756e742000000000000000000081525f835161235c816017850160208801611f28565b7001034b99036b4b9b9b4b733903937b6329607d1b601791840191820152835161238d816028840160208801611f28565b01602801949350505050565b6001600160a01b03858116825284166020820152604081018390526080606082018190525f906123cb90830184611f4a565b9695505050505050565b5f602082840312156123e5575f80fd5b8151610baa81611ef8565b634e487b7160e01b5f52601160045260245ffd5b8082028115828204841417610491576104916123f0565b80820180821115610491576104916123f0565b5f8161243c5761243c6123f0565b505f190190565b81810381811115610491576104916123f0565b634e487b7160e01b5f52603160045260245ffdfea2646970667358221220f3917eff453d1241c6cfcd60aca97f249ec7e36a4551ec0e50ec9915a8f04db964736f6c63430008140033",
    "linkReferences": {}
  },
  "methodIdentifiers": {
    "DEFAULT_ADMIN_ROLE()": "a217fddf",
    "MINTER_ROLE()": "d5391393",
    "PAUSER_ROLE()": "e63ab1e9",
    "approve(address,uint256)": "095ea7b3",
    "balanceOf(address)": "70a08231",
    "burn(uint256)": "42966c68",
    "getApproved(uint256)": "081812fc",
    "getRoleAdmin(bytes32)": "248a9ca3",
    "getRoleMember(bytes32,uint256)": "9010d07c",
    "getRoleMemberCount(bytes32)": "ca15c873",
    "grantRole(bytes32,address)": "2f2ff15d",
    "hasRole(bytes32,address)": "91d14854",
    "isApprovedForAll(address,address)": "e985e9c5",
    "mint(address)": "6a627842",
    "name()": "06fdde03",
    "ownerOf(uint256)": "6352211e",
    "pause()": "8456cb59",
    "paused()": "5c975abb",
    "renounceRole(bytes32,address)": "36568abe",
    "revokeRole(bytes32,address)": "d547741f",
    "safeTransferFrom(address,address,uint256)": "42842e0e",
    "safeTransferFrom(address,address,uint256,bytes)": "b88d4fde",
    "setApprovalForAll(address,bool)": "a22cb465",
    "supportsInterface(bytes4)": "01ffc9a7",
    "symbol()": "95d89b41",
    "tokenByIndex(uint256)": "4f6ccce7",
    "tokenOfOwnerByIndex(address,uint256)": "2f745c59",
    "tokenURI(uint256)": "c87b56dd",
    "totalSupply()": "18160ddd",
    "transferFrom(address,address,uint256)": "23b872dd",
    "unpause()": "3f4ba83a"
  },
  "id": 212
}