{
  "abi": [
    {
      "type": "constructor",
      "inputs": [
        {
          "name": "array",
          "type": "bytes32[]",
          "internalType": "bytes32[]"
        }
      ],
      "stateMutability": "nonpayable"
    },
    {
      "type": "function",
      "name": "unsafeAccess",
      "inputs": [
        {
          "name": "pos",
          "type": "uint256",
          "internalType": "uint256"
        }
      ],
      "outputs": [
        {
          "name": "",
          "type": "bytes32",
          "internalType": "bytes32"
        }
      ],
      "stateMutability": "view"
    }
  ],
  "bytecode": {
    "object": "0x608060405234801561000f575f80fd5b5060405161023838038061023883398101604081905261002e916100b8565b8051610040905f906020840190610047565b5050610170565b828054828255905f5260205f20908101928215610080579160200282015b82811115610080578251825591602001919060010190610065565b5061008c929150610090565b5090565b5b8082111561008c575f8155600101610091565b634e487b7160e01b5f52604160045260245ffd5b5f60208083850312156100c9575f80fd5b82516001600160401b03808211156100df575f80fd5b818501915085601f8301126100f2575f80fd5b815181811115610104576101046100a4565b8060051b604051601f19603f83011681018181108582111715610129576101296100a4565b604052918252848201925083810185019188831115610146575f80fd5b938501935b828510156101645784518452938501939285019261014b565b98975050505050505050565b60bc8061017c5f395ff3fe6080604052348015600e575f80fd5b50600436106026575f3560e01c806340aa934d14602a575b5f80fd5b605e60353660046070565b5f80527f290decd9548b62a8d60345a988386fc84ba6bc95484008f6362f93160ef3e563015490565b60405190815260200160405180910390f35b5f60208284031215607f575f80fd5b503591905056fea2646970667358221220858b4bf90a618f682ec20a8de704347fed9f8d294241582369c9c2a5ca4cd46e64736f6c63430008140033",
    "linkReferences": {}
  },
  "methodIdentifiers": {
    "unsafeAccess(uint256)": "40aa934d"
  },
  "id": 78
}