{
  "abi": [
    {
      "type": "function",
      "name": "get",
      "inputs": [],
      "outputs": [
        {
          "name": "",
          "type": "bool",
          "internalType": "bool"
        }
      ],
      "stateMutability": "pure"
    },
    {
      "type": "function",
      "name": "initialize",
      "inputs": [
        {
          "name": "_value",
          "type": "uint256",
          "internalType": "uint256"
        },
        {
          "name": "_text",
          "type": "string",
          "internalType": "string"
        },
        {
          "name": "_values",
          "type": "uint256[]",
          "internalType": "uint256[]"
        }
      ],
      "outputs": [],
      "stateMutability": "nonpayable"
    },
    {
      "type": "function",
      "name": "initializeNonPayable",
      "inputs": [],
      "outputs": [],
      "stateMutability": "nonpayable"
    },
    {
      "type": "function",
      "name": "initializeNonPayableWithValue",
      "inputs": [
        {
          "name": "_value",
          "type": "uint256",
          "internalType": "uint256"
        }
      ],
      "outputs": [],
      "stateMutability": "nonpayable"
    },
    {
      "type": "function",
      "name": "initializePayable",
      "inputs": [],
      "outputs": [],
      "stateMutability": "payable"
    },
    {
      "type": "function",
      "name": "initializePayableWithValue",
      "inputs": [
        {
          "name": "_value",
          "type": "uint256",
          "internalType": "uint256"
        }
      ],
      "outputs": [],
      "stateMutability": "payable"
    },
    {
      "type": "function",
      "name": "reverts",
      "inputs": [],
      "outputs": [],
      "stateMutability": "pure"
    },
    {
      "type": "function",
      "name": "text",
      "inputs": [],
      "outputs": [
        {
          "name": "",
          "type": "string",
          "internalType": "string"
        }
      ],
      "stateMutability": "view"
    },
    {
      "type": "function",
      "name": "value",
      "inputs": [],
      "outputs": [
        {
          "name": "",
          "type": "uint256",
          "internalType": "uint256"
        }
      ],
      "stateMutability": "view"
    },
    {
      "type": "function",
      "name": "values",
      "inputs": [
        {
          "name": "",
          "type": "uint256",
          "internalType": "uint256"
        }
      ],
      "outputs": [
        {
          "name": "",
          "type": "uint256",
          "internalType": "uint256"
        }
      ],
      "stateMutability": "view"
    },
    {
      "type": "function",
      "name": "version",
      "inputs": [],
      "outputs": [
        {
          "name": "",
          "type": "string",
          "internalType": "string"
        }
      ],
      "stateMutability": "pure"
    }
  ],
  "bytecode": {
    "object": "0x608060405234801561000f575f80fd5b5061069f8061001d5f395ff3fe60806040526004361061009a575f3560e01c80635e383d21116100625780635e383d211461013f5780636d4ce63c1461015e578063763e2831146101795780639fba1f9a14610197578063d31f8b6b146101a0578063e79f5bee146101bf575f80fd5b80631f1bd6921461009e578063227367d5146100c85780633bccbbc9146100df5780633fa4f245146100f357806354fd4d5014610115575b5f80fd5b3480156100a9575f80fd5b506100b26101cd565b6040516100bf919061034b565b60405180910390f35b3480156100d3575f80fd5b506100dd600a5f55565b005b3480156100ea575f80fd5b506100dd610259565b3480156100fe575f80fd5b506101075f5481565b6040519081526020016100bf565b348015610120575f80fd5b50604080518082019091526002815261563160f01b60208201526100b2565b34801561014a575f80fd5b50610107610159366004610396565b6102a5565b348015610169575f80fd5b50604051600181526020016100bf565b348015610184575f80fd5b506100dd610193366004610396565b5f55565b6100dd60645f55565b3480156101ab575f80fd5b506100dd6101ba36600461046f565b6102c4565b6100dd610193366004610396565b600180546101da90610527565b80601f016020809104026020016040519081016040528092919081815260200182805461020690610527565b80156102515780601f1061022857610100808354040283529160200191610251565b820191905f5260205f20905b81548152906001019060200180831161023457829003601f168201915b505050505081565b60405162461bcd60e51b815260206004820152601c60248201527f44756d6d79496d706c656d656e746174696f6e20726576657274656400000000604482015260640160405180910390fd5b600281815481106102b4575f80fd5b5f91825260209091200154905081565b5f83905560016102d483826105ad565b5080516102e89060029060208401906102ee565b50505050565b828054828255905f5260205f20908101928215610327579160200282015b8281111561032757825182559160200191906001019061030c565b50610333929150610337565b5090565b5b80821115610333575f8155600101610338565b5f6020808352835180828501525f5b818110156103765785810183015185820160400152820161035a565b505f604082860101526040601f19601f8301168501019250505092915050565b5f602082840312156103a6575f80fd5b5035919050565b634e487b7160e01b5f52604160045260245ffd5b604051601f8201601f1916810167ffffffffffffffff811182821017156103ea576103ea6103ad565b604052919050565b5f82601f830112610401575f80fd5b8135602067ffffffffffffffff82111561041d5761041d6103ad565b8160051b61042c8282016103c1565b9283528481018201928281019087851115610445575f80fd5b83870192505b848310156104645782358252918301919083019061044b565b979650505050505050565b5f805f60608486031215610481575f80fd5b8335925060208085013567ffffffffffffffff808211156104a0575f80fd5b818701915087601f8301126104b3575f80fd5b8135818111156104c5576104c56103ad565b6104d7601f8201601f191685016103c1565b81815289858386010111156104ea575f80fd5b81858501868301375f918101909401529193506040860135918083111561050f575f80fd5b505061051d868287016103f2565b9150509250925092565b600181811c9082168061053b57607f821691505b60208210810361055957634e487b7160e01b5f52602260045260245ffd5b50919050565b601f8211156105a8575f81815260208120601f850160051c810160208610156105855750805b601f850160051c820191505b818110156105a457828155600101610591565b5050505b505050565b815167ffffffffffffffff8111156105c7576105c76103ad565b6105db816105d58454610527565b8461055f565b602080601f83116001811461060e575f84156105f75750858301515b5f19600386901b1c1916600185901b1785556105a4565b5f85815260208120601f198616915b8281101561063c5788860151825594840194600190910190840161061d565b508582101561065957878501515f19600388901b60f8161c191681555b5050505050600190811b0190555056fea2646970667358221220b0e0835641c223d1af273b579475fcf2acf95179872c82483326d87658c4868f64736f6c63430008140033",
    "linkReferences": {}
  },
  "methodIdentifiers": {
    "get()": "6d4ce63c",
    "initialize(uint256,string,uint256[])": "d31f8b6b",
    "initializeNonPayable()": "227367d5",
    "initializeNonPayableWithValue(uint256)": "763e2831",
    "initializePayable()": "9fba1f9a",
    "initializePayableWithValue(uint256)": "e79f5bee",
    "reverts()": "3bccbbc9",
    "text()": "1f1bd692",
    "value()": "3fa4f245",
    "values(uint256)": "5e383d21",
    "version()": "54fd4d50"
  },
  "id": 83
}