{
  "abi": [
    {
      "type": "constructor",
      "inputs": [],
      "stateMutability": "nonpayable"
    },
    {
      "type": "function",
      "name": "callback",
      "inputs": [],
      "outputs": [],
      "stateMutability": "nonpayable"
    },
    {
      "type": "function",
      "name": "countAndCall",
      "inputs": [
        {
          "name": "attacker",
          "type": "address",
          "internalType": "contract ReentrancyAttack"
        }
      ],
      "outputs": [],
      "stateMutability": "nonpayable"
    },
    {
      "type": "function",
      "name": "countLocalRecursive",
      "inputs": [
        {
          "name": "n",
          "type": "uint256",
          "internalType": "uint256"
        }
      ],
      "outputs": [],
      "stateMutability": "nonpayable"
    },
    {
      "type": "function",
      "name": "countThisRecursive",
      "inputs": [
        {
          "name": "n",
          "type": "uint256",
          "internalType": "uint256"
        }
      ],
      "outputs": [],
      "stateMutability": "nonpayable"
    },
    {
      "type": "function",
      "name": "counter",
      "inputs": [],
      "outputs": [
        {
          "name": "",
          "type": "uint256",
          "internalType": "uint256"
        }
      ],
      "stateMutability": "view"
    },
    {
      "type": "function",
      "name": "guardedCheckEntered",
      "inputs": [],
      "outputs": [],
      "stateMutability": "nonpayable"
    },
    {
      "type": "function",
      "name": "unguardedCheckNotEntered",
      "inputs": [],
      "outputs": [],
      "stateMutability": "view"
    }
  ],
  "bytecode": {
    "object": "0x608060405234801561000f575f80fd5b5060015f8181559055610445806100255f395ff3fe608060405234801561000f575f80fd5b506004361061007a575f3560e01c806396ffa6901161005857806396ffa690146100b6578063a408f312146100c9578063b672ad8b146100d1578063cecc95a7146100e4575f80fd5b8063083b27321461007e57806361bc221a146100885780638c5344fa146100a3575b5f80fd5b6100866100ec565b005b61009160015481565b60405190815260200160405180910390f35b6100866100b136600461035f565b610107565b6100866100c436600461035f565b610213565b610086610237565b6100866100df366004610376565b61024c565b6100866102e3565b6100f46102f0565b6100fc610347565b61010560015f55565b565b61010f6102f0565b80156102075761011d610347565b5f3061012a6001846103b7565b60405160240161013c91815260200190565b60408051601f198184030181529181526020820180516001600160e01b0316634629a27d60e11b1790525161017191906103d0565b5f604051808303815f865af19150503d805f81146101aa576040519150601f19603f3d011682016040523d82523d5f602084013e6101af565b606091505b50509050806102055760405162461bcd60e51b815260206004820152601b60248201527f5265656e7472616e63794d6f636b3a206661696c65642063616c6c000000000060448201526064015b60405180910390fd5b505b61021060015f55565b50565b61021b6102f0565b801561020757610229610347565b6102076100c46001836103b7565b61023f6102f0565b5f546002146100fc575f80fd5b6102546102f0565b61025c610347565b604051630a2df1ed60e01b815263041d939960e11b60048201527f083b2732f78169bfaad6b407fa338cc97d697ed69d3915a18239cc111d51a402906001600160a01b03831690630a2df1ed906024015f604051808303815f87803b1580156102c3575f80fd5b505af11580156102d5573d5f803e3d5ffd5b505050505061021060015f55565b5f54600203610105575f80fd5b60025f54036103415760405162461bcd60e51b815260206004820152601f60248201527f5265656e7472616e637947756172643a207265656e7472616e742063616c6c0060448201526064016101fc565b60025f55565b6001805f82825461035891906103fc565b9091555050565b5f6020828403121561036f575f80fd5b5035919050565b5f60208284031215610386575f80fd5b81356001600160a01b038116811461039c575f80fd5b9392505050565b634e487b7160e01b5f52601160045260245ffd5b818103818111156103ca576103ca6103a3565b92915050565b5f82515f5b818110156103ef57602081860181015185830152016103d5565b505f920191825250919050565b808201808211156103ca576103ca6103a356fea2646970667358221220fddd6e4a7ce3c1d3dee389dcbd9f3c66a0852e712e05b05b49b56a45ab5885d764736f6c63430008140033",
    "linkReferences": {}
  },
  "methodIdentifiers": {
    "callback()": "083b2732",
    "countAndCall(address)": "b672ad8b",
    "countLocalRecursive(uint256)": "96ffa690",
    "countThisRecursive(uint256)": "8c5344fa",
    "counter()": "61bc221a",
    "guardedCheckEntered()": "a408f312",
    "unguardedCheckNotEntered()": "cecc95a7"
  },
  "id": 102
}