{
  "abi": [
    {
      "type": "function",
      "name": "disableReentrancy",
      "inputs": [],
      "outputs": [],
      "stateMutability": "nonpayable"
    },
    {
      "type": "function",
      "name": "enableRentrancy",
      "inputs": [
        {
          "name": "target",
          "type": "address",
          "internalType": "address"
        },
        {
          "name": "data",
          "type": "bytes",
          "internalType": "bytes"
        }
      ],
      "outputs": [],
      "stateMutability": "nonpayable"
    },
    {
      "type": "function",
      "name": "reenter",
      "inputs": [],
      "outputs": [],
      "stateMutability": "nonpayable"
    }
  ],
  "bytecode": {
    "object": "0x608060405234801561000f575f80fd5b506105a58061001d5f395ff3fe608060405234801561000f575f80fd5b506004361061003f575f3560e01c80633654421b14610043578063a0fe97e314610058578063cc23fb1c14610060575b5f80fd5b610056610051366004610321565b610072565b005b61005661009f565b6100566002805460ff19166001179055565b5f80546001600160a01b0319166001600160a01b0385161790556001610099828483610444565b50505050565b60025460ff1661015a576002805460ff191660019081179091555f548154610158926001600160a01b0390921691906100d7906103be565b80601f0160208091040260200160405190810160405280929190818152602001828054610103906103be565b801561014e5780601f106101255761010080835404028352916020019161014e565b820191905f5260205f20905b81548152906001019060200180831161013157829003601f168201915b505050505061015c565b505b565b606061019f83835f6040518060400160405280601e81526020017f416464726573733a206c6f772d6c6576656c2063616c6c206661696c656400008152506101a6565b9392505050565b60608247101561020c5760405162461bcd60e51b815260206004820152602660248201527f416464726573733a20696e73756666696369656e742062616c616e636520666f6044820152651c8818d85b1b60d21b60648201526084015b60405180910390fd5b5f80866001600160a01b031685876040516102279190610522565b5f6040518083038185875af1925050503d805f8114610261576040519150601f19603f3d011682016040523d82523d5f602084013e610266565b606091505b509150915061027787838387610284565b925050505b949350505050565b606083156102f25782515f036102eb576001600160a01b0385163b6102eb5760405162461bcd60e51b815260206004820152601d60248201527f416464726573733a2063616c6c20746f206e6f6e2d636f6e74726163740000006044820152606401610203565b508161027c565b61027c83838151156103075781518083602001fd5b8060405162461bcd60e51b8152600401610203919061053d565b5f805f60408486031215610333575f80fd5b83356001600160a01b0381168114610349575f80fd5b9250602084013567ffffffffffffffff80821115610365575f80fd5b818601915086601f830112610378575f80fd5b813581811115610386575f80fd5b876020828501011115610397575f80fd5b6020830194508093505050509250925092565b634e487b7160e01b5f52604160045260245ffd5b600181811c908216806103d257607f821691505b6020821081036103f057634e487b7160e01b5f52602260045260245ffd5b50919050565b601f82111561043f575f81815260208120601f850160051c8101602086101561041c5750805b601f850160051c820191505b8181101561043b57828155600101610428565b5050505b505050565b67ffffffffffffffff83111561045c5761045c6103aa565b6104708361046a83546103be565b836103f6565b5f601f8411600181146104a1575f851561048a5750838201355b5f19600387901b1c1916600186901b1783556104f9565b5f83815260209020601f19861690835b828110156104d157868501358255602094850194600190920191016104b1565b50868210156104ed575f1960f88860031b161c19848701351681555b505060018560011b0183555b5050505050565b5f5b8381101561051a578181015183820152602001610502565b50505f910152565b5f8251610533818460208701610500565b9190910192915050565b602081525f825180602084015261055b816040850160208701610500565b601f01601f1916919091016040019291505056fea26469706673582212204a3d76aade4016e7a0551b7feb8d7b3637fc17a7dfd10ae74a98bbd9f8464f4564736f6c63430008140033",
    "linkReferences": {}
  },
  "methodIdentifiers": {
    "disableReentrancy()": "cc23fb1c",
    "enableRentrancy(address,bytes)": "3654421b",
    "reenter()": "a0fe97e3"
  },
  "id": 107
}