{
  "abi": [
    {
      "type": "function",
      "name": "ARBSYS",
      "inputs": [],
      "outputs": [
        {
          "name": "",
          "type": "address",
          "internalType": "address"
        }
      ],
      "stateMutability": "view"
    }
  ],
  "bytecode": {
    "object": "0x608f610033600b8282823980515f1a607314602757634e487b7160e01b5f525f60045260245ffd5b305f52607381538281f3fe73000000000000000000000000000000000000000030146080604052600436106032575f3560e01c8063bf0a12cf146036575b5f80fd5b603d606481565b6040516001600160a01b03909116815260200160405180910390f3fea26469706673582212209379691e957e1843b070c29d3f43315b7e09543e0a3afd447c28ccd42f30675b64736f6c63430008140033",
    "linkReferences": {}
  },
  "methodIdentifiers": {
    "ARBSYS()": "bf0a12cf"
  },
  "id": 17
}