{
  "abi": [
    {
      "type": "function",
      "name": "initialize",
      "inputs": [],
      "outputs": [],
      "stateMutability": "nonpayable"
    },
    {
      "type": "function",
      "name": "initialize",
      "inputs": [
        {
          "name": "value",
          "type": "uint256",
          "internalType": "uint256"
        }
      ],
      "outputs": [],
      "stateMutability": "nonpayable"
    },
    {
      "type": "function",
      "name": "isHuman",
      "inputs": [],
      "outputs": [
        {
          "name": "",
          "type": "bool",
          "internalType": "bool"
        }
      ],
      "stateMutability": "view"
    },
    {
      "type": "function",
      "name": "mother",
      "inputs": [],
      "outputs": [
        {
          "name": "",
          "type": "uint256",
          "internalType": "uint256"
        }
      ],
      "stateMutability": "view"
    },
    {
      "type": "event",
      "name": "Initialized",
      "inputs": [
        {
          "name": "version",
          "type": "uint8",
          "indexed": false,
          "internalType": "uint8"
        }
      ],
      "anonymous": false
    }
  ],
  "bytecode": {
    "object": "0x608060405234801561000f575f80fd5b506103ec8061001d5f395ff3fe608060405234801561000f575f80fd5b506004361061004a575f3560e01c80634a6c9db61461004e5780638129fc1c14610075578063ed7dfee31461007f578063fe4b84df14610096575b5f80fd5b5f546100609062010000900460ff1681565b60405190151581526020015b60405180910390f35b61007d6100a9565b005b61008860015481565b60405190815260200161006c565b61007d6100a4366004610306565b610176565b5f54610100900460ff16158080156100c757505f54600160ff909116105b806100e05750303b1580156100e057505f5460ff166001145b6101055760405162461bcd60e51b81526004016100fc9061031d565b60405180910390fd5b5f805460ff191660011790558015610126575f805461ff0019166101001790555b61012e61023c565b8015610173575f805461ff0019169055604051600181527f7f26b83ff96e1f2b6a682f133852f6798a09c465da95921460cefb38474024989060200160405180910390a15b50565b5f54610100900460ff161580801561019457505f54600160ff909116105b806101ad5750303b1580156101ad57505f5460ff166001145b6101c95760405162461bcd60e51b81526004016100fc9061031d565b5f805460ff1916600117905580156101ea575f805461ff0019166101001790555b6101f38261026c565b8015610238575f805461ff0019169055604051600181527f7f26b83ff96e1f2b6a682f133852f6798a09c465da95921460cefb38474024989060200160405180910390a15b5050565b5f54610100900460ff166102625760405162461bcd60e51b81526004016100fc9061036b565b61026a6102a3565b565b5f54610100900460ff166102925760405162461bcd60e51b81526004016100fc9061036b565b61029a61023c565b610173816102db565b5f54610100900460ff166102c95760405162461bcd60e51b81526004016100fc9061036b565b5f805462ff0000191662010000179055565b5f54610100900460ff166103015760405162461bcd60e51b81526004016100fc9061036b565b600155565b5f60208284031215610316575f80fd5b5035919050565b6020808252602e908201527f496e697469616c697a61626c653a20636f6e747261637420697320616c72656160408201526d191e481a5b9a5d1a585b1a5e995960921b606082015260800190565b6020808252602b908201527f496e697469616c697a61626c653a20636f6e7472616374206973206e6f74206960408201526a6e697469616c697a696e6760a81b60608201526080019056fea26469706673582212202fefd931fc3f900058310eb8ddad7f5cbe3b02529fa855b1cdbab0af2b7249ef64736f6c63430008140033",
    "linkReferences": {}
  },
  "methodIdentifiers": {
    "initialize()": "8129fc1c",
    "initialize(uint256)": "fe4b84df",
    "isHuman()": "4a6c9db6",
    "mother()": "ed7dfee3"
  },
  "id": 98
}