{
  "abi": [
    {
      "type": "function",
      "name": "initialize",
      "inputs": [],
      "outputs": [],
      "stateMutability": "nonpayable"
    },
    {
      "type": "function",
      "name": "isHuman",
      "inputs": [],
      "outputs": [
        {
          "name": "",
          "type": "bool",
          "internalType": "bool"
        }
      ],
      "stateMutability": "view"
    },
    {
      "type": "event",
      "name": "Initialized",
      "inputs": [
        {
          "name": "version",
          "type": "uint8",
          "indexed": false,
          "internalType": "uint8"
        }
      ],
      "anonymous": false
    }
  ],
  "bytecode": {
    "object": "0x608060405234801561000f575f80fd5b506102618061001d5f395ff3fe608060405234801561000f575f80fd5b5060043610610034575f3560e01c80634a6c9db6146100385780638129fc1c1461005e575b5f80fd5b5f5461004a9062010000900460ff1681565b604051901515815260200160405180910390f35b610066610068565b005b5f54610100900460ff161580801561008657505f54600160ff909116105b8061009f5750303b15801561009f57505f5460ff166001145b6101075760405162461bcd60e51b815260206004820152602e60248201527f496e697469616c697a61626c653a20636f6e747261637420697320616c72656160448201526d191e481a5b9a5d1a585b1a5e995960921b60648201526084015b60405180910390fd5b5f805460ff191660011790558015610128575f805461ff0019166101001790555b610130610178565b8015610175575f805461ff0019169055604051600181527f7f26b83ff96e1f2b6a682f133852f6798a09c465da95921460cefb38474024989060200160405180910390a15b50565b5f54610100900460ff1661019e5760405162461bcd60e51b81526004016100fe906101e0565b6101a66101a8565b565b5f54610100900460ff166101ce5760405162461bcd60e51b81526004016100fe906101e0565b5f805462ff0000191662010000179055565b6020808252602b908201527f496e697469616c697a61626c653a20636f6e7472616374206973206e6f74206960408201526a6e697469616c697a696e6760a81b60608201526080019056fea264697066735822122056201f2e5a8a98477a71c9aab9c1cdd18a94c0e71f6010367664748752e6e33664736f6c63430008140033",
    "linkReferences": {}
  },
  "methodIdentifiers": {
    "initialize()": "8129fc1c",
    "isHuman()": "4a6c9db6"
  },
  "id": 98
}