{
  "abi": [
    {
      "type": "function",
      "name": "child",
      "inputs": [],
      "outputs": [
        {
          "name": "",
          "type": "uint256",
          "internalType": "uint256"
        }
      ],
      "stateMutability": "view"
    },
    {
      "type": "function",
      "name": "father",
      "inputs": [],
      "outputs": [
        {
          "name": "",
          "type": "uint256",
          "internalType": "uint256"
        }
      ],
      "stateMutability": "view"
    },
    {
      "type": "function",
      "name": "gramps",
      "inputs": [],
      "outputs": [
        {
          "name": "",
          "type": "string",
          "internalType": "string"
        }
      ],
      "stateMutability": "view"
    },
    {
      "type": "function",
      "name": "initialize",
      "inputs": [
        {
          "name": "_mother",
          "type": "uint256",
          "internalType": "uint256"
        },
        {
          "name": "_gramps",
          "type": "string",
          "internalType": "string"
        },
        {
          "name": "_father",
          "type": "uint256",
          "internalType": "uint256"
        },
        {
          "name": "_child",
          "type": "uint256",
          "internalType": "uint256"
        }
      ],
      "outputs": [],
      "stateMutability": "nonpayable"
    },
    {
      "type": "function",
      "name": "initialize",
      "inputs": [],
      "outputs": [],
      "stateMutability": "nonpayable"
    },
    {
      "type": "function",
      "name": "initialize",
      "inputs": [
        {
          "name": "_gramps",
          "type": "string",
          "internalType": "string"
        },
        {
          "name": "_father",
          "type": "uint256",
          "internalType": "uint256"
        }
      ],
      "outputs": [],
      "stateMutability": "nonpayable"
    },
    {
      "type": "function",
      "name": "initialize",
      "inputs": [
        {
          "name": "value",
          "type": "string",
          "internalType": "string"
        }
      ],
      "outputs": [],
      "stateMutability": "nonpayable"
    },
    {
      "type": "function",
      "name": "initialize",
      "inputs": [
        {
          "name": "value",
          "type": "uint256",
          "internalType": "uint256"
        }
      ],
      "outputs": [],
      "stateMutability": "nonpayable"
    },
    {
      "type": "function",
      "name": "isHuman",
      "inputs": [],
      "outputs": [
        {
          "name": "",
          "type": "bool",
          "internalType": "bool"
        }
      ],
      "stateMutability": "view"
    },
    {
      "type": "function",
      "name": "mother",
      "inputs": [],
      "outputs": [
        {
          "name": "",
          "type": "uint256",
          "internalType": "uint256"
        }
      ],
      "stateMutability": "view"
    },
    {
      "type": "event",
      "name": "Initialized",
      "inputs": [
        {
          "name": "version",
          "type": "uint8",
          "indexed": false,
          "internalType": "uint8"
        }
      ],
      "anonymous": false
    }
  ],
  "bytecode": {
    "object": "0x608060405234801561000f575f80fd5b50610b458061001d5f395ff3fe608060405234801561000f575f80fd5b506004361061009b575f3560e01c80638beaf7d7116100635780638beaf7d714610103578063ed7dfee314610116578063f62d18881461011f578063fa39851f14610132578063fe4b84df14610147575f80fd5b80631c8aca3b1461009f578063237b5e96146100bb5780634a6c9db6146100c45780636f2edbd2146100e65780638129fc1c146100fb575b5f80fd5b6100a860035481565b6040519081526020015b60405180910390f35b6100a860045481565b5f546100d69062010000900460ff1681565b60405190151581526020016100b2565b6100f96100f43660046107e4565b61015a565b005b6100f961021c565b6100f9610111366004610837565b6102cd565b6100a860015481565b6100f961012d366004610879565b610382565b61013a610435565b6040516100b291906108b3565b6100f96101553660046108fe565b6104c1565b5f54610100900460ff161580801561017857505f54600160ff909116105b806101915750303b15801561019157505f5460ff166001145b6101b65760405162461bcd60e51b81526004016101ad90610915565b60405180910390fd5b5f805460ff1916600117905580156101d7575f805461ff0019166101001790555b6101e38585858561053e565b8015610215575f805461ff0019169055604051600181525f80516020610af08339815191529060200160405180910390a15b5050505050565b5f54610100900460ff161580801561023a57505f54600160ff909116105b806102535750303b15801561025357505f5460ff166001145b61026f5760405162461bcd60e51b81526004016101ad90610915565b5f805460ff191660011790558015610290575f805461ff0019166101001790555b610298610586565b80156102ca575f805461ff0019169055604051600181525f80516020610af08339815191529060200160405180910390a15b50565b5f54610100900460ff16158080156102eb57505f54600160ff909116105b806103045750303b15801561030457505f5460ff166001145b6103205760405162461bcd60e51b81526004016101ad90610915565b5f805460ff191660011790558015610341575f805461ff0019166101001790555b61034b83836105b6565b801561037d575f805461ff0019169055604051600181525f80516020610af08339815191529060200160405180910390a15b505050565b5f54610100900460ff16158080156103a057505f54600160ff909116105b806103b95750303b1580156103b957505f5460ff166001145b6103d55760405162461bcd60e51b81526004016101ad90610915565b5f805460ff1916600117905580156103f6575f805461ff0019166101001790555b6103ff826105ee565b8015610431575f805461ff0019169055604051600181525f80516020610af08339815191529060200160405180910390a15b5050565b6002805461044290610963565b80601f016020809104026020016040519081016040528092919081815260200182805461046e90610963565b80156104b95780601f10610490576101008083540402835291602001916104b9565b820191905f5260205f20905b81548152906001019060200180831161049c57829003601f168201915b505050505081565b5f54610100900460ff16158080156104df57505f54600160ff909116105b806104f85750303b1580156104f857505f5460ff166001145b6105145760405162461bcd60e51b81526004016101ad90610915565b5f805460ff191660011790558015610535575f805461ff0019166101001790555b6103ff82610625565b5f54610100900460ff166105645760405162461bcd60e51b81526004016101ad9061099b565b61056d84610625565b61057783836105b6565b6105808161065c565b50505050565b5f54610100900460ff166105ac5760405162461bcd60e51b81526004016101ad9061099b565b6105b4610687565b565b5f54610100900460ff166105dc5760405162461bcd60e51b81526004016101ad9061099b565b6105e5826105ee565b610431816106bf565b5f54610100900460ff166106145760405162461bcd60e51b81526004016101ad9061099b565b61061c610586565b6102ca816106ea565b5f54610100900460ff1661064b5760405162461bcd60e51b81526004016101ad9061099b565b610653610586565b6102ca8161071c565b5f54610100900460ff166106825760405162461bcd60e51b81526004016101ad9061099b565b600455565b5f54610100900460ff166106ad5760405162461bcd60e51b81526004016101ad9061099b565b5f805462ff0000191662010000179055565b5f54610100900460ff166106e55760405162461bcd60e51b81526004016101ad9061099b565b600355565b5f54610100900460ff166107105760405162461bcd60e51b81526004016101ad9061099b565b60026104318282610a33565b5f54610100900460ff166107425760405162461bcd60e51b81526004016101ad9061099b565b600155565b634e487b7160e01b5f52604160045260245ffd5b5f82601f83011261076a575f80fd5b813567ffffffffffffffff8082111561078557610785610747565b604051601f8301601f19908116603f011681019082821181831017156107ad576107ad610747565b816040528381528660208588010111156107c5575f80fd5b836020870160208301375f602085830101528094505050505092915050565b5f805f80608085870312156107f7575f80fd5b84359350602085013567ffffffffffffffff811115610814575f80fd5b6108208782880161075b565b949794965050505060408301359260600135919050565b5f8060408385031215610848575f80fd5b823567ffffffffffffffff81111561085e575f80fd5b61086a8582860161075b565b95602094909401359450505050565b5f60208284031215610889575f80fd5b813567ffffffffffffffff81111561089f575f80fd5b6108ab8482850161075b565b949350505050565b5f6020808352835180828501525f5b818110156108de578581018301518582016040015282016108c2565b505f604082860101526040601f19601f8301168501019250505092915050565b5f6020828403121561090e575f80fd5b5035919050565b6020808252602e908201527f496e697469616c697a61626c653a20636f6e747261637420697320616c72656160408201526d191e481a5b9a5d1a585b1a5e995960921b606082015260800190565b600181811c9082168061097757607f821691505b60208210810361099557634e487b7160e01b5f52602260045260245ffd5b50919050565b6020808252602b908201527f496e697469616c697a61626c653a20636f6e7472616374206973206e6f74206960408201526a6e697469616c697a696e6760a81b606082015260800190565b601f82111561037d575f81815260208120601f850160051c81016020861015610a0c5750805b601f850160051c820191505b81811015610a2b57828155600101610a18565b505050505050565b815167ffffffffffffffff811115610a4d57610a4d610747565b610a6181610a5b8454610963565b846109e6565b602080601f831160018114610a94575f8415610a7d5750858301515b5f19600386901b1c1916600185901b178555610a2b565b5f85815260208120601f198616915b82811015610ac257888601518255948401946001909101908401610aa3565b5085821015610adf57878501515f19600388901b60f8161c191681555b5050505050600190811b0190555056fe7f26b83ff96e1f2b6a682f133852f6798a09c465da95921460cefb3847402498a2646970667358221220821e17ce710e27d19618faca763808d70dbaa6b6a7350b513411ab28e87653c664736f6c63430008140033",
    "linkReferences": {}
  },
  "methodIdentifiers": {
    "child()": "237b5e96",
    "father()": "1c8aca3b",
    "gramps()": "fa39851f",
    "initialize()": "8129fc1c",
    "initialize(string)": "f62d1888",
    "initialize(string,uint256)": "8beaf7d7",
    "initialize(uint256)": "fe4b84df",
    "initialize(uint256,string,uint256,uint256)": "6f2edbd2",
    "isHuman()": "4a6c9db6",
    "mother()": "ed7dfee3"
  },
  "id": 98
}