{
  "abi": [
    {
      "type": "function",
      "name": "allowance",
      "inputs": [
        {
          "name": "owner",
          "type": "address",
          "internalType": "address"
        },
        {
          "name": "spender",
          "type": "address",
          "internalType": "address"
        }
      ],
      "outputs": [
        {
          "name": "",
          "type": "uint256",
          "internalType": "uint256"
        }
      ],
      "stateMutability": "view"
    },
    {
      "type": "function",
      "name": "approve",
      "inputs": [
        {
          "name": "spender",
          "type": "address",
          "internalType": "address"
        },
        {
          "name": "amount",
          "type": "uint256",
          "internalType": "uint256"
        }
      ],
      "outputs": [
        {
          "name": "",
          "type": "bool",
          "internalType": "bool"
        }
      ],
      "stateMutability": "nonpayable"
    },
    {
      "type": "function",
      "name": "balanceOf",
      "inputs": [
        {
          "name": "account",
          "type": "address",
          "internalType": "address"
        }
      ],
      "outputs": [
        {
          "name": "",
          "type": "uint256",
          "internalType": "uint256"
        }
      ],
      "stateMutability": "view"
    },
    {
      "type": "function",
      "name": "decimals",
      "inputs": [],
      "outputs": [
        {
          "name": "",
          "type": "uint8",
          "internalType": "uint8"
        }
      ],
      "stateMutability": "view"
    },
    {
      "type": "function",
      "name": "decreaseAllowance",
      "inputs": [
        {
          "name": "spender",
          "type": "address",
          "internalType": "address"
        },
        {
          "name": "subtractedValue",
          "type": "uint256",
          "internalType": "uint256"
        }
      ],
      "outputs": [
        {
          "name": "",
          "type": "bool",
          "internalType": "bool"
        }
      ],
      "stateMutability": "nonpayable"
    },
    {
      "type": "function",
      "name": "functionCall",
      "inputs": [
        {
          "name": "target",
          "type": "address",
          "internalType": "address"
        },
        {
          "name": "data",
          "type": "bytes",
          "internalType": "bytes"
        }
      ],
      "outputs": [
        {
          "name": "",
          "type": "bytes",
          "internalType": "bytes"
        }
      ],
      "stateMutability": "nonpayable"
    },
    {
      "type": "function",
      "name": "increaseAllowance",
      "inputs": [
        {
          "name": "spender",
          "type": "address",
          "internalType": "address"
        },
        {
          "name": "addedValue",
          "type": "uint256",
          "internalType": "uint256"
        }
      ],
      "outputs": [
        {
          "name": "",
          "type": "bool",
          "internalType": "bool"
        }
      ],
      "stateMutability": "nonpayable"
    },
    {
      "type": "function",
      "name": "name",
      "inputs": [],
      "outputs": [
        {
          "name": "",
          "type": "string",
          "internalType": "string"
        }
      ],
      "stateMutability": "view"
    },
    {
      "type": "function",
      "name": "scheduleReenter",
      "inputs": [
        {
          "name": "when",
          "type": "uint8",
          "internalType": "enum ERC20Reentrant.Type"
        },
        {
          "name": "target",
          "type": "address",
          "internalType": "address"
        },
        {
          "name": "data",
          "type": "bytes",
          "internalType": "bytes"
        }
      ],
      "outputs": [],
      "stateMutability": "nonpayable"
    },
    {
      "type": "function",
      "name": "symbol",
      "inputs": [],
      "outputs": [
        {
          "name": "",
          "type": "string",
          "internalType": "string"
        }
      ],
      "stateMutability": "view"
    },
    {
      "type": "function",
      "name": "totalSupply",
      "inputs": [],
      "outputs": [
        {
          "name": "",
          "type": "uint256",
          "internalType": "uint256"
        }
      ],
      "stateMutability": "view"
    },
    {
      "type": "function",
      "name": "transfer",
      "inputs": [
        {
          "name": "to",
          "type": "address",
          "internalType": "address"
        },
        {
          "name": "amount",
          "type": "uint256",
          "internalType": "uint256"
        }
      ],
      "outputs": [
        {
          "name": "",
          "type": "bool",
          "internalType": "bool"
        }
      ],
      "stateMutability": "nonpayable"
    },
    {
      "type": "function",
      "name": "transferFrom",
      "inputs": [
        {
          "name": "from",
          "type": "address",
          "internalType": "address"
        },
        {
          "name": "to",
          "type": "address",
          "internalType": "address"
        },
        {
          "name": "amount",
          "type": "uint256",
          "internalType": "uint256"
        }
      ],
      "outputs": [
        {
          "name": "",
          "type": "bool",
          "internalType": "bool"
        }
      ],
      "stateMutability": "nonpayable"
    },
    {
      "type": "event",
      "name": "Approval",
      "inputs": [
        {
          "name": "owner",
          "type": "address",
          "indexed": true,
          "internalType": "address"
        },
        {
          "name": "spender",
          "type": "address",
          "indexed": true,
          "internalType": "address"
        },
        {
          "name": "value",
          "type": "uint256",
          "indexed": false,
          "internalType": "uint256"
        }
      ],
      "anonymous": false
    },
    {
      "type": "event",
      "name": "Transfer",
      "inputs": [
        {
          "name": "from",
          "type": "address",
          "indexed": true,
          "internalType": "address"
        },
        {
          "name": "to",
          "type": "address",
          "indexed": true,
          "internalType": "address"
        },
        {
          "name": "value",
          "type": "uint256",
          "indexed": false,
          "internalType": "uint256"
        }
      ],
      "anonymous": false
    }
  ],
  "bytecode": {
    "object": "0x608060405234801562000010575f80fd5b5060405180604001604052806004815260200163151154d560e21b815250604051806040016040528060038152602001621514d560ea1b81525081600390816200005b919062000113565b5060046200006a828262000113565b505050620001db565b634e487b7160e01b5f52604160045260245ffd5b600181811c908216806200009c57607f821691505b602082108103620000bb57634e487b7160e01b5f52602260045260245ffd5b50919050565b601f8211156200010e575f81815260208120601f850160051c81016020861015620000e95750805b601f850160051c820191505b818110156200010a57828155600101620000f5565b5050505b505050565b81516001600160401b038111156200012f576200012f62000073565b620001478162000140845462000087565b84620000c1565b602080601f8311600181146200017d575f8415620001655750858301515b5f19600386901b1c1916600185901b1785556200010a565b5f85815260208120601f198616915b82811015620001ad578886015182559484019460019091019084016200018c565b5085821015620001cb57878501515f19600388901b60f8161c191681555b5050505050600190811b01905550565b610e3b80620001e95f395ff3fe608060405234801561000f575f80fd5b50600436106100cb575f3560e01c806370a0823111610088578063a457c2d711610063578063a457c2d71461019a578063a9059cbb146101ad578063cd594b63146101c0578063dd62ed3e146101d5575f80fd5b806370a082311461015757806395d89b411461017f578063a0b5ffb014610187575f80fd5b806306fdde03146100cf578063095ea7b3146100ed57806318160ddd1461011057806323b872dd14610122578063313ce567146101355780633950935114610144575b5f80fd5b6100d76101e8565b6040516100e49190610a43565b60405180910390f35b6101006100fb366004610a70565b610278565b60405190151581526020016100e4565b6002545b6040519081526020016100e4565b610100610130366004610a98565b610291565b604051601281526020016100e4565b610100610152366004610a70565b6102b4565b610114610165366004610ad1565b6001600160a01b03165f9081526020819052604090205490565b6100d76102d5565b6100d7610195366004610afe565b6102e4565b6101006101a8366004610a70565b6102f7565b6101006101bb366004610a70565b610376565b6101d36101ce366004610bba565b610383565b005b6101146101e3366004610c46565b6103db565b6060600380546101f790610c77565b80601f016020809104026020016040519081016040528092919081815260200182805461022390610c77565b801561026e5780601f106102455761010080835404028352916020019161026e565b820191905f5260205f20905b81548152906001019060200180831161025157829003601f168201915b5050505050905090565b5f33610285818585610405565b60019150505b92915050565b5f3361029e858285610528565b6102a98585856105a0565b506001949350505050565b5f336102858185856102c683836103db565b6102d09190610caf565b610405565b6060600480546101f790610c77565b60606102f08383610753565b9392505050565b5f338161030482866103db565b9050838110156103695760405162461bcd60e51b815260206004820152602560248201527f45524332303a2064656372656173656420616c6c6f77616e63652062656c6f77604482015264207a65726f60d81b60648201526084015b60405180910390fd5b6102a98286868403610405565b5f336102858185856105a0565b6005805485919060ff191660018360028111156103a2576103a2610cce565b021790555060058054610100600160a81b0319166101006001600160a01b0386160217905560066103d4828483610d2f565b5050505050565b6001600160a01b039182165f90815260016020908152604080832093909416825291909152205490565b6001600160a01b0383166104675760405162461bcd60e51b8152602060048201526024808201527f45524332303a20617070726f76652066726f6d20746865207a65726f206164646044820152637265737360e01b6064820152608401610360565b6001600160a01b0382166104c85760405162461bcd60e51b815260206004820152602260248201527f45524332303a20617070726f766520746f20746865207a65726f206164647265604482015261737360f01b6064820152608401610360565b6001600160a01b038381165f8181526001602090815260408083209487168084529482529182902085905590518481527f8c5be1e5ebec7d5bd14f71427d1e84f3dd0314c0f7b2291e5b200ac8c7c3b925910160405180910390a3505050565b5f61053384846103db565b90505f19811461059a578181101561058d5760405162461bcd60e51b815260206004820152601d60248201527f45524332303a20696e73756666696369656e7420616c6c6f77616e63650000006044820152606401610360565b61059a8484848403610405565b50505050565b6001600160a01b0383166106045760405162461bcd60e51b815260206004820152602560248201527f45524332303a207472616e736665722066726f6d20746865207a65726f206164604482015264647265737360d81b6064820152608401610360565b6001600160a01b0382166106665760405162461bcd60e51b815260206004820152602360248201527f45524332303a207472616e7366657220746f20746865207a65726f206164647260448201526265737360e81b6064820152608401610360565b610671838383610796565b6001600160a01b0383165f90815260208190526040902054818110156106e85760405162461bcd60e51b815260206004820152602660248201527f45524332303a207472616e7366657220616d6f756e7420657863656564732062604482015265616c616e636560d01b6064820152608401610360565b6001600160a01b038481165f81815260208181526040808320878703905593871680835291849020805487019055925185815290927fddf252ad1be2c89b69c2b068fc378daa952ba7f163c4a11628f55a4df523b3ef910160405180910390a361059a848484610867565b60606102f083835f6040518060400160405280601e81526020017f416464726573733a206c6f772d6c6576656c2063616c6c206661696c65640000815250610880565b600160055460ff1660028111156107af576107af610cce565b03610862576005805460ff1916908190556006805461059a9261010090046001600160a01b031691906107e190610c77565b80601f016020809104026020016040519081016040528092919081815260200182805461080d90610c77565b80156108585780601f1061082f57610100808354040283529160200191610858565b820191905f5260205f20905b81548152906001019060200180831161083b57829003601f168201915b50505050506102e4565b505050565b600260055460ff1660028111156107af576107af610cce565b6060824710156108e15760405162461bcd60e51b815260206004820152602660248201527f416464726573733a20696e73756666696369656e742062616c616e636520666f6044820152651c8818d85b1b60d21b6064820152608401610360565b5f80866001600160a01b031685876040516108fc9190610dea565b5f6040518083038185875af1925050503d805f8114610936576040519150601f19603f3d011682016040523d82523d5f602084013e61093b565b606091505b509150915061094c87838387610959565b925050505b949350505050565b606083156109c75782515f036109c0576001600160a01b0385163b6109c05760405162461bcd60e51b815260206004820152601d60248201527f416464726573733a2063616c6c20746f206e6f6e2d636f6e74726163740000006044820152606401610360565b5081610951565b61095183838151156109dc5781518083602001fd5b8060405162461bcd60e51b81526004016103609190610a43565b5f5b83811015610a105781810151838201526020016109f8565b50505f910152565b5f8151808452610a2f8160208601602086016109f6565b601f01601f19169290920160200192915050565b602081525f6102f06020830184610a18565b80356001600160a01b0381168114610a6b575f80fd5b919050565b5f8060408385031215610a81575f80fd5b610a8a83610a55565b946020939093013593505050565b5f805f60608486031215610aaa575f80fd5b610ab384610a55565b9250610ac160208501610a55565b9150604084013590509250925092565b5f60208284031215610ae1575f80fd5b6102f082610a55565b634e487b7160e01b5f52604160045260245ffd5b5f8060408385031215610b0f575f80fd5b610b1883610a55565b9150602083013567ffffffffffffffff80821115610b34575f80fd5b818501915085601f830112610b47575f80fd5b813581811115610b5957610b59610aea565b604051601f8201601f19908116603f01168101908382118183101715610b8157610b81610aea565b81604052828152886020848701011115610b99575f80fd5b826020860160208301375f6020848301015280955050505050509250929050565b5f805f8060608587031215610bcd575f80fd5b843560038110610bdb575f80fd5b9350610be960208601610a55565b9250604085013567ffffffffffffffff80821115610c05575f80fd5b818701915087601f830112610c18575f80fd5b813581811115610c26575f80fd5b886020828501011115610c37575f80fd5b95989497505060200194505050565b5f8060408385031215610c57575f80fd5b610c6083610a55565b9150610c6e60208401610a55565b90509250929050565b600181811c90821680610c8b57607f821691505b602082108103610ca957634e487b7160e01b5f52602260045260245ffd5b50919050565b8082018082111561028b57634e487b7160e01b5f52601160045260245ffd5b634e487b7160e01b5f52602160045260245ffd5b601f821115610862575f81815260208120601f850160051c81016020861015610d085750805b601f850160051c820191505b81811015610d2757828155600101610d14565b505050505050565b67ffffffffffffffff831115610d4757610d47610aea565b610d5b83610d558354610c77565b83610ce2565b5f601f841160018114610d8c575f8515610d755750838201355b5f19600387901b1c1916600186901b1783556103d4565b5f83815260209020601f19861690835b82811015610dbc5786850135825560209485019460019092019101610d9c565b5086821015610dd8575f1960f88860031b161c19848701351681555b505060018560011b0183555050505050565b5f8251610dfb8184602087016109f6565b919091019291505056fea2646970667358221220d7ae9b91504b2a67d5707b6851a42907a60b9edb327e3228522de51e658075d664736f6c63430008140033",
    "linkReferences": {}
  },
  "methodIdentifiers": {
    "allowance(address,address)": "dd62ed3e",
    "approve(address,uint256)": "095ea7b3",
    "balanceOf(address)": "70a08231",
    "decimals()": "313ce567",
    "decreaseAllowance(address,uint256)": "a457c2d7",
    "functionCall(address,bytes)": "a0b5ffb0",
    "increaseAllowance(address,uint256)": "39509351",
    "name()": "06fdde03",
    "scheduleReenter(uint8,address,bytes)": "cd594b63",
    "symbol()": "95d89b41",
    "totalSupply()": "18160ddd",
    "transfer(address,uint256)": "a9059cbb",
    "transferFrom(address,address,uint256)": "23b872dd"
  },
  "id": 91
}