{
  "abi": [
    {
      "type": "function",
      "name": "initialize",
      "inputs": [
        {
          "name": "value",
          "type": "uint256",
          "internalType": "uint256"
        }
      ],
      "outputs": [],
      "stateMutability": "payable"
    },
    {
      "type": "function",
      "name": "x",
      "inputs": [],
      "outputs": [
        {
          "name": "",
          "type": "uint256",
          "internalType": "uint256"
        }
      ],
      "stateMutability": "view"
    },
    {
      "type": "event",
      "name": "Initialized",
      "inputs": [
        {
          "name": "version",
          "type": "uint8",
          "indexed": false,
          "internalType": "uint8"
        }
      ],
      "anonymous": false
    }
  ],
  "bytecode": {
    "object": "0x608060405234801561000f575f80fd5b506101c28061001d5f395ff3fe608060405260043610610028575f3560e01c80630c55699c1461002c578063fe4b84df14610053575b5f80fd5b348015610037575f80fd5b5061004160015481565b60405190815260200160405180910390f35b610066610061366004610175565b610068565b005b5f54610100900460ff161580801561008657505f54600160ff909116105b8061009f5750303b15801561009f57505f5460ff166001145b6101065760405162461bcd60e51b815260206004820152602e60248201527f496e697469616c697a61626c653a20636f6e747261637420697320616c72656160448201526d191e481a5b9a5d1a585b1a5e995960921b606482015260840160405180910390fd5b5f805460ff191660011790558015610127575f805461ff0019166101001790555b60018290558015610171575f805461ff0019169055604051600181527f7f26b83ff96e1f2b6a682f133852f6798a09c465da95921460cefb38474024989060200160405180910390a15b5050565b5f60208284031215610185575f80fd5b503591905056fea2646970667358221220be2ccd28504bf2c66a86a7af6c3ce31ef9426aff58f5cbb7eede3e8551a0092864736f6c63430008140033",
    "linkReferences": {}
  },
  "methodIdentifiers": {
    "initialize(uint256)": "fe4b84df",
    "x()": "0c55699c"
  },
  "id": 105
}