{
  "abi": [
    {
      "type": "function",
      "name": "getValue",
      "inputs": [],
      "outputs": [
        {
          "name": "",
          "type": "uint256",
          "internalType": "uint256"
        }
      ],
      "stateMutability": "view"
    },
    {
      "type": "function",
      "name": "initialize",
      "inputs": [],
      "outputs": [],
      "stateMutability": "nonpayable"
    },
    {
      "type": "function",
      "name": "setValue",
      "inputs": [
        {
          "name": "_number",
          "type": "uint256",
          "internalType": "uint256"
        }
      ],
      "outputs": [],
      "stateMutability": "nonpayable"
    },
    {
      "type": "event",
      "name": "Initialized",
      "inputs": [
        {
          "name": "version",
          "type": "uint8",
          "indexed": false,
          "internalType": "uint8"
        }
      ],
      "anonymous": false
    }
  ],
  "bytecode": {
    "object": "0x608060405234801561000f575f80fd5b506101c48061001d5f395ff3fe608060405234801561000f575f80fd5b506004361061003f575f3560e01c8063209652551461004357806355241077146100585780638129fc1c1461006d575b5f80fd5b60015460405190815260200160405180910390f35b61006b610066366004610177565b600155565b005b61006b5f54610100900460ff161580801561008e57505f54600160ff909116105b806100a75750303b1580156100a757505f5460ff166001145b61010e5760405162461bcd60e51b815260206004820152602e60248201527f496e697469616c697a61626c653a20636f6e747261637420697320616c72656160448201526d191e481a5b9a5d1a585b1a5e995960921b606482015260840160405180910390fd5b5f805460ff19166001179055801561012f575f805461ff0019166101001790555b8015610174575f805461ff0019169055604051600181527f7f26b83ff96e1f2b6a682f133852f6798a09c465da95921460cefb38474024989060200160405180910390a15b50565b5f60208284031215610187575f80fd5b503591905056fea26469706673582212203f0e6e9068c3b288b2d9d83a37795387acf13b8b2f5b106da1f0b338f063dc1964736f6c63430008140033",
    "linkReferences": {}
  },
  "methodIdentifiers": {
    "getValue()": "20965255",
    "initialize()": "8129fc1c",
    "setValue(uint256)": "55241077"
  },
  "id": 103
}