{
  "abi": [
    {
      "type": "function",
      "name": "getValue",
      "inputs": [
        {
          "name": "_number",
          "type": "uint256",
          "internalType": "uint256"
        }
      ],
      "outputs": [
        {
          "name": "",
          "type": "uint256",
          "internalType": "uint256"
        }
      ],
      "stateMutability": "view"
    },
    {
      "type": "function",
      "name": "initialize",
      "inputs": [],
      "outputs": [],
      "stateMutability": "nonpayable"
    },
    {
      "type": "function",
      "name": "setValue",
      "inputs": [
        {
          "name": "_number",
          "type": "uint256",
          "internalType": "uint256"
        }
      ],
      "outputs": [],
      "stateMutability": "nonpayable"
    },
    {
      "type": "event",
      "name": "Initialized",
      "inputs": [
        {
          "name": "version",
          "type": "uint8",
          "indexed": false,
          "internalType": "uint8"
        }
      ],
      "anonymous": false
    }
  ],
  "bytecode": {
    "object": "0x608060405234801561000f575f80fd5b5061020d8061001d5f395ff3fe608060405234801561000f575f80fd5b506004361061003f575f3560e01c80630ff4c9161461004357806355241077146100685780638129fc1c1461007d575b5f80fd5b6100566100513660046101a1565b610085565b60405190815260200160405180910390f35b61007b6100763660046101a1565b600155565b005b61007b61009a565b5f8160015461009491906101b8565b92915050565b5f54610100900460ff16158080156100b857505f54600160ff909116105b806100d15750303b1580156100d157505f5460ff166001145b6101385760405162461bcd60e51b815260206004820152602e60248201527f496e697469616c697a61626c653a20636f6e747261637420697320616c72656160448201526d191e481a5b9a5d1a585b1a5e995960921b606482015260840160405180910390fd5b5f805460ff191660011790558015610159575f805461ff0019166101001790555b801561019e575f805461ff0019169055604051600181527f7f26b83ff96e1f2b6a682f133852f6798a09c465da95921460cefb38474024989060200160405180910390a15b50565b5f602082840312156101b1575f80fd5b5035919050565b8082018082111561009457634e487b7160e01b5f52601160045260245ffdfea26469706673582212208c670a5aaed4872e0c2e697206e8109425466263cafa93ef2353b9f5ffd8685864736f6c63430008140033",
    "linkReferences": {}
  },
  "methodIdentifiers": {
    "getValue(uint256)": "0ff4c916",
    "initialize()": "8129fc1c",
    "setValue(uint256)": "55241077"
  },
  "id": 103
}