{
  "abi": [
    {
      "type": "function",
      "name": "initialize",
      "inputs": [],
      "outputs": [],
      "stateMutability": "nonpayable"
    },
    {
      "type": "function",
      "name": "setValue",
      "inputs": [
        {
          "name": "_number",
          "type": "uint256",
          "internalType": "uint256"
        }
      ],
      "outputs": [],
      "stateMutability": "nonpayable"
    },
    {
      "type": "event",
      "name": "Initialized",
      "inputs": [
        {
          "name": "version",
          "type": "uint8",
          "indexed": false,
          "internalType": "uint8"
        }
      ],
      "anonymous": false
    }
  ],
  "bytecode": {
    "object": "0x608060405234801561000f575f80fd5b506101a48061001d5f395ff3fe608060405234801561000f575f80fd5b5060043610610034575f3560e01c806355241077146100385780638129fc1c1461004d575b5f80fd5b61004b610046366004610157565b600155565b005b61004b5f54610100900460ff161580801561006e57505f54600160ff909116105b806100875750303b15801561008757505f5460ff166001145b6100ee5760405162461bcd60e51b815260206004820152602e60248201527f496e697469616c697a61626c653a20636f6e747261637420697320616c72656160448201526d191e481a5b9a5d1a585b1a5e995960921b606482015260840160405180910390fd5b5f805460ff19166001179055801561010f575f805461ff0019166101001790555b8015610154575f805461ff0019169055604051600181527f7f26b83ff96e1f2b6a682f133852f6798a09c465da95921460cefb38474024989060200160405180910390a15b50565b5f60208284031215610167575f80fd5b503591905056fea2646970667358221220a28311d875fc75002965b864c5acb485b8f6bb8cde03a5ad0f160acdd7d4c5c764736f6c63430008140033",
    "linkReferences": {}
  },
  "methodIdentifiers": {
    "initialize()": "8129fc1c",
    "setValue(uint256)": "55241077"
  },
  "id": 103
}