{
  "abi": [
    {
      "type": "constructor",
      "inputs": [
        {
          "name": "_token",
          "type": "address",
          "internalType": "contract IVotes"
        },
        {
          "name": "_timelock",
          "type": "address",
          "internalType": "contract TimelockController"
        }
      ],
      "stateMutability": "nonpayable"
    },
    {
      "type": "receive",
      "stateMutability": "payable"
    },
    {
      "type": "function",
      "name": "BALLOT_TYPEHASH",
      "inputs": [],
      "outputs": [
        {
          "name": "",
          "type": "bytes32",
          "internalType": "bytes32"
        }
      ],
      "stateMutability": "view"
    },
    {
      "type": "function",
      "name": "CLOCK_MODE",
      "inputs": [],
      "outputs": [
        {
          "name": "",
          "type": "string",
          "internalType": "string"
        }
      ],
      "stateMutability": "view"
    },
    {
      "type": "function",
      "name": "COUNTING_MODE",
      "inputs": [],
      "outputs": [
        {
          "name": "",
          "type": "string",
          "internalType": "string"
        }
      ],
      "stateMutability": "pure"
    },
    {
      "type": "function",
      "name": "EXTENDED_BALLOT_TYPEHASH",
      "inputs": [],
      "outputs": [
        {
          "name": "",
          "type": "bytes32",
          "internalType": "bytes32"
        }
      ],
      "stateMutability": "view"
    },
    {
      "type": "function",
      "name": "cancel",
      "inputs": [
        {
          "name": "targets",
          "type": "address[]",
          "internalType": "address[]"
        },
        {
          "name": "values",
          "type": "uint256[]",
          "internalType": "uint256[]"
        },
        {
          "name": "calldatas",
          "type": "bytes[]",
          "internalType": "bytes[]"
        },
        {
          "name": "descriptionHash",
          "type": "bytes32",
          "internalType": "bytes32"
        }
      ],
      "outputs": [
        {
          "name": "",
          "type": "uint256",
          "internalType": "uint256"
        }
      ],
      "stateMutability": "nonpayable"
    },
    {
      "type": "function",
      "name": "castVote",
      "inputs": [
        {
          "name": "proposalId",
          "type": "uint256",
          "internalType": "uint256"
        },
        {
          "name": "support",
          "type": "uint8",
          "internalType": "uint8"
        }
      ],
      "outputs": [
        {
          "name": "",
          "type": "uint256",
          "internalType": "uint256"
        }
      ],
      "stateMutability": "nonpayable"
    },
    {
      "type": "function",
      "name": "castVoteBySig",
      "inputs": [
        {
          "name": "proposalId",
          "type": "uint256",
          "internalType": "uint256"
        },
        {
          "name": "support",
          "type": "uint8",
          "internalType": "uint8"
        },
        {
          "name": "v",
          "type": "uint8",
          "internalType": "uint8"
        },
        {
          "name": "r",
          "type": "bytes32",
          "internalType": "bytes32"
        },
        {
          "name": "s",
          "type": "bytes32",
          "internalType": "bytes32"
        }
      ],
      "outputs": [
        {
          "name": "",
          "type": "uint256",
          "internalType": "uint256"
        }
      ],
      "stateMutability": "nonpayable"
    },
    {
      "type": "function",
      "name": "castVoteWithReason",
      "inputs": [
        {
          "name": "proposalId",
          "type": "uint256",
          "internalType": "uint256"
        },
        {
          "name": "support",
          "type": "uint8",
          "internalType": "uint8"
        },
        {
          "name": "reason",
          "type": "string",
          "internalType": "string"
        }
      ],
      "outputs": [
        {
          "name": "",
          "type": "uint256",
          "internalType": "uint256"
        }
      ],
      "stateMutability": "nonpayable"
    },
    {
      "type": "function",
      "name": "castVoteWithReasonAndParams",
      "inputs": [
        {
          "name": "proposalId",
          "type": "uint256",
          "internalType": "uint256"
        },
        {
          "name": "support",
          "type": "uint8",
          "internalType": "uint8"
        },
        {
          "name": "reason",
          "type": "string",
          "internalType": "string"
        },
        {
          "name": "params",
          "type": "bytes",
          "internalType": "bytes"
        }
      ],
      "outputs": [
        {
          "name": "",
          "type": "uint256",
          "internalType": "uint256"
        }
      ],
      "stateMutability": "nonpayable"
    },
    {
      "type": "function",
      "name": "castVoteWithReasonAndParamsBySig",
      "inputs": [
        {
          "name": "proposalId",
          "type": "uint256",
          "internalType": "uint256"
        },
        {
          "name": "support",
          "type": "uint8",
          "internalType": "uint8"
        },
        {
          "name": "reason",
          "type": "string",
          "internalType": "string"
        },
        {
          "name": "params",
          "type": "bytes",
          "internalType": "bytes"
        },
        {
          "name": "v",
          "type": "uint8",
          "internalType": "uint8"
        },
        {
          "name": "r",
          "type": "bytes32",
          "internalType": "bytes32"
        },
        {
          "name": "s",
          "type": "bytes32",
          "internalType": "bytes32"
        }
      ],
      "outputs": [
        {
          "name": "",
          "type": "uint256",
          "internalType": "uint256"
        }
      ],
      "stateMutability": "nonpayable"
    },
    {
      "type": "function",
      "name": "clock",
      "inputs": [],
      "outputs": [
        {
          "name": "",
          "type": "uint48",
          "internalType": "uint48"
        }
      ],
      "stateMutability": "view"
    },
    {
      "type": "function",
      "name": "eip712Domain",
      "inputs": [],
      "outputs": [
        {
          "name": "fields",
          "type": "bytes1",
          "internalType": "bytes1"
        },
        {
          "name": "name",
          "type": "string",
          "internalType": "string"
        },
        {
          "name": "version",
          "type": "string",
          "internalType": "string"
        },
        {
          "name": "chainId",
          "type": "uint256",
          "internalType": "uint256"
        },
        {
          "name": "verifyingContract",
          "type": "address",
          "internalType": "address"
        },
        {
          "name": "salt",
          "type": "bytes32",
          "internalType": "bytes32"
        },
        {
          "name": "extensions",
          "type": "uint256[]",
          "internalType": "uint256[]"
        }
      ],
      "stateMutability": "view"
    },
    {
      "type": "function",
      "name": "execute",
      "inputs": [
        {
          "name": "targets",
          "type": "address[]",
          "internalType": "address[]"
        },
        {
          "name": "values",
          "type": "uint256[]",
          "internalType": "uint256[]"
        },
        {
          "name": "calldatas",
          "type": "bytes[]",
          "internalType": "bytes[]"
        },
        {
          "name": "descriptionHash",
          "type": "bytes32",
          "internalType": "bytes32"
        }
      ],
      "outputs": [
        {
          "name": "",
          "type": "uint256",
          "internalType": "uint256"
        }
      ],
      "stateMutability": "payable"
    },
    {
      "type": "function",
      "name": "getVotes",
      "inputs": [
        {
          "name": "account",
          "type": "address",
          "internalType": "address"
        },
        {
          "name": "timepoint",
          "type": "uint256",
          "internalType": "uint256"
        }
      ],
      "outputs": [
        {
          "name": "",
          "type": "uint256",
          "internalType": "uint256"
        }
      ],
      "stateMutability": "view"
    },
    {
      "type": "function",
      "name": "getVotesWithParams",
      "inputs": [
        {
          "name": "account",
          "type": "address",
          "internalType": "address"
        },
        {
          "name": "timepoint",
          "type": "uint256",
          "internalType": "uint256"
        },
        {
          "name": "params",
          "type": "bytes",
          "internalType": "bytes"
        }
      ],
      "outputs": [
        {
          "name": "",
          "type": "uint256",
          "internalType": "uint256"
        }
      ],
      "stateMutability": "view"
    },
    {
      "type": "function",
      "name": "hasVoted",
      "inputs": [
        {
          "name": "proposalId",
          "type": "uint256",
          "internalType": "uint256"
        },
        {
          "name": "account",
          "type": "address",
          "internalType": "address"
        }
      ],
      "outputs": [
        {
          "name": "",
          "type": "bool",
          "internalType": "bool"
        }
      ],
      "stateMutability": "view"
    },
    {
      "type": "function",
      "name": "hashProposal",
      "inputs": [
        {
          "name": "targets",
          "type": "address[]",
          "internalType": "address[]"
        },
        {
          "name": "values",
          "type": "uint256[]",
          "internalType": "uint256[]"
        },
        {
          "name": "calldatas",
          "type": "bytes[]",
          "internalType": "bytes[]"
        },
        {
          "name": "descriptionHash",
          "type": "bytes32",
          "internalType": "bytes32"
        }
      ],
      "outputs": [
        {
          "name": "",
          "type": "uint256",
          "internalType": "uint256"
        }
      ],
      "stateMutability": "pure"
    },
    {
      "type": "function",
      "name": "name",
      "inputs": [],
      "outputs": [
        {
          "name": "",
          "type": "string",
          "internalType": "string"
        }
      ],
      "stateMutability": "view"
    },
    {
      "type": "function",
      "name": "onERC1155BatchReceived",
      "inputs": [
        {
          "name": "",
          "type": "address",
          "internalType": "address"
        },
        {
          "name": "",
          "type": "address",
          "internalType": "address"
        },
        {
          "name": "",
          "type": "uint256[]",
          "internalType": "uint256[]"
        },
        {
          "name": "",
          "type": "uint256[]",
          "internalType": "uint256[]"
        },
        {
          "name": "",
          "type": "bytes",
          "internalType": "bytes"
        }
      ],
      "outputs": [
        {
          "name": "",
          "type": "bytes4",
          "internalType": "bytes4"
        }
      ],
      "stateMutability": "nonpayable"
    },
    {
      "type": "function",
      "name": "onERC1155Received",
      "inputs": [
        {
          "name": "",
          "type": "address",
          "internalType": "address"
        },
        {
          "name": "",
          "type": "address",
          "internalType": "address"
        },
        {
          "name": "",
          "type": "uint256",
          "internalType": "uint256"
        },
        {
          "name": "",
          "type": "uint256",
          "internalType": "uint256"
        },
        {
          "name": "",
          "type": "bytes",
          "internalType": "bytes"
        }
      ],
      "outputs": [
        {
          "name": "",
          "type": "bytes4",
          "internalType": "bytes4"
        }
      ],
      "stateMutability": "nonpayable"
    },
    {
      "type": "function",
      "name": "onERC721Received",
      "inputs": [
        {
          "name": "",
          "type": "address",
          "internalType": "address"
        },
        {
          "name": "",
          "type": "address",
          "internalType": "address"
        },
        {
          "name": "",
          "type": "uint256",
          "internalType": "uint256"
        },
        {
          "name": "",
          "type": "bytes",
          "internalType": "bytes"
        }
      ],
      "outputs": [
        {
          "name": "",
          "type": "bytes4",
          "internalType": "bytes4"
        }
      ],
      "stateMutability": "nonpayable"
    },
    {
      "type": "function",
      "name": "proposalDeadline",
      "inputs": [
        {
          "name": "proposalId",
          "type": "uint256",
          "internalType": "uint256"
        }
      ],
      "outputs": [
        {
          "name": "",
          "type": "uint256",
          "internalType": "uint256"
        }
      ],
      "stateMutability": "view"
    },
    {
      "type": "function",
      "name": "proposalEta",
      "inputs": [
        {
          "name": "proposalId",
          "type": "uint256",
          "internalType": "uint256"
        }
      ],
      "outputs": [
        {
          "name": "",
          "type": "uint256",
          "internalType": "uint256"
        }
      ],
      "stateMutability": "view"
    },
    {
      "type": "function",
      "name": "proposalProposer",
      "inputs": [
        {
          "name": "proposalId",
          "type": "uint256",
          "internalType": "uint256"
        }
      ],
      "outputs": [
        {
          "name": "",
          "type": "address",
          "internalType": "address"
        }
      ],
      "stateMutability": "view"
    },
    {
      "type": "function",
      "name": "proposalSnapshot",
      "inputs": [
        {
          "name": "proposalId",
          "type": "uint256",
          "internalType": "uint256"
        }
      ],
      "outputs": [
        {
          "name": "",
          "type": "uint256",
          "internalType": "uint256"
        }
      ],
      "stateMutability": "view"
    },
    {
      "type": "function",
      "name": "proposalThreshold",
      "inputs": [],
      "outputs": [
        {
          "name": "",
          "type": "uint256",
          "internalType": "uint256"
        }
      ],
      "stateMutability": "pure"
    },
    {
      "type": "function",
      "name": "proposalVotes",
      "inputs": [
        {
          "name": "proposalId",
          "type": "uint256",
          "internalType": "uint256"
        }
      ],
      "outputs": [
        {
          "name": "againstVotes",
          "type": "uint256",
          "internalType": "uint256"
        },
        {
          "name": "forVotes",
          "type": "uint256",
          "internalType": "uint256"
        },
        {
          "name": "abstainVotes",
          "type": "uint256",
          "internalType": "uint256"
        }
      ],
      "stateMutability": "view"
    },
    {
      "type": "function",
      "name": "propose",
      "inputs": [
        {
          "name": "targets",
          "type": "address[]",
          "internalType": "address[]"
        },
        {
          "name": "values",
          "type": "uint256[]",
          "internalType": "uint256[]"
        },
        {
          "name": "calldatas",
          "type": "bytes[]",
          "internalType": "bytes[]"
        },
        {
          "name": "description",
          "type": "string",
          "internalType": "string"
        }
      ],
      "outputs": [
        {
          "name": "",
          "type": "uint256",
          "internalType": "uint256"
        }
      ],
      "stateMutability": "nonpayable"
    },
    {
      "type": "function",
      "name": "queue",
      "inputs": [
        {
          "name": "targets",
          "type": "address[]",
          "internalType": "address[]"
        },
        {
          "name": "values",
          "type": "uint256[]",
          "internalType": "uint256[]"
        },
        {
          "name": "calldatas",
          "type": "bytes[]",
          "internalType": "bytes[]"
        },
        {
          "name": "descriptionHash",
          "type": "bytes32",
          "internalType": "bytes32"
        }
      ],
      "outputs": [
        {
          "name": "",
          "type": "uint256",
          "internalType": "uint256"
        }
      ],
      "stateMutability": "nonpayable"
    },
    {
      "type": "function",
      "name": "quorum",
      "inputs": [
        {
          "name": "blockNumber",
          "type": "uint256",
          "internalType": "uint256"
        }
      ],
      "outputs": [
        {
          "name": "",
          "type": "uint256",
          "internalType": "uint256"
        }
      ],
      "stateMutability": "view"
    },
    {
      "type": "function",
      "name": "quorumDenominator",
      "inputs": [],
      "outputs": [
        {
          "name": "",
          "type": "uint256",
          "internalType": "uint256"
        }
      ],
      "stateMutability": "view"
    },
    {
      "type": "function",
      "name": "quorumNumerator",
      "inputs": [
        {
          "name": "timepoint",
          "type": "uint256",
          "internalType": "uint256"
        }
      ],
      "outputs": [
        {
          "name": "",
          "type": "uint256",
          "internalType": "uint256"
        }
      ],
      "stateMutability": "view"
    },
    {
      "type": "function",
      "name": "quorumNumerator",
      "inputs": [],
      "outputs": [
        {
          "name": "",
          "type": "uint256",
          "internalType": "uint256"
        }
      ],
      "stateMutability": "view"
    },
    {
      "type": "function",
      "name": "relay",
      "inputs": [
        {
          "name": "target",
          "type": "address",
          "internalType": "address"
        },
        {
          "name": "value",
          "type": "uint256",
          "internalType": "uint256"
        },
        {
          "name": "data",
          "type": "bytes",
          "internalType": "bytes"
        }
      ],
      "outputs": [],
      "stateMutability": "payable"
    },
    {
      "type": "function",
      "name": "state",
      "inputs": [
        {
          "name": "proposalId",
          "type": "uint256",
          "internalType": "uint256"
        }
      ],
      "outputs": [
        {
          "name": "",
          "type": "uint8",
          "internalType": "enum IGovernor.ProposalState"
        }
      ],
      "stateMutability": "view"
    },
    {
      "type": "function",
      "name": "supportsInterface",
      "inputs": [
        {
          "name": "interfaceId",
          "type": "bytes4",
          "internalType": "bytes4"
        }
      ],
      "outputs": [
        {
          "name": "",
          "type": "bool",
          "internalType": "bool"
        }
      ],
      "stateMutability": "view"
    },
    {
      "type": "function",
      "name": "timelock",
      "inputs": [],
      "outputs": [
        {
          "name": "",
          "type": "address",
          "internalType": "address"
        }
      ],
      "stateMutability": "view"
    },
    {
      "type": "function",
      "name": "token",
      "inputs": [],
      "outputs": [
        {
          "name": "",
          "type": "address",
          "internalType": "contract IERC5805"
        }
      ],
      "stateMutability": "view"
    },
    {
      "type": "function",
      "name": "updateQuorumNumerator",
      "inputs": [
        {
          "name": "newQuorumNumerator",
          "type": "uint256",
          "internalType": "uint256"
        }
      ],
      "outputs": [],
      "stateMutability": "nonpayable"
    },
    {
      "type": "function",
      "name": "updateTimelock",
      "inputs": [
        {
          "name": "newTimelock",
          "type": "address",
          "internalType": "contract TimelockController"
        }
      ],
      "outputs": [],
      "stateMutability": "nonpayable"
    },
    {
      "type": "function",
      "name": "version",
      "inputs": [],
      "outputs": [
        {
          "name": "",
          "type": "string",
          "internalType": "string"
        }
      ],
      "stateMutability": "view"
    },
    {
      "type": "function",
      "name": "votingDelay",
      "inputs": [],
      "outputs": [
        {
          "name": "",
          "type": "uint256",
          "internalType": "uint256"
        }
      ],
      "stateMutability": "pure"
    },
    {
      "type": "function",
      "name": "votingPeriod",
      "inputs": [],
      "outputs": [
        {
          "name": "",
          "type": "uint256",
          "internalType": "uint256"
        }
      ],
      "stateMutability": "pure"
    },
    {
      "type": "event",
      "name": "EIP712DomainChanged",
      "inputs": [],
      "anonymous": false
    },
    {
      "type": "event",
      "name": "ProposalCanceled",
      "inputs": [
        {
          "name": "proposalId",
          "type": "uint256",
          "indexed": false,
          "internalType": "uint256"
        }
      ],
      "anonymous": false
    },
    {
      "type": "event",
      "name": "ProposalCreated",
      "inputs": [
        {
          "name": "proposalId",
          "type": "uint256",
          "indexed": false,
          "internalType": "uint256"
        },
        {
          "name": "proposer",
          "type": "address",
          "indexed": false,
          "internalType": "address"
        },
        {
          "name": "targets",
          "type": "address[]",
          "indexed": false,
          "internalType": "address[]"
        },
        {
          "name": "values",
          "type": "uint256[]",
          "indexed": false,
          "internalType": "uint256[]"
        },
        {
          "name": "signatures",
          "type": "string[]",
          "indexed": false,
          "internalType": "string[]"
        },
        {
          "name": "calldatas",
          "type": "bytes[]",
          "indexed": false,
          "internalType": "bytes[]"
        },
        {
          "name": "voteStart",
          "type": "uint256",
          "indexed": false,
          "internalType": "uint256"
        },
        {
          "name": "voteEnd",
          "type": "uint256",
          "indexed": false,
          "internalType": "uint256"
        },
        {
          "name": "description",
          "type": "string",
          "indexed": false,
          "internalType": "string"
        }
      ],
      "anonymous": false
    },
    {
      "type": "event",
      "name": "ProposalExecuted",
      "inputs": [
        {
          "name": "proposalId",
          "type": "uint256",
          "indexed": false,
          "internalType": "uint256"
        }
      ],
      "anonymous": false
    },
    {
      "type": "event",
      "name": "ProposalQueued",
      "inputs": [
        {
          "name": "proposalId",
          "type": "uint256",
          "indexed": false,
          "internalType": "uint256"
        },
        {
          "name": "eta",
          "type": "uint256",
          "indexed": false,
          "internalType": "uint256"
        }
      ],
      "anonymous": false
    },
    {
      "type": "event",
      "name": "QuorumNumeratorUpdated",
      "inputs": [
        {
          "name": "oldQuorumNumerator",
          "type": "uint256",
          "indexed": false,
          "internalType": "uint256"
        },
        {
          "name": "newQuorumNumerator",
          "type": "uint256",
          "indexed": false,
          "internalType": "uint256"
        }
      ],
      "anonymous": false
    },
    {
      "type": "event",
      "name": "TimelockChange",
      "inputs": [
        {
          "name": "oldTimelock",
          "type": "address",
          "indexed": false,
          "internalType": "address"
        },
        {
          "name": "newTimelock",
          "type": "address",
          "indexed": false,
          "internalType": "address"
        }
      ],
      "anonymous": false
    },
    {
      "type": "event",
      "name": "VoteCast",
      "inputs": [
        {
          "name": "voter",
          "type": "address",
          "indexed": true,
          "internalType": "address"
        },
        {
          "name": "proposalId",
          "type": "uint256",
          "indexed": false,
          "internalType": "uint256"
        },
        {
          "name": "support",
          "type": "uint8",
          "indexed": false,
          "internalType": "uint8"
        },
        {
          "name": "weight",
          "type": "uint256",
          "indexed": false,
          "internalType": "uint256"
        },
        {
          "name": "reason",
          "type": "string",
          "indexed": false,
          "internalType": "string"
        }
      ],
      "anonymous": false
    },
    {
      "type": "event",
      "name": "VoteCastWithParams",
      "inputs": [
        {
          "name": "voter",
          "type": "address",
          "indexed": true,
          "internalType": "address"
        },
        {
          "name": "proposalId",
          "type": "uint256",
          "indexed": false,
          "internalType": "uint256"
        },
        {
          "name": "support",
          "type": "uint8",
          "indexed": false,
          "internalType": "uint8"
        },
        {
          "name": "weight",
          "type": "uint256",
          "indexed": false,
          "internalType": "uint256"
        },
        {
          "name": "reason",
          "type": "string",
          "indexed": false,
          "internalType": "string"
        },
        {
          "name": "params",
          "type": "bytes",
          "indexed": false,
          "internalType": "bytes"
        }
      ],
      "anonymous": false
    },
    {
      "type": "error",
      "name": "Empty",
      "inputs": []
    },
    {
      "type": "error",
      "name": "InvalidShortString",
      "inputs": []
    },
    {
      "type": "error",
      "name": "StringTooLong",
      "inputs": [
        {
          "name": "str",
          "type": "string",
          "internalType": "string"
        }
      ]
    }
  ],
  "bytecode": {
    "object": "0x61018060405234801562000011575f80fd5b5060405162004d4538038062004d458339810160408190526200003491620007e6565b600482826040518060400160405280600a81526020016926bca3b7bb32b93737b960b11b815250806200006c6200015d60201b60201c565b62000078825f62000178565b610120526200008981600162000178565b61014052815160208084019190912060e052815190820120610100524660a0526200011660e05161010051604080517f8b73c3c69bb8fe3d512ecc4cf759cc79239f7b179b0ffacaa9a75d522b39400f60208201529081019290925260608201524660808201523060a08201525f9060c00160405160208183030381529060405280519060200120905090565b60805250503060c05260026200012d8282620008c3565b506200013b905081620001b0565b506001600160a01b031661016052620001548162000219565b50505062000a43565b6040805180820190915260018152603160f81b602082015290565b5f60208351101562000197576200018f8362000399565b9050620001aa565b81620001a48482620008c3565b5060ff90505b92915050565b600654604080516001600160a01b03928316815291831660208301527f08f74ea46ef7894f65eabfb5e6e695de773a000b47c529ab559178069b226401910160405180910390a1600680546001600160a01b0319166001600160a01b0392909216919091179055565b6064811115620002a25760405162461bcd60e51b815260206004820152604360248201527f476f7665726e6f72566f74657351756f72756d4672616374696f6e3a2071756f60448201527f72756d4e756d657261746f72206f7665722071756f72756d44656e6f6d696e616064820152623a37b960e91b608482015260a4015b60405180910390fd5b5f620002ad620003db565b90508015801590620002bf5750600954155b156200032557604080518082019091525f815260099060208101620002e48462000409565b6001600160e01b0390811690915282546001810184555f938452602093849020835194909301519091166401000000000263ffffffff909316929092179101555b6200035a620003456200033762000477565b65ffffffffffff16620004ed565b620003508462000409565b6009919062000553565b505060408051828152602081018490527f0553476bf02ef2726e8ce5ced78d63e26e602e4a2257b1f559418e24b4633997910160405180910390a15050565b5f80829050601f81511115620003c6578260405163305a27a960e01b81526004016200029991906200098b565b8051620003d382620009d8565b179392505050565b6009545f90156200040057620003f260096200056f565b6001600160e01b0316905090565b6008545b905090565b5f6001600160e01b03821115620004735760405162461bcd60e51b815260206004820152602760248201527f53616665436173743a2076616c756520646f65736e27742066697420696e20326044820152663234206269747360c81b606482015260840162000299565b5090565b5f610160516001600160a01b03166391ddadf46040518163ffffffff1660e01b8152600401602060405180830381865afa925050508015620004d8575060408051601f3d908101601f19168201909252620004d591810190620009fc565b60015b620004e8576200040443620005ba565b919050565b5f63ffffffff821115620004735760405162461bcd60e51b815260206004820152602660248201527f53616665436173743a2076616c756520646f65736e27742066697420696e203360448201526532206269747360d01b606482015260840162000299565b5f806200056285858562000622565b915091505b935093915050565b80545f908015620005b15762000599836200058c60018462000a23565b5f91825260209091200190565b5464010000000090046001600160e01b0316620005b3565b5f5b9392505050565b5f65ffffffffffff821115620004735760405162461bcd60e51b815260206004820152602660248201527f53616665436173743a2076616c756520646f65736e27742066697420696e203460448201526538206269747360d01b606482015260840162000299565b82545f908190801562000774575f62000642876200058c60018562000a23565b60408051808201909152905463ffffffff8082168084526401000000009092046001600160e01b031660208401529192509087161015620006c65760405162461bcd60e51b815260206004820152601b60248201527f436865636b706f696e743a2064656372656173696e67206b6579730000000000604482015260640162000299565b805163ffffffff808816911603620007145784620006eb886200058c60018662000a23565b80546001600160e01b03929092166401000000000263ffffffff90921691909117905562000763565b6040805180820190915263ffffffff80881682526001600160e01b0380881660208085019182528b54600181018d555f8d81529190912094519151909216640100000000029216919091179101555b602001519250839150620005679050565b50506040805180820190915263ffffffff80851682526001600160e01b0380851660208085019182528854600181018a555f8a81529182209551925190931664010000000002919093161792019190915590508162000567565b6001600160a01b0381168114620007e3575f80fd5b50565b5f8060408385031215620007f8575f80fd5b82516200080581620007ce565b60208401519092506200081881620007ce565b809150509250929050565b634e487b7160e01b5f52604160045260245ffd5b600181811c908216806200084c57607f821691505b6020821081036200086b57634e487b7160e01b5f52602260045260245ffd5b50919050565b601f821115620008be575f81815260208120601f850160051c81016020861015620008995750805b601f850160051c820191505b81811015620008ba57828155600101620008a5565b5050505b505050565b81516001600160401b03811115620008df57620008df62000823565b620008f781620008f0845462000837565b8462000871565b602080601f8311600181146200092d575f8415620009155750858301515b5f19600386901b1c1916600185901b178555620008ba565b5f85815260208120601f198616915b828110156200095d578886015182559484019460019091019084016200093c565b50858210156200097b57878501515f19600388901b60f8161c191681555b5050505050600190811b01905550565b5f6020808352835180828501525f5b81811015620009b8578581018301518582016040015282016200099a565b505f604082860101526040601f19601f8301168501019250505092915050565b805160208083015191908110156200086b575f1960209190910360031b1b16919050565b5f6020828403121562000a0d575f80fd5b815165ffffffffffff81168114620005b3575f80fd5b81810381811115620001aa57634e487b7160e01b5f52601160045260245ffd5b60805160a05160c05160e0516101005161012051610140516101605161428a62000abb5f395f818161092a01528181610ff6015281816112b401528181611e570152611f9501525f61126201525f61123801525f61218e01525f61216601525f6120c101525f6120eb01525f612115015261428a5ff3fe608060405260043610610257575f3560e01c806360c4247f1161013f578063bc197c81116100b3578063dd4e2ba511610078578063dd4e2ba514610838578063deaaa7cc1461087d578063eb9019d4146108b0578063f23a6e61146108cf578063f8ce560a146108fa578063fc0c546a14610919575f80fd5b8063bc197c8114610787578063c01f9e37146107b2578063c28bc2fa146107e9578063c59057e4146107fc578063d33219b41461081b575f80fd5b806397c3d3341161010457806397c3d334146106e85780639a802a6d146106fb578063a7713a701461071a578063a890c9101461072e578063ab58fb8e1461074d578063b58131b01461076c575f80fd5b806360c4247f146106395780637b3c71d3146106585780637d5e81e21461067757806384b0196e1461069657806391ddadf4146106bd575f80fd5b80632fe3e261116101d6578063452115d61161019b578063452115d61461054c5780634bf5d7e91461056b578063544ffc9c1461057f57806354fd4d50146105d257806356781388146105fb5780635f398a141461061a575f80fd5b80632fe3e261146104735780633932abb1146104a65780633bccf4fd146104b95780633e4f49e6146104d85780634385963214610504575f80fd5b8063143489d01161021c578063143489d014610377578063150b7a02146103ca578063160cbed71461040d5780632656227d1461042c5780632d63f6931461043f575f80fd5b806301ffc9a7146102c657806302a251a3146102fa578063034201811461031857806306f3f9e61461033757806306fdde0314610356575f80fd5b366102c2573061026561094c565b6001600160a01b0316146102c05760405162461bcd60e51b815260206004820152601f60248201527f476f7665726e6f723a206d7573742073656e6420746f206578656375746f720060448201526064015b60405180910390fd5b005b5f80fd5b3480156102d1575f80fd5b506102e56102e036600461338d565b610964565b60405190151581526020015b60405180910390f35b348015610305575f80fd5b5061b2fa5b6040519081526020016102f1565b348015610323575f80fd5b5061030a6103323660046134cb565b610974565b348015610342575f80fd5b506102c061035136600461356a565b610a6a565b348015610361575f80fd5b5061036a610af3565b6040516102f191906135ce565b348015610382575f80fd5b506103b261039136600461356a565b5f90815260036020526040902054600160401b90046001600160a01b031690565b6040516001600160a01b0390911681526020016102f1565b3480156103d5575f80fd5b506103f46103e43660046135f4565b630a85bd0160e11b949350505050565b6040516001600160e01b031990911681526020016102f1565b348015610418575f80fd5b5061030a6104273660046137bc565b610b83565b61030a61043a3660046137bc565b610d77565b34801561044a575f80fd5b5061030a61045936600461356a565b5f908152600360205260409020546001600160401b031690565b34801561047e575f80fd5b5061030a7fb3b3f3b703cd84ce352197dcff232b1b5d3cfb2025ce47cf04742d0651f1af8881565b3480156104b1575f80fd5b50600161030a565b3480156104c4575f80fd5b5061030a6104d3366004613845565b610e66565b3480156104e3575f80fd5b506104f76104f236600461356a565b610eda565b6040516102f191906138a3565b34801561050f575f80fd5b506102e561051e3660046138c9565b5f828152600a602090815260408083206001600160a01b038516845260030190915290205460ff1692915050565b348015610557575f80fd5b5061030a6105663660046137bc565b610ee4565b348015610576575f80fd5b5061036a610ff2565b34801561058a575f80fd5b506105b761059936600461356a565b5f908152600a60205260409020805460018201546002909201549092565b604080519384526020840192909252908201526060016102f1565b3480156105dd575f80fd5b506040805180820190915260018152603160f81b602082015261036a565b348015610606575f80fd5b5061030a6106153660046138f7565b6110b2565b348015610625575f80fd5b5061030a610634366004613921565b6110d9565b348015610644575f80fd5b5061030a61065336600461356a565b611121565b348015610663575f80fd5b5061030a61067236600461399e565b6111cf565b348015610682575f80fd5b5061030a6106913660046139f3565b611215565b3480156106a1575f80fd5b506106aa61122b565b6040516102f19796959493929190613ad8565b3480156106c8575f80fd5b506106d16112b1565b60405165ffffffffffff90911681526020016102f1565b3480156106f3575f80fd5b50606461030a565b348015610706575f80fd5b5061030a610715366004613b39565b611339565b348015610725575f80fd5b5061030a61134f565b348015610739575f80fd5b506102c0610748366004613b8d565b611378565b348015610758575f80fd5b5061030a61076736600461356a565b6113fe565b348015610777575f80fd5b50683635c9adc5dea0000061030a565b348015610792575f80fd5b506103f46107a1366004613ba8565b63bc197c8160e01b95945050505050565b3480156107bd575f80fd5b5061030a6107cc36600461356a565b5f908152600360205260409020600101546001600160401b031690565b6102c06107f7366004613c34565b611494565b348015610807575f80fd5b5061030a6108163660046137bc565b61159e565b348015610826575f80fd5b506006546001600160a01b03166103b2565b348015610843575f80fd5b506040805180820190915260208082527f737570706f72743d627261766f2671756f72756d3d666f722c6162737461696e9082015261036a565b348015610888575f80fd5b5061030a7f150214d74d59b7d1e90c73fc22ef3d991dd0a76b046543d4d80ab92d2a50328f81565b3480156108bb575f80fd5b5061030a6108ca366004613c73565b6115d7565b3480156108da575f80fd5b506103f46108e9366004613c9d565b63f23a6e6160e01b95945050505050565b348015610905575f80fd5b5061030a61091436600461356a565b6115f6565b348015610924575f80fd5b506103b27f000000000000000000000000000000000000000000000000000000000000000081565b5f61095f6006546001600160a01b031690565b905090565b5f61096e82611600565b92915050565b5f80610a17610a0f7fb3b3f3b703cd84ce352197dcff232b1b5d3cfb2025ce47cf04742d0651f1af888c8c8c8c6040516109af929190613d00565b60405180910390208b805190602001206040516020016109f4959493929190948552602085019390935260ff9190911660408401526060830152608082015260a00190565b60405160208183030381529060405280519060200120611624565b868686611650565b9050610a5c8a828b8b8b8080601f0160208091040260200160405190810160405280939291908181526020018383808284375f920191909152508d925061166c915050565b9a9950505050505050505050565b610a7261094c565b6001600160a01b0316336001600160a01b031614610aa25760405162461bcd60e51b81526004016102b790613d0f565b30610aab61094c565b6001600160a01b031614610ae7575f8036604051610aca929190613d00565b604051809103902090505b80610ae060046117be565b03610ad557505b610af08161183b565b50565b606060028054610b0290613d46565b80601f0160208091040260200160405190810160405280929190818152602001828054610b2e90613d46565b8015610b795780601f10610b5057610100808354040283529160200191610b79565b820191905f5260205f20905b815481529060010190602001808311610b5c57829003601f168201915b5050505050905090565b5f80610b918686868661159e565b90506004610b9e82610eda565b6007811115610baf57610baf61388f565b14610bcc5760405162461bcd60e51b81526004016102b790613d7e565b6006546040805163793d064960e11b815290515f926001600160a01b03169163f27a0c929160048083019260209291908290030181865afa158015610c13573d5f803e3d5ffd5b505050506040513d601f19601f82011682018060405250810190610c379190613dbf565b60065460405163b1c5f42760e01b81529192506001600160a01b03169063b1c5f42790610c70908a908a908a905f908b90600401613e60565b602060405180830381865afa158015610c8b573d5f803e3d5ffd5b505050506040513d601f19601f82011682018060405250810190610caf9190613dbf565b5f838152600760205260408082209290925560065491516308f2a0bb60e41b81526001600160a01b0390921691638f2a0bb091610cf9918b918b918b91908b908990600401613ead565b5f604051808303815f87803b158015610d10575f80fd5b505af1158015610d22573d5f803e3d5ffd5b505050507f9a2e42fd6722813d69113e7d0079d3d940171428df7373df9c7f7617cfda2892828242610d549190613f18565b604080519283526020830191909152015b60405180910390a15095945050505050565b5f80610d858686868661159e565b90505f610d9182610eda565b90506004816007811115610da757610da761388f565b1480610dc457506005816007811115610dc257610dc261388f565b145b610de05760405162461bcd60e51b81526004016102b790613d7e565b5f8281526003602052604090819020600201805460ff19166001179055517f712ae1383f79ac853f8d882153778e0260ef8f03b504e2866e0593e04d2b291f90610e2d9084815260200190565b60405180910390a1610e4282888888886119a6565b610e4f8288888888611a47565b610e5c8288888888611a54565b5095945050505050565b604080517f150214d74d59b7d1e90c73fc22ef3d991dd0a76b046543d4d80ab92d2a50328f602082015290810186905260ff851660608201525f908190610eb390610a0f906080016109f4565b9050610ecf87828860405180602001604052805f815250611a8c565b979650505050505050565b5f61096e82611aad565b5f80610ef28686868661159e565b90505f610efe82610eda565b6007811115610f0f57610f0f61388f565b14610f5c5760405162461bcd60e51b815260206004820152601c60248201527f476f7665726e6f723a20746f6f206c61746520746f2063616e63656c0000000060448201526064016102b7565b5f81815260036020526040902054600160401b90046001600160a01b0316336001600160a01b031614610fdc5760405162461bcd60e51b815260206004820152602260248201527f476f7665726e6f723a206f6e6c792070726f706f7365722063616e2063616e63604482015261195b60f21b60648201526084016102b7565b610fe886868686611bf1565b9695505050505050565b60607f00000000000000000000000000000000000000000000000000000000000000006001600160a01b0316634bf5d7e96040518163ffffffff1660e01b81526004015f60405180830381865afa92505050801561107157506040513d5f823e601f3d908101601f1916820160405261106e9190810190613f2b565b60015b6110ad575060408051808201909152601d81527f6d6f64653d626c6f636b6e756d6265722666726f6d3d64656661756c74000000602082015290565b919050565b5f803390506110d184828560405180602001604052805f815250611a8c565b949350505050565b5f80339050610ecf87828888888080601f0160208091040260200160405190810160405280939291908181526020018383808284375f920191909152508a925061166c915050565b6009545f90808203611137575050600854919050565b5f6009611145600184613f93565b8154811061115557611155613fa6565b5f9182526020918290206040805180820190915291015463ffffffff8116808352600160201b9091046001600160e01b031692820192909252915084106111aa57602001516001600160e01b03169392505050565b6111be6111b685611bfe565b600990611c66565b6001600160e01b0316949350505050565b5f80339050610fe886828787878080601f0160208091040260200160405190810160405280939291908181526020018383808284375f92019190915250611a8c92505050565b5f61122285858585611d13565b95945050505050565b5f6060808280808361125d7f000000000000000000000000000000000000000000000000000000000000000083611d20565b6112887f00000000000000000000000000000000000000000000000000000000000000006001611d20565b604080515f80825260208201909252600f60f81b9b939a50919850469750309650945092509050565b5f7f00000000000000000000000000000000000000000000000000000000000000006001600160a01b03166391ddadf46040518163ffffffff1660e01b8152600401602060405180830381865afa92505050801561132c575060408051601f3d908101601f1916820190925261132991810190613fba565b60015b6110ad5761095f43611dc9565b5f611345848484611e2f565b90505b9392505050565b6009545f9015611371576113636009611ec2565b6001600160e01b0316905090565b5060085490565b61138061094c565b6001600160a01b0316336001600160a01b0316146113b05760405162461bcd60e51b81526004016102b790613d0f565b306113b961094c565b6001600160a01b0316146113f5575f80366040516113d8929190613d00565b604051809103902090505b806113ee60046117be565b036113e357505b610af081611ef1565b6006545f8281526007602052604080822054905163d45c443560e01b81526004810191909152909182916001600160a01b039091169063d45c443590602401602060405180830381865afa158015611458573d5f803e3d5ffd5b505050506040513d601f19601f8201168201806040525081019061147c9190613dbf565b90508060011461148c5780611348565b5f9392505050565b61149c61094c565b6001600160a01b0316336001600160a01b0316146114cc5760405162461bcd60e51b81526004016102b790613d0f565b306114d561094c565b6001600160a01b031614611511575f80366040516114f4929190613d00565b604051809103902090505b8061150a60046117be565b036114ff57505b5f80856001600160a01b031685858560405161152e929190613d00565b5f6040518083038185875af1925050503d805f8114611568576040519150601f19603f3d011682016040523d82523d5f602084013e61156d565b606091505b5091509150611595828260405180606001604052806028815260200161422d60289139611f5a565b50505050505050565b5f848484846040516020016115b69493929190613fdf565b60408051601f19818403018152919052805160209091012095945050505050565b5f61134883836115f160408051602081019091525f815290565b611e2f565b5f61096e82611f73565b5f6001600160e01b03198216636e665ced60e01b148061096e575061096e8261201a565b5f61096e6116306120b5565b8360405161190160f01b8152600281019290925260228201526042902090565b5f805f61165f878787876121de565b91509150610e5c8161229b565b5f858152600360205260408120600161168488610eda565b60078111156116955761169561388f565b146116ee5760405162461bcd60e51b815260206004820152602360248201527f476f7665726e6f723a20766f7465206e6f742063757272656e746c792061637460448201526269766560e81b60648201526084016102b7565b80545f906117079088906001600160401b031686611e2f565b905061171688888884886123e4565b83515f0361176a57866001600160a01b03167fb8e138887d0aa13bab447e82de9d5c1777041ecd21ca36ba824ff1e6c07ddda48988848960405161175d9493929190614029565b60405180910390a2610ecf565b866001600160a01b03167fe2babfbac5889a709b63bb7f598b324e08bc5a4fb9ec647fb3cbc9ec07eb871289888489896040516117ab959493929190614050565b60405180910390a2979650505050505050565b5f6117d88254600f81810b600160801b909204900b131590565b156117f657604051631ed9509560e11b815260040160405180910390fd5b508054600f0b5f818152600180840160205260408220805492905583546fffffffffffffffffffffffffffffffff191692016001600160801b03169190911790915590565b60648111156118be5760405162461bcd60e51b815260206004820152604360248201527f476f7665726e6f72566f74657351756f72756d4672616374696f6e3a2071756f60448201527f72756d4e756d657261746f72206f7665722071756f72756d44656e6f6d696e616064820152623a37b960e91b608482015260a4016102b7565b5f6118c761134f565b905080158015906118d85750600954155b1561193a57604080518082019091525f8152600990602081016118fa84612557565b6001600160e01b0390811690915282546001810184555f93845260209384902083519490930151909116600160201b0263ffffffff909316929092179101555b6119676119556119486112b1565b65ffffffffffff16611bfe565b61195e84612557565b600991906125bf565b505060408051828152602081018490527f0553476bf02ef2726e8ce5ced78d63e26e602e4a2257b1f559418e24b4633997910160405180910390a15050565b306119af61094c565b6001600160a01b031614611a40575f5b8451811015611a3e57306001600160a01b03168582815181106119e4576119e4613fa6565b60200260200101516001600160a01b031603611a2e57611a2e838281518110611a0f57611a0f613fa6565b60200260200101518051906020012060046125d990919063ffffffff16565b611a3781614095565b90506119bf565b505b5050505050565b611a408585858585612614565b30611a5d61094c565b6001600160a01b031614611a4057600454600f81810b600160801b909204900b1315611a40575f600455611a40565b5f61122285858585611aa860408051602081019091525f815290565b61166c565b5f80611ab883612683565b90506004816007811115611ace57611ace61388f565b14611ad95792915050565b5f8381526007602052604090205480611af3575092915050565b600654604051632ab0f52960e01b8152600481018390526001600160a01b0390911690632ab0f52990602401602060405180830381865afa158015611b3a573d5f803e3d5ffd5b505050506040513d601f19601f82011682018060405250810190611b5e91906140ad565b15611b6d575060079392505050565b600654604051632c258a9f60e11b8152600481018390526001600160a01b039091169063584b153e90602401602060405180830381865afa158015611bb4573d5f803e3d5ffd5b505050506040513d601f19601f82011682018060405250810190611bd891906140ad565b15611be7575060059392505050565b5060029392505050565b5f611222858585856127bd565b5f63ffffffff821115611c625760405162461bcd60e51b815260206004820152602660248201527f53616665436173743a2076616c756520646f65736e27742066697420696e203360448201526532206269747360d01b60648201526084016102b7565b5090565b81545f9081816005811115611cc0575f611c7f84612866565b611c899085613f93565b5f8881526020902090915081015463ffffffff9081169087161015611cb057809150611cbe565b611cbb816001613f18565b92505b505b5f611ccd8787858561294a565b90508015611d0757611cf187611ce4600184613f93565b5f91825260209091200190565b54600160201b90046001600160e01b0316610ecf565b5f979650505050505050565b5f611222858585856129a5565b606060ff8314611d3a57611d3383612d6a565b905061096e565b818054611d4690613d46565b80601f0160208091040260200160405190810160405280929190818152602001828054611d7290613d46565b8015611dbd5780601f10611d9457610100808354040283529160200191611dbd565b820191905f5260205f20905b815481529060010190602001808311611da057829003601f168201915b5050505050905061096e565b5f65ffffffffffff821115611c625760405162461bcd60e51b815260206004820152602660248201527f53616665436173743a2076616c756520646f65736e27742066697420696e203460448201526538206269747360d01b60648201526084016102b7565b604051630748d63560e31b81526001600160a01b038481166004830152602482018490525f917f000000000000000000000000000000000000000000000000000000000000000090911690633a46b1a890604401602060405180830381865afa158015611e9e573d5f803e3d5ffd5b505050506040513d601f19601f820116820180604052508101906113459190613dbf565b80545f90801561148c57611edb83611ce4600184613f93565b54600160201b90046001600160e01b0316611348565b600654604080516001600160a01b03928316815291831660208301527f08f74ea46ef7894f65eabfb5e6e695de773a000b47c529ab559178069b226401910160405180910390a1600680546001600160a01b0319166001600160a01b0392909216919091179055565b60608315611f69575081611348565b6113488383612da7565b5f6064611f7f83611121565b604051632394e7a360e21b8152600481018590527f00000000000000000000000000000000000000000000000000000000000000006001600160a01b031690638e539e8c90602401602060405180830381865afa158015611fe2573d5f803e3d5ffd5b505050506040513d601f19601f820116820180604052508101906120069190613dbf565b61201091906140cc565b61096e91906140f7565b5f63288ace0360e11b6318df743f60e31b63bf26d89760e01b6379dd796f60e01b6001600160e01b0319861682148061205f57506001600160e01b0319868116908216145b8061207657506001600160e01b0319868116908516145b8061209157506001600160e01b03198616630271189760e51b145b80610fe857506301ffc9a760e01b6001600160e01b03198716149695505050505050565b5f306001600160a01b037f00000000000000000000000000000000000000000000000000000000000000001614801561210d57507f000000000000000000000000000000000000000000000000000000000000000046145b1561213757507f000000000000000000000000000000000000000000000000000000000000000090565b61095f604080517f8b73c3c69bb8fe3d512ecc4cf759cc79239f7b179b0ffacaa9a75d522b39400f60208201527f0000000000000000000000000000000000000000000000000000000000000000918101919091527f000000000000000000000000000000000000000000000000000000000000000060608201524660808201523060a08201525f9060c00160405160208183030381529060405280519060200120905090565b5f807f7fffffffffffffffffffffffffffffff5d576e7357a4501ddfe92f46681b20a083111561221357505f90506003612292565b604080515f8082526020820180845289905260ff881692820192909252606081018690526080810185905260019060a0016020604051602081039080840390855afa158015612264573d5f803e3d5ffd5b5050604051601f1901519150506001600160a01b03811661228c575f60019250925050612292565b91505f90505b94509492505050565b5f8160048111156122ae576122ae61388f565b036122b65750565b60018160048111156122ca576122ca61388f565b036123175760405162461bcd60e51b815260206004820152601860248201527f45434453413a20696e76616c6964207369676e6174757265000000000000000060448201526064016102b7565b600281600481111561232b5761232b61388f565b036123785760405162461bcd60e51b815260206004820152601f60248201527f45434453413a20696e76616c6964207369676e6174757265206c656e6774680060448201526064016102b7565b600381600481111561238c5761238c61388f565b03610af05760405162461bcd60e51b815260206004820152602260248201527f45434453413a20696e76616c6964207369676e6174757265202773272076616c604482015261756560f01b60648201526084016102b7565b5f858152600a602090815260408083206001600160a01b0388168452600381019092529091205460ff161561246b5760405162461bcd60e51b815260206004820152602760248201527f476f7665726e6f72566f74696e6753696d706c653a20766f746520616c726561604482015266191e4818d85cdd60ca1b60648201526084016102b7565b6001600160a01b0385165f9081526003820160205260409020805460ff1916600117905560ff84166124b45782815f015f8282546124a99190613f18565b90915550611a3e9050565b5f1960ff8516016124d25782816001015f8282546124a99190613f18565b60011960ff8516016124f15782816002015f8282546124a99190613f18565b60405162461bcd60e51b815260206004820152603560248201527f476f7665726e6f72566f74696e6753696d706c653a20696e76616c69642076616044820152746c756520666f7220656e756d20566f74655479706560581b60648201526084016102b7565b5f6001600160e01b03821115611c625760405162461bcd60e51b815260206004820152602760248201527f53616665436173743a2076616c756520646f65736e27742066697420696e20326044820152663234206269747360c81b60648201526084016102b7565b5f806125cc858585612dd1565b915091505b935093915050565b8154600160801b90819004600f0b5f818152600180860160205260409091209390935583546001600160801b03908116939091011602179055565b60065460405163e38335e560e01b81526001600160a01b039091169063e38335e590349061264e908890889088905f908990600401613e60565b5f604051808303818588803b158015612665575f80fd5b505af1158015612677573d5f803e3d5ffd5b50505050505050505050565b5f818152600360205260408120600281015460ff16156126a65750600792915050565b6002810154610100900460ff16156126c15750600292915050565b5f838152600360205260408120546001600160401b0316908190036127285760405162461bcd60e51b815260206004820152601d60248201527f476f7665726e6f723a20756e6b6e6f776e2070726f706f73616c20696400000060448201526064016102b7565b5f6127316112b1565b65ffffffffffff16905080821061274c57505f949350505050565b5f858152600360205260409020600101546001600160401b03168181106127795750600195945050505050565b61278286612f6c565b80156127a057505f868152600a602052604090208054600190910154115b156127b15750600495945050505050565b50600395945050505050565b5f806127cb86868686612fb6565b5f8181526007602052604090205490915015611222576006545f828152600760205260409081902054905163c4d252f560e01b81526001600160a01b039092169163c4d252f5916128229160040190815260200190565b5f604051808303815f87803b158015612839575f80fd5b505af115801561284b573d5f803e3d5ffd5b5050505f828152600760205260408120555095945050505050565b5f815f0361287557505f919050565b5f6001612881846130bf565b901c6001901b9050600181848161289a5761289a6140e3565b048201901c905060018184816128b2576128b26140e3565b048201901c905060018184816128ca576128ca6140e3565b048201901c905060018184816128e2576128e26140e3565b048201901c905060018184816128fa576128fa6140e3565b048201901c90506001818481612912576129126140e3565b048201901c9050600181848161292a5761292a6140e3565b048201901c905061134881828581612944576129446140e3565b04613152565b5f5b8183101561299d575f61295f8484613167565b5f8781526020902090915063ffffffff86169082015463ffffffff16111561298957809250612997565b612994816001613f18565b93505b5061294c565b509392505050565b5f336129b18184613181565b6129fd5760405162461bcd60e51b815260206004820152601d60248201527f476f7665726e6f723a2070726f706f736572207265737472696374656400000060448201526064016102b7565b5f612a066112b1565b65ffffffffffff169050683635c9adc5dea00000612a29836108ca600185613f93565b1015612a915760405162461bcd60e51b815260206004820152603160248201527f476f7665726e6f723a2070726f706f73657220766f7465732062656c6f7720706044820152701c9bdc1bdcd85b081d1a1c995cda1bdb19607a1b60648201526084016102b7565b5f612aa5888888888051906020012061159e565b90508651885114612ac85760405162461bcd60e51b81526004016102b790614116565b8551885114612ae95760405162461bcd60e51b81526004016102b790614116565b5f885111612b395760405162461bcd60e51b815260206004820152601860248201527f476f7665726e6f723a20656d7074792070726f706f73616c000000000000000060448201526064016102b7565b5f818152600360205260409020546001600160401b031615612ba75760405162461bcd60e51b815260206004820152602160248201527f476f7665726e6f723a2070726f706f73616c20616c72656164792065786973746044820152607360f81b60648201526084016102b7565b5f612bb3600184613f18565b90505f612bc261b2fa83613f18565b90506040518060e00160405280612bd88461326f565b6001600160401b031681526001600160a01b03871660208201525f6040820152606001612c048361326f565b6001600160401b0390811682525f60208084018290526040808501839052606094850183905288835260038252918290208551815492870151878501519186166001600160e01b031990941693909317600160401b6001600160a01b039094168402176001600160e01b0316600160e01b60e09290921c91909102178155938501516080860151908416921c0217600183015560a08301516002909201805460c09094015161ffff1990941692151561ff00191692909217610100931515939093029290921790558a517f7d84a6263ae0d98d3329bd7b46bb4e8d6f98cd35a7adb45c274c8b7fd5ebd5e091859188918e918e91811115612d0757612d07613408565b604051908082528060200260200182016040528015612d3a57816020015b6060815260200190600190039081612d255790505b508d88888f604051612d5499989796959493929190614157565b60405180910390a1509098975050505050505050565b60605f612d76836132d6565b6040805160208082528183019092529192505f91906020820181803683375050509182525060208101929092525090565b815115612db75781518083602001fd5b8060405162461bcd60e51b81526004016102b791906135ce565b82545f9081908015612f14575f612ded87611ce4600185613f93565b60408051808201909152905463ffffffff808216808452600160201b9092046001600160e01b031660208401529192509087161015612e6e5760405162461bcd60e51b815260206004820152601b60248201527f436865636b706f696e743a2064656372656173696e67206b657973000000000060448201526064016102b7565b805163ffffffff808816911603612eb65784612e8f88611ce4600186613f93565b80546001600160e01b0392909216600160201b0263ffffffff909216919091179055612f04565b6040805180820190915263ffffffff80881682526001600160e01b0380881660208085019182528b54600181018d555f8d81529190912094519151909216600160201b029216919091179101555b6020015192508391506125d19050565b50506040805180820190915263ffffffff80851682526001600160e01b0380851660208085019182528854600181018a555f8a815291822095519251909316600160201b0291909316179201919091559050816125d1565b5f818152600a6020526040812060028101546001820154612f8d9190613f18565b5f84815260036020526040902054612fad906001600160401b03166115f6565b11159392505050565b5f80612fc48686868661159e565b90505f612fd082610eda565b90506002816007811115612fe657612fe661388f565b14158015613006575060068160078111156130035761300361388f565b14155b8015613024575060078160078111156130215761302161388f565b14155b6130705760405162461bcd60e51b815260206004820152601d60248201527f476f7665726e6f723a2070726f706f73616c206e6f742061637469766500000060448201526064016102b7565b5f8281526003602052604090819020600201805461ff001916610100179055517f789cf55be980739dad1d0699b93b58e806b51c9d96619bfa8fe0a28abaa7b30c90610d659084815260200190565b5f80608083901c156130d357608092831c92015b604083901c156130e557604092831c92015b602083901c156130f757602092831c92015b601083901c1561310957601092831c92015b600883901c1561311b57600892831c92015b600483901c1561312d57600492831c92015b600283901c1561313f57600292831c92015b600183901c1561096e5760010192915050565b5f8183106131605781611348565b5090919050565b5f61317560028484186140f7565b61134890848416613f18565b80515f90603481101561319857600191505061096e565b82810160131901516001600160a01b031981166b046e0e4dee0dee6cae47a60f60a31b146131cb5760019250505061096e565b5f806131d8602885613f93565b90505b8381101561324e575f8061320e8884815181106131fa576131fa613fa6565b01602001516001600160f81b0319166132fd565b9150915081613226576001965050505050505061096e565b8060ff166004856001600160a01b0316901b17935050508061324790614095565b90506131db565b50856001600160a01b0316816001600160a01b031614935050505092915050565b5f6001600160401b03821115611c625760405162461bcd60e51b815260206004820152602660248201527f53616665436173743a2076616c756520646f65736e27742066697420696e203660448201526534206269747360d01b60648201526084016102b7565b5f60ff8216601f81111561096e57604051632cd44ac360e21b815260040160405180910390fd5b5f8060f883901c602f811180156133175750603a8160ff16105b1561332c57600194602f199091019350915050565b8060ff166040108015613342575060478160ff16105b15613357576001946036199091019350915050565b8060ff16606010801561336d575060678160ff16105b15613382576001946056199091019350915050565b505f93849350915050565b5f6020828403121561339d575f80fd5b81356001600160e01b031981168114611348575f80fd5b803560ff811681146110ad575f80fd5b5f8083601f8401126133d4575f80fd5b5081356001600160401b038111156133ea575f80fd5b602083019150836020828501011115613401575f80fd5b9250929050565b634e487b7160e01b5f52604160045260245ffd5b604051601f8201601f191681016001600160401b038111828210171561344457613444613408565b604052919050565b5f6001600160401b0382111561346457613464613408565b50601f01601f191660200190565b5f61348461347f8461344c565b61341c565b9050828152838383011115613497575f80fd5b828260208301375f602084830101529392505050565b5f82601f8301126134bc575f80fd5b61134883833560208501613472565b5f805f805f805f8060e0898b0312156134e2575f80fd5b883597506134f260208a016133b4565b965060408901356001600160401b038082111561350d575f80fd5b6135198c838d016133c4565b909850965060608b0135915080821115613531575f80fd5b5061353e8b828c016134ad565b94505061354d60808a016133b4565b925060a0890135915060c089013590509295985092959890939650565b5f6020828403121561357a575f80fd5b5035919050565b5f5b8381101561359b578181015183820152602001613583565b50505f910152565b5f81518084526135ba816020860160208601613581565b601f01601f19169290920160200192915050565b602081525f61134860208301846135a3565b6001600160a01b0381168114610af0575f80fd5b5f805f8060808587031215613607575f80fd5b8435613612816135e0565b93506020850135613622816135e0565b92506040850135915060608501356001600160401b03811115613643575f80fd5b61364f878288016134ad565b91505092959194509250565b5f6001600160401b0382111561367357613673613408565b5060051b60200190565b5f82601f83011261368c575f80fd5b8135602061369c61347f8361365b565b82815260059290921b840181019181810190868411156136ba575f80fd5b8286015b848110156136de5780356136d1816135e0565b83529183019183016136be565b509695505050505050565b5f82601f8301126136f8575f80fd5b8135602061370861347f8361365b565b82815260059290921b84018101918181019086841115613726575f80fd5b8286015b848110156136de578035835291830191830161372a565b5f82601f830112613750575f80fd5b8135602061376061347f8361365b565b82815260059290921b8401810191818101908684111561377e575f80fd5b8286015b848110156136de5780356001600160401b038111156137a0575f8081fd5b6137ae8986838b01016134ad565b845250918301918301613782565b5f805f80608085870312156137cf575f80fd5b84356001600160401b03808211156137e5575f80fd5b6137f18883890161367d565b95506020870135915080821115613806575f80fd5b613812888389016136e9565b94506040870135915080821115613827575f80fd5b5061383487828801613741565b949793965093946060013593505050565b5f805f805f60a08688031215613859575f80fd5b85359450613869602087016133b4565b9350613877604087016133b4565b94979396509394606081013594506080013592915050565b634e487b7160e01b5f52602160045260245ffd5b60208101600883106138c357634e487b7160e01b5f52602160045260245ffd5b91905290565b5f80604083850312156138da575f80fd5b8235915060208301356138ec816135e0565b809150509250929050565b5f8060408385031215613908575f80fd5b82359150613918602084016133b4565b90509250929050565b5f805f805f60808688031215613935575f80fd5b85359450613945602087016133b4565b935060408601356001600160401b0380821115613960575f80fd5b61396c89838a016133c4565b90955093506060880135915080821115613984575f80fd5b50613991888289016134ad565b9150509295509295909350565b5f805f80606085870312156139b1575f80fd5b843593506139c1602086016133b4565b925060408501356001600160401b038111156139db575f80fd5b6139e7878288016133c4565b95989497509550505050565b5f805f8060808587031215613a06575f80fd5b84356001600160401b0380821115613a1c575f80fd5b613a288883890161367d565b95506020870135915080821115613a3d575f80fd5b613a49888389016136e9565b94506040870135915080821115613a5e575f80fd5b613a6a88838901613741565b93506060870135915080821115613a7f575f80fd5b508501601f81018713613a90575f80fd5b61364f87823560208401613472565b5f8151808452602080850194508084015f5b83811015613acd57815187529582019590820190600101613ab1565b509495945050505050565b60ff60f81b8816815260e060208201525f613af660e08301896135a3565b8281036040840152613b0881896135a3565b606084018890526001600160a01b038716608085015260a0840186905283810360c08501529050610a5c8185613a9f565b5f805f60608486031215613b4b575f80fd5b8335613b56816135e0565b92506020840135915060408401356001600160401b03811115613b77575f80fd5b613b83868287016134ad565b9150509250925092565b5f60208284031215613b9d575f80fd5b8135611348816135e0565b5f805f805f60a08688031215613bbc575f80fd5b8535613bc7816135e0565b94506020860135613bd7816135e0565b935060408601356001600160401b0380821115613bf2575f80fd5b613bfe89838a016136e9565b94506060880135915080821115613c13575f80fd5b613c1f89838a016136e9565b93506080880135915080821115613984575f80fd5b5f805f8060608587031215613c47575f80fd5b8435613c52816135e0565b93506020850135925060408501356001600160401b038111156139db575f80fd5b5f8060408385031215613c84575f80fd5b8235613c8f816135e0565b946020939093013593505050565b5f805f805f60a08688031215613cb1575f80fd5b8535613cbc816135e0565b94506020860135613ccc816135e0565b9350604086013592506060860135915060808601356001600160401b03811115613cf4575f80fd5b613991888289016134ad565b818382375f9101908152919050565b60208082526018908201527f476f7665726e6f723a206f6e6c79476f7665726e616e63650000000000000000604082015260600190565b600181811c90821680613d5a57607f821691505b602082108103613d7857634e487b7160e01b5f52602260045260245ffd5b50919050565b60208082526021908201527f476f7665726e6f723a2070726f706f73616c206e6f74207375636365737366756040820152601b60fa1b606082015260800190565b5f60208284031215613dcf575f80fd5b5051919050565b5f8151808452602080850194508084015f5b83811015613acd5781516001600160a01b031687529582019590820190600101613de8565b5f81518084526020808501808196508360051b810191508286015f5b85811015613e53578284038952613e418483516135a3565b98850198935090840190600101613e29565b5091979650505050505050565b60a081525f613e7260a0830188613dd6565b8281036020840152613e848188613a9f565b90508281036040840152613e988187613e0d565b60608401959095525050608001529392505050565b60c081525f613ebf60c0830189613dd6565b8281036020840152613ed18189613a9f565b90508281036040840152613ee58188613e0d565b60608401969096525050608081019290925260a0909101529392505050565b634e487b7160e01b5f52601160045260245ffd5b8082018082111561096e5761096e613f04565b5f60208284031215613f3b575f80fd5b81516001600160401b03811115613f50575f80fd5b8201601f81018413613f60575f80fd5b8051613f6e61347f8261344c565b818152856020838501011115613f82575f80fd5b611222826020830160208601613581565b8181038181111561096e5761096e613f04565b634e487b7160e01b5f52603260045260245ffd5b5f60208284031215613fca575f80fd5b815165ffffffffffff81168114611348575f80fd5b608081525f613ff16080830187613dd6565b82810360208401526140038187613a9f565b905082810360408401526140178186613e0d565b91505082606083015295945050505050565b84815260ff84166020820152826040820152608060608201525f610fe860808301846135a3565b85815260ff8516602082015283604082015260a060608201525f61407760a08301856135a3565b828103608084015261408981856135a3565b98975050505050505050565b5f600182016140a6576140a6613f04565b5060010190565b5f602082840312156140bd575f80fd5b81518015158114611348575f80fd5b808202811582820484141761096e5761096e613f04565b634e487b7160e01b5f52601260045260245ffd5b5f8261411157634e487b7160e01b5f52601260045260245ffd5b500490565b60208082526021908201527f476f7665726e6f723a20696e76616c69642070726f706f73616c206c656e67746040820152600d60fb1b606082015260800190565b5f6101208b8352602060018060a01b038c168185015281604085015261417f8285018c613dd6565b91508382036060850152614193828b613a9f565b915083820360808501528189518084528284019150828160051b850101838c015f5b838110156141e357601f198784030185526141d18383516135a3565b948601949250908501906001016141b5565b505086810360a08801526141f7818c613e0d565b9450505050508560c08401528460e084015282810361010084015261421c81856135a3565b9c9b50505050505050505050505056fe476f7665726e6f723a2072656c617920726576657274656420776974686f7574206d657373616765a2646970667358221220989ac018749dfa3cb3a1464b5057ce2e3c2bb4b6fcb562843128bdd85495b81864736f6c63430008140033",
    "linkReferences": {}
  },
  "methodIdentifiers": {
    "BALLOT_TYPEHASH()": "deaaa7cc",
    "CLOCK_MODE()": "4bf5d7e9",
    "COUNTING_MODE()": "dd4e2ba5",
    "EXTENDED_BALLOT_TYPEHASH()": "2fe3e261",
    "cancel(address[],uint256[],bytes[],bytes32)": "452115d6",
    "castVote(uint256,uint8)": "56781388",
    "castVoteBySig(uint256,uint8,uint8,bytes32,bytes32)": "3bccf4fd",
    "castVoteWithReason(uint256,uint8,string)": "7b3c71d3",
    "castVoteWithReasonAndParams(uint256,uint8,string,bytes)": "5f398a14",
    "castVoteWithReasonAndParamsBySig(uint256,uint8,string,bytes,uint8,bytes32,bytes32)": "03420181",
    "clock()": "91ddadf4",
    "eip712Domain()": "84b0196e",
    "execute(address[],uint256[],bytes[],bytes32)": "2656227d",
    "getVotes(address,uint256)": "eb9019d4",
    "getVotesWithParams(address,uint256,bytes)": "9a802a6d",
    "hasVoted(uint256,address)": "43859632",
    "hashProposal(address[],uint256[],bytes[],bytes32)": "c59057e4",
    "name()": "06fdde03",
    "onERC1155BatchReceived(address,address,uint256[],uint256[],bytes)": "bc197c81",
    "onERC1155Received(address,address,uint256,uint256,bytes)": "f23a6e61",
    "onERC721Received(address,address,uint256,bytes)": "150b7a02",
    "proposalDeadline(uint256)": "c01f9e37",
    "proposalEta(uint256)": "ab58fb8e",
    "proposalProposer(uint256)": "143489d0",
    "proposalSnapshot(uint256)": "2d63f693",
    "proposalThreshold()": "b58131b0",
    "proposalVotes(uint256)": "544ffc9c",
    "propose(address[],uint256[],bytes[],string)": "7d5e81e2",
    "queue(address[],uint256[],bytes[],bytes32)": "160cbed7",
    "quorum(uint256)": "f8ce560a",
    "quorumDenominator()": "97c3d334",
    "quorumNumerator()": "a7713a70",
    "quorumNumerator(uint256)": "60c4247f",
    "relay(address,uint256,bytes)": "c28bc2fa",
    "state(uint256)": "3e4f49e6",
    "supportsInterface(bytes4)": "01ffc9a7",
    "timelock()": "d33219b4",
    "token()": "fc0c546a",
    "updateQuorumNumerator(uint256)": "06f3f9e6",
    "updateTimelock(address)": "a890c910",
    "version()": "54fd4d50",
    "votingDelay()": "3932abb1",
    "votingPeriod()": "02a251a3"
  },
  "id": 151
}