{
  "abi": [
    {
      "type": "constructor",
      "inputs": [],
      "stateMutability": "nonpayable"
    },
    {
      "type": "function",
      "name": "childInitialize",
      "inputs": [],
      "outputs": [],
      "stateMutability": "nonpayable"
    },
    {
      "type": "function",
      "name": "childInitializerRan",
      "inputs": [],
      "outputs": [
        {
          "name": "",
          "type": "bool",
          "internalType": "bool"
        }
      ],
      "stateMutability": "view"
    },
    {
      "type": "function",
      "name": "initialize",
      "inputs": [],
      "outputs": [],
      "stateMutability": "nonpayable"
    },
    {
      "type": "function",
      "name": "initializeOnlyInitializing",
      "inputs": [],
      "outputs": [],
      "stateMutability": "nonpayable"
    },
    {
      "type": "function",
      "name": "initializerRan",
      "inputs": [],
      "outputs": [
        {
          "name": "",
          "type": "bool",
          "internalType": "bool"
        }
      ],
      "stateMutability": "view"
    },
    {
      "type": "function",
      "name": "onlyInitializingRan",
      "inputs": [],
      "outputs": [
        {
          "name": "",
          "type": "bool",
          "internalType": "bool"
        }
      ],
      "stateMutability": "view"
    },
    {
      "type": "event",
      "name": "Initialized",
      "inputs": [
        {
          "name": "version",
          "type": "uint8",
          "indexed": false,
          "internalType": "uint8"
        }
      ],
      "anonymous": false
    }
  ],
  "bytecode": {
    "object": "0x608060405234801561000f575f80fd5b505f54610100900460ff161580801561002e57505f54600160ff909116105b806100475750303b15801561004757505f5460ff166001145b61009c5760405162461bcd60e51b815260206004820152602e60248201525f805160206107b283398151915260448201526d191e481a5b9a5d1a585b1a5e995960921b60648201526084015b60405180910390fd5b5f805460ff1916600117905580156100bd575f805461ff0019166101001790555b6100c56101e8565b6100cd6102d6565b80156100ff575f805461ff0019169055604051600181525f805160206107d28339815191529060200160405180910390a15b505f54610100900460ff161580801561011e57505f54600160ff909116105b806101375750303b15801561013757505f5460ff166001145b6101875760405162461bcd60e51b815260206004820152602e60248201525f805160206107b283398151915260448201526d191e481a5b9a5d1a585b1a5e995960921b6064820152608401610093565b5f805460ff1916600117905580156101a8575f805461ff0019166101001790555b6101b0610354565b80156101e2575f805461ff0019169055604051600181525f805160206107d28339815191529060200160405180910390a15b5061043d565b5f54610100900460ff161580801561020657505f54600160ff909116105b8061021f5750303b15801561021f57505f5460ff166001145b61026f5760405162461bcd60e51b815260206004820152602e60248201525f805160206107b283398151915260448201526d191e481a5b9a5d1a585b1a5e995960921b6064820152608401610093565b5f805460ff191660011790558015610290575f805461ff0019166101001790555b5f805462ff000019166201000017905580156102d3575f805461ff0019169055604051600181525f805160206107d2833981519152906020015b60405180910390a15b50565b5f54610100900460ff166103405760405162461bcd60e51b815260206004820152602b60248201527f496e697469616c697a61626c653a20636f6e7472616374206973206e6f74206960448201526a6e697469616c697a696e6760a81b6064820152608401610093565b5f805463ff00000019166301000000179055565b5f54610100900460ff161580801561037257505f54600160ff909116105b8061038b5750303b15801561038b57505f5460ff166001145b6103db5760405162461bcd60e51b815260206004820152602e60248201525f805160206107b283398151915260448201526d191e481a5b9a5d1a585b1a5e995960921b6064820152608401610093565b5f805460ff1916600117905580156103fc575f805461ff0019166101001790555b5f805460ff60201b191664010000000017905580156102d3575f805461ff0019169055604051600181525f805160206107d2833981519152906020016102ca565b6103688061044a5f395ff3fe608060405234801561000f575f80fd5b5060043610610060575f3560e01c806310065ed2146100645780637cffe97a1461006e5780638129fc1c14610095578063b23d810b1461009d578063c3b8ef2a146100b1578063de74c703146100c3575b5f80fd5b61006c6100cb565b005b5f54610081906301000000900460ff1681565b604051901515815260200160405180910390f35b61006c61014e565b5f5461008190640100000000900460ff1681565b5f546100819062010000900460ff1681565b61006c61021b565b5f54610100900460ff1661013a5760405162461bcd60e51b815260206004820152602b60248201527f496e697469616c697a61626c653a20636f6e7472616374206973206e6f74206960448201526a6e697469616c697a696e6760a81b60648201526084015b60405180910390fd5b5f805463ff00000019166301000000179055565b5f54610100900460ff161580801561016c57505f54600160ff909116105b806101855750303b15801561018557505f5460ff166001145b6101a15760405162461bcd60e51b8152600401610131906102e4565b5f805460ff1916600117905580156101c2575f805461ff0019166101001790555b5f805462ff00001916620100001790558015610218575f805461ff0019169055604051600181527f7f26b83ff96e1f2b6a682f133852f6798a09c465da95921460cefb3847402498906020015b60405180910390a15b50565b5f54610100900460ff161580801561023957505f54600160ff909116105b806102525750303b15801561025257505f5460ff166001145b61026e5760405162461bcd60e51b8152600401610131906102e4565b5f805460ff19166001179055801561028f575f805461ff0019166101001790555b5f805464ff0000000019166401000000001790558015610218575f805461ff0019169055604051600181527f7f26b83ff96e1f2b6a682f133852f6798a09c465da95921460cefb38474024989060200161020f565b6020808252602e908201527f496e697469616c697a61626c653a20636f6e747261637420697320616c72656160408201526d191e481a5b9a5d1a585b1a5e995960921b60608201526080019056fea26469706673582212201a15fe64e471c1cf482699e1396394eedbe2cee2e7aa737afae6e457b98486ea64736f6c63430008140033496e697469616c697a61626c653a20636f6e747261637420697320616c7265617f26b83ff96e1f2b6a682f133852f6798a09c465da95921460cefb3847402498",
    "linkReferences": {}
  },
  "methodIdentifiers": {
    "childInitialize()": "de74c703",
    "childInitializerRan()": "b23d810b",
    "initialize()": "8129fc1c",
    "initializeOnlyInitializing()": "10065ed2",
    "initializerRan()": "c3b8ef2a",
    "onlyInitializingRan()": "7cffe97a"
  },
  "id": 96
}