{
  "abi": [
    {
      "type": "function",
      "name": "fail",
      "inputs": [],
      "outputs": [],
      "stateMutability": "pure"
    },
    {
      "type": "function",
      "name": "initialize",
      "inputs": [],
      "outputs": [],
      "stateMutability": "nonpayable"
    },
    {
      "type": "function",
      "name": "initializeOnlyInitializing",
      "inputs": [],
      "outputs": [],
      "stateMutability": "nonpayable"
    },
    {
      "type": "function",
      "name": "initializeWithX",
      "inputs": [
        {
          "name": "_x",
          "type": "uint256",
          "internalType": "uint256"
        }
      ],
      "outputs": [],
      "stateMutability": "payable"
    },
    {
      "type": "function",
      "name": "initializerNested",
      "inputs": [],
      "outputs": [],
      "stateMutability": "nonpayable"
    },
    {
      "type": "function",
      "name": "initializerRan",
      "inputs": [],
      "outputs": [
        {
          "name": "",
          "type": "bool",
          "internalType": "bool"
        }
      ],
      "stateMutability": "view"
    },
    {
      "type": "function",
      "name": "isInitializing",
      "inputs": [],
      "outputs": [
        {
          "name": "",
          "type": "bool",
          "internalType": "bool"
        }
      ],
      "stateMutability": "view"
    },
    {
      "type": "function",
      "name": "nonInitializable",
      "inputs": [
        {
          "name": "_x",
          "type": "uint256",
          "internalType": "uint256"
        }
      ],
      "outputs": [],
      "stateMutability": "payable"
    },
    {
      "type": "function",
      "name": "onlyInitializingNested",
      "inputs": [],
      "outputs": [],
      "stateMutability": "nonpayable"
    },
    {
      "type": "function",
      "name": "onlyInitializingRan",
      "inputs": [],
      "outputs": [
        {
          "name": "",
          "type": "bool",
          "internalType": "bool"
        }
      ],
      "stateMutability": "view"
    },
    {
      "type": "function",
      "name": "x",
      "inputs": [],
      "outputs": [
        {
          "name": "",
          "type": "uint256",
          "internalType": "uint256"
        }
      ],
      "stateMutability": "view"
    },
    {
      "type": "event",
      "name": "Initialized",
      "inputs": [
        {
          "name": "version",
          "type": "uint8",
          "indexed": false,
          "internalType": "uint8"
        }
      ],
      "anonymous": false
    }
  ],
  "bytecode": {
    "object": "0x608060405234801561000f575f80fd5b506105e38061001d5f395ff3fe608060405260043610610099575f3560e01c806376268ae81161006257806376268ae8146101295780637cffe97a1461013d5780638129fc1c1461015c578063a9cc471814610170578063c3b8ef2a14610184578063e955c9ec146101a2575f80fd5b806218eaa81461009d5780630c55699c146100b257806310065ed2146100da5780633ec91f05146100ee57806368449d1b14610115575b5f80fd5b6100b06100ab366004610548565b6101b5565b005b3480156100bd575f80fd5b506100c760015481565b6040519081526020015b60405180910390f35b3480156100e5575f80fd5b506100b0610280565b3480156100f9575f80fd5b505f54610100900460ff165b60405190151581526020016100d1565b348015610120575f80fd5b506100b06102fe565b348015610134575f80fd5b506100b06103c3565b348015610148575f80fd5b505f54610105906301000000900460ff1681565b348015610167575f80fd5b506100b061043b565b34801561017b575f80fd5b506100b0610500565b34801561018f575f80fd5b505f546101059062010000900460ff1681565b6100b06101b0366004610548565b600155565b5f54610100900460ff16158080156101d357505f54600160ff909116105b806101ec5750303b1580156101ec57505f5460ff166001145b6102115760405162461bcd60e51b81526004016102089061055f565b60405180910390fd5b5f805460ff191660011790558015610232575f805461ff0019166101001790555b6001829055801561027c575f805461ff0019169055604051600181527f7f26b83ff96e1f2b6a682f133852f6798a09c465da95921460cefb38474024989060200160405180910390a15b5050565b5f54610100900460ff166102ea5760405162461bcd60e51b815260206004820152602b60248201527f496e697469616c697a61626c653a20636f6e7472616374206973206e6f74206960448201526a6e697469616c697a696e6760a81b6064820152608401610208565b5f805463ff00000019166301000000179055565b5f54610100900460ff161580801561031c57505f54600160ff909116105b806103355750303b15801561033557505f5460ff166001145b6103515760405162461bcd60e51b81526004016102089061055f565b5f805460ff191660011790558015610372575f805461ff0019166101001790555b61037a610280565b80156103c0575f805461ff0019169055604051600181527f7f26b83ff96e1f2b6a682f133852f6798a09c465da95921460cefb3847402498906020015b60405180910390a15b50565b5f54610100900460ff16158080156103e157505f54600160ff909116105b806103fa5750303b1580156103fa57505f5460ff166001145b6104165760405162461bcd60e51b81526004016102089061055f565b5f805460ff191660011790558015610437575f805461ff0019166101001790555b61037a5b5f54610100900460ff161580801561045957505f54600160ff909116105b806104725750303b15801561047257505f5460ff166001145b61048e5760405162461bcd60e51b81526004016102089061055f565b5f805460ff1916600117905580156104af575f805461ff0019166101001790555b5f805462ff000019166201000017905580156103c0575f805461ff0019169055604051600181527f7f26b83ff96e1f2b6a682f133852f6798a09c465da95921460cefb3847402498906020016103b7565b60405162461bcd60e51b815260206004820181905260248201527f496e697469616c697a61626c654d6f636b20666f72636564206661696c7572656044820152606401610208565b5f60208284031215610558575f80fd5b5035919050565b6020808252602e908201527f496e697469616c697a61626c653a20636f6e747261637420697320616c72656160408201526d191e481a5b9a5d1a585b1a5e995960921b60608201526080019056fea26469706673582212201a87ad5029d22e760b8b0ff05be7b77faba35a5e167eb40b272b515403e1370164736f6c63430008140033",
    "linkReferences": {}
  },
  "methodIdentifiers": {
    "fail()": "a9cc4718",
    "initialize()": "8129fc1c",
    "initializeOnlyInitializing()": "10065ed2",
    "initializeWithX(uint256)": "0018eaa8",
    "initializerNested()": "76268ae8",
    "initializerRan()": "c3b8ef2a",
    "isInitializing()": "3ec91f05",
    "nonInitializable(uint256)": "e955c9ec",
    "onlyInitializingNested()": "68449d1b",
    "onlyInitializingRan()": "7cffe97a",
    "x()": "0c55699c"
  },
  "id": 96
}