{
  "abi": [
    {
      "type": "function",
      "name": "chainReinitialize",
      "inputs": [
        {
          "name": "i",
          "type": "uint8",
          "internalType": "uint8"
        },
        {
          "name": "j",
          "type": "uint8",
          "internalType": "uint8"
        }
      ],
      "outputs": [],
      "stateMutability": "nonpayable"
    },
    {
      "type": "function",
      "name": "counter",
      "inputs": [],
      "outputs": [
        {
          "name": "",
          "type": "uint256",
          "internalType": "uint256"
        }
      ],
      "stateMutability": "view"
    },
    {
      "type": "function",
      "name": "disableInitializers",
      "inputs": [],
      "outputs": [],
      "stateMutability": "nonpayable"
    },
    {
      "type": "function",
      "name": "doStuff",
      "inputs": [],
      "outputs": [],
      "stateMutability": "nonpayable"
    },
    {
      "type": "function",
      "name": "getInitializedVersion",
      "inputs": [],
      "outputs": [
        {
          "name": "",
          "type": "uint8",
          "internalType": "uint8"
        }
      ],
      "stateMutability": "view"
    },
    {
      "type": "function",
      "name": "initialize",
      "inputs": [],
      "outputs": [],
      "stateMutability": "nonpayable"
    },
    {
      "type": "function",
      "name": "nestedReinitialize",
      "inputs": [
        {
          "name": "i",
          "type": "uint8",
          "internalType": "uint8"
        },
        {
          "name": "j",
          "type": "uint8",
          "internalType": "uint8"
        }
      ],
      "outputs": [],
      "stateMutability": "nonpayable"
    },
    {
      "type": "function",
      "name": "reinitialize",
      "inputs": [
        {
          "name": "i",
          "type": "uint8",
          "internalType": "uint8"
        }
      ],
      "outputs": [],
      "stateMutability": "nonpayable"
    },
    {
      "type": "event",
      "name": "Initialized",
      "inputs": [
        {
          "name": "version",
          "type": "uint8",
          "indexed": false,
          "internalType": "uint8"
        }
      ],
      "anonymous": false
    }
  ],
  "bytecode": {
    "object": "0x608060405234801561000f575f80fd5b506105488061001d5f395ff3fe608060405234801561000f575f80fd5b5060043610610085575f3560e01c80638129fc1c116100585780638129fc1c146100d5578063874f33a1146100dd578063b3c65015146100e5578063f8d6cdba146100f9575f80fd5b8063073de42e1461008957806331f449001461009e57806361bc221a146100a65780636b2d8f8f146100c2575b5f80fd5b61009c61009736600461042f565b61010c565b005b61009c61019c565b6100af60015481565b6040519081526020015b60405180910390f35b61009c6100d036600461044f565b6101a6565b61009c6101bc565b61009c61026d565b5f5460405160ff90911681526020016100b9565b61009c61010736600461044f565b6102ed565b5f548190610100900460ff1615801561012b57505f5460ff8083169116105b6101505760405162461bcd60e51b815260040161014790610480565b60405180910390fd5b5f805461ffff191660ff83161761010017905561016b61026d565b5f805461ff001916905560405160ff821681525f805160206104f38339815191529060200160405180910390a15050565b6101a4610376565b565b6101af8261010c565b6101b88161010c565b5050565b5f54610100900460ff16158080156101da57505f54600160ff909116105b806101f35750303b1580156101f357505f5460ff166001145b61020f5760405162461bcd60e51b815260040161014790610480565b5f805460ff191660011790558015610230575f805461ff0019166101001790555b61023861026d565b801561026a575f805461ff0019169055604051600181525f805160206104f38339815191529060200160405180910390a15b50565b5f54610100900460ff166102d75760405162461bcd60e51b815260206004820152602b60248201527f496e697469616c697a61626c653a20636f6e7472616374206973206e6f74206960448201526a6e697469616c697a696e6760a81b6064820152608401610147565b60018054905f6102e6836104ce565b9190505550565b5f548290610100900460ff1615801561030c57505f5460ff8083169116105b6103285760405162461bcd60e51b815260040161014790610480565b5f805461ffff191660ff8316176101001790556103448261010c565b5f805461ff001916905560405160ff821681525f805160206104f38339815191529060200160405180910390a1505050565b5f54610100900460ff16156103dd5760405162461bcd60e51b815260206004820152602760248201527f496e697469616c697a61626c653a20636f6e747261637420697320696e697469604482015266616c697a696e6760c81b6064820152608401610147565b5f5460ff908116146101a4575f805460ff191660ff9081179091556040519081525f805160206104f38339815191529060200160405180910390a1565b803560ff8116811461042a575f80fd5b919050565b5f6020828403121561043f575f80fd5b6104488261041a565b9392505050565b5f8060408385031215610460575f80fd5b6104698361041a565b91506104776020840161041a565b90509250929050565b6020808252602e908201527f496e697469616c697a61626c653a20636f6e747261637420697320616c72656160408201526d191e481a5b9a5d1a585b1a5e995960921b606082015260800190565b5f600182016104eb57634e487b7160e01b5f52601160045260245ffd5b506001019056fe7f26b83ff96e1f2b6a682f133852f6798a09c465da95921460cefb3847402498a2646970667358221220f655fa9c45698cd1cda7f30992a9daa98a785b666747aa217a6e282280f30f5f64736f6c63430008140033",
    "linkReferences": {}
  },
  "methodIdentifiers": {
    "chainReinitialize(uint8,uint8)": "6b2d8f8f",
    "counter()": "61bc221a",
    "disableInitializers()": "31f44900",
    "doStuff()": "874f33a1",
    "getInitializedVersion()": "b3c65015",
    "initialize()": "8129fc1c",
    "nestedReinitialize(uint8,uint8)": "f8d6cdba",
    "reinitialize(uint8)": "073de42e"
  },
  "id": 96
}