{
  "abi": [
    {
      "type": "function",
      "name": "encode",
      "inputs": [
        {
          "name": "input",
          "type": "bytes",
          "internalType": "bytes"
        }
      ],
      "outputs": [
        {
          "name": "",
          "type": "string",
          "internalType": "string"
        }
      ],
      "stateMutability": "pure"
    }
  ],
  "bytecode": {
    "object": "0x608060405234801561000f575f80fd5b506103b68061001d5f395ff3fe608060405234801561000f575f80fd5b5060043610610029575f3560e01c806312496a1b1461002d575b5f80fd5b61004061003b3660046101e7565b610056565b60405161004d9190610292565b60405180910390f35b60408051602081019091525f19815260609061007183610078565b9392505050565b606081515f0361009557505060408051602081019091525f815290565b5f6040518060600160405280604081526020016103416040913990505f6003845160026100c291906102f1565b6100cc919061030a565b6100d7906004610329565b67ffffffffffffffff8111156100ef576100ef6101d3565b6040519080825280601f01601f191660200182016040528015610119576020820181803683370190505b509050600182016020820185865187016020810180515f82525b8284101561018e576003840193508351603f8160121c168701518653600186019550603f81600c1c168701518653600186019550603f8160061c168701518653600186019550603f8116870151865350600185019450610133565b90525050855160039006600181146101ad57600281146101c0576101c8565b603d6001830353603d60028303536101c8565b603d60018303535b509195945050505050565b634e487b7160e01b5f52604160045260245ffd5b5f602082840312156101f7575f80fd5b813567ffffffffffffffff8082111561020e575f80fd5b818401915084601f830112610221575f80fd5b813581811115610233576102336101d3565b604051601f8201601f19908116603f0116810190838211818310171561025b5761025b6101d3565b81604052828152876020848701011115610273575f80fd5b826020860160208301375f928101602001929092525095945050505050565b5f6020808352835180828501525f5b818110156102bd578581018301518582016040015282016102a1565b505f604082860101526040601f19601f8301168501019250505092915050565b634e487b7160e01b5f52601160045260245ffd5b80820180821115610304576103046102dd565b92915050565b5f8261032457634e487b7160e01b5f52601260045260245ffd5b500490565b8082028115828204841417610304576103046102dd56fe4142434445464748494a4b4c4d4e4f505152535455565758595a6162636465666768696a6b6c6d6e6f707172737475767778797a303132333435363738392b2fa2646970667358221220e6f3564885a8d32fd178208774454ea448eed0d4cb3ef3e995c30a9d1d30a10764736f6c63430008140033",
    "linkReferences": {}
  },
  "methodIdentifiers": {
    "encode(bytes)": "12496a1b"
  },
  "id": 79
}