{
  "abi": [
    {
      "type": "constructor",
      "inputs": [
        {
          "name": "name",
          "type": "string",
          "internalType": "string"
        },
        {
          "name": "symbol",
          "type": "string",
          "internalType": "string"
        },
        {
          "name": "delegates",
          "type": "address[]",
          "internalType": "address[]"
        },
        {
          "name": "receivers",
          "type": "address[]",
          "internalType": "address[]"
        },
        {
          "name": "amounts",
          "type": "uint96[]",
          "internalType": "uint96[]"
        }
      ],
      "stateMutability": "nonpayable"
    },
    {
      "type": "function",
      "name": "CLOCK_MODE",
      "inputs": [],
      "outputs": [
        {
          "name": "",
          "type": "string",
          "internalType": "string"
        }
      ],
      "stateMutability": "view"
    },
    {
      "type": "function",
      "name": "DOMAIN_SEPARATOR",
      "inputs": [],
      "outputs": [
        {
          "name": "",
          "type": "bytes32",
          "internalType": "bytes32"
        }
      ],
      "stateMutability": "view"
    },
    {
      "type": "function",
      "name": "approve",
      "inputs": [
        {
          "name": "to",
          "type": "address",
          "internalType": "address"
        },
        {
          "name": "tokenId",
          "type": "uint256",
          "internalType": "uint256"
        }
      ],
      "outputs": [],
      "stateMutability": "nonpayable"
    },
    {
      "type": "function",
      "name": "balanceOf",
      "inputs": [
        {
          "name": "owner",
          "type": "address",
          "internalType": "address"
        }
      ],
      "outputs": [
        {
          "name": "",
          "type": "uint256",
          "internalType": "uint256"
        }
      ],
      "stateMutability": "view"
    },
    {
      "type": "function",
      "name": "clock",
      "inputs": [],
      "outputs": [
        {
          "name": "",
          "type": "uint48",
          "internalType": "uint48"
        }
      ],
      "stateMutability": "view"
    },
    {
      "type": "function",
      "name": "delegate",
      "inputs": [
        {
          "name": "delegatee",
          "type": "address",
          "internalType": "address"
        }
      ],
      "outputs": [],
      "stateMutability": "nonpayable"
    },
    {
      "type": "function",
      "name": "delegateBySig",
      "inputs": [
        {
          "name": "delegatee",
          "type": "address",
          "internalType": "address"
        },
        {
          "name": "nonce",
          "type": "uint256",
          "internalType": "uint256"
        },
        {
          "name": "expiry",
          "type": "uint256",
          "internalType": "uint256"
        },
        {
          "name": "v",
          "type": "uint8",
          "internalType": "uint8"
        },
        {
          "name": "r",
          "type": "bytes32",
          "internalType": "bytes32"
        },
        {
          "name": "s",
          "type": "bytes32",
          "internalType": "bytes32"
        }
      ],
      "outputs": [],
      "stateMutability": "nonpayable"
    },
    {
      "type": "function",
      "name": "delegates",
      "inputs": [
        {
          "name": "account",
          "type": "address",
          "internalType": "address"
        }
      ],
      "outputs": [
        {
          "name": "",
          "type": "address",
          "internalType": "address"
        }
      ],
      "stateMutability": "view"
    },
    {
      "type": "function",
      "name": "eip712Domain",
      "inputs": [],
      "outputs": [
        {
          "name": "fields",
          "type": "bytes1",
          "internalType": "bytes1"
        },
        {
          "name": "name",
          "type": "string",
          "internalType": "string"
        },
        {
          "name": "version",
          "type": "string",
          "internalType": "string"
        },
        {
          "name": "chainId",
          "type": "uint256",
          "internalType": "uint256"
        },
        {
          "name": "verifyingContract",
          "type": "address",
          "internalType": "address"
        },
        {
          "name": "salt",
          "type": "bytes32",
          "internalType": "bytes32"
        },
        {
          "name": "extensions",
          "type": "uint256[]",
          "internalType": "uint256[]"
        }
      ],
      "stateMutability": "view"
    },
    {
      "type": "function",
      "name": "getApproved",
      "inputs": [
        {
          "name": "tokenId",
          "type": "uint256",
          "internalType": "uint256"
        }
      ],
      "outputs": [
        {
          "name": "",
          "type": "address",
          "internalType": "address"
        }
      ],
      "stateMutability": "view"
    },
    {
      "type": "function",
      "name": "getPastTotalSupply",
      "inputs": [
        {
          "name": "timepoint",
          "type": "uint256",
          "internalType": "uint256"
        }
      ],
      "outputs": [
        {
          "name": "",
          "type": "uint256",
          "internalType": "uint256"
        }
      ],
      "stateMutability": "view"
    },
    {
      "type": "function",
      "name": "getPastVotes",
      "inputs": [
        {
          "name": "account",
          "type": "address",
          "internalType": "address"
        },
        {
          "name": "timepoint",
          "type": "uint256",
          "internalType": "uint256"
        }
      ],
      "outputs": [
        {
          "name": "",
          "type": "uint256",
          "internalType": "uint256"
        }
      ],
      "stateMutability": "view"
    },
    {
      "type": "function",
      "name": "getVotes",
      "inputs": [
        {
          "name": "account",
          "type": "address",
          "internalType": "address"
        }
      ],
      "outputs": [
        {
          "name": "",
          "type": "uint256",
          "internalType": "uint256"
        }
      ],
      "stateMutability": "view"
    },
    {
      "type": "function",
      "name": "isApprovedForAll",
      "inputs": [
        {
          "name": "owner",
          "type": "address",
          "internalType": "address"
        },
        {
          "name": "operator",
          "type": "address",
          "internalType": "address"
        }
      ],
      "outputs": [
        {
          "name": "",
          "type": "bool",
          "internalType": "bool"
        }
      ],
      "stateMutability": "view"
    },
    {
      "type": "function",
      "name": "name",
      "inputs": [],
      "outputs": [
        {
          "name": "",
          "type": "string",
          "internalType": "string"
        }
      ],
      "stateMutability": "view"
    },
    {
      "type": "function",
      "name": "nonces",
      "inputs": [
        {
          "name": "owner",
          "type": "address",
          "internalType": "address"
        }
      ],
      "outputs": [
        {
          "name": "",
          "type": "uint256",
          "internalType": "uint256"
        }
      ],
      "stateMutability": "view"
    },
    {
      "type": "function",
      "name": "ownerOf",
      "inputs": [
        {
          "name": "tokenId",
          "type": "uint256",
          "internalType": "uint256"
        }
      ],
      "outputs": [
        {
          "name": "",
          "type": "address",
          "internalType": "address"
        }
      ],
      "stateMutability": "view"
    },
    {
      "type": "function",
      "name": "paused",
      "inputs": [],
      "outputs": [
        {
          "name": "",
          "type": "bool",
          "internalType": "bool"
        }
      ],
      "stateMutability": "view"
    },
    {
      "type": "function",
      "name": "safeTransferFrom",
      "inputs": [
        {
          "name": "from",
          "type": "address",
          "internalType": "address"
        },
        {
          "name": "to",
          "type": "address",
          "internalType": "address"
        },
        {
          "name": "tokenId",
          "type": "uint256",
          "internalType": "uint256"
        }
      ],
      "outputs": [],
      "stateMutability": "nonpayable"
    },
    {
      "type": "function",
      "name": "safeTransferFrom",
      "inputs": [
        {
          "name": "from",
          "type": "address",
          "internalType": "address"
        },
        {
          "name": "to",
          "type": "address",
          "internalType": "address"
        },
        {
          "name": "tokenId",
          "type": "uint256",
          "internalType": "uint256"
        },
        {
          "name": "data",
          "type": "bytes",
          "internalType": "bytes"
        }
      ],
      "outputs": [],
      "stateMutability": "nonpayable"
    },
    {
      "type": "function",
      "name": "setApprovalForAll",
      "inputs": [
        {
          "name": "operator",
          "type": "address",
          "internalType": "address"
        },
        {
          "name": "approved",
          "type": "bool",
          "internalType": "bool"
        }
      ],
      "outputs": [],
      "stateMutability": "nonpayable"
    },
    {
      "type": "function",
      "name": "supportsInterface",
      "inputs": [
        {
          "name": "interfaceId",
          "type": "bytes4",
          "internalType": "bytes4"
        }
      ],
      "outputs": [
        {
          "name": "",
          "type": "bool",
          "internalType": "bool"
        }
      ],
      "stateMutability": "view"
    },
    {
      "type": "function",
      "name": "symbol",
      "inputs": [],
      "outputs": [
        {
          "name": "",
          "type": "string",
          "internalType": "string"
        }
      ],
      "stateMutability": "view"
    },
    {
      "type": "function",
      "name": "tokenURI",
      "inputs": [
        {
          "name": "tokenId",
          "type": "uint256",
          "internalType": "uint256"
        }
      ],
      "outputs": [
        {
          "name": "",
          "type": "string",
          "internalType": "string"
        }
      ],
      "stateMutability": "view"
    },
    {
      "type": "function",
      "name": "transferFrom",
      "inputs": [
        {
          "name": "from",
          "type": "address",
          "internalType": "address"
        },
        {
          "name": "to",
          "type": "address",
          "internalType": "address"
        },
        {
          "name": "tokenId",
          "type": "uint256",
          "internalType": "uint256"
        }
      ],
      "outputs": [],
      "stateMutability": "nonpayable"
    },
    {
      "type": "event",
      "name": "Approval",
      "inputs": [
        {
          "name": "owner",
          "type": "address",
          "indexed": true,
          "internalType": "address"
        },
        {
          "name": "approved",
          "type": "address",
          "indexed": true,
          "internalType": "address"
        },
        {
          "name": "tokenId",
          "type": "uint256",
          "indexed": true,
          "internalType": "uint256"
        }
      ],
      "anonymous": false
    },
    {
      "type": "event",
      "name": "ApprovalForAll",
      "inputs": [
        {
          "name": "owner",
          "type": "address",
          "indexed": true,
          "internalType": "address"
        },
        {
          "name": "operator",
          "type": "address",
          "indexed": true,
          "internalType": "address"
        },
        {
          "name": "approved",
          "type": "bool",
          "indexed": false,
          "internalType": "bool"
        }
      ],
      "anonymous": false
    },
    {
      "type": "event",
      "name": "ConsecutiveTransfer",
      "inputs": [
        {
          "name": "fromTokenId",
          "type": "uint256",
          "indexed": true,
          "internalType": "uint256"
        },
        {
          "name": "toTokenId",
          "type": "uint256",
          "indexed": false,
          "internalType": "uint256"
        },
        {
          "name": "fromAddress",
          "type": "address",
          "indexed": true,
          "internalType": "address"
        },
        {
          "name": "toAddress",
          "type": "address",
          "indexed": true,
          "internalType": "address"
        }
      ],
      "anonymous": false
    },
    {
      "type": "event",
      "name": "DelegateChanged",
      "inputs": [
        {
          "name": "delegator",
          "type": "address",
          "indexed": true,
          "internalType": "address"
        },
        {
          "name": "fromDelegate",
          "type": "address",
          "indexed": true,
          "internalType": "address"
        },
        {
          "name": "toDelegate",
          "type": "address",
          "indexed": true,
          "internalType": "address"
        }
      ],
      "anonymous": false
    },
    {
      "type": "event",
      "name": "DelegateVotesChanged",
      "inputs": [
        {
          "name": "delegate",
          "type": "address",
          "indexed": true,
          "internalType": "address"
        },
        {
          "name": "previousBalance",
          "type": "uint256",
          "indexed": false,
          "internalType": "uint256"
        },
        {
          "name": "newBalance",
          "type": "uint256",
          "indexed": false,
          "internalType": "uint256"
        }
      ],
      "anonymous": false
    },
    {
      "type": "event",
      "name": "EIP712DomainChanged",
      "inputs": [],
      "anonymous": false
    },
    {
      "type": "event",
      "name": "Paused",
      "inputs": [
        {
          "name": "account",
          "type": "address",
          "indexed": false,
          "internalType": "address"
        }
      ],
      "anonymous": false
    },
    {
      "type": "event",
      "name": "Transfer",
      "inputs": [
        {
          "name": "from",
          "type": "address",
          "indexed": true,
          "internalType": "address"
        },
        {
          "name": "to",
          "type": "address",
          "indexed": true,
          "internalType": "address"
        },
        {
          "name": "tokenId",
          "type": "uint256",
          "indexed": true,
          "internalType": "uint256"
        }
      ],
      "anonymous": false
    },
    {
      "type": "event",
      "name": "Unpaused",
      "inputs": [
        {
          "name": "account",
          "type": "address",
          "indexed": false,
          "internalType": "address"
        }
      ],
      "anonymous": false
    },
    {
      "type": "error",
      "name": "InvalidShortString",
      "inputs": []
    },
    {
      "type": "error",
      "name": "StringTooLong",
      "inputs": [
        {
          "name": "str",
          "type": "string",
          "internalType": "string"
        }
      ]
    }
  ],
  "bytecode": {
    "object": "0x61016060405234801562000011575f80fd5b5060405162003e1738038062003e178339810160408190526200003491620011e5565b6040805180820190915260018152603160f81b6020820152859081865f6200005d838262001348565b5060016200006c828262001348565b50506008805460ff1916905550620000868260096200020d565b610120526200009781600a6200020d565b61014052815160208084019190912060e052815190820120610100524660a0526200012460e05161010051604080517f8b73c3c69bb8fe3d512ecc4cf759cc79239f7b179b0ffacaa9a75d522b39400f60208201529081019290925260608201524660808201523060a08201525f9060c00160405160208183030381529060405280519060200120905090565b60805250503060c0525f5b835181101562000196576200018384828151811062000152576200015262001410565b60200260200101518583815181106200016f576200016f62001410565b60200260200101516200024560201b60201c565b6200018e8162001438565b90506200012f565b505f5b82518110156200020157620001ed838281518110620001bc57620001bc62001410565b6020026020010151838381518110620001d957620001d962001410565b6020026020010151620002bf60201b60201c565b50620001f98162001438565b905062000199565b5050505050506200156a565b5f6020835110156200022c576200022483620004f9565b90506200023f565b8162000239848262001348565b5060ff90505b92915050565b6001600160a01b038281165f818152600b602052604080822080548686166001600160a01b0319821681179092559151919094169392849290917f3134e8a2e6d97e929a7e54011ea5485d7d196dd5f0ba4d4ef95803e8e3fc257f9190a4620002ba8183620002b4866200053b565b62000547565b505050565b5f80620002cb620006af565b90506001600160601b03831615620004f257303b15620003585760405162461bcd60e51b815260206004820152603a60248201527f455243373231436f6e73656375746976653a206261746368206d696e74696e6760448201527f207265737472696374656420746f20636f6e7374727563746f7200000000000060648201526084015b60405180910390fd5b6001600160a01b038416620003c45760405162461bcd60e51b815260206004820152602b60248201527f455243373231436f6e73656375746976653a206d696e7420746f20746865207a60448201526a65726f206164647265737360a81b60648201526084016200034f565b6113886001600160601b03841611156200042c5760405162461bcd60e51b815260206004820152602260248201527f455243373231436f6e73656375746976653a20626174636820746f6f206c6172604482015261676560f01b60648201526084016200034f565b620004465f856001600160601b03808516908716620006e4565b5f600162000455858462001453565b6200046191906200147d565b90506200047160068287620006f8565b50620004899050856001600160601b03861662000714565b6040516001600160601b0382811682526001600160a01b038716915f918516907fdeaa91b6123d068f5821d0fb0678463d1a8a6079fe8af5de3ce5e896dcf9133d9060200160405180910390a4620004f05f866001600160601b0380861690881662000746565b505b9392505050565b5f80829050601f8151111562000526578260405163305a27a960e01b81526004016200034f9190620014a0565b80516200053382620014d4565b179392505050565b5f6200023f8262000754565b816001600160a01b0316836001600160a01b0316141580156200056957505f81115b15620002ba576001600160a01b0383161562000610576001600160a01b0383165f908152600c6020908152604082208291620005bc9190620007da901b62000b7a17620005b686620007e7565b62000855565b6001600160e01b031691506001600160e01b03169150846001600160a01b03165f8051602062003df7833981519152838360405162000605929190918252602082015260400190565b60405180910390a250505b6001600160a01b03821615620002ba576001600160a01b0382165f908152600c602090815260408220829162000657919062000896901b62000b8517620005b686620007e7565b6001600160e01b031691506001600160e01b03169150836001600160a01b03165f8051602062003df78339815191528383604051620006a0929190918252602082015260400190565b60405180910390a25050505050565b5f8080620006be6006620008a3565b509150915081620006d0575f620006dd565b620006dd81600162001453565b9250505090565b620006f28484848462000936565b50505050565b5f80620007078585856200099f565b915091505b935093915050565b6001600160a01b0382165f90815260036020526040812080548392906200073d908490620014f8565b90915550505050565b620006f28484848462000b7a565b5f6001600160a01b038216620007bf5760405162461bcd60e51b815260206004820152602960248201527f4552433732313a2061646472657373207a65726f206973206e6f7420612076616044820152683634b21037bbb732b960b91b60648201526084016200034f565b506001600160a01b03165f9081526003602052604090205490565b5f620004f282846200150e565b5f6001600160e01b03821115620008515760405162461bcd60e51b815260206004820152602760248201527f53616665436173743a2076616c756520646f65736e27742066697420696e20326044820152663234206269747360c81b60648201526084016200034f565b5090565b5f8062000707620008776200086962000b95565b65ffffffffffff1662000ba6565b6200088d620008868862000c0c565b868860201c565b87919062000c49565b5f620004f2828462001531565b80545f9081908190808203620008c3575f805f935093509350506200092f565b5f620008e386620008d660018562001554565b5f91825260209091200190565b6040805180820190915290546001600160601b0381168083526c010000000000000000000000009091046001600160a01b0316602090920182905260019650945092506200092f915050565b9193909250565b60085460ff1615620006f25760405162461bcd60e51b815260206004820152602b60248201527f4552433732315061757361626c653a20746f6b656e207472616e73666572207760448201526a1a1a5b19481c185d5cd95960aa1b60648201526084016200034f565b82545f908190801562000b15575f620009bf87620008d660018562001554565b6040805180820190915290546001600160601b038082168084526c010000000000000000000000009092046001600160a01b03166020840152919250908716101562000a4e5760405162461bcd60e51b815260206004820152601b60248201527f436865636b706f696e743a2064656372656173696e67206b657973000000000060448201526064016200034f565b80516001600160601b0380881691160362000aaa578462000a7688620008d660018662001554565b80546001600160a01b03929092166c01000000000000000000000000026001600160601b0390921691909117905562000b04565b604080518082019091526001600160601b0380881682526001600160a01b0380881660208085019182528b54600181018d555f8d815291909120945191519092166c01000000000000000000000000029216919091179101555b6020015192508391506200070c9050565b5050604080518082019091526001600160601b0380851682526001600160a01b0380851660208085019182528854600181018a555f8a8152918220955192519093166c010000000000000000000000000291909316179201919091559050816200070c565b62000b8784848362000c58565b620006f28484848462000ce9565b5f62000ba14362000dd6565b905090565b5f63ffffffff821115620008515760405162461bcd60e51b815260206004820152602660248201527f53616665436173743a2076616c756520646f65736e27742066697420696e203360448201526532206269747360d01b60648201526084016200034f565b80545f90801562000c415762000c2983620008d660018462001554565b5464010000000090046001600160e01b0316620004f2565b5f9392505050565b5f806200070785858562000e3e565b6001600160a01b03831662000c875762000c84600d62000b856200089660201b17620005b684620007e7565b50505b6001600160a01b03821662000cb65762000cb3600d62000b7a620007da60201b17620005b684620007e7565b50505b6001600160a01b038381165f908152600b6020526040808220548584168352912054620002ba9291821691168362000547565b6001600160a01b03831615801562000d12575062000d06620006af565b6001600160601b031682105b801562000d375750600882901c5f90815260076020526040902054600160ff84161b16155b1562000dc2578060011462000da35760405162461bcd60e51b815260206004820152602b60248201527f455243373231436f6e73656375746976653a206261746368206275726e206e6f60448201526a1d081cdd5c1c1bdc9d195960aa1b60648201526084016200034f565b600882901c5f9081526007602052604090208054600160ff85161b1790555b620006f2848484846001600160e01b038516565b5f65ffffffffffff821115620008515760405162461bcd60e51b815260206004820152602660248201527f53616665436173743a2076616c756520646f65736e27742066697420696e203460448201526538206269747360d01b60648201526084016200034f565b82545f908190801562000f8f575f62000e5e87620008d660018562001554565b60408051808201909152905463ffffffff8082168084526401000000009092046001600160e01b03166020840152919250908716101562000ee25760405162461bcd60e51b815260206004820152601b60248201527f436865636b706f696e743a2064656372656173696e67206b657973000000000060448201526064016200034f565b805163ffffffff80881691160362000f30578462000f0788620008d660018662001554565b80546001600160e01b03929092166401000000000263ffffffff90921691909117905562000b04565b6040805180820190915263ffffffff80881682526001600160e01b0380881660208085019182528b54600181018d555f8d81529190912094519151909216640100000000029216919091179101556020015192508391506200070c9050565b50506040805180820190915263ffffffff80851682526001600160e01b0380851660208085019182528854600181018a555f8a8152918220955192519093166401000000000291909316179201919091559050816200070c565b634e487b7160e01b5f52604160045260245ffd5b604051601f8201601f191681016001600160401b038111828210171562001028576200102862000fe9565b604052919050565b5f5b838110156200104c57818101518382015260200162001032565b50505f910152565b5f82601f83011262001064575f80fd5b81516001600160401b0381111562001080576200108062000fe9565b62001095601f8201601f191660200162000ffd565b818152846020838601011115620010aa575f80fd5b620010bd82602083016020870162001030565b949350505050565b5f6001600160401b03821115620010e057620010e062000fe9565b5060051b60200190565b5f82601f830112620010fa575f80fd5b81516020620011136200110d83620010c5565b62000ffd565b82815260059290921b8401810191818101908684111562001132575f80fd5b8286015b84811015620011655780516001600160a01b038116811462001157575f8081fd5b835291830191830162001136565b509695505050505050565b5f82601f83011262001180575f80fd5b81516020620011936200110d83620010c5565b82815260059290921b84018101918181019086841115620011b2575f80fd5b8286015b84811015620011655780516001600160601b0381168114620011d7575f8081fd5b8352918301918301620011b6565b5f805f805f60a08688031215620011fa575f80fd5b85516001600160401b038082111562001211575f80fd5b6200121f89838a0162001054565b9650602088015191508082111562001235575f80fd5b6200124389838a0162001054565b9550604088015191508082111562001259575f80fd5b6200126789838a01620010ea565b945060608801519150808211156200127d575f80fd5b6200128b89838a01620010ea565b93506080880151915080821115620012a1575f80fd5b50620012b08882890162001170565b9150509295509295909350565b600181811c90821680620012d257607f821691505b602082108103620012f157634e487b7160e01b5f52602260045260245ffd5b50919050565b601f821115620002ba575f81815260208120601f850160051c810160208610156200131f5750805b601f850160051c820191505b8181101562001340578281556001016200132b565b505050505050565b81516001600160401b0381111562001364576200136462000fe9565b6200137c81620013758454620012bd565b84620012f7565b602080601f831160018114620013b2575f84156200139a5750858301515b5f19600386901b1c1916600185901b17855562001340565b5f85815260208120601f198616915b82811015620013e257888601518255948401946001909101908401620013c1565b50858210156200140057878501515f19600388901b60f8161c191681555b5050505050600190811b01905550565b634e487b7160e01b5f52603260045260245ffd5b634e487b7160e01b5f52601160045260245ffd5b5f600182016200144c576200144c62001424565b5060010190565b6001600160601b0381811683821601908082111562001476576200147662001424565b5092915050565b6001600160601b0382811682821603908082111562001476576200147662001424565b602081525f8251806020840152620014c081604085016020870162001030565b601f01601f19169190910160400192915050565b80516020808301519190811015620012f1575f1960209190910360031b1b16919050565b808201808211156200023f576200023f62001424565b6001600160e01b0382811682821603908082111562001476576200147662001424565b6001600160e01b0381811683821601908082111562001476576200147662001424565b818103818111156200023f576200023f62001424565b60805160a05160c05160e05161010051610120516101405161283b620015bc5f395f61089a01525f61086f01525f610f1d01525f610ef501525f610e5001525f610e7a01525f610ea4015261283b5ff3fe608060405234801561000f575f80fd5b506004361061016d575f3560e01c80636352211e116100d957806395d89b4111610093578063b88d4fde1161006e578063b88d4fde14610342578063c3cda52014610355578063c87b56dd14610368578063e985e9c51461037b575f80fd5b806395d89b41146103145780639ab24eb01461031c578063a22cb4651461032f575f80fd5b80636352211e1461028e57806370a08231146102a15780637ecebe00146102b457806384b0196e146102c75780638e539e8c146102e257806391ddadf4146102f5575f80fd5b80633a46b1a81161012a5780633a46b1a81461021757806342842e0e1461022a5780634bf5d7e91461023d578063587cde1e146102455780635c19a95c146102705780635c975abb14610283575f80fd5b806301ffc9a71461017157806306fdde0314610199578063081812fc146101ae578063095ea7b3146101d957806323b872dd146101ee5780633644e51514610201575b5f80fd5b61018461017f36600461221a565b6103b6565b60405190151581526020015b60405180910390f35b6101a1610407565b6040516101909190612282565b6101c16101bc366004612294565b610496565b6040516001600160a01b039091168152602001610190565b6101ec6101e73660046122c6565b6104bb565b005b6101ec6101fc3660046122ee565b6105d4565b610209610605565b604051908152602001610190565b6102096102253660046122c6565b610613565b6101ec6102383660046122ee565b6106a2565b6101a16106bc565b6101c1610253366004612327565b6001600160a01b039081165f908152600b60205260409020541690565b6101ec61027e366004612327565b610754565b60085460ff16610184565b6101c161029c366004612294565b610763565b6102096102af366004612327565b6107c1565b6102096102c2366004612327565b610845565b6102cf610862565b6040516101909796959493929190612340565b6102096102f0366004612294565b6108e9565b6102fd610962565b60405165ffffffffffff9091168152602001610190565b6101a161096c565b61020961032a366004612327565b61097b565b6101ec61033d3660046123d4565b61099b565b6101ec610350366004612421565b6109a6565b6101ec6103633660046124f6565b6109de565b6101a1610376366004612294565b610b0a565b610184610389366004612551565b6001600160a01b039182165f90815260056020908152604080832093909416825291909152205460ff1690565b5f6001600160e01b031982166380ac58cd60e01b14806103e657506001600160e01b03198216635b5e139f60e01b145b8061040157506301ffc9a760e01b6001600160e01b03198316145b92915050565b60605f805461041590612582565b80601f016020809104026020016040519081016040528092919081815260200182805461044190612582565b801561048c5780601f106104635761010080835404028352916020019161048c565b820191905f5260205f20905b81548152906001019060200180831161046f57829003601f168201915b5050505050905090565b5f6104a082610b90565b505f908152600460205260409020546001600160a01b031690565b5f6104c582610763565b9050806001600160a01b0316836001600160a01b0316036105375760405162461bcd60e51b815260206004820152602160248201527f4552433732313a20617070726f76616c20746f2063757272656e74206f776e656044820152603960f91b60648201526084015b60405180910390fd5b336001600160a01b038216148061055357506105538133610389565b6105c55760405162461bcd60e51b815260206004820152603d60248201527f4552433732313a20617070726f76652063616c6c6572206973206e6f7420746f60448201527f6b656e206f776e6572206f7220617070726f76656420666f7220616c6c000000606482015260840161052e565b6105cf8383610be3565b505050565b6105de3382610c50565b6105fa5760405162461bcd60e51b815260040161052e906125b4565b6105cf838383610ccd565b5f61060e610e44565b905090565b5f61061c610962565b65ffffffffffff1682106106695760405162461bcd60e51b81526020600482015260146024820152730566f7465733a20667574757265206c6f6f6b75760641b604482015260640161052e565b61069261067583610f6d565b6001600160a01b0385165f908152600c6020526040902090610fd5565b6001600160e01b03169392505050565b6105cf83838360405180602001604052805f8152506109a6565b6060436106c7610962565b65ffffffffffff161461071c5760405162461bcd60e51b815260206004820152601860248201527f566f7465733a2062726f6b656e20636c6f636b206d6f64650000000000000000604482015260640161052e565b5060408051808201909152601d81527f6d6f64653d626c6f636b6e756d6265722666726f6d3d64656661756c74000000602082015290565b3361075f8183611084565b5050565b5f8061076e836110f5565b90506001600160a01b0381166104015760405162461bcd60e51b8152602060048201526018602482015277115490cdcc8c4e881a5b9d985b1a59081d1bdad95b88125160421b604482015260640161052e565b5f6001600160a01b03821661082a5760405162461bcd60e51b815260206004820152602960248201527f4552433732313a2061646472657373207a65726f206973206e6f7420612076616044820152683634b21037bbb732b960b91b606482015260840161052e565b506001600160a01b03165f9081526003602052604090205490565b6001600160a01b0381165f908152600e6020526040812054610401565b5f606080828080836108957f000000000000000000000000000000000000000000000000000000000000000060096110ff565b6108c07f0000000000000000000000000000000000000000000000000000000000000000600a6110ff565b604080515f80825260208201909252600f60f81b9b939a50919850469750309650945092509050565b5f6108f2610962565b65ffffffffffff16821061093f5760405162461bcd60e51b81526020600482015260146024820152730566f7465733a20667574757265206c6f6f6b75760641b604482015260640161052e565b61095361094b83610f6d565b600d90610fd5565b6001600160e01b031692915050565b5f61060e436111a8565b60606001805461041590612582565b6001600160a01b0381165f908152600c602052604081206109539061120e565b61075f338383611246565b6109b03383610c50565b6109cc5760405162461bcd60e51b815260040161052e906125b4565b6109d884848484611313565b50505050565b83421115610a2e5760405162461bcd60e51b815260206004820152601860248201527f566f7465733a207369676e617475726520657870697265640000000000000000604482015260640161052e565b604080517fe48329057bfd03d55e49b547132e39cffd9c1820ad7b9d4c5307691425d15adf60208201526001600160a01b0388169181019190915260608101869052608081018590525f90610aa790610a9f9060a00160405160208183030381529060405280519060200120611346565b858585611372565b9050610ab281611398565b8614610af75760405162461bcd60e51b8152602060048201526014602482015273566f7465733a20696e76616c6964206e6f6e636560601b604482015260640161052e565b610b018188611084565b50505050505050565b6060610b1582610b90565b5f610b2a60408051602081019091525f815290565b90505f815111610b485760405180602001604052805f815250610b73565b80610b52846113bf565b604051602001610b63929190612601565b6040516020818303038152906040525b9392505050565b5f610b738284612643565b5f610b73828461266a565b610b998161144f565b610be05760405162461bcd60e51b8152602060048201526018602482015277115490cdcc8c4e881a5b9d985b1a59081d1bdad95b88125160421b604482015260640161052e565b50565b5f81815260046020526040902080546001600160a01b0319166001600160a01b0384169081179091558190610c1782610763565b6001600160a01b03167f8c5be1e5ebec7d5bd14f71427d1e84f3dd0314c0f7b2291e5b200ac8c7c3b92560405160405180910390a45050565b5f80610c5b83610763565b9050806001600160a01b0316846001600160a01b03161480610ca157506001600160a01b038082165f9081526005602090815260408083209388168352929052205460ff165b80610cc55750836001600160a01b0316610cba84610496565b6001600160a01b0316145b949350505050565b826001600160a01b0316610ce082610763565b6001600160a01b031614610d065760405162461bcd60e51b815260040161052e9061268a565b6001600160a01b038216610d685760405162461bcd60e51b8152602060048201526024808201527f4552433732313a207472616e7366657220746f20746865207a65726f206164646044820152637265737360e01b606482015260840161052e565b610d75838383600161146b565b826001600160a01b0316610d8882610763565b6001600160a01b031614610dae5760405162461bcd60e51b815260040161052e9061268a565b5f81815260046020908152604080832080546001600160a01b03199081169091556001600160a01b038781168086526003855283862080545f1901905590871680865283862080546001019055868652600290945282852080549092168417909155905184937fddf252ad1be2c89b69c2b068fc378daa952ba7f163c4a11628f55a4df523b3ef91a46105cf8383836001611477565b5f306001600160a01b037f000000000000000000000000000000000000000000000000000000000000000016148015610e9c57507f000000000000000000000000000000000000000000000000000000000000000046145b15610ec657507f000000000000000000000000000000000000000000000000000000000000000090565b61060e604080517f8b73c3c69bb8fe3d512ecc4cf759cc79239f7b179b0ffacaa9a75d522b39400f60208201527f0000000000000000000000000000000000000000000000000000000000000000918101919091527f000000000000000000000000000000000000000000000000000000000000000060608201524660808201523060a08201525f9060c00160405160208183030381529060405280519060200120905090565b5f63ffffffff821115610fd15760405162461bcd60e51b815260206004820152602660248201527f53616665436173743a2076616c756520646f65736e27742066697420696e203360448201526532206269747360d01b606482015260840161052e565b5090565b81545f908181600581111561102f575f610fee84611483565b610ff890856126cf565b5f8881526020902090915081015463ffffffff908116908716101561101f5780915061102d565b61102a8160016126e2565b92505b505b5f61103c87878585611567565b9050801561107757611060876110536001846126cf565b5f91825260209091200190565b5464010000000090046001600160e01b0316611079565b5f5b979650505050505050565b6001600160a01b038281165f818152600b602052604080822080548686166001600160a01b0319821681179092559151919094169392849290917f3134e8a2e6d97e929a7e54011ea5485d7d196dd5f0ba4d4ef95803e8e3fc257f9190a46105cf81836110f0866115c2565b6115cc565b5f61040182611735565b606060ff8314611119576111128361179a565b9050610401565b81805461112590612582565b80601f016020809104026020016040519081016040528092919081815260200182805461115190612582565b801561119c5780601f106111735761010080835404028352916020019161119c565b820191905f5260205f20905b81548152906001019060200180831161117f57829003601f168201915b50505050509050610401565b5f65ffffffffffff821115610fd15760405162461bcd60e51b815260206004820152602660248201527f53616665436173743a2076616c756520646f65736e27742066697420696e203460448201526538206269747360d01b606482015260840161052e565b80545f90801561123e57611227836110536001846126cf565b5464010000000090046001600160e01b0316610b73565b5f9392505050565b816001600160a01b0316836001600160a01b0316036112a75760405162461bcd60e51b815260206004820152601960248201527f4552433732313a20617070726f766520746f2063616c6c657200000000000000604482015260640161052e565b6001600160a01b038381165f81815260056020908152604080832094871680845294825291829020805460ff191686151590811790915591519182527f17307eab39ab6107e8899845ad3d59bd9653f200f220920489ca2b5937696c31910160405180910390a3505050565b61131e848484610ccd565b61132a848484846117d7565b6109d85760405162461bcd60e51b815260040161052e906126f5565b5f610401611352610e44565b8360405161190160f01b8152600281019290925260228201526042902090565b5f805f611381878787876118d1565b9150915061138e8161198e565b5095945050505050565b6001600160a01b0381165f908152600e602052604090208054600181018255905b50919050565b60605f6113cb83611ad7565b60010190505f8167ffffffffffffffff8111156113ea576113ea61240d565b6040519080825280601f01601f191660200182016040528015611414576020820181803683370190505b5090508181016020015b5f19016f181899199a1a9b1b9c1cb0b131b232b360811b600a86061a8153600a850494508461141e57509392505050565b5f8061145a836110f5565b6001600160a01b0316141592915050565b6109d884848484611bae565b6109d884848484611c15565b5f815f0361149257505f919050565b5f600161149e84611c2c565b901c6001901b905060018184816114b7576114b7612747565b048201901c905060018184816114cf576114cf612747565b048201901c905060018184816114e7576114e7612747565b048201901c905060018184816114ff576114ff612747565b048201901c9050600181848161151757611517612747565b048201901c9050600181848161152f5761152f612747565b048201901c9050600181848161154757611547612747565b048201901c9050610b738182858161156157611561612747565b04611cbf565b5f5b818310156115ba575f61157c8484611cd4565b5f8781526020902090915063ffffffff86169082015463ffffffff1611156115a6578092506115b4565b6115b18160016126e2565b93505b50611569565b509392505050565b5f610401826107c1565b816001600160a01b0316836001600160a01b0316141580156115ed57505f81115b156105cf576001600160a01b03831615611694576001600160a01b0383165f908152600c60205260408120819061162f90610b7a61162a86611cee565b611d56565b6001600160e01b031691506001600160e01b03169150846001600160a01b03167fdec2bacdd2f05b59de34da9b523dff8be42e5e38e818c82fdb0bae774387a7248383604051611689929190918252602082015260400190565b60405180910390a250505b6001600160a01b038216156105cf576001600160a01b0382165f908152600c6020526040812081906116cc90610b8561162a86611cee565b6001600160e01b031691506001600160e01b03169150836001600160a01b03167fdec2bacdd2f05b59de34da9b523dff8be42e5e38e818c82fdb0bae774387a7248383604051611726929190918252602082015260400190565b60405180910390a25050505050565b5f818152600260205260408120546001600160a01b03168015158061176057506001600160601b0383115b1561176b5792915050565b600883901c5f90815260076020526040902054600160ff85161b1661123e57611795600684611d9e565b610b73565b60605f6117a683611de3565b6040805160208082528183019092529192505f91906020820181803683375050509182525060208101929092525090565b5f6001600160a01b0384163b156118c957604051630a85bd0160e11b81526001600160a01b0385169063150b7a029061181a90339089908890889060040161275b565b6020604051808303815f875af1925050508015611854575060408051601f3d908101601f1916820190925261185191810190612797565b60015b6118af573d808015611881576040519150601f19603f3d011682016040523d82523d5f602084013e611886565b606091505b5080515f036118a75760405162461bcd60e51b815260040161052e906126f5565b805181602001fd5b6001600160e01b031916630a85bd0160e11b149050610cc5565b506001610cc5565b5f807f7fffffffffffffffffffffffffffffff5d576e7357a4501ddfe92f46681b20a083111561190657505f90506003611985565b604080515f8082526020820180845289905260ff881692820192909252606081018690526080810185905260019060a0016020604051602081039080840390855afa158015611957573d5f803e3d5ffd5b5050604051601f1901519150506001600160a01b03811661197f575f60019250925050611985565b91505f90505b94509492505050565b5f8160048111156119a1576119a16127b2565b036119a95750565b60018160048111156119bd576119bd6127b2565b03611a0a5760405162461bcd60e51b815260206004820152601860248201527f45434453413a20696e76616c6964207369676e61747572650000000000000000604482015260640161052e565b6002816004811115611a1e57611a1e6127b2565b03611a6b5760405162461bcd60e51b815260206004820152601f60248201527f45434453413a20696e76616c6964207369676e6174757265206c656e67746800604482015260640161052e565b6003816004811115611a7f57611a7f6127b2565b03610be05760405162461bcd60e51b815260206004820152602260248201527f45434453413a20696e76616c6964207369676e6174757265202773272076616c604482015261756560f01b606482015260840161052e565b5f8072184f03e93ff9f4daa797ed6e38ed64bf6a1f0160401b8310611b155772184f03e93ff9f4daa797ed6e38ed64bf6a1f0160401b830492506040015b6d04ee2d6d415b85acef81000000008310611b41576d04ee2d6d415b85acef8100000000830492506020015b662386f26fc100008310611b5f57662386f26fc10000830492506010015b6305f5e1008310611b77576305f5e100830492506008015b6127108310611b8b57612710830492506004015b60648310611b9d576064830492506002015b600a83106104015760010192915050565b60085460ff16156109d85760405162461bcd60e51b815260206004820152602b60248201527f4552433732315061757361626c653a20746f6b656e207472616e73666572207760448201526a1a1a5b19481c185d5cd95960aa1b606482015260840161052e565b611c20848483611e0a565b6109d884848484611e7f565b5f80608083901c15611c4057608092831c92015b604083901c15611c5257604092831c92015b602083901c15611c6457602092831c92015b601083901c15611c7657601092831c92015b600883901c15611c8857600892831c92015b600483901c15611c9a57600492831c92015b600283901c15611cac57600292831c92015b600183901c156104015760010192915050565b5f818310611ccd5781610b73565b5090919050565b5f611ce260028484186127c6565b610b73908484166126e2565b5f6001600160e01b03821115610fd15760405162461bcd60e51b815260206004820152602760248201527f53616665436173743a2076616c756520646f65736e27742066697420696e20326044820152663234206269747360c81b606482015260840161052e565b5f80611d91611d73611d66610962565b65ffffffffffff16610f6d565b611d89611d7f8861120e565b868863ffffffff16565b879190611f5a565b915091505b935093915050565b81545f9081611daf85858385611f67565b9050818114611dd8575f85815260209020810154600160601b90046001600160a01b0316611dda565b5f5b95945050505050565b5f60ff8216601f81111561040157604051632cd44ac360e21b815260040160405180910390fd5b6001600160a01b038316611e2c57611e29600d610b8561162a84611cee565b50505b6001600160a01b038216611e4e57611e4b600d610b7a61162a84611cee565b50505b6001600160a01b038381165f908152600b60205260408082205485841683529120546105cf929182169116836115cc565b6001600160a01b038316158015611ea55750611e99611fc0565b6001600160601b031682105b8015611ec95750600882901c5f90815260076020526040902054600160ff84161b16155b15611f555780600114611f325760405162461bcd60e51b815260206004820152602b60248201527f455243373231436f6e73656375746976653a206261746368206275726e206e6f60448201526a1d081cdd5c1c1bdc9d195960aa1b606482015260840161052e565b600882901c5f9081526007602052604090208054600160ff85161b1790556109d8565b6109d8565b5f80611d91858585611fef565b5f5b818310156115ba575f611f7c8484611cd4565b5f878152602090209091506001600160601b038616908201546001600160601b03161015611fb657611faf8160016126e2565b9350611fba565b8092505b50611f69565b5f805f611fcd600661218e565b509150915081611fdd575f611fe8565b611fe88160016127e5565b9250505090565b82545f9081908015612135575f61200b876110536001856126cf565b60408051808201909152905463ffffffff8082168084526401000000009092046001600160e01b03166020840152919250908716101561208d5760405162461bcd60e51b815260206004820152601b60248201527f436865636b706f696e743a2064656372656173696e67206b6579730000000000604482015260640161052e565b805163ffffffff8088169116036120d657846120ae886110536001866126cf565b80546001600160e01b03929092166401000000000263ffffffff909216919091179055612125565b6040805180820190915263ffffffff80881682526001600160e01b0380881660208085019182528b54600181018d555f8d81529190912094519151909216640100000000029216919091179101555b602001519250839150611d969050565b50506040805180820190915263ffffffff80851682526001600160e01b0380851660208085019182528854600181018a555f8a815291822095519251909316640100000000029190931617920191909155905081611d96565b80545f90819081908082036121ac575f805f935093509350506121fe565b5f6121bc866110536001856126cf565b6040805180820190915290546001600160601b038116808352600160601b9091046001600160a01b0316602090920182905260019650945092506121fe915050565b9193909250565b6001600160e01b031981168114610be0575f80fd5b5f6020828403121561222a575f80fd5b8135610b7381612205565b5f5b8381101561224f578181015183820152602001612237565b50505f910152565b5f815180845261226e816020860160208601612235565b601f01601f19169290920160200192915050565b602081525f610b736020830184612257565b5f602082840312156122a4575f80fd5b5035919050565b80356001600160a01b03811681146122c1575f80fd5b919050565b5f80604083850312156122d7575f80fd5b6122e0836122ab565b946020939093013593505050565b5f805f60608486031215612300575f80fd5b612309846122ab565b9250612317602085016122ab565b9150604084013590509250925092565b5f60208284031215612337575f80fd5b610b73826122ab565b60ff60f81b881681525f602060e08184015261235f60e084018a612257565b8381036040850152612371818a612257565b606085018990526001600160a01b038816608086015260a0850187905284810360c086015285518082528387019250908301905f5b818110156123c2578351835292840192918401916001016123a6565b50909c9b505050505050505050505050565b5f80604083850312156123e5575f80fd5b6123ee836122ab565b915060208301358015158114612402575f80fd5b809150509250929050565b634e487b7160e01b5f52604160045260245ffd5b5f805f8060808587031215612434575f80fd5b61243d856122ab565b935061244b602086016122ab565b925060408501359150606085013567ffffffffffffffff8082111561246e575f80fd5b818701915087601f830112612481575f80fd5b8135818111156124935761249361240d565b604051601f8201601f19908116603f011681019083821181831017156124bb576124bb61240d565b816040528281528a60208487010111156124d3575f80fd5b826020860160208301375f60208483010152809550505050505092959194509250565b5f805f805f8060c0878903121561250b575f80fd5b612514876122ab565b95506020870135945060408701359350606087013560ff81168114612537575f80fd5b9598949750929560808101359460a0909101359350915050565b5f8060408385031215612562575f80fd5b61256b836122ab565b9150612579602084016122ab565b90509250929050565b600181811c9082168061259657607f821691505b6020821081036113b957634e487b7160e01b5f52602260045260245ffd5b6020808252602d908201527f4552433732313a2063616c6c6572206973206e6f7420746f6b656e206f776e6560408201526c1c881bdc88185c1c1c9bdd9959609a1b606082015260800190565b5f8351612612818460208801612235565b835190830190612626818360208801612235565b01949350505050565b634e487b7160e01b5f52601160045260245ffd5b6001600160e01b038281168282160390808211156126635761266361262f565b5092915050565b6001600160e01b038181168382160190808211156126635761266361262f565b60208082526025908201527f4552433732313a207472616e736665722066726f6d20696e636f72726563742060408201526437bbb732b960d91b606082015260800190565b818103818111156104015761040161262f565b808201808211156104015761040161262f565b60208082526032908201527f4552433732313a207472616e7366657220746f206e6f6e20455243373231526560408201527131b2b4bb32b91034b6b83632b6b2b73a32b960711b606082015260800190565b634e487b7160e01b5f52601260045260245ffd5b6001600160a01b03858116825284166020820152604081018390526080606082018190525f9061278d90830184612257565b9695505050505050565b5f602082840312156127a7575f80fd5b8151610b7381612205565b634e487b7160e01b5f52602160045260245ffd5b5f826127e057634e487b7160e01b5f52601260045260245ffd5b500490565b6001600160601b038181168382160190808211156126635761266361262f56fea2646970667358221220f95a7f34ff1eb7f45488871b9bb52f66d3b192d2604a87bd2d87cb999d464e3664736f6c63430008140033dec2bacdd2f05b59de34da9b523dff8be42e5e38e818c82fdb0bae774387a724",
    "linkReferences": {}
  },
  "methodIdentifiers": {
    "CLOCK_MODE()": "4bf5d7e9",
    "DOMAIN_SEPARATOR()": "3644e515",
    "approve(address,uint256)": "095ea7b3",
    "balanceOf(address)": "70a08231",
    "clock()": "91ddadf4",
    "delegate(address)": "5c19a95c",
    "delegateBySig(address,uint256,uint256,uint8,bytes32,bytes32)": "c3cda520",
    "delegates(address)": "587cde1e",
    "eip712Domain()": "84b0196e",
    "getApproved(uint256)": "081812fc",
    "getPastTotalSupply(uint256)": "8e539e8c",
    "getPastVotes(address,uint256)": "3a46b1a8",
    "getVotes(address)": "9ab24eb0",
    "isApprovedForAll(address,address)": "e985e9c5",
    "name()": "06fdde03",
    "nonces(address)": "7ecebe00",
    "ownerOf(uint256)": "6352211e",
    "paused()": "5c975abb",
    "safeTransferFrom(address,address,uint256)": "42842e0e",
    "safeTransferFrom(address,address,uint256,bytes)": "b88d4fde",
    "setApprovalForAll(address,bool)": "a22cb465",
    "supportsInterface(bytes4)": "01ffc9a7",
    "symbol()": "95d89b41",
    "tokenURI(uint256)": "c87b56dd",
    "transferFrom(address,address,uint256)": "23b872dd"
  },
  "id": 144
}