{
  "abi": [
    {
      "type": "function",
      "name": "callData",
      "inputs": [
        {
          "name": "context",
          "type": "address",
          "internalType": "contract ContextMock"
        },
        {
          "name": "integerValue",
          "type": "uint256",
          "internalType": "uint256"
        },
        {
          "name": "stringValue",
          "type": "string",
          "internalType": "string"
        }
      ],
      "outputs": [],
      "stateMutability": "nonpayable"
    },
    {
      "type": "function",
      "name": "callSender",
      "inputs": [
        {
          "name": "context",
          "type": "address",
          "internalType": "contract ContextMock"
        }
      ],
      "outputs": [],
      "stateMutability": "nonpayable"
    }
  ],
  "bytecode": {
    "object": "0x608060405234801561000f575f80fd5b506102ac8061001d5f395ff3fe608060405234801561000f575f80fd5b5060043610610033575f3560e01c8062860459146100375780633207ad961461004c575b5f80fd5b61004a61004536600461013f565b61005f565b005b61004a61005a366004610203565b6100bf565b604051631bb5f93160e11b81526001600160a01b0384169063376bf2629061008d9085908590600401610223565b5f604051808303815f87803b1580156100a4575f80fd5b505af11580156100b6573d5f803e3d5ffd5b50505050505050565b806001600160a01b031663d737d0c76040518163ffffffff1660e01b81526004015f604051808303815f87803b1580156100f7575f80fd5b505af1158015610109573d5f803e3d5ffd5b5050505050565b80356001600160a01b0381168114610126575f80fd5b919050565b634e487b7160e01b5f52604160045260245ffd5b5f805f60608486031215610151575f80fd5b61015a84610110565b925060208401359150604084013567ffffffffffffffff8082111561017d575f80fd5b818601915086601f830112610190575f80fd5b8135818111156101a2576101a261012b565b604051601f8201601f19908116603f011681019083821181831017156101ca576101ca61012b565b816040528281528960208487010111156101e2575f80fd5b826020860160208301375f6020848301015280955050505050509250925092565b5f60208284031215610213575f80fd5b61021c82610110565b9392505050565b8281525f602060408184015283518060408501525f5b8181101561025557858101830151858201606001528201610239565b505f606082860101526060601f19601f83011685010192505050939250505056fea2646970667358221220afc423ff9ad4f37ac48ddc7275495980e8fafa9687f5e9d396fa6b0b3187092d64736f6c63430008140033",
    "linkReferences": {}
  },
  "methodIdentifiers": {
    "callData(address,uint256,string)": "00860459",
    "callSender(address)": "3207ad96"
  },
  "id": 82
}