{
  "abi": [
    {
      "type": "function",
      "name": "msgData",
      "inputs": [
        {
          "name": "integerValue",
          "type": "uint256",
          "internalType": "uint256"
        },
        {
          "name": "stringValue",
          "type": "string",
          "internalType": "string"
        }
      ],
      "outputs": [],
      "stateMutability": "nonpayable"
    },
    {
      "type": "function",
      "name": "msgDataShort",
      "inputs": [],
      "outputs": [],
      "stateMutability": "nonpayable"
    },
    {
      "type": "function",
      "name": "msgSender",
      "inputs": [],
      "outputs": [],
      "stateMutability": "nonpayable"
    },
    {
      "type": "event",
      "name": "Data",
      "inputs": [
        {
          "name": "data",
          "type": "bytes",
          "indexed": false,
          "internalType": "bytes"
        },
        {
          "name": "integerValue",
          "type": "uint256",
          "indexed": false,
          "internalType": "uint256"
        },
        {
          "name": "stringValue",
          "type": "string",
          "indexed": false,
          "internalType": "string"
        }
      ],
      "anonymous": false
    },
    {
      "type": "event",
      "name": "DataShort",
      "inputs": [
        {
          "name": "data",
          "type": "bytes",
          "indexed": false,
          "internalType": "bytes"
        }
      ],
      "anonymous": false
    },
    {
      "type": "event",
      "name": "Sender",
      "inputs": [
        {
          "name": "sender",
          "type": "address",
          "indexed": false,
          "internalType": "address"
        }
      ],
      "anonymous": false
    }
  ],
  "bytecode": {
    "object": "0x608060405234801561000f575f80fd5b506102b38061001d5f395ff3fe608060405234801561000f575f80fd5b506004361061003f575f3560e01c8063376bf26214610043578063d737d0c714610058578063ff5f6b5914610060575b5f80fd5b610056610051366004610124565b610068565b005b6100566100a9565b6100566100df565b7faf235354a0a47c91ee171961326335cb2d1a8e55b8a89859b0e61eb049e50ea05f36848460405161009d9493929190610201565b60405180910390a15050565b6040513381527fd6558c3ed910d959271054471fd1c326679d9fece99c5091b00ed89627cf2bfc906020015b60405180910390a1565b7f6d7cec71eba467294d92341ddc4e8634eb4d742a90e16f408f06e4b70bc4cd665f366040516100d5929190610262565b634e487b7160e01b5f52604160045260245ffd5b5f8060408385031215610135575f80fd5b82359150602083013567ffffffffffffffff80821115610153575f80fd5b818501915085601f830112610166575f80fd5b81358181111561017857610178610110565b604051601f8201601f19908116603f011681019083821181831017156101a0576101a0610110565b816040528281528860208487010111156101b8575f80fd5b826020860160208301375f6020848301015280955050505050509250929050565b81835281816020850137505f828201602090810191909152601f909101601f19169091010190565b606081525f6102146060830186886101d9565b60208581850152838203604085015284518083525f5b8181101561024557868101830151848201840152820161022a565b505f838201830152601f01601f1916909101019695505050505050565b602081525f6102756020830184866101d9565b94935050505056fea264697066735822122023f1ea39b81c731a5b8fc50918a577220a16fa18ee277184f5e815d38628ac0564736f6c63430008140033",
    "linkReferences": {}
  },
  "methodIdentifiers": {
    "msgData(uint256,string)": "376bf262",
    "msgDataShort()": "ff5f6b59",
    "msgSender()": "d737d0c7"
  },
  "id": 82
}