{
  "abi": [
    {
      "type": "function",
      "name": "supportsInterface",
      "inputs": [
        {
          "name": "interfaceId",
          "type": "bytes4",
          "internalType": "bytes4"
        }
      ],
      "outputs": [
        {
          "name": "",
          "type": "bool",
          "internalType": "bool"
        }
      ],
      "stateMutability": "pure"
    }
  ],
  "bytecode": {
    "object": "0x608060405234801561000f575f80fd5b5060d38061001c5f395ff3fe6080604052348015600e575f80fd5b50600436106026575f3560e01c806301ffc9a714602a575b5f80fd5b603960353660046071565b604d565b604051901515815260200160405180910390f35b5f63fe00365960e01b6001600160e01b0319831601606a5760015f525b62018c7c5ff35b5f602082840312156080575f80fd5b81356001600160e01b0319811681146096575f80fd5b939250505056fea264697066735822122095a0218cf39f970ad3ac3f50ae570007ad56e7be5b062deefffd976a0aa232e964736f6c63430008140033",
    "linkReferences": {}
  },
  "methodIdentifiers": {
    "supportsInterface(bytes4)": "01ffc9a7"
  },
  "id": 89
}