{
  "abi": [
    {
      "type": "constructor",
      "inputs": [
        {
          "name": "_token",
          "type": "address",
          "internalType": "contract IVotes"
        },
        {
          "name": "_timelock",
          "type": "address",
          "internalType": "contract TimelockController"
        }
      ],
      "stateMutability": "nonpayable"
    },
    {
      "type": "receive",
      "stateMutability": "payable"
    },
    {
      "type": "function",
      "name": "BALLOT_TYPEHASH",
      "inputs": [],
      "outputs": [
        {
          "name": "",
          "type": "bytes32",
          "internalType": "bytes32"
        }
      ],
      "stateMutability": "view"
    },
    {
      "type": "function",
      "name": "CLOCK_MODE",
      "inputs": [],
      "outputs": [
        {
          "name": "",
          "type": "string",
          "internalType": "string"
        }
      ],
      "stateMutability": "view"
    },
    {
      "type": "function",
      "name": "COUNTING_MODE",
      "inputs": [],
      "outputs": [
        {
          "name": "",
          "type": "string",
          "internalType": "string"
        }
      ],
      "stateMutability": "pure"
    },
    {
      "type": "function",
      "name": "EXTENDED_BALLOT_TYPEHASH",
      "inputs": [],
      "outputs": [
        {
          "name": "",
          "type": "bytes32",
          "internalType": "bytes32"
        }
      ],
      "stateMutability": "view"
    },
    {
      "type": "function",
      "name": "cancel",
      "inputs": [
        {
          "name": "targets",
          "type": "address[]",
          "internalType": "address[]"
        },
        {
          "name": "values",
          "type": "uint256[]",
          "internalType": "uint256[]"
        },
        {
          "name": "calldatas",
          "type": "bytes[]",
          "internalType": "bytes[]"
        },
        {
          "name": "descriptionHash",
          "type": "bytes32",
          "internalType": "bytes32"
        }
      ],
      "outputs": [
        {
          "name": "",
          "type": "uint256",
          "internalType": "uint256"
        }
      ],
      "stateMutability": "nonpayable"
    },
    {
      "type": "function",
      "name": "castVote",
      "inputs": [
        {
          "name": "proposalId",
          "type": "uint256",
          "internalType": "uint256"
        },
        {
          "name": "support",
          "type": "uint8",
          "internalType": "uint8"
        }
      ],
      "outputs": [
        {
          "name": "",
          "type": "uint256",
          "internalType": "uint256"
        }
      ],
      "stateMutability": "nonpayable"
    },
    {
      "type": "function",
      "name": "castVoteBySig",
      "inputs": [
        {
          "name": "proposalId",
          "type": "uint256",
          "internalType": "uint256"
        },
        {
          "name": "support",
          "type": "uint8",
          "internalType": "uint8"
        },
        {
          "name": "v",
          "type": "uint8",
          "internalType": "uint8"
        },
        {
          "name": "r",
          "type": "bytes32",
          "internalType": "bytes32"
        },
        {
          "name": "s",
          "type": "bytes32",
          "internalType": "bytes32"
        }
      ],
      "outputs": [
        {
          "name": "",
          "type": "uint256",
          "internalType": "uint256"
        }
      ],
      "stateMutability": "nonpayable"
    },
    {
      "type": "function",
      "name": "castVoteWithReason",
      "inputs": [
        {
          "name": "proposalId",
          "type": "uint256",
          "internalType": "uint256"
        },
        {
          "name": "support",
          "type": "uint8",
          "internalType": "uint8"
        },
        {
          "name": "reason",
          "type": "string",
          "internalType": "string"
        }
      ],
      "outputs": [
        {
          "name": "",
          "type": "uint256",
          "internalType": "uint256"
        }
      ],
      "stateMutability": "nonpayable"
    },
    {
      "type": "function",
      "name": "castVoteWithReasonAndParams",
      "inputs": [
        {
          "name": "proposalId",
          "type": "uint256",
          "internalType": "uint256"
        },
        {
          "name": "support",
          "type": "uint8",
          "internalType": "uint8"
        },
        {
          "name": "reason",
          "type": "string",
          "internalType": "string"
        },
        {
          "name": "params",
          "type": "bytes",
          "internalType": "bytes"
        }
      ],
      "outputs": [
        {
          "name": "",
          "type": "uint256",
          "internalType": "uint256"
        }
      ],
      "stateMutability": "nonpayable"
    },
    {
      "type": "function",
      "name": "castVoteWithReasonAndParamsBySig",
      "inputs": [
        {
          "name": "proposalId",
          "type": "uint256",
          "internalType": "uint256"
        },
        {
          "name": "support",
          "type": "uint8",
          "internalType": "uint8"
        },
        {
          "name": "reason",
          "type": "string",
          "internalType": "string"
        },
        {
          "name": "params",
          "type": "bytes",
          "internalType": "bytes"
        },
        {
          "name": "v",
          "type": "uint8",
          "internalType": "uint8"
        },
        {
          "name": "r",
          "type": "bytes32",
          "internalType": "bytes32"
        },
        {
          "name": "s",
          "type": "bytes32",
          "internalType": "bytes32"
        }
      ],
      "outputs": [
        {
          "name": "",
          "type": "uint256",
          "internalType": "uint256"
        }
      ],
      "stateMutability": "nonpayable"
    },
    {
      "type": "function",
      "name": "clock",
      "inputs": [],
      "outputs": [
        {
          "name": "",
          "type": "uint48",
          "internalType": "uint48"
        }
      ],
      "stateMutability": "view"
    },
    {
      "type": "function",
      "name": "eip712Domain",
      "inputs": [],
      "outputs": [
        {
          "name": "fields",
          "type": "bytes1",
          "internalType": "bytes1"
        },
        {
          "name": "name",
          "type": "string",
          "internalType": "string"
        },
        {
          "name": "version",
          "type": "string",
          "internalType": "string"
        },
        {
          "name": "chainId",
          "type": "uint256",
          "internalType": "uint256"
        },
        {
          "name": "verifyingContract",
          "type": "address",
          "internalType": "address"
        },
        {
          "name": "salt",
          "type": "bytes32",
          "internalType": "bytes32"
        },
        {
          "name": "extensions",
          "type": "uint256[]",
          "internalType": "uint256[]"
        }
      ],
      "stateMutability": "view"
    },
    {
      "type": "function",
      "name": "execute",
      "inputs": [
        {
          "name": "targets",
          "type": "address[]",
          "internalType": "address[]"
        },
        {
          "name": "values",
          "type": "uint256[]",
          "internalType": "uint256[]"
        },
        {
          "name": "calldatas",
          "type": "bytes[]",
          "internalType": "bytes[]"
        },
        {
          "name": "descriptionHash",
          "type": "bytes32",
          "internalType": "bytes32"
        }
      ],
      "outputs": [
        {
          "name": "",
          "type": "uint256",
          "internalType": "uint256"
        }
      ],
      "stateMutability": "payable"
    },
    {
      "type": "function",
      "name": "getVotes",
      "inputs": [
        {
          "name": "account",
          "type": "address",
          "internalType": "address"
        },
        {
          "name": "timepoint",
          "type": "uint256",
          "internalType": "uint256"
        }
      ],
      "outputs": [
        {
          "name": "",
          "type": "uint256",
          "internalType": "uint256"
        }
      ],
      "stateMutability": "view"
    },
    {
      "type": "function",
      "name": "getVotesWithParams",
      "inputs": [
        {
          "name": "account",
          "type": "address",
          "internalType": "address"
        },
        {
          "name": "timepoint",
          "type": "uint256",
          "internalType": "uint256"
        },
        {
          "name": "params",
          "type": "bytes",
          "internalType": "bytes"
        }
      ],
      "outputs": [
        {
          "name": "",
          "type": "uint256",
          "internalType": "uint256"
        }
      ],
      "stateMutability": "view"
    },
    {
      "type": "function",
      "name": "hasVoted",
      "inputs": [
        {
          "name": "proposalId",
          "type": "uint256",
          "internalType": "uint256"
        },
        {
          "name": "account",
          "type": "address",
          "internalType": "address"
        }
      ],
      "outputs": [
        {
          "name": "",
          "type": "bool",
          "internalType": "bool"
        }
      ],
      "stateMutability": "view"
    },
    {
      "type": "function",
      "name": "hashProposal",
      "inputs": [
        {
          "name": "targets",
          "type": "address[]",
          "internalType": "address[]"
        },
        {
          "name": "values",
          "type": "uint256[]",
          "internalType": "uint256[]"
        },
        {
          "name": "calldatas",
          "type": "bytes[]",
          "internalType": "bytes[]"
        },
        {
          "name": "descriptionHash",
          "type": "bytes32",
          "internalType": "bytes32"
        }
      ],
      "outputs": [
        {
          "name": "",
          "type": "uint256",
          "internalType": "uint256"
        }
      ],
      "stateMutability": "pure"
    },
    {
      "type": "function",
      "name": "name",
      "inputs": [],
      "outputs": [
        {
          "name": "",
          "type": "string",
          "internalType": "string"
        }
      ],
      "stateMutability": "view"
    },
    {
      "type": "function",
      "name": "onERC1155BatchReceived",
      "inputs": [
        {
          "name": "",
          "type": "address",
          "internalType": "address"
        },
        {
          "name": "",
          "type": "address",
          "internalType": "address"
        },
        {
          "name": "",
          "type": "uint256[]",
          "internalType": "uint256[]"
        },
        {
          "name": "",
          "type": "uint256[]",
          "internalType": "uint256[]"
        },
        {
          "name": "",
          "type": "bytes",
          "internalType": "bytes"
        }
      ],
      "outputs": [
        {
          "name": "",
          "type": "bytes4",
          "internalType": "bytes4"
        }
      ],
      "stateMutability": "nonpayable"
    },
    {
      "type": "function",
      "name": "onERC1155Received",
      "inputs": [
        {
          "name": "",
          "type": "address",
          "internalType": "address"
        },
        {
          "name": "",
          "type": "address",
          "internalType": "address"
        },
        {
          "name": "",
          "type": "uint256",
          "internalType": "uint256"
        },
        {
          "name": "",
          "type": "uint256",
          "internalType": "uint256"
        },
        {
          "name": "",
          "type": "bytes",
          "internalType": "bytes"
        }
      ],
      "outputs": [
        {
          "name": "",
          "type": "bytes4",
          "internalType": "bytes4"
        }
      ],
      "stateMutability": "nonpayable"
    },
    {
      "type": "function",
      "name": "onERC721Received",
      "inputs": [
        {
          "name": "",
          "type": "address",
          "internalType": "address"
        },
        {
          "name": "",
          "type": "address",
          "internalType": "address"
        },
        {
          "name": "",
          "type": "uint256",
          "internalType": "uint256"
        },
        {
          "name": "",
          "type": "bytes",
          "internalType": "bytes"
        }
      ],
      "outputs": [
        {
          "name": "",
          "type": "bytes4",
          "internalType": "bytes4"
        }
      ],
      "stateMutability": "nonpayable"
    },
    {
      "type": "function",
      "name": "proposalDeadline",
      "inputs": [
        {
          "name": "proposalId",
          "type": "uint256",
          "internalType": "uint256"
        }
      ],
      "outputs": [
        {
          "name": "",
          "type": "uint256",
          "internalType": "uint256"
        }
      ],
      "stateMutability": "view"
    },
    {
      "type": "function",
      "name": "proposalEta",
      "inputs": [
        {
          "name": "proposalId",
          "type": "uint256",
          "internalType": "uint256"
        }
      ],
      "outputs": [
        {
          "name": "",
          "type": "uint256",
          "internalType": "uint256"
        }
      ],
      "stateMutability": "view"
    },
    {
      "type": "function",
      "name": "proposalProposer",
      "inputs": [
        {
          "name": "proposalId",
          "type": "uint256",
          "internalType": "uint256"
        }
      ],
      "outputs": [
        {
          "name": "",
          "type": "address",
          "internalType": "address"
        }
      ],
      "stateMutability": "view"
    },
    {
      "type": "function",
      "name": "proposalSnapshot",
      "inputs": [
        {
          "name": "proposalId",
          "type": "uint256",
          "internalType": "uint256"
        }
      ],
      "outputs": [
        {
          "name": "",
          "type": "uint256",
          "internalType": "uint256"
        }
      ],
      "stateMutability": "view"
    },
    {
      "type": "function",
      "name": "proposalThreshold",
      "inputs": [],
      "outputs": [
        {
          "name": "",
          "type": "uint256",
          "internalType": "uint256"
        }
      ],
      "stateMutability": "view"
    },
    {
      "type": "function",
      "name": "proposalVotes",
      "inputs": [
        {
          "name": "proposalId",
          "type": "uint256",
          "internalType": "uint256"
        }
      ],
      "outputs": [
        {
          "name": "againstVotes",
          "type": "uint256",
          "internalType": "uint256"
        },
        {
          "name": "forVotes",
          "type": "uint256",
          "internalType": "uint256"
        },
        {
          "name": "abstainVotes",
          "type": "uint256",
          "internalType": "uint256"
        }
      ],
      "stateMutability": "view"
    },
    {
      "type": "function",
      "name": "propose",
      "inputs": [
        {
          "name": "targets",
          "type": "address[]",
          "internalType": "address[]"
        },
        {
          "name": "values",
          "type": "uint256[]",
          "internalType": "uint256[]"
        },
        {
          "name": "calldatas",
          "type": "bytes[]",
          "internalType": "bytes[]"
        },
        {
          "name": "description",
          "type": "string",
          "internalType": "string"
        }
      ],
      "outputs": [
        {
          "name": "",
          "type": "uint256",
          "internalType": "uint256"
        }
      ],
      "stateMutability": "nonpayable"
    },
    {
      "type": "function",
      "name": "queue",
      "inputs": [
        {
          "name": "targets",
          "type": "address[]",
          "internalType": "address[]"
        },
        {
          "name": "values",
          "type": "uint256[]",
          "internalType": "uint256[]"
        },
        {
          "name": "calldatas",
          "type": "bytes[]",
          "internalType": "bytes[]"
        },
        {
          "name": "descriptionHash",
          "type": "bytes32",
          "internalType": "bytes32"
        }
      ],
      "outputs": [
        {
          "name": "",
          "type": "uint256",
          "internalType": "uint256"
        }
      ],
      "stateMutability": "nonpayable"
    },
    {
      "type": "function",
      "name": "quorum",
      "inputs": [
        {
          "name": "blockNumber",
          "type": "uint256",
          "internalType": "uint256"
        }
      ],
      "outputs": [
        {
          "name": "",
          "type": "uint256",
          "internalType": "uint256"
        }
      ],
      "stateMutability": "view"
    },
    {
      "type": "function",
      "name": "quorumDenominator",
      "inputs": [],
      "outputs": [
        {
          "name": "",
          "type": "uint256",
          "internalType": "uint256"
        }
      ],
      "stateMutability": "view"
    },
    {
      "type": "function",
      "name": "quorumNumerator",
      "inputs": [
        {
          "name": "timepoint",
          "type": "uint256",
          "internalType": "uint256"
        }
      ],
      "outputs": [
        {
          "name": "",
          "type": "uint256",
          "internalType": "uint256"
        }
      ],
      "stateMutability": "view"
    },
    {
      "type": "function",
      "name": "quorumNumerator",
      "inputs": [],
      "outputs": [
        {
          "name": "",
          "type": "uint256",
          "internalType": "uint256"
        }
      ],
      "stateMutability": "view"
    },
    {
      "type": "function",
      "name": "relay",
      "inputs": [
        {
          "name": "target",
          "type": "address",
          "internalType": "address"
        },
        {
          "name": "value",
          "type": "uint256",
          "internalType": "uint256"
        },
        {
          "name": "data",
          "type": "bytes",
          "internalType": "bytes"
        }
      ],
      "outputs": [],
      "stateMutability": "payable"
    },
    {
      "type": "function",
      "name": "state",
      "inputs": [
        {
          "name": "proposalId",
          "type": "uint256",
          "internalType": "uint256"
        }
      ],
      "outputs": [
        {
          "name": "",
          "type": "uint8",
          "internalType": "enum IGovernor.ProposalState"
        }
      ],
      "stateMutability": "view"
    },
    {
      "type": "function",
      "name": "supportsInterface",
      "inputs": [
        {
          "name": "interfaceId",
          "type": "bytes4",
          "internalType": "bytes4"
        }
      ],
      "outputs": [
        {
          "name": "",
          "type": "bool",
          "internalType": "bool"
        }
      ],
      "stateMutability": "view"
    },
    {
      "type": "function",
      "name": "timelock",
      "inputs": [],
      "outputs": [
        {
          "name": "",
          "type": "address",
          "internalType": "address"
        }
      ],
      "stateMutability": "view"
    },
    {
      "type": "function",
      "name": "token",
      "inputs": [],
      "outputs": [
        {
          "name": "",
          "type": "address",
          "internalType": "contract IERC5805"
        }
      ],
      "stateMutability": "view"
    },
    {
      "type": "function",
      "name": "updateQuorumNumerator",
      "inputs": [
        {
          "name": "newQuorumNumerator",
          "type": "uint256",
          "internalType": "uint256"
        }
      ],
      "outputs": [],
      "stateMutability": "nonpayable"
    },
    {
      "type": "function",
      "name": "updateTimelock",
      "inputs": [
        {
          "name": "newTimelock",
          "type": "address",
          "internalType": "contract TimelockController"
        }
      ],
      "outputs": [],
      "stateMutability": "nonpayable"
    },
    {
      "type": "function",
      "name": "version",
      "inputs": [],
      "outputs": [
        {
          "name": "",
          "type": "string",
          "internalType": "string"
        }
      ],
      "stateMutability": "view"
    },
    {
      "type": "function",
      "name": "votingDelay",
      "inputs": [],
      "outputs": [
        {
          "name": "",
          "type": "uint256",
          "internalType": "uint256"
        }
      ],
      "stateMutability": "pure"
    },
    {
      "type": "function",
      "name": "votingPeriod",
      "inputs": [],
      "outputs": [
        {
          "name": "",
          "type": "uint256",
          "internalType": "uint256"
        }
      ],
      "stateMutability": "pure"
    },
    {
      "type": "event",
      "name": "EIP712DomainChanged",
      "inputs": [],
      "anonymous": false
    },
    {
      "type": "event",
      "name": "ProposalCanceled",
      "inputs": [
        {
          "name": "proposalId",
          "type": "uint256",
          "indexed": false,
          "internalType": "uint256"
        }
      ],
      "anonymous": false
    },
    {
      "type": "event",
      "name": "ProposalCreated",
      "inputs": [
        {
          "name": "proposalId",
          "type": "uint256",
          "indexed": false,
          "internalType": "uint256"
        },
        {
          "name": "proposer",
          "type": "address",
          "indexed": false,
          "internalType": "address"
        },
        {
          "name": "targets",
          "type": "address[]",
          "indexed": false,
          "internalType": "address[]"
        },
        {
          "name": "values",
          "type": "uint256[]",
          "indexed": false,
          "internalType": "uint256[]"
        },
        {
          "name": "signatures",
          "type": "string[]",
          "indexed": false,
          "internalType": "string[]"
        },
        {
          "name": "calldatas",
          "type": "bytes[]",
          "indexed": false,
          "internalType": "bytes[]"
        },
        {
          "name": "voteStart",
          "type": "uint256",
          "indexed": false,
          "internalType": "uint256"
        },
        {
          "name": "voteEnd",
          "type": "uint256",
          "indexed": false,
          "internalType": "uint256"
        },
        {
          "name": "description",
          "type": "string",
          "indexed": false,
          "internalType": "string"
        }
      ],
      "anonymous": false
    },
    {
      "type": "event",
      "name": "ProposalExecuted",
      "inputs": [
        {
          "name": "proposalId",
          "type": "uint256",
          "indexed": false,
          "internalType": "uint256"
        }
      ],
      "anonymous": false
    },
    {
      "type": "event",
      "name": "ProposalQueued",
      "inputs": [
        {
          "name": "proposalId",
          "type": "uint256",
          "indexed": false,
          "internalType": "uint256"
        },
        {
          "name": "eta",
          "type": "uint256",
          "indexed": false,
          "internalType": "uint256"
        }
      ],
      "anonymous": false
    },
    {
      "type": "event",
      "name": "QuorumNumeratorUpdated",
      "inputs": [
        {
          "name": "oldQuorumNumerator",
          "type": "uint256",
          "indexed": false,
          "internalType": "uint256"
        },
        {
          "name": "newQuorumNumerator",
          "type": "uint256",
          "indexed": false,
          "internalType": "uint256"
        }
      ],
      "anonymous": false
    },
    {
      "type": "event",
      "name": "TimelockChange",
      "inputs": [
        {
          "name": "oldTimelock",
          "type": "address",
          "indexed": false,
          "internalType": "address"
        },
        {
          "name": "newTimelock",
          "type": "address",
          "indexed": false,
          "internalType": "address"
        }
      ],
      "anonymous": false
    },
    {
      "type": "event",
      "name": "VoteCast",
      "inputs": [
        {
          "name": "voter",
          "type": "address",
          "indexed": true,
          "internalType": "address"
        },
        {
          "name": "proposalId",
          "type": "uint256",
          "indexed": false,
          "internalType": "uint256"
        },
        {
          "name": "support",
          "type": "uint8",
          "indexed": false,
          "internalType": "uint8"
        },
        {
          "name": "weight",
          "type": "uint256",
          "indexed": false,
          "internalType": "uint256"
        },
        {
          "name": "reason",
          "type": "string",
          "indexed": false,
          "internalType": "string"
        }
      ],
      "anonymous": false
    },
    {
      "type": "event",
      "name": "VoteCastWithParams",
      "inputs": [
        {
          "name": "voter",
          "type": "address",
          "indexed": true,
          "internalType": "address"
        },
        {
          "name": "proposalId",
          "type": "uint256",
          "indexed": false,
          "internalType": "uint256"
        },
        {
          "name": "support",
          "type": "uint8",
          "indexed": false,
          "internalType": "uint8"
        },
        {
          "name": "weight",
          "type": "uint256",
          "indexed": false,
          "internalType": "uint256"
        },
        {
          "name": "reason",
          "type": "string",
          "indexed": false,
          "internalType": "string"
        },
        {
          "name": "params",
          "type": "bytes",
          "indexed": false,
          "internalType": "bytes"
        }
      ],
      "anonymous": false
    },
    {
      "type": "error",
      "name": "Empty",
      "inputs": []
    },
    {
      "type": "error",
      "name": "InvalidShortString",
      "inputs": []
    },
    {
      "type": "error",
      "name": "StringTooLong",
      "inputs": [
        {
          "name": "str",
          "type": "string",
          "internalType": "string"
        }
      ]
    }
  ],
  "bytecode": {
    "object": "0x61018060405234801562000011575f80fd5b5060405162004d2638038062004d268339810160408190526200003491620007e6565b600482826040518060400160405280600a81526020016926bca3b7bb32b93737b960b11b815250806200006c6200015d60201b60201c565b62000078825f62000178565b610120526200008981600162000178565b61014052815160208084019190912060e052815190820120610100524660a0526200011660e05161010051604080517f8b73c3c69bb8fe3d512ecc4cf759cc79239f7b179b0ffacaa9a75d522b39400f60208201529081019290925260608201524660808201523060a08201525f9060c00160405160208183030381529060405280519060200120905090565b60805250503060c05260026200012d8282620008c3565b506200013b905081620001b0565b506001600160a01b031661016052620001548162000219565b50505062000a43565b6040805180820190915260018152603160f81b602082015290565b5f60208351101562000197576200018f8362000399565b9050620001aa565b81620001a48482620008c3565b5060ff90505b92915050565b600654604080516001600160a01b03928316815291831660208301527f08f74ea46ef7894f65eabfb5e6e695de773a000b47c529ab559178069b226401910160405180910390a1600680546001600160a01b0319166001600160a01b0392909216919091179055565b6064811115620002a25760405162461bcd60e51b815260206004820152604360248201527f476f7665726e6f72566f74657351756f72756d4672616374696f6e3a2071756f60448201527f72756d4e756d657261746f72206f7665722071756f72756d44656e6f6d696e616064820152623a37b960e91b608482015260a4015b60405180910390fd5b5f620002ad620003db565b90508015801590620002bf5750600954155b156200032557604080518082019091525f815260099060208101620002e48462000409565b6001600160e01b0390811690915282546001810184555f938452602093849020835194909301519091166401000000000263ffffffff909316929092179101555b6200035a620003456200033762000477565b65ffffffffffff16620004ed565b620003508462000409565b6009919062000553565b505060408051828152602081018490527f0553476bf02ef2726e8ce5ced78d63e26e602e4a2257b1f559418e24b4633997910160405180910390a15050565b5f80829050601f81511115620003c6578260405163305a27a960e01b81526004016200029991906200098b565b8051620003d382620009d8565b179392505050565b6009545f90156200040057620003f260096200056f565b6001600160e01b0316905090565b6008545b905090565b5f6001600160e01b03821115620004735760405162461bcd60e51b815260206004820152602760248201527f53616665436173743a2076616c756520646f65736e27742066697420696e20326044820152663234206269747360c81b606482015260840162000299565b5090565b5f610160516001600160a01b03166391ddadf46040518163ffffffff1660e01b8152600401602060405180830381865afa925050508015620004d8575060408051601f3d908101601f19168201909252620004d591810190620009fc565b60015b620004e8576200040443620005ba565b919050565b5f63ffffffff821115620004735760405162461bcd60e51b815260206004820152602660248201527f53616665436173743a2076616c756520646f65736e27742066697420696e203360448201526532206269747360d01b606482015260840162000299565b5f806200056285858562000622565b915091505b935093915050565b80545f908015620005b15762000599836200058c60018462000a23565b5f91825260209091200190565b5464010000000090046001600160e01b0316620005b3565b5f5b9392505050565b5f65ffffffffffff821115620004735760405162461bcd60e51b815260206004820152602660248201527f53616665436173743a2076616c756520646f65736e27742066697420696e203460448201526538206269747360d01b606482015260840162000299565b82545f908190801562000774575f62000642876200058c60018562000a23565b60408051808201909152905463ffffffff8082168084526401000000009092046001600160e01b031660208401529192509087161015620006c65760405162461bcd60e51b815260206004820152601b60248201527f436865636b706f696e743a2064656372656173696e67206b6579730000000000604482015260640162000299565b805163ffffffff808816911603620007145784620006eb886200058c60018662000a23565b80546001600160e01b03929092166401000000000263ffffffff90921691909117905562000763565b6040805180820190915263ffffffff80881682526001600160e01b0380881660208085019182528b54600181018d555f8d81529190912094519151909216640100000000029216919091179101555b602001519250839150620005679050565b50506040805180820190915263ffffffff80851682526001600160e01b0380851660208085019182528854600181018a555f8a81529182209551925190931664010000000002919093161792019190915590508162000567565b6001600160a01b0381168114620007e3575f80fd5b50565b5f8060408385031215620007f8575f80fd5b82516200080581620007ce565b60208401519092506200081881620007ce565b809150509250929050565b634e487b7160e01b5f52604160045260245ffd5b600181811c908216806200084c57607f821691505b6020821081036200086b57634e487b7160e01b5f52602260045260245ffd5b50919050565b601f821115620008be575f81815260208120601f850160051c81016020861015620008995750805b601f850160051c820191505b81811015620008ba57828155600101620008a5565b5050505b505050565b81516001600160401b03811115620008df57620008df62000823565b620008f781620008f0845462000837565b8462000871565b602080601f8311600181146200092d575f8415620009155750858301515b5f19600386901b1c1916600185901b178555620008ba565b5f85815260208120601f198616915b828110156200095d578886015182559484019460019091019084016200093c565b50858210156200097b57878501515f19600388901b60f8161c191681555b5050505050600190811b01905550565b5f6020808352835180828501525f5b81811015620009b8578581018301518582016040015282016200099a565b505f604082860101526040601f19601f8301168501019250505092915050565b805160208083015191908110156200086b575f1960209190910360031b1b16919050565b5f6020828403121562000a0d575f80fd5b815165ffffffffffff81168114620005b3575f80fd5b81810381811115620001aa57634e487b7160e01b5f52601160045260245ffd5b60805160a05160c05160e0516101005161012051610140516101605161426b62000abb5f395f818161092101528181610fed015281816112ab015281816121fd015261233b01525f61125901525f61122f01525f61253401525f61250c01525f61246701525f61249101525f6124bb015261426b5ff3fe608060405260043610610257575f3560e01c806360c4247f1161013f578063bc197c81116100b3578063dd4e2ba511610078578063dd4e2ba51461082f578063deaaa7cc14610874578063eb9019d4146108a7578063f23a6e61146108c6578063f8ce560a146108f1578063fc0c546a14610910575f80fd5b8063bc197c811461077e578063c01f9e37146107a9578063c28bc2fa146107e0578063c59057e4146107f3578063d33219b414610812575f80fd5b806397c3d3341161010457806397c3d334146106e85780639a802a6d146106fb578063a7713a701461071a578063a890c9101461072e578063ab58fb8e1461074d578063b58131b01461076c575f80fd5b806360c4247f146106395780637b3c71d3146106585780637d5e81e21461067757806384b0196e1461069657806391ddadf4146106bd575f80fd5b80632fe3e261116101d6578063452115d61161019b578063452115d61461054c5780634bf5d7e91461056b578063544ffc9c1461057f57806354fd4d50146105d257806356781388146105fb5780635f398a141461061a575f80fd5b80632fe3e261146104735780633932abb1146104a65780633bccf4fd146104b95780633e4f49e6146104d85780634385963214610504575f80fd5b8063143489d01161021c578063143489d014610377578063150b7a02146103ca578063160cbed71461040d5780632656227d1461042c5780632d63f6931461043f575f80fd5b806301ffc9a7146102c657806302a251a3146102fa578063034201811461031857806306f3f9e61461033757806306fdde0314610356575f80fd5b366102c25730610265610943565b6001600160a01b0316146102c05760405162461bcd60e51b815260206004820152601f60248201527f476f7665726e6f723a206d7573742073656e6420746f206578656375746f720060448201526064015b60405180910390fd5b005b5f80fd5b3480156102d1575f80fd5b506102e56102e036600461336e565b61095b565b60405190151581526020015b60405180910390f35b348015610305575f80fd5b5061b2fa5b6040519081526020016102f1565b348015610323575f80fd5b5061030a6103323660046134ac565b61096b565b348015610342575f80fd5b506102c061035136600461354b565b610a61565b348015610361575f80fd5b5061036a610aea565b6040516102f191906135af565b348015610382575f80fd5b506103b261039136600461354b565b5f90815260036020526040902054600160401b90046001600160a01b031690565b6040516001600160a01b0390911681526020016102f1565b3480156103d5575f80fd5b506103f46103e43660046135d5565b630a85bd0160e11b949350505050565b6040516001600160e01b031990911681526020016102f1565b348015610418575f80fd5b5061030a61042736600461379d565b610b7a565b61030a61043a36600461379d565b610d6e565b34801561044a575f80fd5b5061030a61045936600461354b565b5f908152600360205260409020546001600160401b031690565b34801561047e575f80fd5b5061030a7fb3b3f3b703cd84ce352197dcff232b1b5d3cfb2025ce47cf04742d0651f1af8881565b3480156104b1575f80fd5b50600161030a565b3480156104c4575f80fd5b5061030a6104d3366004613826565b610e5d565b3480156104e3575f80fd5b506104f76104f236600461354b565b610ed1565b6040516102f19190613884565b34801561050f575f80fd5b506102e561051e3660046138aa565b5f828152600a602090815260408083206001600160a01b038516845260030190915290205460ff1692915050565b348015610557575f80fd5b5061030a61056636600461379d565b610edb565b348015610576575f80fd5b5061036a610fe9565b34801561058a575f80fd5b506105b761059936600461354b565b5f908152600a60205260409020805460018201546002909201549092565b604080519384526020840192909252908201526060016102f1565b3480156105dd575f80fd5b506040805180820190915260018152603160f81b602082015261036a565b348015610606575f80fd5b5061030a6106153660046138d8565b6110a9565b348015610625575f80fd5b5061030a610634366004613902565b6110d0565b348015610644575f80fd5b5061030a61065336600461354b565b611118565b348015610663575f80fd5b5061030a61067236600461397f565b6111c6565b348015610682575f80fd5b5061030a6106913660046139d4565b61120c565b3480156106a1575f80fd5b506106aa611222565b6040516102f19796959493929190613ab9565b3480156106c8575f80fd5b506106d16112a8565b60405165ffffffffffff90911681526020016102f1565b3480156106f3575f80fd5b50606461030a565b348015610706575f80fd5b5061030a610715366004613b1a565b611330565b348015610725575f80fd5b5061030a611346565b348015610739575f80fd5b506102c0610748366004613b6e565b61136f565b348015610758575f80fd5b5061030a61076736600461354b565b6113f5565b348015610777575f80fd5b505f61030a565b348015610789575f80fd5b506103f4610798366004613b89565b63bc197c8160e01b95945050505050565b3480156107b4575f80fd5b5061030a6107c336600461354b565b5f908152600360205260409020600101546001600160401b031690565b6102c06107ee366004613c15565b61148b565b3480156107fe575f80fd5b5061030a61080d36600461379d565b611595565b34801561081d575f80fd5b506006546001600160a01b03166103b2565b34801561083a575f80fd5b506040805180820190915260208082527f737570706f72743d627261766f2671756f72756d3d666f722c6162737461696e9082015261036a565b34801561087f575f80fd5b5061030a7f150214d74d59b7d1e90c73fc22ef3d991dd0a76b046543d4d80ab92d2a50328f81565b3480156108b2575f80fd5b5061030a6108c1366004613c54565b6115ce565b3480156108d1575f80fd5b506103f46108e0366004613c7e565b63f23a6e6160e01b95945050505050565b3480156108fc575f80fd5b5061030a61090b36600461354b565b6115ed565b34801561091b575f80fd5b506103b27f000000000000000000000000000000000000000000000000000000000000000081565b5f6109566006546001600160a01b031690565b905090565b5f610965826115f7565b92915050565b5f80610a0e610a067fb3b3f3b703cd84ce352197dcff232b1b5d3cfb2025ce47cf04742d0651f1af888c8c8c8c6040516109a6929190613ce1565b60405180910390208b805190602001206040516020016109eb959493929190948552602085019390935260ff9190911660408401526060830152608082015260a00190565b6040516020818303038152906040528051906020012061161b565b868686611647565b9050610a538a828b8b8b8080601f0160208091040260200160405190810160405280939291908181526020018383808284375f920191909152508d9250611663915050565b9a9950505050505050505050565b610a69610943565b6001600160a01b0316336001600160a01b031614610a995760405162461bcd60e51b81526004016102b790613cf0565b30610aa2610943565b6001600160a01b031614610ade575f8036604051610ac1929190613ce1565b604051809103902090505b80610ad760046117b5565b03610acc57505b610ae781611832565b50565b606060028054610af990613d27565b80601f0160208091040260200160405190810160405280929190818152602001828054610b2590613d27565b8015610b705780601f10610b4757610100808354040283529160200191610b70565b820191905f5260205f20905b815481529060010190602001808311610b5357829003601f168201915b5050505050905090565b5f80610b8886868686611595565b90506004610b9582610ed1565b6007811115610ba657610ba6613870565b14610bc35760405162461bcd60e51b81526004016102b790613d5f565b6006546040805163793d064960e11b815290515f926001600160a01b03169163f27a0c929160048083019260209291908290030181865afa158015610c0a573d5f803e3d5ffd5b505050506040513d601f19601f82011682018060405250810190610c2e9190613da0565b60065460405163b1c5f42760e01b81529192506001600160a01b03169063b1c5f42790610c67908a908a908a905f908b90600401613e41565b602060405180830381865afa158015610c82573d5f803e3d5ffd5b505050506040513d601f19601f82011682018060405250810190610ca69190613da0565b5f838152600760205260408082209290925560065491516308f2a0bb60e41b81526001600160a01b0390921691638f2a0bb091610cf0918b918b918b91908b908990600401613e8e565b5f604051808303815f87803b158015610d07575f80fd5b505af1158015610d19573d5f803e3d5ffd5b505050507f9a2e42fd6722813d69113e7d0079d3d940171428df7373df9c7f7617cfda2892828242610d4b9190613ef9565b604080519283526020830191909152015b60405180910390a15095945050505050565b5f80610d7c86868686611595565b90505f610d8882610ed1565b90506004816007811115610d9e57610d9e613870565b1480610dbb57506005816007811115610db957610db9613870565b145b610dd75760405162461bcd60e51b81526004016102b790613d5f565b5f8281526003602052604090819020600201805460ff19166001179055517f712ae1383f79ac853f8d882153778e0260ef8f03b504e2866e0593e04d2b291f90610e249084815260200190565b60405180910390a1610e39828888888861199d565b610e468288888888611a3e565b610e538288888888611a4b565b5095945050505050565b604080517f150214d74d59b7d1e90c73fc22ef3d991dd0a76b046543d4d80ab92d2a50328f602082015290810186905260ff851660608201525f908190610eaa90610a06906080016109eb565b9050610ec687828860405180602001604052805f815250611a83565b979650505050505050565b5f61096582611aa4565b5f80610ee986868686611595565b90505f610ef582610ed1565b6007811115610f0657610f06613870565b14610f535760405162461bcd60e51b815260206004820152601c60248201527f476f7665726e6f723a20746f6f206c61746520746f2063616e63656c0000000060448201526064016102b7565b5f81815260036020526040902054600160401b90046001600160a01b0316336001600160a01b031614610fd35760405162461bcd60e51b815260206004820152602260248201527f476f7665726e6f723a206f6e6c792070726f706f7365722063616e2063616e63604482015261195b60f21b60648201526084016102b7565b610fdf86868686611be8565b9695505050505050565b60607f00000000000000000000000000000000000000000000000000000000000000006001600160a01b0316634bf5d7e96040518163ffffffff1660e01b81526004015f60405180830381865afa92505050801561106857506040513d5f823e601f3d908101601f191682016040526110659190810190613f0c565b60015b6110a4575060408051808201909152601d81527f6d6f64653d626c6f636b6e756d6265722666726f6d3d64656661756c74000000602082015290565b919050565b5f803390506110c884828560405180602001604052805f815250611a83565b949350505050565b5f80339050610ec687828888888080601f0160208091040260200160405190810160405280939291908181526020018383808284375f920191909152508a9250611663915050565b6009545f9080820361112e575050600854919050565b5f600961113c600184613f74565b8154811061114c5761114c613f87565b5f9182526020918290206040805180820190915291015463ffffffff8116808352600160201b9091046001600160e01b031692820192909252915084106111a157602001516001600160e01b03169392505050565b6111b56111ad85611bf5565b600990611c5d565b6001600160e01b0316949350505050565b5f80339050610fdf86828787878080601f0160208091040260200160405190810160405280939291908181526020018383808284375f92019190915250611a8392505050565b5f61121985858585611d0a565b95945050505050565b5f606080828080836112547f0000000000000000000000000000000000000000000000000000000000000000836120c6565b61127f7f000000000000000000000000000000000000000000000000000000000000000060016120c6565b604080515f80825260208201909252600f60f81b9b939a50919850469750309650945092509050565b5f7f00000000000000000000000000000000000000000000000000000000000000006001600160a01b03166391ddadf46040518163ffffffff1660e01b8152600401602060405180830381865afa925050508015611323575060408051601f3d908101601f1916820190925261132091810190613f9b565b60015b6110a4576109564361216f565b5f61133c8484846121d5565b90505b9392505050565b6009545f90156113685761135a6009612268565b6001600160e01b0316905090565b5060085490565b611377610943565b6001600160a01b0316336001600160a01b0316146113a75760405162461bcd60e51b81526004016102b790613cf0565b306113b0610943565b6001600160a01b0316146113ec575f80366040516113cf929190613ce1565b604051809103902090505b806113e560046117b5565b036113da57505b610ae781612297565b6006545f8281526007602052604080822054905163d45c443560e01b81526004810191909152909182916001600160a01b039091169063d45c443590602401602060405180830381865afa15801561144f573d5f803e3d5ffd5b505050506040513d601f19601f820116820180604052508101906114739190613da0565b905080600114611483578061133f565b5f9392505050565b611493610943565b6001600160a01b0316336001600160a01b0316146114c35760405162461bcd60e51b81526004016102b790613cf0565b306114cc610943565b6001600160a01b031614611508575f80366040516114eb929190613ce1565b604051809103902090505b8061150160046117b5565b036114f657505b5f80856001600160a01b0316858585604051611525929190613ce1565b5f6040518083038185875af1925050503d805f811461155f576040519150601f19603f3d011682016040523d82523d5f602084013e611564565b606091505b509150915061158c828260405180606001604052806028815260200161420e60289139612300565b50505050505050565b5f848484846040516020016115ad9493929190613fc0565b60408051601f19818403018152919052805160209091012095945050505050565b5f61133f83836115e860408051602081019091525f815290565b6121d5565b5f61096582612319565b5f6001600160e01b03198216636e665ced60e01b14806109655750610965826123c0565b5f61096561162761245b565b8360405161190160f01b8152600281019290925260228201526042902090565b5f805f61165687878787612584565b91509150610e5381612641565b5f858152600360205260408120600161167b88610ed1565b600781111561168c5761168c613870565b146116e55760405162461bcd60e51b815260206004820152602360248201527f476f7665726e6f723a20766f7465206e6f742063757272656e746c792061637460448201526269766560e81b60648201526084016102b7565b80545f906116fe9088906001600160401b0316866121d5565b905061170d888888848861278a565b83515f0361176157866001600160a01b03167fb8e138887d0aa13bab447e82de9d5c1777041ecd21ca36ba824ff1e6c07ddda489888489604051611754949392919061400a565b60405180910390a2610ec6565b866001600160a01b03167fe2babfbac5889a709b63bb7f598b324e08bc5a4fb9ec647fb3cbc9ec07eb871289888489896040516117a2959493929190614031565b60405180910390a2979650505050505050565b5f6117cf8254600f81810b600160801b909204900b131590565b156117ed57604051631ed9509560e11b815260040160405180910390fd5b508054600f0b5f818152600180840160205260408220805492905583546fffffffffffffffffffffffffffffffff191692016001600160801b03169190911790915590565b60648111156118b55760405162461bcd60e51b815260206004820152604360248201527f476f7665726e6f72566f74657351756f72756d4672616374696f6e3a2071756f60448201527f72756d4e756d657261746f72206f7665722071756f72756d44656e6f6d696e616064820152623a37b960e91b608482015260a4016102b7565b5f6118be611346565b905080158015906118cf5750600954155b1561193157604080518082019091525f8152600990602081016118f1846128fd565b6001600160e01b0390811690915282546001810184555f93845260209384902083519490930151909116600160201b0263ffffffff909316929092179101555b61195e61194c61193f6112a8565b65ffffffffffff16611bf5565b611955846128fd565b60099190612965565b505060408051828152602081018490527f0553476bf02ef2726e8ce5ced78d63e26e602e4a2257b1f559418e24b4633997910160405180910390a15050565b306119a6610943565b6001600160a01b031614611a37575f5b8451811015611a3557306001600160a01b03168582815181106119db576119db613f87565b60200260200101516001600160a01b031603611a2557611a25838281518110611a0657611a06613f87565b602002602001015180519060200120600461297f90919063ffffffff16565b611a2e81614076565b90506119b6565b505b5050505050565b611a3785858585856129ba565b30611a54610943565b6001600160a01b031614611a3757600454600f81810b600160801b909204900b1315611a37575f600455611a37565b5f61121985858585611a9f60408051602081019091525f815290565b611663565b5f80611aaf83612a29565b90506004816007811115611ac557611ac5613870565b14611ad05792915050565b5f8381526007602052604090205480611aea575092915050565b600654604051632ab0f52960e01b8152600481018390526001600160a01b0390911690632ab0f52990602401602060405180830381865afa158015611b31573d5f803e3d5ffd5b505050506040513d601f19601f82011682018060405250810190611b55919061408e565b15611b64575060079392505050565b600654604051632c258a9f60e11b8152600481018390526001600160a01b039091169063584b153e90602401602060405180830381865afa158015611bab573d5f803e3d5ffd5b505050506040513d601f19601f82011682018060405250810190611bcf919061408e565b15611bde575060059392505050565b5060029392505050565b5f61121985858585612b63565b5f63ffffffff821115611c595760405162461bcd60e51b815260206004820152602660248201527f53616665436173743a2076616c756520646f65736e27742066697420696e203360448201526532206269747360d01b60648201526084016102b7565b5090565b81545f9081816005811115611cb7575f611c7684612c0c565b611c809085613f74565b5f8881526020902090915081015463ffffffff9081169087161015611ca757809150611cb5565b611cb2816001613ef9565b92505b505b5f611cc487878585612cf0565b90508015611cfe57611ce887611cdb600184613f74565b5f91825260209091200190565b54600160201b90046001600160e01b0316610ec6565b5f979650505050505050565b5f33611d168184612d4b565b611d625760405162461bcd60e51b815260206004820152601d60248201527f476f7665726e6f723a2070726f706f736572207265737472696374656400000060448201526064016102b7565b5f611d6b6112a8565b65ffffffffffff1690505f611d85836108c1600185613f74565b1015611ded5760405162461bcd60e51b815260206004820152603160248201527f476f7665726e6f723a2070726f706f73657220766f7465732062656c6f7720706044820152701c9bdc1bdcd85b081d1a1c995cda1bdb19607a1b60648201526084016102b7565b5f611e018888888880519060200120611595565b90508651885114611e245760405162461bcd60e51b81526004016102b7906140ad565b8551885114611e455760405162461bcd60e51b81526004016102b7906140ad565b5f885111611e955760405162461bcd60e51b815260206004820152601860248201527f476f7665726e6f723a20656d7074792070726f706f73616c000000000000000060448201526064016102b7565b5f818152600360205260409020546001600160401b031615611f035760405162461bcd60e51b815260206004820152602160248201527f476f7665726e6f723a2070726f706f73616c20616c72656164792065786973746044820152607360f81b60648201526084016102b7565b5f611f0f600184613ef9565b90505f611f1e61b2fa83613ef9565b90506040518060e00160405280611f3484612e39565b6001600160401b031681526001600160a01b03871660208201525f6040820152606001611f6083612e39565b6001600160401b0390811682525f60208084018290526040808501839052606094850183905288835260038252918290208551815492870151878501519186166001600160e01b031990941693909317600160401b6001600160a01b039094168402176001600160e01b0316600160e01b60e09290921c91909102178155938501516080860151908416921c0217600183015560a08301516002909201805460c09094015161ffff1990941692151561ff00191692909217610100931515939093029290921790558a517f7d84a6263ae0d98d3329bd7b46bb4e8d6f98cd35a7adb45c274c8b7fd5ebd5e091859188918e918e91811115612063576120636133e9565b60405190808252806020026020018201604052801561209657816020015b60608152602001906001900390816120815790505b508d88888f6040516120b0999897969594939291906140ee565b60405180910390a1509098975050505050505050565b606060ff83146120e0576120d983612ea0565b9050610965565b8180546120ec90613d27565b80601f016020809104026020016040519081016040528092919081815260200182805461211890613d27565b80156121635780601f1061213a57610100808354040283529160200191612163565b820191905f5260205f20905b81548152906001019060200180831161214657829003601f168201915b50505050509050610965565b5f65ffffffffffff821115611c595760405162461bcd60e51b815260206004820152602660248201527f53616665436173743a2076616c756520646f65736e27742066697420696e203460448201526538206269747360d01b60648201526084016102b7565b604051630748d63560e31b81526001600160a01b038481166004830152602482018490525f917f000000000000000000000000000000000000000000000000000000000000000090911690633a46b1a890604401602060405180830381865afa158015612244573d5f803e3d5ffd5b505050506040513d601f19601f8201168201806040525081019061133c9190613da0565b80545f9080156114835761228183611cdb600184613f74565b54600160201b90046001600160e01b031661133f565b600654604080516001600160a01b03928316815291831660208301527f08f74ea46ef7894f65eabfb5e6e695de773a000b47c529ab559178069b226401910160405180910390a1600680546001600160a01b0319166001600160a01b0392909216919091179055565b6060831561230f57508161133f565b61133f8383612edd565b5f606461232583611118565b604051632394e7a360e21b8152600481018590527f00000000000000000000000000000000000000000000000000000000000000006001600160a01b031690638e539e8c90602401602060405180830381865afa158015612388573d5f803e3d5ffd5b505050506040513d601f19601f820116820180604052508101906123ac9190613da0565b6123b691906141c3565b61096591906141ee565b5f63288ace0360e11b6318df743f60e31b63bf26d89760e01b6379dd796f60e01b6001600160e01b0319861682148061240557506001600160e01b0319868116908216145b8061241c57506001600160e01b0319868116908516145b8061243757506001600160e01b03198616630271189760e51b145b80610fdf57506301ffc9a760e01b6001600160e01b03198716149695505050505050565b5f306001600160a01b037f0000000000000000000000000000000000000000000000000000000000000000161480156124b357507f000000000000000000000000000000000000000000000000000000000000000046145b156124dd57507f000000000000000000000000000000000000000000000000000000000000000090565b610956604080517f8b73c3c69bb8fe3d512ecc4cf759cc79239f7b179b0ffacaa9a75d522b39400f60208201527f0000000000000000000000000000000000000000000000000000000000000000918101919091527f000000000000000000000000000000000000000000000000000000000000000060608201524660808201523060a08201525f9060c00160405160208183030381529060405280519060200120905090565b5f807f7fffffffffffffffffffffffffffffff5d576e7357a4501ddfe92f46681b20a08311156125b957505f90506003612638565b604080515f8082526020820180845289905260ff881692820192909252606081018690526080810185905260019060a0016020604051602081039080840390855afa15801561260a573d5f803e3d5ffd5b5050604051601f1901519150506001600160a01b038116612632575f60019250925050612638565b91505f90505b94509492505050565b5f81600481111561265457612654613870565b0361265c5750565b600181600481111561267057612670613870565b036126bd5760405162461bcd60e51b815260206004820152601860248201527f45434453413a20696e76616c6964207369676e6174757265000000000000000060448201526064016102b7565b60028160048111156126d1576126d1613870565b0361271e5760405162461bcd60e51b815260206004820152601f60248201527f45434453413a20696e76616c6964207369676e6174757265206c656e6774680060448201526064016102b7565b600381600481111561273257612732613870565b03610ae75760405162461bcd60e51b815260206004820152602260248201527f45434453413a20696e76616c6964207369676e6174757265202773272076616c604482015261756560f01b60648201526084016102b7565b5f858152600a602090815260408083206001600160a01b0388168452600381019092529091205460ff16156128115760405162461bcd60e51b815260206004820152602760248201527f476f7665726e6f72566f74696e6753696d706c653a20766f746520616c726561604482015266191e4818d85cdd60ca1b60648201526084016102b7565b6001600160a01b0385165f9081526003820160205260409020805460ff1916600117905560ff841661285a5782815f015f82825461284f9190613ef9565b90915550611a359050565b5f1960ff8516016128785782816001015f82825461284f9190613ef9565b60011960ff8516016128975782816002015f82825461284f9190613ef9565b60405162461bcd60e51b815260206004820152603560248201527f476f7665726e6f72566f74696e6753696d706c653a20696e76616c69642076616044820152746c756520666f7220656e756d20566f74655479706560581b60648201526084016102b7565b5f6001600160e01b03821115611c595760405162461bcd60e51b815260206004820152602760248201527f53616665436173743a2076616c756520646f65736e27742066697420696e20326044820152663234206269747360c81b60648201526084016102b7565b5f80612972858585612f07565b915091505b935093915050565b8154600160801b90819004600f0b5f818152600180860160205260409091209390935583546001600160801b03908116939091011602179055565b60065460405163e38335e560e01b81526001600160a01b039091169063e38335e59034906129f4908890889088905f908990600401613e41565b5f604051808303818588803b158015612a0b575f80fd5b505af1158015612a1d573d5f803e3d5ffd5b50505050505050505050565b5f818152600360205260408120600281015460ff1615612a4c5750600792915050565b6002810154610100900460ff1615612a675750600292915050565b5f838152600360205260408120546001600160401b031690819003612ace5760405162461bcd60e51b815260206004820152601d60248201527f476f7665726e6f723a20756e6b6e6f776e2070726f706f73616c20696400000060448201526064016102b7565b5f612ad76112a8565b65ffffffffffff169050808210612af257505f949350505050565b5f858152600360205260409020600101546001600160401b0316818110612b1f5750600195945050505050565b612b28866130a2565b8015612b4657505f868152600a602052604090208054600190910154115b15612b575750600495945050505050565b50600395945050505050565b5f80612b71868686866130ec565b5f8181526007602052604090205490915015611219576006545f828152600760205260409081902054905163c4d252f560e01b81526001600160a01b039092169163c4d252f591612bc89160040190815260200190565b5f604051808303815f87803b158015612bdf575f80fd5b505af1158015612bf1573d5f803e3d5ffd5b5050505f828152600760205260408120555095945050505050565b5f815f03612c1b57505f919050565b5f6001612c27846131f5565b901c6001901b90506001818481612c4057612c406141da565b048201901c90506001818481612c5857612c586141da565b048201901c90506001818481612c7057612c706141da565b048201901c90506001818481612c8857612c886141da565b048201901c90506001818481612ca057612ca06141da565b048201901c90506001818481612cb857612cb86141da565b048201901c90506001818481612cd057612cd06141da565b048201901c905061133f81828581612cea57612cea6141da565b04613288565b5f5b81831015612d43575f612d05848461329d565b5f8781526020902090915063ffffffff86169082015463ffffffff161115612d2f57809250612d3d565b612d3a816001613ef9565b93505b50612cf2565b509392505050565b80515f906034811015612d62576001915050610965565b82810160131901516001600160a01b031981166b046e0e4dee0dee6cae47a60f60a31b14612d9557600192505050610965565b5f80612da2602885613f74565b90505b83811015612e18575f80612dd8888481518110612dc457612dc4613f87565b01602001516001600160f81b0319166132b7565b9150915081612df05760019650505050505050610965565b8060ff166004856001600160a01b0316901b179350505080612e1190614076565b9050612da5565b50856001600160a01b0316816001600160a01b031614935050505092915050565b5f6001600160401b03821115611c595760405162461bcd60e51b815260206004820152602660248201527f53616665436173743a2076616c756520646f65736e27742066697420696e203660448201526534206269747360d01b60648201526084016102b7565b60605f612eac83613347565b6040805160208082528183019092529192505f91906020820181803683375050509182525060208101929092525090565b815115612eed5781518083602001fd5b8060405162461bcd60e51b81526004016102b791906135af565b82545f908190801561304a575f612f2387611cdb600185613f74565b60408051808201909152905463ffffffff808216808452600160201b9092046001600160e01b031660208401529192509087161015612fa45760405162461bcd60e51b815260206004820152601b60248201527f436865636b706f696e743a2064656372656173696e67206b657973000000000060448201526064016102b7565b805163ffffffff808816911603612fec5784612fc588611cdb600186613f74565b80546001600160e01b0392909216600160201b0263ffffffff90921691909117905561303a565b6040805180820190915263ffffffff80881682526001600160e01b0380881660208085019182528b54600181018d555f8d81529190912094519151909216600160201b029216919091179101555b6020015192508391506129779050565b50506040805180820190915263ffffffff80851682526001600160e01b0380851660208085019182528854600181018a555f8a815291822095519251909316600160201b029190931617920191909155905081612977565b5f818152600a60205260408120600281015460018201546130c39190613ef9565b5f848152600360205260409020546130e3906001600160401b03166115ed565b11159392505050565b5f806130fa86868686611595565b90505f61310682610ed1565b9050600281600781111561311c5761311c613870565b1415801561313c5750600681600781111561313957613139613870565b14155b801561315a5750600781600781111561315757613157613870565b14155b6131a65760405162461bcd60e51b815260206004820152601d60248201527f476f7665726e6f723a2070726f706f73616c206e6f742061637469766500000060448201526064016102b7565b5f8281526003602052604090819020600201805461ff001916610100179055517f789cf55be980739dad1d0699b93b58e806b51c9d96619bfa8fe0a28abaa7b30c90610d5c9084815260200190565b5f80608083901c1561320957608092831c92015b604083901c1561321b57604092831c92015b602083901c1561322d57602092831c92015b601083901c1561323f57601092831c92015b600883901c1561325157600892831c92015b600483901c1561326357600492831c92015b600283901c1561327557600292831c92015b600183901c156109655760010192915050565b5f818310613296578161133f565b5090919050565b5f6132ab60028484186141ee565b61133f90848416613ef9565b5f8060f883901c602f811180156132d15750603a8160ff16105b156132e657600194602f199091019350915050565b8060ff1660401080156132fc575060478160ff16105b15613311576001946036199091019350915050565b8060ff166060108015613327575060678160ff16105b1561333c576001946056199091019350915050565b505f93849350915050565b5f60ff8216601f81111561096557604051632cd44ac360e21b815260040160405180910390fd5b5f6020828403121561337e575f80fd5b81356001600160e01b03198116811461133f575f80fd5b803560ff811681146110a4575f80fd5b5f8083601f8401126133b5575f80fd5b5081356001600160401b038111156133cb575f80fd5b6020830191508360208285010111156133e2575f80fd5b9250929050565b634e487b7160e01b5f52604160045260245ffd5b604051601f8201601f191681016001600160401b0381118282101715613425576134256133e9565b604052919050565b5f6001600160401b03821115613445576134456133e9565b50601f01601f191660200190565b5f6134656134608461342d565b6133fd565b9050828152838383011115613478575f80fd5b828260208301375f602084830101529392505050565b5f82601f83011261349d575f80fd5b61133f83833560208501613453565b5f805f805f805f8060e0898b0312156134c3575f80fd5b883597506134d360208a01613395565b965060408901356001600160401b03808211156134ee575f80fd5b6134fa8c838d016133a5565b909850965060608b0135915080821115613512575f80fd5b5061351f8b828c0161348e565b94505061352e60808a01613395565b925060a0890135915060c089013590509295985092959890939650565b5f6020828403121561355b575f80fd5b5035919050565b5f5b8381101561357c578181015183820152602001613564565b50505f910152565b5f815180845261359b816020860160208601613562565b601f01601f19169290920160200192915050565b602081525f61133f6020830184613584565b6001600160a01b0381168114610ae7575f80fd5b5f805f80608085870312156135e8575f80fd5b84356135f3816135c1565b93506020850135613603816135c1565b92506040850135915060608501356001600160401b03811115613624575f80fd5b6136308782880161348e565b91505092959194509250565b5f6001600160401b03821115613654576136546133e9565b5060051b60200190565b5f82601f83011261366d575f80fd5b8135602061367d6134608361363c565b82815260059290921b8401810191818101908684111561369b575f80fd5b8286015b848110156136bf5780356136b2816135c1565b835291830191830161369f565b509695505050505050565b5f82601f8301126136d9575f80fd5b813560206136e96134608361363c565b82815260059290921b84018101918181019086841115613707575f80fd5b8286015b848110156136bf578035835291830191830161370b565b5f82601f830112613731575f80fd5b813560206137416134608361363c565b82815260059290921b8401810191818101908684111561375f575f80fd5b8286015b848110156136bf5780356001600160401b03811115613781575f8081fd5b61378f8986838b010161348e565b845250918301918301613763565b5f805f80608085870312156137b0575f80fd5b84356001600160401b03808211156137c6575f80fd5b6137d28883890161365e565b955060208701359150808211156137e7575f80fd5b6137f3888389016136ca565b94506040870135915080821115613808575f80fd5b5061381587828801613722565b949793965093946060013593505050565b5f805f805f60a0868803121561383a575f80fd5b8535945061384a60208701613395565b935061385860408701613395565b94979396509394606081013594506080013592915050565b634e487b7160e01b5f52602160045260245ffd5b60208101600883106138a457634e487b7160e01b5f52602160045260245ffd5b91905290565b5f80604083850312156138bb575f80fd5b8235915060208301356138cd816135c1565b809150509250929050565b5f80604083850312156138e9575f80fd5b823591506138f960208401613395565b90509250929050565b5f805f805f60808688031215613916575f80fd5b8535945061392660208701613395565b935060408601356001600160401b0380821115613941575f80fd5b61394d89838a016133a5565b90955093506060880135915080821115613965575f80fd5b506139728882890161348e565b9150509295509295909350565b5f805f8060608587031215613992575f80fd5b843593506139a260208601613395565b925060408501356001600160401b038111156139bc575f80fd5b6139c8878288016133a5565b95989497509550505050565b5f805f80608085870312156139e7575f80fd5b84356001600160401b03808211156139fd575f80fd5b613a098883890161365e565b95506020870135915080821115613a1e575f80fd5b613a2a888389016136ca565b94506040870135915080821115613a3f575f80fd5b613a4b88838901613722565b93506060870135915080821115613a60575f80fd5b508501601f81018713613a71575f80fd5b61363087823560208401613453565b5f8151808452602080850194508084015f5b83811015613aae57815187529582019590820190600101613a92565b509495945050505050565b60ff60f81b8816815260e060208201525f613ad760e0830189613584565b8281036040840152613ae98189613584565b606084018890526001600160a01b038716608085015260a0840186905283810360c08501529050610a538185613a80565b5f805f60608486031215613b2c575f80fd5b8335613b37816135c1565b92506020840135915060408401356001600160401b03811115613b58575f80fd5b613b648682870161348e565b9150509250925092565b5f60208284031215613b7e575f80fd5b813561133f816135c1565b5f805f805f60a08688031215613b9d575f80fd5b8535613ba8816135c1565b94506020860135613bb8816135c1565b935060408601356001600160401b0380821115613bd3575f80fd5b613bdf89838a016136ca565b94506060880135915080821115613bf4575f80fd5b613c0089838a016136ca565b93506080880135915080821115613965575f80fd5b5f805f8060608587031215613c28575f80fd5b8435613c33816135c1565b93506020850135925060408501356001600160401b038111156139bc575f80fd5b5f8060408385031215613c65575f80fd5b8235613c70816135c1565b946020939093013593505050565b5f805f805f60a08688031215613c92575f80fd5b8535613c9d816135c1565b94506020860135613cad816135c1565b9350604086013592506060860135915060808601356001600160401b03811115613cd5575f80fd5b6139728882890161348e565b818382375f9101908152919050565b60208082526018908201527f476f7665726e6f723a206f6e6c79476f7665726e616e63650000000000000000604082015260600190565b600181811c90821680613d3b57607f821691505b602082108103613d5957634e487b7160e01b5f52602260045260245ffd5b50919050565b60208082526021908201527f476f7665726e6f723a2070726f706f73616c206e6f74207375636365737366756040820152601b60fa1b606082015260800190565b5f60208284031215613db0575f80fd5b5051919050565b5f8151808452602080850194508084015f5b83811015613aae5781516001600160a01b031687529582019590820190600101613dc9565b5f81518084526020808501808196508360051b810191508286015f5b85811015613e34578284038952613e22848351613584565b98850198935090840190600101613e0a565b5091979650505050505050565b60a081525f613e5360a0830188613db7565b8281036020840152613e658188613a80565b90508281036040840152613e798187613dee565b60608401959095525050608001529392505050565b60c081525f613ea060c0830189613db7565b8281036020840152613eb28189613a80565b90508281036040840152613ec68188613dee565b60608401969096525050608081019290925260a0909101529392505050565b634e487b7160e01b5f52601160045260245ffd5b8082018082111561096557610965613ee5565b5f60208284031215613f1c575f80fd5b81516001600160401b03811115613f31575f80fd5b8201601f81018413613f41575f80fd5b8051613f4f6134608261342d565b818152856020838501011115613f63575f80fd5b611219826020830160208601613562565b8181038181111561096557610965613ee5565b634e487b7160e01b5f52603260045260245ffd5b5f60208284031215613fab575f80fd5b815165ffffffffffff8116811461133f575f80fd5b608081525f613fd26080830187613db7565b8281036020840152613fe48187613a80565b90508281036040840152613ff88186613dee565b91505082606083015295945050505050565b84815260ff84166020820152826040820152608060608201525f610fdf6080830184613584565b85815260ff8516602082015283604082015260a060608201525f61405860a0830185613584565b828103608084015261406a8185613584565b98975050505050505050565b5f6001820161408757614087613ee5565b5060010190565b5f6020828403121561409e575f80fd5b8151801515811461133f575f80fd5b60208082526021908201527f476f7665726e6f723a20696e76616c69642070726f706f73616c206c656e67746040820152600d60fb1b606082015260800190565b5f6101208b8352602060018060a01b038c16818501528160408501526141168285018c613db7565b9150838203606085015261412a828b613a80565b915083820360808501528189518084528284019150828160051b850101838c015f5b8381101561417a57601f19878403018552614168838351613584565b9486019492509085019060010161414c565b505086810360a088015261418e818c613dee565b9450505050508560c08401528460e08401528281036101008401526141b38185613584565b9c9b505050505050505050505050565b808202811582820484141761096557610965613ee5565b634e487b7160e01b5f52601260045260245ffd5b5f8261420857634e487b7160e01b5f52601260045260245ffd5b50049056fe476f7665726e6f723a2072656c617920726576657274656420776974686f7574206d657373616765a2646970667358221220002428d777f1d95f85ea3ace2b756e3fb16d0c3c823b921adb566062a44bec3364736f6c63430008140033",
    "linkReferences": {}
  },
  "methodIdentifiers": {
    "BALLOT_TYPEHASH()": "deaaa7cc",
    "CLOCK_MODE()": "4bf5d7e9",
    "COUNTING_MODE()": "dd4e2ba5",
    "EXTENDED_BALLOT_TYPEHASH()": "2fe3e261",
    "cancel(address[],uint256[],bytes[],bytes32)": "452115d6",
    "castVote(uint256,uint8)": "56781388",
    "castVoteBySig(uint256,uint8,uint8,bytes32,bytes32)": "3bccf4fd",
    "castVoteWithReason(uint256,uint8,string)": "7b3c71d3",
    "castVoteWithReasonAndParams(uint256,uint8,string,bytes)": "5f398a14",
    "castVoteWithReasonAndParamsBySig(uint256,uint8,string,bytes,uint8,bytes32,bytes32)": "03420181",
    "clock()": "91ddadf4",
    "eip712Domain()": "84b0196e",
    "execute(address[],uint256[],bytes[],bytes32)": "2656227d",
    "getVotes(address,uint256)": "eb9019d4",
    "getVotesWithParams(address,uint256,bytes)": "9a802a6d",
    "hasVoted(uint256,address)": "43859632",
    "hashProposal(address[],uint256[],bytes[],bytes32)": "c59057e4",
    "name()": "06fdde03",
    "onERC1155BatchReceived(address,address,uint256[],uint256[],bytes)": "bc197c81",
    "onERC1155Received(address,address,uint256,uint256,bytes)": "f23a6e61",
    "onERC721Received(address,address,uint256,bytes)": "150b7a02",
    "proposalDeadline(uint256)": "c01f9e37",
    "proposalEta(uint256)": "ab58fb8e",
    "proposalProposer(uint256)": "143489d0",
    "proposalSnapshot(uint256)": "2d63f693",
    "proposalThreshold()": "b58131b0",
    "proposalVotes(uint256)": "544ffc9c",
    "propose(address[],uint256[],bytes[],string)": "7d5e81e2",
    "queue(address[],uint256[],bytes[],bytes32)": "160cbed7",
    "quorum(uint256)": "f8ce560a",
    "quorumDenominator()": "97c3d334",
    "quorumNumerator()": "a7713a70",
    "quorumNumerator(uint256)": "60c4247f",
    "relay(address,uint256,bytes)": "c28bc2fa",
    "state(uint256)": "3e4f49e6",
    "supportsInterface(bytes4)": "01ffc9a7",
    "timelock()": "d33219b4",
    "token()": "fc0c546a",
    "updateQuorumNumerator(uint256)": "06f3f9e6",
    "updateTimelock(address)": "a890c910",
    "version()": "54fd4d50",
    "votingDelay()": "3932abb1",
    "votingPeriod()": "02a251a3"
  },
  "id": 150
}