{
  "abi": [
    {
      "type": "function",
      "name": "current",
      "inputs": [],
      "outputs": [
        {
          "name": "",
          "type": "uint256",
          "internalType": "uint256"
        }
      ],
      "stateMutability": "view"
    },
    {
      "type": "function",
      "name": "increment",
      "inputs": [],
      "outputs": [],
      "stateMutability": "nonpayable"
    }
  ],
  "bytecode": {
    "object": "0x6080604052348015600e575f80fd5b5060948061001b5f395ff3fe6080604052348015600e575f80fd5b50600436106030575f3560e01c80639fa6a6e3146034578063d09de08a146048575b5f80fd5b5f5460405190815260200160405180910390f35b604e6050565b005b605c5f80546001019055565b56fea2646970667358221220c98d3676adcabdfefbe82cf3a61c29c512628868971e653ca34a2063d2b9ab6964736f6c63430008140033",
    "linkReferences": {}
  },
  "methodIdentifiers": {
    "current()": "9fa6a6e3",
    "increment()": "d09de08a"
  },
  "id": 130
}