{
  "abi": [
    {
      "type": "function",
      "name": "current",
      "inputs": [],
      "outputs": [
        {
          "name": "",
          "type": "uint256",
          "internalType": "uint256"
        }
      ],
      "stateMutability": "view"
    },
    {
      "type": "function",
      "name": "increment",
      "inputs": [],
      "outputs": [],
      "stateMutability": "nonpayable"
    },
    {
      "type": "function",
      "name": "proxiableUUID",
      "inputs": [],
      "outputs": [
        {
          "name": "",
          "type": "bytes32",
          "internalType": "bytes32"
        }
      ],
      "stateMutability": "view"
    },
    {
      "type": "function",
      "name": "upgradeTo",
      "inputs": [
        {
          "name": "newImplementation",
          "type": "address",
          "internalType": "address"
        }
      ],
      "outputs": [],
      "stateMutability": "nonpayable"
    },
    {
      "type": "function",
      "name": "upgradeToAndCall",
      "inputs": [
        {
          "name": "newImplementation",
          "type": "address",
          "internalType": "address"
        },
        {
          "name": "data",
          "type": "bytes",
          "internalType": "bytes"
        }
      ],
      "outputs": [],
      "stateMutability": "payable"
    },
    {
      "type": "event",
      "name": "AdminChanged",
      "inputs": [
        {
          "name": "previousAdmin",
          "type": "address",
          "indexed": false,
          "internalType": "address"
        },
        {
          "name": "newAdmin",
          "type": "address",
          "indexed": false,
          "internalType": "address"
        }
      ],
      "anonymous": false
    },
    {
      "type": "event",
      "name": "BeaconUpgraded",
      "inputs": [
        {
          "name": "beacon",
          "type": "address",
          "indexed": true,
          "internalType": "address"
        }
      ],
      "anonymous": false
    },
    {
      "type": "event",
      "name": "Upgraded",
      "inputs": [
        {
          "name": "implementation",
          "type": "address",
          "indexed": true,
          "internalType": "address"
        }
      ],
      "anonymous": false
    }
  ],
  "bytecode": {
    "object": "0x60a060405230608052348015610013575f80fd5b5060805161098d6100475f395f818160d801528181610121015281816101b5015281816101f5015261027d015261098d5ff3fe608060405260043610610049575f3560e01c80633659cfe61461004d5780634f1ef2861461006e57806352d1902d146100815780639fa6a6e3146100a7578063d09de08a146100ba575b5f80fd5b348015610058575f80fd5b5061006c610067366004610709565b6100ce565b005b61006c61007c366004610736565b6101ab565b34801561008c575f80fd5b50610095610271565b60405190815260200160405180910390f35b3480156100b2575f80fd5b505f54610095565b3480156100c5575f80fd5b5061006c610322565b6001600160a01b037f000000000000000000000000000000000000000000000000000000000000000016300361011f5760405162461bcd60e51b8152600401610116906107f2565b60405180910390fd5b7f00000000000000000000000000000000000000000000000000000000000000006001600160a01b03166101675f80516020610911833981519152546001600160a01b031690565b6001600160a01b03161461018d5760405162461bcd60e51b81526004016101169061083e565b604080515f808252602082019092526101a891839190610331565b50565b6001600160a01b037f00000000000000000000000000000000000000000000000000000000000000001630036101f35760405162461bcd60e51b8152600401610116906107f2565b7f00000000000000000000000000000000000000000000000000000000000000006001600160a01b031661023b5f80516020610911833981519152546001600160a01b031690565b6001600160a01b0316146102615760405162461bcd60e51b81526004016101169061083e565b61026d82826001610331565b5050565b5f306001600160a01b037f000000000000000000000000000000000000000000000000000000000000000016146103105760405162461bcd60e51b815260206004820152603860248201527f555550535570677261646561626c653a206d757374206e6f742062652063616c60448201527f6c6564207468726f7567682064656c656761746563616c6c00000000000000006064820152608401610116565b505f8051602061091183398151915290565b61032f5f80546001019055565b565b7f4910fdfa16fed3260ed0e7147f7cc6da11a60208b5b9406d12a635614ffd91435460ff161561036957610364836104a0565b505050565b826001600160a01b03166352d1902d6040518163ffffffff1660e01b8152600401602060405180830381865afa9250505080156103c3575060408051601f3d908101601f191682019092526103c09181019061088a565b60015b6104265760405162461bcd60e51b815260206004820152602e60248201527f45524331393637557067726164653a206e657720696d706c656d656e7461746960448201526d6f6e206973206e6f74205555505360901b6064820152608401610116565b5f8051602061091183398151915281146104945760405162461bcd60e51b815260206004820152602960248201527f45524331393637557067726164653a20756e737570706f727465642070726f786044820152681a58589b195555525160ba1b6064820152608401610116565b5061036483838361053b565b6001600160a01b0381163b61050d5760405162461bcd60e51b815260206004820152602d60248201527f455243313936373a206e657720696d706c656d656e746174696f6e206973206e60448201526c1bdd08184818dbdb9d1c9858dd609a1b6064820152608401610116565b5f8051602061091183398151915280546001600160a01b0319166001600160a01b0392909216919091179055565b61054483610565565b5f825111806105505750805b156103645761055f83836105a4565b50505050565b61056e816104a0565b6040516001600160a01b038216907fbc7cd75a20ee27fd9adebab32041f755214dbc6bffa90cc0225b39da2e5c2d3b905f90a250565b60606105c98383604051806060016040528060278152602001610931602791396105d0565b9392505050565b60605f80856001600160a01b0316856040516105ec91906108c3565b5f60405180830381855af49150503d805f8114610624576040519150601f19603f3d011682016040523d82523d5f602084013e610629565b606091505b509150915061063a86838387610644565b9695505050505050565b606083156106b25782515f036106ab576001600160a01b0385163b6106ab5760405162461bcd60e51b815260206004820152601d60248201527f416464726573733a2063616c6c20746f206e6f6e2d636f6e74726163740000006044820152606401610116565b50816106bc565b6106bc83836106c4565b949350505050565b8151156106d45781518083602001fd5b8060405162461bcd60e51b815260040161011691906108de565b80356001600160a01b0381168114610704575f80fd5b919050565b5f60208284031215610719575f80fd5b6105c9826106ee565b634e487b7160e01b5f52604160045260245ffd5b5f8060408385031215610747575f80fd5b610750836106ee565b9150602083013567ffffffffffffffff8082111561076c575f80fd5b818501915085601f83011261077f575f80fd5b81358181111561079157610791610722565b604051601f8201601f19908116603f011681019083821181831017156107b9576107b9610722565b816040528281528860208487010111156107d1575f80fd5b826020860160208301375f6020848301015280955050505050509250929050565b6020808252602c908201527f46756e6374696f6e206d7573742062652063616c6c6564207468726f7567682060408201526b19195b1959d85d1958d85b1b60a21b606082015260800190565b6020808252602c908201527f46756e6374696f6e206d7573742062652063616c6c6564207468726f7567682060408201526b6163746976652070726f787960a01b606082015260800190565b5f6020828403121561089a575f80fd5b5051919050565b5f5b838110156108bb5781810151838201526020016108a3565b50505f910152565b5f82516108d48184602087016108a1565b9190910192915050565b602081525f82518060208401526108fc8160408501602087016108a1565b601f01601f1916919091016040019291505056fe360894a13ba1a3210667c828492db98dca3e2076cc3735a920a3ca505d382bbc416464726573733a206c6f772d6c6576656c2064656c65676174652063616c6c206661696c6564a264697066735822122063e3d4e0e13fb3b24f443cbd7fedc235a41c69874749ab6057300ec91413149964736f6c63430008140033",
    "linkReferences": {}
  },
  "methodIdentifiers": {
    "current()": "9fa6a6e3",
    "increment()": "d09de08a",
    "proxiableUUID()": "52d1902d",
    "upgradeTo(address)": "3659cfe6",
    "upgradeToAndCall(address,bytes)": "4f1ef286"
  },
  "id": 130
}