{
  "abi": [
    {
      "type": "function",
      "name": "current",
      "inputs": [],
      "outputs": [
        {
          "name": "",
          "type": "uint256",
          "internalType": "uint256"
        }
      ],
      "stateMutability": "view"
    },
    {
      "type": "function",
      "name": "increment",
      "inputs": [],
      "outputs": [],
      "stateMutability": "nonpayable"
    },
    {
      "type": "function",
      "name": "proxiableUUID",
      "inputs": [],
      "outputs": [
        {
          "name": "",
          "type": "bytes32",
          "internalType": "bytes32"
        }
      ],
      "stateMutability": "view"
    },
    {
      "type": "function",
      "name": "upgradeTo",
      "inputs": [
        {
          "name": "newImplementation",
          "type": "address",
          "internalType": "address"
        }
      ],
      "outputs": [],
      "stateMutability": "nonpayable"
    },
    {
      "type": "function",
      "name": "upgradeToAndCall",
      "inputs": [
        {
          "name": "newImplementation",
          "type": "address",
          "internalType": "address"
        },
        {
          "name": "data",
          "type": "bytes",
          "internalType": "bytes"
        }
      ],
      "outputs": [],
      "stateMutability": "payable"
    },
    {
      "type": "event",
      "name": "AdminChanged",
      "inputs": [
        {
          "name": "previousAdmin",
          "type": "address",
          "indexed": false,
          "internalType": "address"
        },
        {
          "name": "newAdmin",
          "type": "address",
          "indexed": false,
          "internalType": "address"
        }
      ],
      "anonymous": false
    },
    {
      "type": "event",
      "name": "BeaconUpgraded",
      "inputs": [
        {
          "name": "beacon",
          "type": "address",
          "indexed": true,
          "internalType": "address"
        }
      ],
      "anonymous": false
    },
    {
      "type": "event",
      "name": "Upgraded",
      "inputs": [
        {
          "name": "implementation",
          "type": "address",
          "indexed": true,
          "internalType": "address"
        }
      ],
      "anonymous": false
    }
  ],
  "bytecode": {
    "object": "0x60a060405230608052348015610013575f80fd5b5060805161060361002c5f395f61010501526106035ff3fe608060405260043610610049575f3560e01c80633659cfe61461004d5780634f1ef2861461006e57806352d1902d146100815780639fa6a6e3146100a7578063d09de08a146100ba575b5f80fd5b348015610058575f80fd5b5061006c61006736600461044e565b6100ce565b005b61006c61007c36600461047b565b6100ea565b34801561008c575f80fd5b506100956100f9565b60405190815260200160405180910390f35b3480156100b2575f80fd5b505f54610095565b3480156100c5575f80fd5b5061006c6101c2565b6100e78160405180602001604052805f8152505f6101d1565b50565b6100f582825f6101d1565b5050565b5f306001600160a01b037f0000000000000000000000000000000000000000000000000000000000000000161461019d5760405162461bcd60e51b815260206004820152603860248201527f555550535570677261646561626c653a206d757374206e6f742062652063616c60448201527f6c6564207468726f7567682064656c656761746563616c6c000000000000000060648201526084015b60405180910390fd5b507f360894a13ba1a3210667c828492db98dca3e2076cc3735a920a3ca505d382bbc90565b6101cf5f80546001019055565b565b6101da836101fc565b5f825111806101e65750805b156101f7576101f5838361023b565b505b505050565b61020581610267565b6040516001600160a01b038216907fbc7cd75a20ee27fd9adebab32041f755214dbc6bffa90cc0225b39da2e5c2d3b905f90a250565b606061026083836040518060600160405280602781526020016105a760279139610315565b9392505050565b6001600160a01b0381163b6102d45760405162461bcd60e51b815260206004820152602d60248201527f455243313936373a206e657720696d706c656d656e746174696f6e206973206e60448201526c1bdd08184818dbdb9d1c9858dd609a1b6064820152608401610194565b7f360894a13ba1a3210667c828492db98dca3e2076cc3735a920a3ca505d382bbc80546001600160a01b0319166001600160a01b0392909216919091179055565b60605f80856001600160a01b0316856040516103319190610559565b5f60405180830381855af49150503d805f8114610369576040519150601f19603f3d011682016040523d82523d5f602084013e61036e565b606091505b509150915061037f86838387610389565b9695505050505050565b606083156103f75782515f036103f0576001600160a01b0385163b6103f05760405162461bcd60e51b815260206004820152601d60248201527f416464726573733a2063616c6c20746f206e6f6e2d636f6e74726163740000006044820152606401610194565b5081610401565b6104018383610409565b949350505050565b8151156104195781518083602001fd5b8060405162461bcd60e51b81526004016101949190610574565b80356001600160a01b0381168114610449575f80fd5b919050565b5f6020828403121561045e575f80fd5b61026082610433565b634e487b7160e01b5f52604160045260245ffd5b5f806040838503121561048c575f80fd5b61049583610433565b9150602083013567ffffffffffffffff808211156104b1575f80fd5b818501915085601f8301126104c4575f80fd5b8135818111156104d6576104d6610467565b604051601f8201601f19908116603f011681019083821181831017156104fe576104fe610467565b81604052828152886020848701011115610516575f80fd5b826020860160208301375f6020848301015280955050505050509250929050565b5f5b83811015610551578181015183820152602001610539565b50505f910152565b5f825161056a818460208701610537565b9190910192915050565b602081525f8251806020840152610592816040850160208701610537565b601f01601f1916919091016040019291505056fe416464726573733a206c6f772d6c6576656c2064656c65676174652063616c6c206661696c6564a2646970667358221220c193a7e1fae5659a150a6741f3194e5c3788a0c7c49e92ddeead5bf60155742d64736f6c63430008140033",
    "linkReferences": {}
  },
  "methodIdentifiers": {
    "current()": "9fa6a6e3",
    "increment()": "d09de08a",
    "proxiableUUID()": "52d1902d",
    "upgradeTo(address)": "3659cfe6",
    "upgradeToAndCall(address,bytes)": "4f1ef286"
  },
  "id": 130
}