{
  "abi": [
    {
      "type": "function",
      "name": "messageSender",
      "inputs": [],
      "outputs": [
        {
          "name": "",
          "type": "address",
          "internalType": "address"
        }
      ],
      "stateMutability": "view"
    },
    {
      "type": "function",
      "name": "relayAs",
      "inputs": [
        {
          "name": "target",
          "type": "address",
          "internalType": "address"
        },
        {
          "name": "data",
          "type": "bytes",
          "internalType": "bytes"
        },
        {
          "name": "sender",
          "type": "address",
          "internalType": "address"
        }
      ],
      "outputs": [],
      "stateMutability": "nonpayable"
    },
    {
      "type": "error",
      "name": "InvalidCrossChainSender",
      "inputs": [
        {
          "name": "sender",
          "type": "address",
          "internalType": "address"
        },
        {
          "name": "expected",
          "type": "address",
          "internalType": "address"
        }
      ]
    },
    {
      "type": "error",
      "name": "NotCrossChainCall",
      "inputs": []
    }
  ],
  "bytecode": {
    "object": "0x608060405234801561000f575f80fd5b506103358061001d5f395ff3fe608060405234801561000f575f80fd5b5060043610610034575f3560e01c8063d67bdd2514610038578063fb417a5b14610056575b5f80fd5b5f54604080516001600160a01b039092168252519081900360200190f35b610069610064366004610218565b61006b565b005b5f80546001600160a01b038381166001600160a01b03198316178355604051918116929182918816906100a190889088906102a5565b5f604051808303815f865af19150503d805f81146100da576040519150601f19603f3d011682016040523d82523d5f602084013e6100df565b606091505b50915091506101258783836040518060400160405280601781526020017f6c6f772d6c6576656c2063616c6c20726576657274656400000000000000000081525061014e565b50505f80546001600160a01b0319166001600160a01b0393909316929092179091555050505050565b606083156101c15782515f036101ba576001600160a01b0385163b6101ba5760405162461bcd60e51b815260206004820152601d60248201527f416464726573733a2063616c6c20746f206e6f6e2d636f6e747261637400000060448201526064015b60405180910390fd5b50816101cb565b6101cb83836101d3565b949350505050565b8151156101e35781518083602001fd5b8060405162461bcd60e51b81526004016101b191906102b4565b80356001600160a01b0381168114610213575f80fd5b919050565b5f805f806060858703121561022b575f80fd5b610234856101fd565b9350602085013567ffffffffffffffff80821115610250575f80fd5b818701915087601f830112610263575f80fd5b813581811115610271575f80fd5b886020828501011115610282575f80fd5b60208301955080945050505061029a604086016101fd565b905092959194509250565b818382375f9101908152919050565b5f6020808352835180828501525f5b818110156102df578581018301518582016040015282016102c3565b505f604082860101526040601f19601f830116850101925050509291505056fea2646970667358221220ea40d6a1749ed23a9960e804bb51cddc028e070ece62b23ca82638fe3041689164736f6c63430008140033",
    "linkReferences": {}
  },
  "methodIdentifiers": {
    "messageSender()": "d67bdd25",
    "relayAs(address,bytes,address)": "fb417a5b"
  },
  "id": 112
}