{
  "abi": [
    {
      "type": "function",
      "name": "bridge",
      "inputs": [],
      "outputs": [
        {
          "name": "",
          "type": "address",
          "internalType": "address"
        }
      ],
      "stateMutability": "view"
    }
  ],
  "bytecode": {
    "object": "0x60a0604052336080523480156012575f80fd5b5060805160a26100285f395f602e015260a25ff3fe6080604052348015600e575f80fd5b50600436106026575f3560e01c8063e78cea9214602a575b5f80fd5b60507f000000000000000000000000000000000000000000000000000000000000000081565b6040516001600160a01b03909116815260200160405180910390f3fea26469706673582212206694bedc8c573ab5cfef67f46a3616a4963219746ce3bef5f260ba002be8047c64736f6c63430008140033",
    "linkReferences": {}
  },
  "methodIdentifiers": {
    "bridge()": "e78cea92"
  },
  "id": 112
}