{
  "abi": [
    {
      "type": "function",
      "name": "bridge",
      "inputs": [],
      "outputs": [
        {
          "name": "",
          "type": "address",
          "internalType": "address"
        }
      ],
      "stateMutability": "view"
    },
    {
      "type": "function",
      "name": "l2ToL1Sender",
      "inputs": [],
      "outputs": [
        {
          "name": "",
          "type": "address",
          "internalType": "address"
        }
      ],
      "stateMutability": "view"
    }
  ],
  "bytecode": {
    "object": "0x60a060405233608052348015610013575f80fd5b5060805161016c6100315f395f8181606101526086015261016c5ff3fe608060405234801561000f575f80fd5b5060043610610034575f3560e01c806380648b0214610038578063e78cea921461005c575b5f80fd5b610040610083565b6040516001600160a01b03909116815260200160405180910390f35b6100407f000000000000000000000000000000000000000000000000000000000000000081565b5f7f00000000000000000000000000000000000000000000000000000000000000006001600160a01b03166370348f3e6040518163ffffffff1660e01b8152600401602060405180830381865afa1580156100e0573d5f803e3d5ffd5b505050506040513d601f19601f820116820180604052508101906101049190610109565b905090565b5f60208284031215610119575f80fd5b81516001600160a01b038116811461012f575f80fd5b939250505056fea264697066735822122001e1dc1945087a2fbbea285f2257b71daf4a8f650195814fb476483570fef20764736f6c63430008140033",
    "linkReferences": {}
  },
  "methodIdentifiers": {
    "bridge()": "e78cea92",
    "l2ToL1Sender()": "80648b02"
  },
  "id": 112
}