{
  "abi": [
    {
      "type": "function",
      "name": "relayAs",
      "inputs": [
        {
          "name": "target",
          "type": "address",
          "internalType": "address"
        },
        {
          "name": "data",
          "type": "bytes",
          "internalType": "bytes"
        },
        {
          "name": "sender",
          "type": "address",
          "internalType": "address"
        }
      ],
      "outputs": [],
      "stateMutability": "nonpayable"
    },
    {
      "type": "error",
      "name": "InvalidCrossChainSender",
      "inputs": [
        {
          "name": "sender",
          "type": "address",
          "internalType": "address"
        },
        {
          "name": "expected",
          "type": "address",
          "internalType": "address"
        }
      ]
    },
    {
      "type": "error",
      "name": "NotCrossChainCall",
      "inputs": []
    }
  ],
  "bytecode": {
    "object": "0x608060405234801561000f575f80fd5b506101cb8061001d5f395ff3fe608060405234801561000f575f80fd5b5060043610610029575f3560e01c8063fb417a5b1461002d575b5f80fd5b61004061003b3660046100c2565b610042565b005b604051639a7c4b7160e01b81526001600160a01b03851690639a7c4b7190610074905f9085908890889060040161014f565b5f604051808303815f87803b15801561008b575f80fd5b505af115801561009d573d5f803e3d5ffd5b5050505050505050565b80356001600160a01b03811681146100bd575f80fd5b919050565b5f805f80606085870312156100d5575f80fd5b6100de856100a7565b9350602085013567ffffffffffffffff808211156100fa575f80fd5b818701915087601f83011261010d575f80fd5b81358181111561011b575f80fd5b88602082850101111561012c575f80fd5b602083019550809450505050610144604086016100a7565b905092959194509250565b8481526001600160a01b03841660208201526060604082018190528101829052818360808301375f818301608090810191909152601f909201601f19160101939250505056fea26469706673582212206dca8297e4eaed82ffd748cf7f2a527ac111dfa13dd82f7dc0a068320e95fdcd64736f6c63430008140033",
    "linkReferences": {}
  },
  "methodIdentifiers": {
    "relayAs(address,bytes,address)": "fb417a5b"
  },
  "id": 112
}