{
  "abi": [
    {
      "type": "function",
      "name": "myCallersAddressWithoutAliasing",
      "inputs": [],
      "outputs": [
        {
          "name": "",
          "type": "address",
          "internalType": "address"
        }
      ],
      "stateMutability": "view"
    },
    {
      "type": "function",
      "name": "relayAs",
      "inputs": [
        {
          "name": "target",
          "type": "address",
          "internalType": "address"
        },
        {
          "name": "data",
          "type": "bytes",
          "internalType": "bytes"
        },
        {
          "name": "sender",
          "type": "address",
          "internalType": "address"
        }
      ],
      "outputs": [],
      "stateMutability": "nonpayable"
    },
    {
      "type": "function",
      "name": "wasMyCallersAddressAliased",
      "inputs": [],
      "outputs": [
        {
          "name": "",
          "type": "bool",
          "internalType": "bool"
        }
      ],
      "stateMutability": "view"
    },
    {
      "type": "error",
      "name": "InvalidCrossChainSender",
      "inputs": [
        {
          "name": "sender",
          "type": "address",
          "internalType": "address"
        },
        {
          "name": "expected",
          "type": "address",
          "internalType": "address"
        }
      ]
    },
    {
      "type": "error",
      "name": "NotCrossChainCall",
      "inputs": []
    }
  ],
  "bytecode": {
    "object": "0x608060405234801561000f575f80fd5b5061035d8061001d5f395ff3fe608060405234801561000f575f80fd5b506004361061003f575f3560e01c8063175a260b14610043578063d74523b314610064578063fb417a5b1461007e575b5f80fd5b5f546040516001600160a01b03909116151581526020015b60405180910390f35b5f546040516001600160a01b03909116815260200161005b565b61009161008c366004610240565b610093565b005b5f80546001600160a01b038381166001600160a01b03198316178355604051918116929182918816906100c990889088906102cd565b5f604051808303815f865af19150503d805f8114610102576040519150601f19603f3d011682016040523d82523d5f602084013e610107565b606091505b509150915061014d8783836040518060400160405280601781526020017f6c6f772d6c6576656c2063616c6c207265766572746564000000000000000000815250610176565b50505f80546001600160a01b0319166001600160a01b0393909316929092179091555050505050565b606083156101e95782515f036101e2576001600160a01b0385163b6101e25760405162461bcd60e51b815260206004820152601d60248201527f416464726573733a2063616c6c20746f206e6f6e2d636f6e747261637400000060448201526064015b60405180910390fd5b50816101f3565b6101f383836101fb565b949350505050565b81511561020b5781518083602001fd5b8060405162461bcd60e51b81526004016101d991906102dc565b80356001600160a01b038116811461023b575f80fd5b919050565b5f805f8060608587031215610253575f80fd5b61025c85610225565b9350602085013567ffffffffffffffff80821115610278575f80fd5b818701915087601f83011261028b575f80fd5b813581811115610299575f80fd5b8860208285010111156102aa575f80fd5b6020830195508094505050506102c260408601610225565b905092959194509250565b818382375f9101908152919050565b5f6020808352835180828501525f5b81811015610307578581018301518582016040015282016102eb565b505f604082860101526040601f19601f830116850101925050509291505056fea2646970667358221220a3b6d0e50cb9bb76e2cc6efc29303ab86e4c0e11a5a4f050021d231b047f823b64736f6c63430008140033",
    "linkReferences": {}
  },
  "methodIdentifiers": {
    "myCallersAddressWithoutAliasing()": "d74523b3",
    "relayAs(address,bytes,address)": "fb417a5b",
    "wasMyCallersAddressAliased()": "175a260b"
  },
  "id": 112
}