{
  "abi": [
    {
      "type": "constructor",
      "inputs": [
        {
          "name": "trustedForwarder",
          "type": "address",
          "internalType": "address"
        }
      ],
      "stateMutability": "nonpayable"
    },
    {
      "type": "function",
      "name": "isTrustedForwarder",
      "inputs": [
        {
          "name": "forwarder",
          "type": "address",
          "internalType": "address"
        }
      ],
      "outputs": [
        {
          "name": "",
          "type": "bool",
          "internalType": "bool"
        }
      ],
      "stateMutability": "view"
    },
    {
      "type": "function",
      "name": "msgData",
      "inputs": [
        {
          "name": "integerValue",
          "type": "uint256",
          "internalType": "uint256"
        },
        {
          "name": "stringValue",
          "type": "string",
          "internalType": "string"
        }
      ],
      "outputs": [],
      "stateMutability": "nonpayable"
    },
    {
      "type": "function",
      "name": "msgDataShort",
      "inputs": [],
      "outputs": [],
      "stateMutability": "nonpayable"
    },
    {
      "type": "function",
      "name": "msgSender",
      "inputs": [],
      "outputs": [],
      "stateMutability": "nonpayable"
    },
    {
      "type": "function",
      "name": "multicall",
      "inputs": [
        {
          "name": "data",
          "type": "bytes[]",
          "internalType": "bytes[]"
        }
      ],
      "outputs": [
        {
          "name": "results",
          "type": "bytes[]",
          "internalType": "bytes[]"
        }
      ],
      "stateMutability": "nonpayable"
    },
    {
      "type": "event",
      "name": "Data",
      "inputs": [
        {
          "name": "data",
          "type": "bytes",
          "indexed": false,
          "internalType": "bytes"
        },
        {
          "name": "integerValue",
          "type": "uint256",
          "indexed": false,
          "internalType": "uint256"
        },
        {
          "name": "stringValue",
          "type": "string",
          "indexed": false,
          "internalType": "string"
        }
      ],
      "anonymous": false
    },
    {
      "type": "event",
      "name": "DataShort",
      "inputs": [
        {
          "name": "data",
          "type": "bytes",
          "indexed": false,
          "internalType": "bytes"
        }
      ],
      "anonymous": false
    },
    {
      "type": "event",
      "name": "Sender",
      "inputs": [
        {
          "name": "sender",
          "type": "address",
          "indexed": false,
          "internalType": "address"
        }
      ],
      "anonymous": false
    }
  ],
  "bytecode": {
    "object": "0x60a060405234801561000f575f80fd5b50604051610afb380380610afb83398101604081905261002e916100ec565b6001600160a01b0381166080527fd6558c3ed910d959271054471fd1c326679d9fece99c5091b00ed89627cf2bfc610064610085565b6040516001600160a01b03909116815260200160405180910390a150610195565b5f61008e610093565b905090565b5f368160146080519091506001600160a01b0316331480156100b55750808210155b156100e4575f366100c68385610119565b6100d192829061013e565b6100da91610165565b60601c9250505090565b339250505090565b5f602082840312156100fc575f80fd5b81516001600160a01b0381168114610112575f80fd5b9392505050565b8181038181111561013857634e487b7160e01b5f52601160045260245ffd5b92915050565b5f808585111561014c575f80fd5b83861115610158575f80fd5b5050820193919092039150565b6001600160601b0319813581811691601485101561018d5780818660140360031b1b83161692505b505092915050565b60805161094e6101ad5f395f61010f015261094e5ff3fe608060405234801561000f575f80fd5b5060043610610055575f3560e01c8063376bf26214610059578063572b6c051461006e578063ac9650d814610096578063d737d0c7146100b6578063ff5f6b59146100be575b5f80fd5b61006c610067366004610540565b6100c6565b005b61008161007c3660046105f5565b61010d565b60405190151581526020015b60405180910390f35b6100a96100a436600461061b565b61013f565b60405161008d91906106d7565b61006c6102a5565b61006c6102ec565b7faf235354a0a47c91ee171961326335cb2d1a8e55b8a89859b0e61eb049e50ea06100ef610323565b8484604051610101949392919061075f565b60405180910390a15050565b7f00000000000000000000000000000000000000000000000000000000000000006001600160a01b0390811691161490565b60605f61014a610335565b6001600160a01b0316336001600160a01b0316146101b3575f3661016f6014826107a9565b61017a9282906107bc565b8080601f0160208091040260200160405190810160405280939291908181526020018383808284375f920191909152506101c292505050565b604080515f8152602081019091525b90508267ffffffffffffffff8111156101dd576101dd61052c565b60405190808252806020026020018201604052801561021057816020015b60608152602001906001900390816101fb5790505b5091505f5b8381101561029c5761026c30868684818110610233576102336107e3565b905060200281019061024591906107f7565b8560405160200161025893929190610841565b604051602081830303815290604052610343565b83828151811061027e5761027e6107e3565b6020026020010181905250808061029490610866565b915050610215565b50505b92915050565b7fd6558c3ed910d959271054471fd1c326679d9fece99c5091b00ed89627cf2bfc6102ce610335565b6040516001600160a01b0390911681526020015b60405180910390a1565b7f6d7cec71eba467294d92341ddc4e8634eb4d742a90e16f408f06e4b70bc4cd66610315610323565b6040516102e292919061087e565b365f61032d61036f565b915091509091565b5f61033e6103b9565b905090565b606061036883836040518060600160405280602781526020016108f260279139610409565b9392505050565b365f81601461037d3361010d565b80156103895750808210155b156103b2575f803661039b84866107a9565b926103a8939291906107bc565b9350935050509091565b5f366103a8565b5f3660146103c63361010d565b80156103d25750808210155b15610401575f366103e383856107a9565b6103ee9282906107bc565b6103f791610891565b60601c9250505090565b339250505090565b60605f80856001600160a01b03168560405161042591906108c4565b5f60405180830381855af49150503d805f811461045d576040519150601f19603f3d011682016040523d82523d5f602084013e610462565b606091505b50915091506104738683838761047d565b9695505050505050565b606083156104f05782515f036104e9576001600160a01b0385163b6104e95760405162461bcd60e51b815260206004820152601d60248201527f416464726573733a2063616c6c20746f206e6f6e2d636f6e747261637400000060448201526064015b60405180910390fd5b50816104fa565b6104fa8383610502565b949350505050565b8151156105125781518083602001fd5b8060405162461bcd60e51b81526004016104e091906108df565b634e487b7160e01b5f52604160045260245ffd5b5f8060408385031215610551575f80fd5b82359150602083013567ffffffffffffffff8082111561056f575f80fd5b818501915085601f830112610582575f80fd5b8135818111156105945761059461052c565b604051601f8201601f19908116603f011681019083821181831017156105bc576105bc61052c565b816040528281528860208487010111156105d4575f80fd5b826020860160208301375f6020848301015280955050505050509250929050565b5f60208284031215610605575f80fd5b81356001600160a01b0381168114610368575f80fd5b5f806020838503121561062c575f80fd5b823567ffffffffffffffff80821115610643575f80fd5b818501915085601f830112610656575f80fd5b813581811115610664575f80fd5b8660208260051b8501011115610678575f80fd5b60209290920196919550909350505050565b5f5b838110156106a457818101518382015260200161068c565b50505f910152565b5f81518084526106c381602086016020860161068a565b601f01601f19169290920160200192915050565b5f602080830181845280855180835260408601915060408160051b87010192508387015f5b8281101561072a57603f198886030184526107188583516106ac565b945092850192908501906001016106fc565b5092979650505050505050565b81835281816020850137505f828201602090810191909152601f909101601f19169091010190565b606081525f610772606083018688610737565b846020840152828103604084015261078a81856106ac565b979650505050505050565b634e487b7160e01b5f52601160045260245ffd5b8181038181111561029f5761029f610795565b5f80858511156107ca575f80fd5b838611156107d6575f80fd5b5050820193919092039150565b634e487b7160e01b5f52603260045260245ffd5b5f808335601e1984360301811261080c575f80fd5b83018035915067ffffffffffffffff821115610826575f80fd5b60200191503681900382131561083a575f80fd5b9250929050565b828482375f8382015f8152835161085c81836020880161068a565b0195945050505050565b5f6001820161087757610877610795565b5060010190565b602081525f6104fa602083018486610737565b6bffffffffffffffffffffffff19813581811691601485101561029c5760149490940360031b84901b1690921692915050565b5f82516108d581846020870161068a565b9190910192915050565b602081525f61036860208301846106ac56fe416464726573733a206c6f772d6c6576656c2064656c65676174652063616c6c206661696c6564a2646970667358221220494f86cd88bab3dea8f7bd3fc963ef91d75ff59325d76239d20982e301a5820564736f6c63430008140033",
    "linkReferences": {}
  },
  "methodIdentifiers": {
    "isTrustedForwarder(address)": "572b6c05",
    "msgData(uint256,string)": "376bf262",
    "msgDataShort()": "ff5f6b59",
    "msgSender()": "d737d0c7",
    "multicall(bytes[])": "ac9650d8"
  },
  "id": 92
}