{
  "abi": [
    {
      "type": "constructor",
      "inputs": [],
      "stateMutability": "nonpayable"
    },
    {
      "type": "function",
      "name": "CLOCK_MODE",
      "inputs": [],
      "outputs": [
        {
          "name": "",
          "type": "string",
          "internalType": "string"
        }
      ],
      "stateMutability": "pure"
    },
    {
      "type": "function",
      "name": "DOMAIN_SEPARATOR",
      "inputs": [],
      "outputs": [
        {
          "name": "",
          "type": "bytes32",
          "internalType": "bytes32"
        }
      ],
      "stateMutability": "view"
    },
    {
      "type": "function",
      "name": "allowance",
      "inputs": [
        {
          "name": "owner",
          "type": "address",
          "internalType": "address"
        },
        {
          "name": "spender",
          "type": "address",
          "internalType": "address"
        }
      ],
      "outputs": [
        {
          "name": "",
          "type": "uint256",
          "internalType": "uint256"
        }
      ],
      "stateMutability": "view"
    },
    {
      "type": "function",
      "name": "approve",
      "inputs": [
        {
          "name": "spender",
          "type": "address",
          "internalType": "address"
        },
        {
          "name": "amount",
          "type": "uint256",
          "internalType": "uint256"
        }
      ],
      "outputs": [
        {
          "name": "",
          "type": "bool",
          "internalType": "bool"
        }
      ],
      "stateMutability": "nonpayable"
    },
    {
      "type": "function",
      "name": "balanceOf",
      "inputs": [
        {
          "name": "account",
          "type": "address",
          "internalType": "address"
        }
      ],
      "outputs": [
        {
          "name": "",
          "type": "uint256",
          "internalType": "uint256"
        }
      ],
      "stateMutability": "view"
    },
    {
      "type": "function",
      "name": "checkpoints",
      "inputs": [
        {
          "name": "account",
          "type": "address",
          "internalType": "address"
        },
        {
          "name": "pos",
          "type": "uint32",
          "internalType": "uint32"
        }
      ],
      "outputs": [
        {
          "name": "",
          "type": "tuple",
          "internalType": "struct ERC20Votes.Checkpoint",
          "components": [
            {
              "name": "fromBlock",
              "type": "uint32",
              "internalType": "uint32"
            },
            {
              "name": "votes",
              "type": "uint224",
              "internalType": "uint224"
            }
          ]
        }
      ],
      "stateMutability": "view"
    },
    {
      "type": "function",
      "name": "clock",
      "inputs": [],
      "outputs": [
        {
          "name": "",
          "type": "uint48",
          "internalType": "uint48"
        }
      ],
      "stateMutability": "view"
    },
    {
      "type": "function",
      "name": "decimals",
      "inputs": [],
      "outputs": [
        {
          "name": "",
          "type": "uint8",
          "internalType": "uint8"
        }
      ],
      "stateMutability": "view"
    },
    {
      "type": "function",
      "name": "decreaseAllowance",
      "inputs": [
        {
          "name": "spender",
          "type": "address",
          "internalType": "address"
        },
        {
          "name": "subtractedValue",
          "type": "uint256",
          "internalType": "uint256"
        }
      ],
      "outputs": [
        {
          "name": "",
          "type": "bool",
          "internalType": "bool"
        }
      ],
      "stateMutability": "nonpayable"
    },
    {
      "type": "function",
      "name": "delegate",
      "inputs": [
        {
          "name": "delegatee",
          "type": "address",
          "internalType": "address"
        }
      ],
      "outputs": [],
      "stateMutability": "nonpayable"
    },
    {
      "type": "function",
      "name": "delegateBySig",
      "inputs": [
        {
          "name": "delegatee",
          "type": "address",
          "internalType": "address"
        },
        {
          "name": "nonce",
          "type": "uint256",
          "internalType": "uint256"
        },
        {
          "name": "expiry",
          "type": "uint256",
          "internalType": "uint256"
        },
        {
          "name": "v",
          "type": "uint8",
          "internalType": "uint8"
        },
        {
          "name": "r",
          "type": "bytes32",
          "internalType": "bytes32"
        },
        {
          "name": "s",
          "type": "bytes32",
          "internalType": "bytes32"
        }
      ],
      "outputs": [],
      "stateMutability": "nonpayable"
    },
    {
      "type": "function",
      "name": "delegates",
      "inputs": [
        {
          "name": "account",
          "type": "address",
          "internalType": "address"
        }
      ],
      "outputs": [
        {
          "name": "",
          "type": "address",
          "internalType": "address"
        }
      ],
      "stateMutability": "view"
    },
    {
      "type": "function",
      "name": "eip712Domain",
      "inputs": [],
      "outputs": [
        {
          "name": "fields",
          "type": "bytes1",
          "internalType": "bytes1"
        },
        {
          "name": "name",
          "type": "string",
          "internalType": "string"
        },
        {
          "name": "version",
          "type": "string",
          "internalType": "string"
        },
        {
          "name": "chainId",
          "type": "uint256",
          "internalType": "uint256"
        },
        {
          "name": "verifyingContract",
          "type": "address",
          "internalType": "address"
        },
        {
          "name": "salt",
          "type": "bytes32",
          "internalType": "bytes32"
        },
        {
          "name": "extensions",
          "type": "uint256[]",
          "internalType": "uint256[]"
        }
      ],
      "stateMutability": "view"
    },
    {
      "type": "function",
      "name": "getPastTotalSupply",
      "inputs": [
        {
          "name": "timepoint",
          "type": "uint256",
          "internalType": "uint256"
        }
      ],
      "outputs": [
        {
          "name": "",
          "type": "uint256",
          "internalType": "uint256"
        }
      ],
      "stateMutability": "view"
    },
    {
      "type": "function",
      "name": "getPastVotes",
      "inputs": [
        {
          "name": "account",
          "type": "address",
          "internalType": "address"
        },
        {
          "name": "timepoint",
          "type": "uint256",
          "internalType": "uint256"
        }
      ],
      "outputs": [
        {
          "name": "",
          "type": "uint256",
          "internalType": "uint256"
        }
      ],
      "stateMutability": "view"
    },
    {
      "type": "function",
      "name": "getVotes",
      "inputs": [
        {
          "name": "account",
          "type": "address",
          "internalType": "address"
        }
      ],
      "outputs": [
        {
          "name": "",
          "type": "uint256",
          "internalType": "uint256"
        }
      ],
      "stateMutability": "view"
    },
    {
      "type": "function",
      "name": "increaseAllowance",
      "inputs": [
        {
          "name": "spender",
          "type": "address",
          "internalType": "address"
        },
        {
          "name": "addedValue",
          "type": "uint256",
          "internalType": "uint256"
        }
      ],
      "outputs": [
        {
          "name": "",
          "type": "bool",
          "internalType": "bool"
        }
      ],
      "stateMutability": "nonpayable"
    },
    {
      "type": "function",
      "name": "name",
      "inputs": [],
      "outputs": [
        {
          "name": "",
          "type": "string",
          "internalType": "string"
        }
      ],
      "stateMutability": "view"
    },
    {
      "type": "function",
      "name": "nonces",
      "inputs": [
        {
          "name": "owner",
          "type": "address",
          "internalType": "address"
        }
      ],
      "outputs": [
        {
          "name": "",
          "type": "uint256",
          "internalType": "uint256"
        }
      ],
      "stateMutability": "view"
    },
    {
      "type": "function",
      "name": "numCheckpoints",
      "inputs": [
        {
          "name": "account",
          "type": "address",
          "internalType": "address"
        }
      ],
      "outputs": [
        {
          "name": "",
          "type": "uint32",
          "internalType": "uint32"
        }
      ],
      "stateMutability": "view"
    },
    {
      "type": "function",
      "name": "permit",
      "inputs": [
        {
          "name": "owner",
          "type": "address",
          "internalType": "address"
        },
        {
          "name": "spender",
          "type": "address",
          "internalType": "address"
        },
        {
          "name": "value",
          "type": "uint256",
          "internalType": "uint256"
        },
        {
          "name": "deadline",
          "type": "uint256",
          "internalType": "uint256"
        },
        {
          "name": "v",
          "type": "uint8",
          "internalType": "uint8"
        },
        {
          "name": "r",
          "type": "bytes32",
          "internalType": "bytes32"
        },
        {
          "name": "s",
          "type": "bytes32",
          "internalType": "bytes32"
        }
      ],
      "outputs": [],
      "stateMutability": "nonpayable"
    },
    {
      "type": "function",
      "name": "symbol",
      "inputs": [],
      "outputs": [
        {
          "name": "",
          "type": "string",
          "internalType": "string"
        }
      ],
      "stateMutability": "view"
    },
    {
      "type": "function",
      "name": "totalSupply",
      "inputs": [],
      "outputs": [
        {
          "name": "",
          "type": "uint256",
          "internalType": "uint256"
        }
      ],
      "stateMutability": "view"
    },
    {
      "type": "function",
      "name": "transfer",
      "inputs": [
        {
          "name": "to",
          "type": "address",
          "internalType": "address"
        },
        {
          "name": "amount",
          "type": "uint256",
          "internalType": "uint256"
        }
      ],
      "outputs": [
        {
          "name": "",
          "type": "bool",
          "internalType": "bool"
        }
      ],
      "stateMutability": "nonpayable"
    },
    {
      "type": "function",
      "name": "transferFrom",
      "inputs": [
        {
          "name": "from",
          "type": "address",
          "internalType": "address"
        },
        {
          "name": "to",
          "type": "address",
          "internalType": "address"
        },
        {
          "name": "amount",
          "type": "uint256",
          "internalType": "uint256"
        }
      ],
      "outputs": [
        {
          "name": "",
          "type": "bool",
          "internalType": "bool"
        }
      ],
      "stateMutability": "nonpayable"
    },
    {
      "type": "event",
      "name": "Approval",
      "inputs": [
        {
          "name": "owner",
          "type": "address",
          "indexed": true,
          "internalType": "address"
        },
        {
          "name": "spender",
          "type": "address",
          "indexed": true,
          "internalType": "address"
        },
        {
          "name": "value",
          "type": "uint256",
          "indexed": false,
          "internalType": "uint256"
        }
      ],
      "anonymous": false
    },
    {
      "type": "event",
      "name": "DelegateChanged",
      "inputs": [
        {
          "name": "delegator",
          "type": "address",
          "indexed": true,
          "internalType": "address"
        },
        {
          "name": "fromDelegate",
          "type": "address",
          "indexed": true,
          "internalType": "address"
        },
        {
          "name": "toDelegate",
          "type": "address",
          "indexed": true,
          "internalType": "address"
        }
      ],
      "anonymous": false
    },
    {
      "type": "event",
      "name": "DelegateVotesChanged",
      "inputs": [
        {
          "name": "delegate",
          "type": "address",
          "indexed": true,
          "internalType": "address"
        },
        {
          "name": "previousBalance",
          "type": "uint256",
          "indexed": false,
          "internalType": "uint256"
        },
        {
          "name": "newBalance",
          "type": "uint256",
          "indexed": false,
          "internalType": "uint256"
        }
      ],
      "anonymous": false
    },
    {
      "type": "event",
      "name": "EIP712DomainChanged",
      "inputs": [],
      "anonymous": false
    },
    {
      "type": "event",
      "name": "Transfer",
      "inputs": [
        {
          "name": "from",
          "type": "address",
          "indexed": true,
          "internalType": "address"
        },
        {
          "name": "to",
          "type": "address",
          "indexed": true,
          "internalType": "address"
        },
        {
          "name": "value",
          "type": "uint256",
          "indexed": false,
          "internalType": "uint256"
        }
      ],
      "anonymous": false
    },
    {
      "type": "error",
      "name": "InvalidShortString",
      "inputs": []
    },
    {
      "type": "error",
      "name": "StringTooLong",
      "inputs": [
        {
          "name": "str",
          "type": "string",
          "internalType": "string"
        }
      ]
    }
  ],
  "bytecode": {
    "object": "0x61016060405234801562000011575f80fd5b506040518060400160405280601581526020017f4d79546f6b656e54696d657374616d704261736564000000000000000000000081525080604051806040016040528060018152602001603160f81b8152506040518060400160405280601581526020017f4d79546f6b656e54696d657374616d7042617365640000000000000000000000815250604051806040016040528060038152602001624d544b60e81b8152508160039081620000c69190620002b8565b506004620000d58282620002b8565b50620000e79150839050600562000195565b61012052620000f881600662000195565b61014052815160208084019190912060e052815190820120610100524660a0526200018560e05161010051604080517f8b73c3c69bb8fe3d512ecc4cf759cc79239f7b179b0ffacaa9a75d522b39400f60208201529081019290925260608201524660808201523060a08201525f9060c00160405160208183030381529060405280519060200120905090565b60805250503060c05250620003f1565b5f602083511015620001b457620001ac83620001cd565b9050620001c7565b81620001c18482620002b8565b5060ff90505b92915050565b5f80829050601f8151111562000203578260405163305a27a960e01b8152600401620001fa919062000380565b60405180910390fd5b80516200021082620003cd565b179392505050565b634e487b7160e01b5f52604160045260245ffd5b600181811c908216806200024157607f821691505b6020821081036200026057634e487b7160e01b5f52602260045260245ffd5b50919050565b601f821115620002b3575f81815260208120601f850160051c810160208610156200028e5750805b601f850160051c820191505b81811015620002af578281556001016200029a565b5050505b505050565b81516001600160401b03811115620002d457620002d462000218565b620002ec81620002e584546200022c565b8462000266565b602080601f83116001811462000322575f84156200030a5750858301515b5f19600386901b1c1916600185901b178555620002af565b5f85815260208120601f198616915b82811015620003525788860151825594840194600190910190840162000331565b50858210156200037057878501515f19600388901b60f8161c191681555b5050505050600190811b01905550565b5f6020808352835180828501525f5b81811015620003ad578581018301518582016040015282016200038f565b505f604082860101526040601f19601f8301168501019250505092915050565b8051602080830151919081101562000260575f1960209190910360031b1b16919050565b60805160a05160c05160e051610100516101205161014051611d78620004435f395f6105f301525f6105c801525f610f1101525f610ee901525f610e4401525f610e6e01525f610e980152611d785ff3fe608060405234801561000f575f80fd5b506004361061016d575f3560e01c806370a08231116100d95780639ab24eb011610093578063c3cda5201161006e578063c3cda5201461037e578063d505accf14610391578063dd62ed3e146103a4578063f1127ed8146103b7575f80fd5b80639ab24eb014610345578063a457c2d714610358578063a9059cbb1461036b575f80fd5b806370a08231146102be5780637ecebe00146102e657806384b0196e146102f95780638e539e8c1461031457806391ddadf41461032757806395d89b411461033d575f80fd5b8063395093511161012a57806339509351146101ee5780633a46b1a8146102015780634bf5d7e914610214578063587cde1e1461023e5780635c19a95c146102815780636fcfff4514610296575f80fd5b806306fdde0314610171578063095ea7b31461018f57806318160ddd146101b257806323b872dd146101c4578063313ce567146101d75780633644e515146101e6575b5f80fd5b6101796103f4565b60405161018691906119f2565b60405180910390f35b6101a261019d366004611a1f565b610484565b6040519015158152602001610186565b6002545b604051908152602001610186565b6101a26101d2366004611a47565b61049d565b60405160128152602001610186565b6101b66104c0565b6101a26101fc366004611a1f565b6104ce565b6101b661020f366004611a1f565b6104ef565b60408051808201909152600e81526d06d6f64653d74696d657374616d760941b6020820152610179565b61026961024c366004611a80565b6001600160a01b039081165f908152600960205260409020541690565b6040516001600160a01b039091168152602001610186565b61029461028f366004611a80565b610570565b005b6102a96102a4366004611a80565b61057d565b60405163ffffffff9091168152602001610186565b6101b66102cc366004611a80565b6001600160a01b03165f9081526020819052604090205490565b6101b66102f4366004611a80565b61059e565b6103016105bb565b6040516101869796959493929190611a99565b6101b6610322366004611b2d565b610642565b60405165ffffffffffff42168152602001610186565b6101796106a1565b6101b6610353366004611a80565b6106b0565b6101a2610366366004611a1f565b61072d565b6101a2610379366004611a1f565b6107a7565b61029461038c366004611b54565b6107b4565b61029461039f366004611ba8565b6108e9565b6101b66103b2366004611c0d565b610a4a565b6103ca6103c5366004611c3e565b610a74565b60408051825163ffffffff1681526020928301516001600160e01b03169281019290925201610186565b60606003805461040390611c7b565b80601f016020809104026020016040519081016040528092919081815260200182805461042f90611c7b565b801561047a5780601f106104515761010080835404028352916020019161047a565b820191905f5260205f20905b81548152906001019060200180831161045d57829003601f168201915b5050505050905090565b5f33610491818585610af5565b60019150505b92915050565b5f336104aa858285610c18565b6104b5858585610c90565b506001949350505050565b5f6104c9610e38565b905090565b5f336104918185856104e08383610a4a565b6104ea9190611cc1565b610af5565b5f4265ffffffffffff1682106105485760405162461bcd60e51b815260206004820152601960248201527804552433230566f7465733a20667574757265206c6f6f6b757603c1b60448201526064015b60405180910390fd5b6001600160a01b0383165f908152600a602052604090206105699083610f61565b9392505050565b61057a3382611042565b50565b6001600160a01b0381165f908152600a6020526040812054610497906110ba565b6001600160a01b0381165f90815260076020526040812054610497565b5f606080828080836105ee7f00000000000000000000000000000000000000000000000000000000000000006005611122565b6106197f00000000000000000000000000000000000000000000000000000000000000006006611122565b604080515f80825260208201909252600f60f81b9b939a50919850469750309650945092509050565b5f4265ffffffffffff1682106106965760405162461bcd60e51b815260206004820152601960248201527804552433230566f7465733a20667574757265206c6f6f6b757603c1b604482015260640161053f565b610497600b83610f61565b60606004805461040390611c7b565b6001600160a01b0381165f908152600a6020526040812054801561071b576001600160a01b0383165f908152600a6020526040902080545f1983019081106106fa576106fa611cd4565b5f9182526020909120015464010000000090046001600160e01b031661071d565b5f5b6001600160e01b03169392505050565b5f338161073a8286610a4a565b90508381101561079a5760405162461bcd60e51b815260206004820152602560248201527f45524332303a2064656372656173656420616c6c6f77616e63652062656c6f77604482015264207a65726f60d81b606482015260840161053f565b6104b58286868403610af5565b5f33610491818585610c90565b834211156108045760405162461bcd60e51b815260206004820152601d60248201527f4552433230566f7465733a207369676e61747572652065787069726564000000604482015260640161053f565b604080517fe48329057bfd03d55e49b547132e39cffd9c1820ad7b9d4c5307691425d15adf60208201526001600160a01b0388169181019190915260608101869052608081018590525f9061087d906108759060a001604051602081830303815290604052805190602001206111cb565b8585856111f7565b90506108888161121d565b86146108d65760405162461bcd60e51b815260206004820152601960248201527f4552433230566f7465733a20696e76616c6964206e6f6e636500000000000000604482015260640161053f565b6108e08188611042565b50505050505050565b834211156109395760405162461bcd60e51b815260206004820152601d60248201527f45524332305065726d69743a206578706972656420646561646c696e65000000604482015260640161053f565b5f7f6e71edae12b1b97f4d1f60370fef10105fa2faae0126114a169c64845d6126c98888886109678c61121d565b6040805160208101969096526001600160a01b0394851690860152929091166060840152608083015260a082015260c0810186905260e0016040516020818303038152906040528051906020012090505f6109c1826111cb565b90505f6109d0828787876111f7565b9050896001600160a01b0316816001600160a01b031614610a335760405162461bcd60e51b815260206004820152601e60248201527f45524332305065726d69743a20696e76616c6964207369676e61747572650000604482015260640161053f565b610a3e8a8a8a610af5565b50505050505050505050565b6001600160a01b039182165f90815260016020908152604080832093909416825291909152205490565b604080518082019091525f80825260208201526001600160a01b0383165f908152600a60205260409020805463ffffffff8416908110610ab657610ab6611cd4565b5f9182526020918290206040805180820190915291015463ffffffff8116825264010000000090046001600160e01b0316918101919091529392505050565b6001600160a01b038316610b575760405162461bcd60e51b8152602060048201526024808201527f45524332303a20617070726f76652066726f6d20746865207a65726f206164646044820152637265737360e01b606482015260840161053f565b6001600160a01b038216610bb85760405162461bcd60e51b815260206004820152602260248201527f45524332303a20617070726f766520746f20746865207a65726f206164647265604482015261737360f01b606482015260840161053f565b6001600160a01b038381165f8181526001602090815260408083209487168084529482529182902085905590518481527f8c5be1e5ebec7d5bd14f71427d1e84f3dd0314c0f7b2291e5b200ac8c7c3b925910160405180910390a3505050565b5f610c238484610a4a565b90505f198114610c8a5781811015610c7d5760405162461bcd60e51b815260206004820152601d60248201527f45524332303a20696e73756666696369656e7420616c6c6f77616e6365000000604482015260640161053f565b610c8a8484848403610af5565b50505050565b6001600160a01b038316610cf45760405162461bcd60e51b815260206004820152602560248201527f45524332303a207472616e736665722066726f6d20746865207a65726f206164604482015264647265737360d81b606482015260840161053f565b6001600160a01b038216610d565760405162461bcd60e51b815260206004820152602360248201527f45524332303a207472616e7366657220746f20746865207a65726f206164647260448201526265737360e81b606482015260840161053f565b6001600160a01b0383165f9081526020819052604090205481811015610dcd5760405162461bcd60e51b815260206004820152602660248201527f45524332303a207472616e7366657220616d6f756e7420657863656564732062604482015265616c616e636560d01b606482015260840161053f565b6001600160a01b038481165f81815260208181526040808320878703905593871680835291849020805487019055925185815290927fddf252ad1be2c89b69c2b068fc378daa952ba7f163c4a11628f55a4df523b3ef910160405180910390a3610c8a848484611249565b5f306001600160a01b037f000000000000000000000000000000000000000000000000000000000000000016148015610e9057507f000000000000000000000000000000000000000000000000000000000000000046145b15610eba57507f000000000000000000000000000000000000000000000000000000000000000090565b6104c9604080517f8b73c3c69bb8fe3d512ecc4cf759cc79239f7b179b0ffacaa9a75d522b39400f60208201527f0000000000000000000000000000000000000000000000000000000000000000918101919091527f000000000000000000000000000000000000000000000000000000000000000060608201524660808201523060a08201525f9060c00160405160208183030381529060405280519060200120905090565b81545f9081816005811115610fb8575f610f7a84611254565b610f849085611ce8565b5f88815260209020909150869082015463ffffffff161115610fa857809150610fb6565b610fb3816001611cc1565b92505b505b80821015611003575f610fcb8383611338565b5f88815260209020909150869082015463ffffffff161115610fef57809150610ffd565b610ffa816001611cc1565b92505b50610fb8565b801561102d575f8681526020902081015f19015464010000000090046001600160e01b031661102f565b5f5b6001600160e01b03169695505050505050565b6001600160a01b038281165f818152600960208181526040808420805485845282862054949093528787166001600160a01b03198416811790915590519190951694919391928592917f3134e8a2e6d97e929a7e54011ea5485d7d196dd5f0ba4d4ef95803e8e3fc257f9190a4610c8a828483611352565b5f63ffffffff82111561111e5760405162461bcd60e51b815260206004820152602660248201527f53616665436173743a2076616c756520646f65736e27742066697420696e203360448201526532206269747360d01b606482015260840161053f565b5090565b606060ff831461113c576111358361148c565b9050610497565b81805461114890611c7b565b80601f016020809104026020016040519081016040528092919081815260200182805461117490611c7b565b80156111bf5780601f10611196576101008083540402835291602001916111bf565b820191905f5260205f20905b8154815290600101906020018083116111a257829003601f168201915b50505050509050610497565b5f6104976111d7610e38565b8360405161190160f01b8152600281019290925260228201526042902090565b5f805f611206878787876114c9565b9150915061121381611586565b5095945050505050565b6001600160a01b0381165f9081526007602052604090208054600181018255905b50919050565b505050565b6112448383836116cf565b5f815f0361126357505f919050565b5f600161126f84611700565b901c6001901b9050600181848161128857611288611cfb565b048201901c905060018184816112a0576112a0611cfb565b048201901c905060018184816112b8576112b8611cfb565b048201901c905060018184816112d0576112d0611cfb565b048201901c905060018184816112e8576112e8611cfb565b048201901c9050600181848161130057611300611cfb565b048201901c9050600181848161131857611318611cfb565b048201901c90506105698182858161133257611332611cfb565b04611793565b5f6113466002848418611d0f565b61056990848416611cc1565b816001600160a01b0316836001600160a01b03161415801561137357505f81115b15611244576001600160a01b03831615611400576001600160a01b0383165f908152600a6020526040812081906113ad906117a8856117b3565b91509150846001600160a01b03167fdec2bacdd2f05b59de34da9b523dff8be42e5e38e818c82fdb0bae774387a72483836040516113f5929190918252602082015260400190565b60405180910390a250505b6001600160a01b03821615611244576001600160a01b0382165f908152600a60205260408120819061143590611915856117b3565b91509150836001600160a01b03167fdec2bacdd2f05b59de34da9b523dff8be42e5e38e818c82fdb0bae774387a724838360405161147d929190918252602082015260400190565b60405180910390a25050505050565b60605f61149883611920565b6040805160208082528183019092529192505f91906020820181803683375050509182525060208101929092525090565b5f807f7fffffffffffffffffffffffffffffff5d576e7357a4501ddfe92f46681b20a08311156114fe57505f9050600361157d565b604080515f8082526020820180845289905260ff881692820192909252606081018690526080810185905260019060a0016020604051602081039080840390855afa15801561154f573d5f803e3d5ffd5b5050604051601f1901519150506001600160a01b038116611577575f6001925092505061157d565b91505f90505b94509492505050565b5f81600481111561159957611599611d2e565b036115a15750565b60018160048111156115b5576115b5611d2e565b036116025760405162461bcd60e51b815260206004820152601860248201527f45434453413a20696e76616c6964207369676e61747572650000000000000000604482015260640161053f565b600281600481111561161657611616611d2e565b036116635760405162461bcd60e51b815260206004820152601f60248201527f45434453413a20696e76616c6964207369676e6174757265206c656e67746800604482015260640161053f565b600381600481111561167757611677611d2e565b0361057a5760405162461bcd60e51b815260206004820152602260248201527f45434453413a20696e76616c6964207369676e6174757265202773272076616c604482015261756560f01b606482015260840161053f565b6001600160a01b038381165f9081526009602052604080822054858416835291205461124492918216911683611352565b5f80608083901c1561171457608092831c92015b604083901c1561172657604092831c92015b602083901c1561173857602092831c92015b601083901c1561174a57601092831c92015b600883901c1561175c57600892831c92015b600483901c1561176e57600492831c92015b600283901c1561178057600292831c92015b600183901c156104975760010192915050565b5f8183106117a15781610569565b5090919050565b5f6105698284611ce8565b82545f9081908181156117fd575f8781526020902082015f190160408051808201909152905463ffffffff8116825264010000000090046001600160e01b03166020820152611811565b604080518082019091525f80825260208201525b905080602001516001600160e01b0316935061183184868863ffffffff16565b92505f821180156118505750805163ffffffff1665ffffffffffff4216145b156118935761185e83611947565b5f8881526020902083015f190180546001600160e01b03929092166401000000000263ffffffff90921691909117905561190b565b8660405180604001604052806118b66118a94290565b65ffffffffffff166110ba565b63ffffffff1681526020016118ca86611947565b6001600160e01b0390811690915282546001810184555f938452602093849020835194909301519091166401000000000263ffffffff909316929092179101555b5050935093915050565b5f6105698284611cc1565b5f60ff8216601f81111561049757604051632cd44ac360e21b815260040160405180910390fd5b5f6001600160e01b0382111561111e5760405162461bcd60e51b815260206004820152602760248201527f53616665436173743a2076616c756520646f65736e27742066697420696e20326044820152663234206269747360c81b606482015260840161053f565b5f81518084525f5b818110156119d3576020818501810151868301820152016119b7565b505f602082860101526020601f19601f83011685010191505092915050565b602081525f61056960208301846119af565b80356001600160a01b0381168114611a1a575f80fd5b919050565b5f8060408385031215611a30575f80fd5b611a3983611a04565b946020939093013593505050565b5f805f60608486031215611a59575f80fd5b611a6284611a04565b9250611a7060208501611a04565b9150604084013590509250925092565b5f60208284031215611a90575f80fd5b61056982611a04565b60ff60f81b881681525f602060e081840152611ab860e084018a6119af565b8381036040850152611aca818a6119af565b606085018990526001600160a01b038816608086015260a0850187905284810360c086015285518082528387019250908301905f5b81811015611b1b57835183529284019291840191600101611aff565b50909c9b505050505050505050505050565b5f60208284031215611b3d575f80fd5b5035919050565b803560ff81168114611a1a575f80fd5b5f805f805f8060c08789031215611b69575f80fd5b611b7287611a04565b95506020870135945060408701359350611b8e60608801611b44565b92506080870135915060a087013590509295509295509295565b5f805f805f805f60e0888a031215611bbe575f80fd5b611bc788611a04565b9650611bd560208901611a04565b95506040880135945060608801359350611bf160808901611b44565b925060a0880135915060c0880135905092959891949750929550565b5f8060408385031215611c1e575f80fd5b611c2783611a04565b9150611c3560208401611a04565b90509250929050565b5f8060408385031215611c4f575f80fd5b611c5883611a04565b9150602083013563ffffffff81168114611c70575f80fd5b809150509250929050565b600181811c90821680611c8f57607f821691505b60208210810361123e57634e487b7160e01b5f52602260045260245ffd5b634e487b7160e01b5f52601160045260245ffd5b8082018082111561049757610497611cad565b634e487b7160e01b5f52603260045260245ffd5b8181038181111561049757610497611cad565b634e487b7160e01b5f52601260045260245ffd5b5f82611d2957634e487b7160e01b5f52601260045260245ffd5b500490565b634e487b7160e01b5f52602160045260245ffdfea264697066735822122037486657e96a43afa68eb9f4a49b750a84811efe70e31ed0bade84ad8f72496a64736f6c63430008140033",
    "linkReferences": {}
  },
  "methodIdentifiers": {
    "CLOCK_MODE()": "4bf5d7e9",
    "DOMAIN_SEPARATOR()": "3644e515",
    "allowance(address,address)": "dd62ed3e",
    "approve(address,uint256)": "095ea7b3",
    "balanceOf(address)": "70a08231",
    "checkpoints(address,uint32)": "f1127ed8",
    "clock()": "91ddadf4",
    "decimals()": "313ce567",
    "decreaseAllowance(address,uint256)": "a457c2d7",
    "delegate(address)": "5c19a95c",
    "delegateBySig(address,uint256,uint256,uint8,bytes32,bytes32)": "c3cda520",
    "delegates(address)": "587cde1e",
    "eip712Domain()": "84b0196e",
    "getPastTotalSupply(uint256)": "8e539e8c",
    "getPastVotes(address,uint256)": "3a46b1a8",
    "getVotes(address)": "9ab24eb0",
    "increaseAllowance(address,uint256)": "39509351",
    "name()": "06fdde03",
    "nonces(address)": "7ecebe00",
    "numCheckpoints(address)": "6fcfff45",
    "permit(address,address,uint256,uint256,uint8,bytes32,bytes32)": "d505accf",
    "symbol()": "95d89b41",
    "totalSupply()": "18160ddd",
    "transfer(address,uint256)": "a9059cbb",
    "transferFrom(address,address,uint256)": "23b872dd"
  },
  "id": 117
}