{
  "abi": [
    {
      "type": "function",
      "name": "checkReturnValues",
      "inputs": [
        {
          "name": "multicallToken",
          "type": "address",
          "internalType": "contract ERC20MulticallMock"
        },
        {
          "name": "recipients",
          "type": "address[]",
          "internalType": "address[]"
        },
        {
          "name": "amounts",
          "type": "uint256[]",
          "internalType": "uint256[]"
        }
      ],
      "outputs": [],
      "stateMutability": "nonpayable"
    }
  ],
  "bytecode": {
    "object": "0x608060405234801561000f575f80fd5b5061059c8061001d5f395ff3fe608060405234801561000f575f80fd5b5060043610610029575f3560e01c8063b568d0161461002d575b5f80fd5b61004061003b366004610283565b610042565b005b5f8367ffffffffffffffff81111561005c5761005c610300565b60405190808252806020026020018201604052801561008f57816020015b606081526020019060019003908161007a5790505b5090505f5b84811015610155578585828181106100ae576100ae610314565b90506020020160208101906100c39190610328565b8484838181106100d5576100d5610314565b6040516001600160a01b039094166024850152602002919091013560448301525060640160408051601f198184030181529190526020810180516001600160e01b031663a9059cbb60e01b179052825183908390811061013757610137610314565b6020026020010181905250808061014d9061034a565b915050610094565b50604051631592ca1b60e31b81525f906001600160a01b0388169063ac9650d890610184908590600401610390565b5f604051808303815f875af115801561019f573d5f803e3d5ffd5b505050506040513d5f823e601f3d908101601f191682016040526101c69190810190610439565b90505f5b815181101561021a578181815181106101e5576101e5610314565b60200260200101518060200190518101906102009190610547565b610208575f80fd5b806102128161034a565b9150506101ca565b5050505050505050565b6001600160a01b0381168114610238575f80fd5b50565b5f8083601f84011261024b575f80fd5b50813567ffffffffffffffff811115610262575f80fd5b6020830191508360208260051b850101111561027c575f80fd5b9250929050565b5f805f805f60608688031215610297575f80fd5b85356102a281610224565b9450602086013567ffffffffffffffff808211156102be575f80fd5b6102ca89838a0161023b565b909650945060408801359150808211156102e2575f80fd5b506102ef8882890161023b565b969995985093965092949392505050565b634e487b7160e01b5f52604160045260245ffd5b634e487b7160e01b5f52603260045260245ffd5b5f60208284031215610338575f80fd5b813561034381610224565b9392505050565b5f6001820161036757634e487b7160e01b5f52601160045260245ffd5b5060010190565b5f5b83811015610388578181015183820152602001610370565b50505f910152565b5f602080830181845280855180835260408601915060408160051b87010192508387015f5b828110156103fb57878503603f19018452815180518087526103dc818989018a850161036e565b601f01601f1916959095018601945092850192908501906001016103b5565b5092979650505050505050565b604051601f8201601f1916810167ffffffffffffffff8111828210171561043157610431610300565b604052919050565b5f602080838503121561044a575f80fd5b825167ffffffffffffffff80821115610461575f80fd5b8185019150601f8681840112610475575f80fd5b82518281111561048757610487610300565b8060051b610496868201610408565b918252848101860191868101908a8411156104af575f80fd5b87870192505b83831015610539578251868111156104cc575f8081fd5b8701603f81018c136104dd575f8081fd5b888101516040888211156104f3576104f3610300565b610504828901601f19168c01610408565b8281528e82848601011115610518575f8081fd5b610527838d830184870161036e565b855250505091870191908701906104b5565b9a9950505050505050505050565b5f60208284031215610557575f80fd5b81518015158114610343575f80fdfea2646970667358221220941cd754267b905221c89483ffe9affae36326143cb06fc87e7ae1528c2185e464736f6c63430008140033",
    "linkReferences": {}
  },
  "methodIdentifiers": {
    "checkReturnValues(address,address[],uint256[])": "b568d016"
  },
  "id": 97
}